{
  "_format": "hh-sol-artifact-1",
  "contractName": "BridgeReceiver",
  "sourceName": "contracts/BridgeReceiver.sol",
  "abi": [
    {
      "inputs": [
        {
          "internalType": "address",
          "name": "_pointsModule",
          "type": "address"
        }
      ],
      "stateMutability": "nonpayable",
      "type": "constructor"
    },
    {
      "anonymous": false,
      "inputs": [
        {
          "indexed": true,
          "internalType": "bytes32",
          "name": "txId",
          "type": "bytes32"
        },
        {
          "indexed": true,
          "internalType": "address",
          "name": "user",
          "type": "address"
        },
        {
          "indexed": false,
          "internalType": "address",
          "name": "token",
          "type": "address"
        },
        {
          "indexed": false,
          "internalType": "uint256",
          "name": "amount",
          "type": "uint256"
        },
        {
          "indexed": false,
          "internalType": "address",
          "name": "to",
          "type": "address"
        }
      ],
      "name": "BridgeExecuted",
      "type": "event"
    },
    {
      "anonymous": false,
      "inputs": [
        {
          "indexed": true,
          "internalType": "address",
          "name": "previousOwner",
          "type": "address"
        },
        {
          "indexed": true,
          "internalType": "address",
          "name": "newOwner",
          "type": "address"
        }
      ],
      "name": "OwnershipTransferred",
      "type": "event"
    },
    {
      "anonymous": false,
      "inputs": [
        {
          "indexed": false,
          "internalType": "address",
          "name": "account",
          "type": "address"
        }
      ],
      "name": "Paused",
      "type": "event"
    },
    {
      "anonymous": false,
      "inputs": [
        {
          "indexed": false,
          "internalType": "address",
          "name": "account",
          "type": "address"
        }
      ],
      "name": "Unpaused",
      "type": "event"
    },
    {
      "inputs": [],
      "name": "BRIDGE_POINTS",
      "outputs": [
        {
          "internalType": "uint256",
          "name": "",
          "type": "uint256"
        }
      ],
      "stateMutability": "view",
      "type": "function"
    },
    {
      "inputs": [
        {
          "internalType": "uint256",
          "name": "chainId",
          "type": "uint256"
        },
        {
          "internalType": "address",
          "name": "sender",
          "type": "address"
        }
      ],
      "name": "addTrustedSender",
      "outputs": [],
      "stateMutability": "nonpayable",
      "type": "function"
    },
    {
      "inputs": [
        {
          "internalType": "bytes32",
          "name": "",
          "type": "bytes32"
        }
      ],
      "name": "bridgeTransactions",
      "outputs": [
        {
          "internalType": "bytes32",
          "name": "id",
          "type": "bytes32"
        },
        {
          "internalType": "address",
          "name": "user",
          "type": "address"
        },
        {
          "internalType": "address",
          "name": "token",
          "type": "address"
        },
        {
          "internalType": "uint256",
          "name": "amount",
          "type": "uint256"
        },
        {
          "internalType": "address",
          "name": "to",
          "type": "address"
        },
        {
          "internalType": "bool",
          "name": "executed",
          "type": "bool"
        },
        {
          "internalType": "uint256",
          "name": "timestamp",
          "type": "uint256"
        }
      ],
      "stateMutability": "view",
      "type": "function"
    },
    {
      "inputs": [
        {
          "internalType": "address",
          "name": "token",
          "type": "address"
        }
      ],
      "name": "emergencyWithdraw",
      "outputs": [],
      "stateMutability": "nonpayable",
      "type": "function"
    },
    {
      "inputs": [
        {
          "internalType": "bytes32",
          "name": "",
          "type": "bytes32"
        }
      ],
      "name": "executedTransactions",
      "outputs": [
        {
          "internalType": "bool",
          "name": "",
          "type": "bool"
        }
      ],
      "stateMutability": "view",
      "type": "function"
    },
    {
      "inputs": [
        {
          "internalType": "address",
          "name": "token",
          "type": "address"
        },
        {
          "internalType": "uint256",
          "name": "amount",
          "type": "uint256"
        }
      ],
      "name": "fundContract",
      "outputs": [],
      "stateMutability": "payable",
      "type": "function"
    },
    {
      "inputs": [
        {
          "internalType": "bytes32",
          "name": "txId",
          "type": "bytes32"
        }
      ],
      "name": "getBridgeTransaction",
      "outputs": [
        {
          "components": [
            {
              "internalType": "bytes32",
              "name": "id",
              "type": "bytes32"
            },
            {
              "internalType": "address",
              "name": "user",
              "type": "address"
            },
            {
              "internalType": "address",
              "name": "token",
              "type": "address"
            },
            {
              "internalType": "uint256",
              "name": "amount",
              "type": "uint256"
            },
            {
              "internalType": "address",
              "name": "to",
              "type": "address"
            },
            {
              "internalType": "bool",
              "name": "executed",
              "type": "bool"
            },
            {
              "internalType": "uint256",
              "name": "timestamp",
              "type": "uint256"
            }
          ],
          "internalType": "struct BridgeReceiver.BridgeTx",
          "name": "",
          "type": "tuple"
        }
      ],
      "stateMutability": "view",
      "type": "function"
    },
    {
      "inputs": [
        {
          "internalType": "bytes32",
          "name": "txId",
          "type": "bytes32"
        }
      ],
      "name": "isExecuted",
      "outputs": [
        {
          "internalType": "bool",
          "name": "",
          "type": "bool"
        }
      ],
      "stateMutability": "view",
      "type": "function"
    },
    {
      "inputs": [],
      "name": "owner",
      "outputs": [
        {
          "internalType": "address",
          "name": "",
          "type": "address"
        }
      ],
      "stateMutability": "view",
      "type": "function"
    },
    {
      "inputs": [],
      "name": "pause",
      "outputs": [],
      "stateMutability": "nonpayable",
      "type": "function"
    },
    {
      "inputs": [],
      "name": "paused",
      "outputs": [
        {
          "internalType": "bool",
          "name": "",
          "type": "bool"
        }
      ],
      "stateMutability": "view",
      "type": "function"
    },
    {
      "inputs": [],
      "name": "pointsModule",
      "outputs": [
        {
          "internalType": "contract IPointsModule",
          "name": "",
          "type": "address"
        }
      ],
      "stateMutability": "view",
      "type": "function"
    },
    {
      "inputs": [
        {
          "internalType": "uint256",
          "name": "srcChainId",
          "type": "uint256"
        },
        {
          "internalType": "address",
          "name": "sender",
          "type": "address"
        },
        {
          "internalType": "bytes",
          "name": "payload",
          "type": "bytes"
        }
      ],
      "name": "receiveMessage",
      "outputs": [],
      "stateMutability": "nonpayable",
      "type": "function"
    },
    {
      "inputs": [
        {
          "internalType": "uint256",
          "name": "chainId",
          "type": "uint256"
        },
        {
          "internalType": "address",
          "name": "sender",
          "type": "address"
        }
      ],
      "name": "removeTrustedSender",
      "outputs": [],
      "stateMutability": "nonpayable",
      "type": "function"
    },
    {
      "inputs": [],
      "name": "renounceOwnership",
      "outputs": [],
      "stateMutability": "nonpayable",
      "type": "function"
    },
    {
      "inputs": [
        {
          "internalType": "address",
          "name": "newOwner",
          "type": "address"
        }
      ],
      "name": "transferOwnership",
      "outputs": [],
      "stateMutability": "nonpayable",
      "type": "function"
    },
    {
      "inputs": [
        {
          "internalType": "uint256",
          "name": "",
          "type": "uint256"
        },
        {
          "internalType": "address",
          "name": "",
          "type": "address"
        }
      ],
      "name": "trustedSenders",
      "outputs": [
        {
          "internalType": "bool",
          "name": "",
          "type": "bool"
        }
      ],
      "stateMutability": "view",
      "type": "function"
    },
    {
      "inputs": [],
      "name": "unpause",
      "outputs": [],
      "stateMutability": "nonpayable",
      "type": "function"
    },
    {
      "inputs": [
        {
          "internalType": "address",
          "name": "newPointsModule",
          "type": "address"
        }
      ],
      "name": "updatePointsModule",
      "outputs": [],
      "stateMutability": "nonpayable",
      "type": "function"
    },
    {
      "stateMutability": "payable",
      "type": "receive"
    }
  ],
  "bytecode": "0x6080346100cb57601f61123c38819003918201601f19168301916001600160401b038311848410176100d0578084926020946040528339810103126100cb57516001600160a01b0390818116908190036100cb576001600081815581546001600160a81b0319811633600881811b610100600160a81b0316929092179094556040519591901c16907f8be0079c531659141344cd1fd0a4f28419497f9722a3daafe3b4186f6b6457e09080a3600580546001600160a01b03191691909117905561115590816100e78239f35b600080fd5b634e487b7160e01b600052604160045260246000fdfe60806040818152600480361015610021575b505050361561001f57600080fd5b005b600092833560e01c90816224a1b814610c87575080631885c2f9146108075780631925599714610783578063210d1c031461076757806332d9562f1461073e5780633f4ba83a146106a957806342e02fb4146105915780635c975abb1461056d5780636c63f971146104f55780636ff1c9bc14610406578063715018a6146103a1578063749813801461031a5780638456cb59146102c05780638691d34c1461021f5780638da5cb5b1461028f5780639c49158b1461024b578063e52cb36a1461021f578063f2fde38b146101465763f934ab20036100115734610142578160031936011261014257610112610d76565b9061011b610da2565b803584526020528183209060018060a01b031660005260205260002060ff19815416905580f35b8280fd5b503461014257602036600319011261014257610160610d8c565b610168610da2565b6001600160a01b038181169390929084156101cd57505060018054610100600160a81b03198116600893841b610100600160a81b031617909155901c167f8be0079c531659141344cd1fd0a4f28419497f9722a3daafe3b4186f6b6457e0600080a380f35b906020608492519162461bcd60e51b8352820152602660248201527f4f776e61626c653a206e6577206f776e657220697320746865207a65726f206160448201526564647265737360d01b6064820152fd5b5034610142576020366003190112610142578160209360ff923581526003855220541690519015158152f35b503461014257816003193601126101425781602093610268610d76565b92803582528552209060018060a01b0316600052825260ff81600020541690519015158152f35b5050346102bc57816003193601126102bc57600154905160089190911c6001600160a01b03168152602090f35b5080fd5b5050346102bc57816003193601126102bc5760207f62e78cea01bee320cd4e420270b5ea74000d11b0c9f74754ebdbfc544b05a258916102fe610da2565b610306610e65565b600160ff198154161760015551338152a180f35b5034610142578160031936011261014257610333610d76565b61033b610da2565b6001600160a01b031690811561036d578035845260205281832090600052602052600020600160ff1982541617905580f35b606490602084519162461bcd60e51b8352820152600e60248201526d24b73b30b634b21039b2b73232b960911b6044820152fd5b83346104035780600319360112610403576103ba610da2565b60018054610100600160a81b0319811690915560009060081c6001600160a01b03167f8be0079c531659141344cd1fd0a4f28419497f9722a3daafe3b4186f6b6457e08280a380f35b80fd5b5090346101425760203660031901126101425782610422610d8c565b9261042b610da2565b6001600160a01b0393841680610470575050808080939460015460081c164790828215610467575bf11561045d575080f35b51903d90823e3d90fd5b506108fc610453565b91509260015460081c16908251936370a0823160e01b85523090850152602084602481845afa9283156104ec575084926104b2575b6104af9350610ea9565b80f35b91506020833d82116104e4575b816104cc60209383610e43565b810103126104df576104af9251916104a5565b600080fd5b3d91506104bf565b513d86823e3d90fd5b5090346101425760203660031901126101425760ff8160e0948435815260026020522080549360018060a01b0390816001840154169482600285015416906005600386015493860154950154968151988952602089015287015260608601528116608085015260a01c16151560a083015260c0820152f35b5050346102bc57816003193601126102bc5760209060ff6001541690519015158152f35b509080600319360112610142576105a6610d8c565b602435906105b2610da2565b6001600160a01b0316806105fe57505034156105cd57505080f35b906020606492519162461bcd60e51b8352820152600b60248201526a139bc8115512081cd95b9d60aa1b6044820152fd5b90918294939415610667578051926323b872dd60e01b602085015233602485015230604485015260648401526064835260a083019083821067ffffffffffffffff831117610652576104af94955052610efb565b604186634e487b7160e01b6000525260246000fd5b5162461bcd60e51b8152602081860152601d60248201527f416d6f756e74206d7573742062652067726561746572207468616e20300000006044820152606490fd5b50346101425782600319360112610142576106c2610da2565b6001549060ff821615610704575060ff1916600155513381527f5db9ee0a495bf2e6ff9c91a7834c1ba4fdd244a5e8aa4e537bd38aeae4b073aa90602090a180f35b606490602084519162461bcd60e51b8352820152601460248201527314185d5cd8589b194e881b9bdd081c185d5cd95960621b6044820152fd5b5050346102bc57816003193601126102bc5760055490516001600160a01b039091168152602090f35b5050346102bc57816003193601126102bc576020905160148152f35b50346101425760203660031901126101425761079d610d8c565b6107a5610da2565b6001600160a01b03169182156107d25750506bffffffffffffffffffffffff60a01b600554161760055580f35b906020606492519162461bcd60e51b8352820152600f60248201526e496e76616c6964206164647265737360881b6044820152fd5b503461014257606036600319011261014257610821610d76565b60449267ffffffffffffffff91908435838111610c835736602382011215610c835780850135848111610c7f57810160243681830111610c06576002895414610c3e5760028955610870610e65565b863589526020878152848a206001600160a01b039687168b528152848a205490929060ff1615610c0a578360a0910312610c065782810135966108b4898501610dfd565b966108c160648601610dfd565b9987808060848901359860a4016108d790610dfd565b9b169c169916978a8d5260038652878d205460ff16610bc5578c60058c8b8f8b8f8c928f8051986109078a610e11565b878a52858a01928352818a0193845260608a0194855260808a01968752600260a08b01966001885260c08c0199428b5283525220975188558860018901915116906bffffffffffffffffffffffff60a01b91828254161790558860028901925116908254161790555160038601558589860192511682549160ff60a01b9051151560a01b16916affffffffffffffffffffff60a81b16171790555191015560038652878d20600160ff198254161790558915600014610aff57864710610abe57908c94939291858080808b8e828215610ab5575bf115610aab575b60055416803b15610aa75785918d8a51978893849263507cd30f60e01b8452888401526014898401525af18015610a9d57610a54575b5050845196875250508401528201527f9c8bdb03a71310ba89a3d52aba0ff0fe78e16b9e917e5642b6a3d17668e56b6490606090a36001815580f35b839b949b11610a8c575050835296817f9c8bdb03a71310ba89a3d52aba0ff0fe78e16b9e917e5642b6a3d17668e56b64606038610a18565b634e487b7160e01b84526041905282fd5b87513d8e823e3d90fd5b8580fd5b88513d87823e3d90fd5b506108fc6109db565b875162461bcd60e51b81528085018790526018818701527f496e73756666696369656e74204554482062616c616e6365000000000000000081840152606490fd5b87516370a0823160e01b815230858201528d90878188818f5afa918215610bba57908992610b85575b5010610b4457908c94939291610b3f888b8d610ea9565b6109e2565b875162461bcd60e51b8152808501879052601a818701527f496e73756666696369656e7420746f6b656e2062616c616e636500000000000081840152606490fd5b809250888092503d8311610bb3575b610b9e8183610e43565b81010312610baf5787905138610b28565b8d80fd5b503d610b94565b8a51903d90823e3d90fd5b875162461bcd60e51b8152808501879052601c818701527f5472616e73616374696f6e20616c72656164792065786563757465640000000081840152606490fd5b8880fd5b845162461bcd60e51b81528089018490526010818401526f2ab73a393ab9ba32b21039b2b73232b960811b818b0152606490fd5b867f5265656e7472616e637947756172643a207265656e7472616e742063616c6c0089601f606494602089519562461bcd60e51b8752860152840152820152fd5b8780fd5b8680fd5b905034610d72576020366003190112610d7257828460e09560c084610cad60a096610e11565b8281528260208201528285820152826060820152826080820152828682015201528335815260026020522083518093610ce582610e11565b825495868352600180861b03848180600181980154166020870190815260c060058360028601541694878a0195865260ff60038201549960608c019a8b528201549c8b878f9d6080019d168d52019c60a01c1615158c5201549a01998a5284519a8b52511660208a01525116908701525160608601525116608084015251151560a08301525160c0820152f35b8380fd5b602435906001600160a01b03821682036104df57565b600435906001600160a01b03821682036104df57565b60015460081c6001600160a01b03163303610db957565b606460405162461bcd60e51b815260206004820152602060248201527f4f776e61626c653a2063616c6c6572206973206e6f7420746865206f776e65726044820152fd5b35906001600160a01b03821682036104df57565b60e0810190811067ffffffffffffffff821117610e2d57604052565b634e487b7160e01b600052604160045260246000fd5b90601f8019910116810190811067ffffffffffffffff821117610e2d57604052565b60ff60015416610e7157565b60405162461bcd60e51b815260206004820152601060248201526f14185d5cd8589b194e881c185d5cd95960821b6044820152606490fd5b60405163a9059cbb60e01b60208201526001600160a01b039092166024830152604480830193909352918152608081019167ffffffffffffffff831182841017610e2d57610ef992604052610efb565b565b60018060a01b0316906040516040810167ffffffffffffffff9082811082821117610e2d576040526020938483527f5361666545524332303a206c6f772d6c6576656c2063616c6c206661696c6564858401526000808587829751910182855af1903d15611040573d92831161102c5790610f9693929160405192610f8988601f19601f8401160185610e43565b83523d868885013e61104b565b805191821591848315611008575b505050905015610fb15750565b6084906040519062461bcd60e51b82526004820152602a60248201527f5361666545524332303a204552433230206f7065726174696f6e20646964206e6044820152691bdd081cdd58d8d9595960b21b6064820152fd5b9193818094500103126102bc57820151908115158203610403575080388084610fa4565b634e487b7160e01b85526041600452602485fd5b90610f969392506060915b919290156110ad575081511561105f575090565b3b156110685790565b60405162461bcd60e51b815260206004820152601d60248201527f416464726573733a2063616c6c20746f206e6f6e2d636f6e74726163740000006044820152606490fd5b8251909150156110c05750805190602001fd5b6040519062461bcd60e51b82528160208060048301528251908160248401526000935b828510611106575050604492506000838284010152601f80199101168101030190fd5b84810182015186860160440152938101938593506110e356fea264697066735822122038ddeb44c7d2a599959da562c9954409c5cf7649934ae859b571138bff6d61ae64736f6c63430008130033",
  "linkReferences": {},
  "deployedLinkReferences": {}
}