{
  "_format": "hh-sol-artifact-1",
  "contractName": "BridgeCore",
  "sourceName": "contracts/BridgeCore.sol",
  "abi": [
    {
      "inputs": [
        {
          "internalType": "address",
          "name": "_messageRouter",
          "type": "address"
        },
        {
          "internalType": "address",
          "name": "_feeTreasury",
          "type": "address"
        }
      ],
      "stateMutability": "nonpayable",
      "type": "constructor"
    },
    {
      "anonymous": false,
      "inputs": [
        {
          "indexed": true,
          "internalType": "bytes32",
          "name": "txId",
          "type": "bytes32"
        },
        {
          "indexed": true,
          "internalType": "address",
          "name": "user",
          "type": "address"
        },
        {
          "indexed": false,
          "internalType": "address",
          "name": "token",
          "type": "address"
        },
        {
          "indexed": false,
          "internalType": "uint256",
          "name": "amount",
          "type": "uint256"
        },
        {
          "indexed": false,
          "internalType": "uint256",
          "name": "dstChainId",
          "type": "uint256"
        },
        {
          "indexed": false,
          "internalType": "address",
          "name": "to",
          "type": "address"
        },
        {
          "indexed": false,
          "internalType": "uint256",
          "name": "fee",
          "type": "uint256"
        }
      ],
      "name": "BridgeInitiated",
      "type": "event"
    },
    {
      "anonymous": false,
      "inputs": [
        {
          "indexed": true,
          "internalType": "address",
          "name": "previousOwner",
          "type": "address"
        },
        {
          "indexed": true,
          "internalType": "address",
          "name": "newOwner",
          "type": "address"
        }
      ],
      "name": "OwnershipTransferred",
      "type": "event"
    },
    {
      "anonymous": false,
      "inputs": [
        {
          "indexed": false,
          "internalType": "address",
          "name": "account",
          "type": "address"
        }
      ],
      "name": "Paused",
      "type": "event"
    },
    {
      "anonymous": false,
      "inputs": [
        {
          "indexed": false,
          "internalType": "address",
          "name": "account",
          "type": "address"
        }
      ],
      "name": "Unpaused",
      "type": "event"
    },
    {
      "inputs": [],
      "name": "MAX_FEE",
      "outputs": [
        {
          "internalType": "uint256",
          "name": "",
          "type": "uint256"
        }
      ],
      "stateMutability": "view",
      "type": "function"
    },
    {
      "inputs": [
        {
          "internalType": "uint256",
          "name": "chainId",
          "type": "uint256"
        }
      ],
      "name": "addSupportedChain",
      "outputs": [],
      "stateMutability": "nonpayable",
      "type": "function"
    },
    {
      "inputs": [
        {
          "internalType": "uint256",
          "name": "dstChainId",
          "type": "uint256"
        },
        {
          "internalType": "address",
          "name": "to",
          "type": "address"
        }
      ],
      "name": "bridgeETH",
      "outputs": [],
      "stateMutability": "payable",
      "type": "function"
    },
    {
      "inputs": [],
      "name": "bridgeFee",
      "outputs": [
        {
          "internalType": "uint256",
          "name": "",
          "type": "uint256"
        }
      ],
      "stateMutability": "view",
      "type": "function"
    },
    {
      "inputs": [
        {
          "internalType": "address",
          "name": "token",
          "type": "address"
        },
        {
          "internalType": "uint256",
          "name": "amount",
          "type": "uint256"
        },
        {
          "internalType": "uint256",
          "name": "dstChainId",
          "type": "uint256"
        },
        {
          "internalType": "address",
          "name": "to",
          "type": "address"
        }
      ],
      "name": "bridgeToken",
      "outputs": [],
      "stateMutability": "nonpayable",
      "type": "function"
    },
    {
      "inputs": [
        {
          "internalType": "bytes32",
          "name": "",
          "type": "bytes32"
        }
      ],
      "name": "bridgeTransactions",
      "outputs": [
        {
          "internalType": "bytes32",
          "name": "id",
          "type": "bytes32"
        },
        {
          "internalType": "address",
          "name": "user",
          "type": "address"
        },
        {
          "internalType": "address",
          "name": "token",
          "type": "address"
        },
        {
          "internalType": "uint256",
          "name": "amount",
          "type": "uint256"
        },
        {
          "internalType": "uint256",
          "name": "dstChainId",
          "type": "uint256"
        },
        {
          "internalType": "address",
          "name": "to",
          "type": "address"
        },
        {
          "internalType": "uint256",
          "name": "feeAmount",
          "type": "uint256"
        },
        {
          "internalType": "uint256",
          "name": "timestamp",
          "type": "uint256"
        },
        {
          "internalType": "bool",
          "name": "completed",
          "type": "bool"
        }
      ],
      "stateMutability": "view",
      "type": "function"
    },
    {
      "inputs": [
        {
          "internalType": "address",
          "name": "token",
          "type": "address"
        }
      ],
      "name": "emergencyWithdraw",
      "outputs": [],
      "stateMutability": "nonpayable",
      "type": "function"
    },
    {
      "inputs": [],
      "name": "feeTreasury",
      "outputs": [
        {
          "internalType": "contract IFeeTreasury",
          "name": "",
          "type": "address"
        }
      ],
      "stateMutability": "view",
      "type": "function"
    },
    {
      "inputs": [
        {
          "internalType": "bytes32",
          "name": "txId",
          "type": "bytes32"
        }
      ],
      "name": "getBridgeTransaction",
      "outputs": [
        {
          "components": [
            {
              "internalType": "bytes32",
              "name": "id",
              "type": "bytes32"
            },
            {
              "internalType": "address",
              "name": "user",
              "type": "address"
            },
            {
              "internalType": "address",
              "name": "token",
              "type": "address"
            },
            {
              "internalType": "uint256",
              "name": "amount",
              "type": "uint256"
            },
            {
              "internalType": "uint256",
              "name": "dstChainId",
              "type": "uint256"
            },
            {
              "internalType": "address",
              "name": "to",
              "type": "address"
            },
            {
              "internalType": "uint256",
              "name": "feeAmount",
              "type": "uint256"
            },
            {
              "internalType": "uint256",
              "name": "timestamp",
              "type": "uint256"
            },
            {
              "internalType": "bool",
              "name": "completed",
              "type": "bool"
            }
          ],
          "internalType": "struct BridgeCore.BridgeTx",
          "name": "",
          "type": "tuple"
        }
      ],
      "stateMutability": "view",
      "type": "function"
    },
    {
      "inputs": [],
      "name": "messageRouter",
      "outputs": [
        {
          "internalType": "contract IBridgeMessageRouter",
          "name": "",
          "type": "address"
        }
      ],
      "stateMutability": "view",
      "type": "function"
    },
    {
      "inputs": [
        {
          "internalType": "address",
          "name": "",
          "type": "address"
        }
      ],
      "name": "nonces",
      "outputs": [
        {
          "internalType": "uint256",
          "name": "",
          "type": "uint256"
        }
      ],
      "stateMutability": "view",
      "type": "function"
    },
    {
      "inputs": [],
      "name": "owner",
      "outputs": [
        {
          "internalType": "address",
          "name": "",
          "type": "address"
        }
      ],
      "stateMutability": "view",
      "type": "function"
    },
    {
      "inputs": [],
      "name": "pause",
      "outputs": [],
      "stateMutability": "nonpayable",
      "type": "function"
    },
    {
      "inputs": [],
      "name": "paused",
      "outputs": [
        {
          "internalType": "bool",
          "name": "",
          "type": "bool"
        }
      ],
      "stateMutability": "view",
      "type": "function"
    },
    {
      "inputs": [
        {
          "internalType": "uint256",
          "name": "chainId",
          "type": "uint256"
        }
      ],
      "name": "removeSupportedChain",
      "outputs": [],
      "stateMutability": "nonpayable",
      "type": "function"
    },
    {
      "inputs": [],
      "name": "renounceOwnership",
      "outputs": [],
      "stateMutability": "nonpayable",
      "type": "function"
    },
    {
      "inputs": [
        {
          "internalType": "uint256",
          "name": "",
          "type": "uint256"
        }
      ],
      "name": "supportedChains",
      "outputs": [
        {
          "internalType": "bool",
          "name": "",
          "type": "bool"
        }
      ],
      "stateMutability": "view",
      "type": "function"
    },
    {
      "inputs": [
        {
          "internalType": "address",
          "name": "newOwner",
          "type": "address"
        }
      ],
      "name": "transferOwnership",
      "outputs": [],
      "stateMutability": "nonpayable",
      "type": "function"
    },
    {
      "inputs": [],
      "name": "unpause",
      "outputs": [],
      "stateMutability": "nonpayable",
      "type": "function"
    },
    {
      "inputs": [
        {
          "internalType": "uint256",
          "name": "newFee",
          "type": "uint256"
        }
      ],
      "name": "updateBridgeFee",
      "outputs": [],
      "stateMutability": "nonpayable",
      "type": "function"
    },
    {
      "inputs": [
        {
          "internalType": "address",
          "name": "newTreasury",
          "type": "address"
        }
      ],
      "name": "updateFeeTreasury",
      "outputs": [],
      "stateMutability": "nonpayable",
      "type": "function"
    },
    {
      "inputs": [
        {
          "internalType": "address",
          "name": "newRouter",
          "type": "address"
        }
      ],
      "name": "updateMessageRouter",
      "outputs": [],
      "stateMutability": "nonpayable",
      "type": "function"
    },
    {
      "stateMutability": "payable",
      "type": "receive"
    }
  ],
  "bytecode": "0x6080346100e857601f61167b38819003918201601f19168301916001600160401b038311848410176100ed5780849260409485528339810103126100e857610052602061004b83610103565b9201610103565b6001600081815581546001600160a81b0319811633600881811b610100600160a81b03169290921790945560405195946001600160a01b03949093909290911c8416907f8be0079c531659141344cd1fd0a4f28419497f9722a3daafe3b4186f6b6457e09080a3601e6007558160018060a01b031993168360055416176005551690600654161760065561156390816101188239f35b600080fd5b634e487b7160e01b600052604160045260246000fd5b51906001600160a01b03821682036100e85756fe608080604052600436101561001d575b50361561001b57600080fd5b005b600090813560e01c90816224a1b814610f125750806308b583ff14610ee95780630c4844aa14610eb757806319bf4b4d14610b645780633f4ba83a14610acf578063548d496f14610aa05780635a1c036614610a405780635c975abb14610a1d57806360dc2340146109f45780636c63f9711461095c5780636ff1c9bc1461086f578063715018a61461080d5780637ecebe00146107d457806382b12dd7146107b65780638456cb591461075c57806387188a00146107275780638da5cb5b146106fa578063bc063e1a146106dd578063ceefd62c14610287578063d4a0d4c61461023b578063f2fde38b146101655763fa73f5e50361000f57346101625760203660031901126101625761013061103a565b610138611050565b6001600160a01b031661014c8115156110ab565b6001600160601b0360a01b600554161760055580f35b80fd5b50346101625760203660031901126101625761017f61103a565b610187611050565b6001600160a01b038181169182156101e75760018054610100600160a81b03198116600893841b610100600160a81b031617909155901c167f8be0079c531659141344cd1fd0a4f28419497f9722a3daafe3b4186f6b6457e0600080a380f35b60405162461bcd60e51b815260206004820152602660248201527f4f776e61626c653a206e6577206f776e657220697320746865207a65726f206160448201526564647265737360d01b6064820152608490fd5b50346101625760203660031901126101625761025561103a565b61025d611050565b6001600160a01b03166102718115156110ab565b6001600160601b0360a01b600654161760065580f35b5034610162576080366003190112610162576102a161103a565b6024356064356001600160a01b03811690036106d8576102bf6112a7565b6102c7611263565b6102db6001600160a01b03831615156110ab565b6102f16064356001600160a01b031615156110ab565b6044358352600460205261030b60ff6040852054166110e9565b61031681151561112b565b6040516323b872dd60e01b60208201523360248201523060448201526064808201839052815260a081019067ffffffffffffffff8211818310176106c25760409190915261036d906001600160a01b038416611340565b61038761271061037f60075484611177565b04809261118a565b90336000526003602052604060002080549060001982146106ac576001820190556040516001600160601b0319916020820192803360601b168452808760601b166034840152856048840152604435606884015260643560601b166088830152609c8201524260bc8201524660dc82015260dc8152610405816111c8565b519020916104fd60405161041881611197565b8481526008858860208401338152604085019060018060a01b038b168252606086019088825260808701604435815260a088019260018060a01b0360643516845260c08901948c8652604060e08b01974289526101008c0199818b52815260026020522099518a5560018a019360018060a01b03905116936001600160601b0360a01b948582541617905560028a019060018060a01b0390511684825416179055516003890155516004880155600587019160018060a01b039051169082541617905551600685015551600784015551151591019060ff801983541691151516179055565b81610620575b8460405184602082015233604082015260018060a01b038616606082015282608082015260018060a01b036064351660a082015260a08152610544816111e5565b6005546001600160a01b0316803b1561061c5761058b839291839260405194858094819363e289adcd60e01b83526044356004840152604060248401526044830190611223565b03925af18015610611576105f9575b50506040519360018060a01b031684526020840152604435604084015260018060a01b0360643516606084015260808301527f4a65639c26b2522a9f539cf361b88997f914e55e739fe3dfc693227f4f84253f60a03393a36001815580f35b610602906111b4565b61060d57843861059a565b8480fd5b6040513d84823e3d90fd5b8280fd5b60065461063c9083906001600160a01b039081169087166112fd565b60065485906001600160a01b0316803b156106a857604051630bb03fdb60e21b81526001600160a01b0387166004820152602481018590529082908290604490829084905af1801561061157610694575b5050610503565b61069d906111b4565b61060d57843861068d565b5080fd5b634e487b7160e01b600052601160045260246000fd5b634e487b7160e01b600052604160045260246000fd5b600080fd5b503461016257806003193601126101625760206040516103e88152f35b503461016257806003193601126101625760015460405160089190911c6001600160a01b03168152602090f35b503461016257602036600319011261016257610741611050565b60048035825260205260408120805460ff1916600117905580f35b5034610162578060031936011261016257610775611050565b61077d611263565b600160ff19815416176001557f62e78cea01bee320cd4e420270b5ea74000d11b0c9f74754ebdbfc544b05a2586020604051338152a180f35b50346101625780600319360112610162576020600754604051908152f35b5034610162576020366003190112610162576020906040906001600160a01b036107fc61103a565b168152600383522054604051908152f35b5034610162578060031936011261016257610826611050565b60018054610100600160a81b0319811690915560009060081c6001600160a01b03167f8be0079c531659141344cd1fd0a4f28419497f9722a3daafe3b4186f6b6457e08280a380f35b5034610162576020366003190112610162578061088a61103a565b610892611050565b6001600160a01b03908116806108d657508180809260015460081c1647908282156108cd575bf1156108c15780f35b604051903d90823e3d90fd5b506108fc6108b8565b915060015460081c1690604051916370a0823160e01b8352306004840152602083602481855afa918215610951578492610918575b61091593506112fd565b80f35b91506020833d8211610949575b8161093260209383611201565b810103126109455761091592519161090b565b8380fd5b3d9150610925565b6040513d86823e3d90fd5b503461016257602036600319011261016257604061012091600435815260026020522080549060018060a01b0390816001820154169180600283015416906003830154906004840154906005850154169160068501549360ff600860078801549701541696604051988952602089015260408801526060870152608086015260a085015260c084015260e08301521515610100820152f35b50346101625780600319360112610162576006546040516001600160a01b039091168152602090f35b5034610162578060031936011261016257602060ff600154166040519015158152f35b503461016257602036600319011261016257600435610a5d611050565b6103e88111610a6c5760075580f35b60405162461bcd60e51b815260206004820152600c60248201526b08ccaca40e8dede40d0d2ced60a31b6044820152606490fd5b50346101625760203660031901126101625760ff60406020926004358152600484522054166040519015158152f35b5034610162578060031936011261016257610ae8611050565b60015460ff811615610b285760ff19166001557f5db9ee0a495bf2e6ff9c91a7834c1ba4fdd244a5e8aa4e537bd38aeae4b073aa6020604051338152a180f35b60405162461bcd60e51b815260206004820152601460248201527314185d5cd8589b194e881b9bdd081c185d5cd95960621b6044820152606490fd5b506040366003190112610162576024356001600160a01b038082169060043582840361060d57610b926112a7565b610b9a611263565b610ba58315156110ab565b80855260209360048552610bbf60ff6040882054166110e9565b610bca34151561112b565b612710610bd960075434611177565b0492610be5843461118a565b9133885260038752604088208054906000198214610ea3579360088a8a89849796868d9b9a6001610d2d9901905560405190848201926001600160601b031990813360601b1685528760348501528960488501528d606885015260601b166088830152609c8201524260bc8201524660dc82015260dc8152610c66816111c8565b5190209b8c938a604051978895610c7c87611197565b8787526040818801943386526002828a019382855260608b0195865260808b0196875260a08b0198895260c08b01998a5261010060e08c019b428d52019b838d528352522099518a558b60018b01945116936001600160601b0360a01b94858254161790558b60028b019151168482541617905551600389015551600488015588600588019251169082541617905551600685015551600784015551151591019060ff801983541691151516179055565b878580158015610e16575b505090604051908789830152336040830152600060608301528360808301528560a083015260a08252610d6a826111e5565b60055416803b1561061c57610da68391859360405194858094819363e289adcd60e01b83528b6004840152604060248401526044830190611223565b03925af1801561061157610dfe575b505060405195600087528601526040850152606084015260808301527f4a65639c26b2522a9f539cf361b88997f914e55e739fe3dfc693227f4f84253f60a03393a36001815580f35b610e07906111b4565b610e12578638610db5565b8680fd5b82809281928660065416908390610e9a575bf115610e8f57878160065416803b156106a8578190604460405180948193630bb03fdb60e21b83528160048401528b60248401525af18015610e8457610e71575b858991610d38565b610e7d909891986111b4565b9638610e69565b6040513d8b823e3d90fd5b6040513d89823e3d90fd5b506108fc610e28565b634e487b7160e01b8a52601160045260248afd5b503461016257602036600319011261016257610ed1611050565b60048035825260205260408120805460ff1916905580f35b50346101625780600319360112610162576005546040516001600160a01b039091168152602090f35b9050346106a85760203660031901126106a857604061012092610f3483611197565b80835280602084015280828401528060608401528060808401528060a08401528060c08401528060e08401528061010080940152600435815260026020522090604051610f8081611197565b808084549485825260018060a01b039081600182015416602084019081528260028301541660408501908152836003840154916060870192835281600486015494608089019586528b60ff60088460058b0154169960a08d019a8b5260c060068201549d019c8d5260e060078201549e019d8e520154169b019a15158b526040519c8d52511660208c0152511660408a0152516060890152516080880152511660a08601525160c08501525160e084015251151590820152f35b600435906001600160a01b03821682036106d857565b60015460081c6001600160a01b0316330361106757565b606460405162461bcd60e51b815260206004820152602060248201527f4f776e61626c653a2063616c6c6572206973206e6f7420746865206f776e65726044820152fd5b156110b257565b60405162461bcd60e51b815260206004820152600f60248201526e496e76616c6964206164647265737360881b6044820152606490fd5b156110f057565b60405162461bcd60e51b815260206004820152601360248201527210da185a5b881b9bdd081cdd5c1c1bdc9d1959606a1b6044820152606490fd5b1561113257565b60405162461bcd60e51b815260206004820152601d60248201527f416d6f756e74206d7573742062652067726561746572207468616e20300000006044820152606490fd5b818102929181159184041417156106ac57565b919082039182116106ac57565b610120810190811067ffffffffffffffff8211176106c257604052565b67ffffffffffffffff81116106c257604052565b610100810190811067ffffffffffffffff8211176106c257604052565b60c0810190811067ffffffffffffffff8211176106c257604052565b90601f8019910116810190811067ffffffffffffffff8211176106c257604052565b919082519283825260005b84811061124f575050826000602080949584010152601f8019910116010190565b60208183018101518483018201520161122e565b60ff6001541661126f57565b60405162461bcd60e51b815260206004820152601060248201526f14185d5cd8589b194e881c185d5cd95960821b6044820152606490fd5b6002600054146112b8576002600055565b60405162461bcd60e51b815260206004820152601f60248201527f5265656e7472616e637947756172643a207265656e7472616e742063616c6c006044820152606490fd5b60405163a9059cbb60e01b60208201526001600160a01b0392909216602483015260448083019390935291815261133e91611339606483611201565b611340565b565b60018060a01b0316906040516040810167ffffffffffffffff90828110828211176106c2576040526020938483527f5361666545524332303a206c6f772d6c6576656c2063616c6c206661696c6564858401526000808587829751910182855af1903d15611485573d92831161147157906113db939291604051926113ce88601f19601f8401160185611201565b83523d868885013e611490565b80519182159184831561144d575b5050509050156113f65750565b6084906040519062461bcd60e51b82526004820152602a60248201527f5361666545524332303a204552433230206f7065726174696f6e20646964206e6044820152691bdd081cdd58d8d9595960b21b6064820152fd5b9193818094500103126106a8578201519081151582036101625750803880846113e9565b634e487b7160e01b85526041600452602485fd5b906113db9392506060915b919290156114f257508151156114a4575090565b3b156114ad5790565b60405162461bcd60e51b815260206004820152601d60248201527f416464726573733a2063616c6c20746f206e6f6e2d636f6e74726163740000006044820152606490fd5b8251909150156115055750805190602001fd5b60405162461bcd60e51b815260206004820152908190611529906024830190611223565b0390fdfea26469706673582212201159dadb8885afa0a20a0cb908ea7fbbba4605dd5472a32594acd38521232bf864736f6c63430008130033",
  "linkReferences": {},
  "deployedLinkReferences": {}
}