{
  "_format": "hh-sol-artifact-1",
  "contractName": "FeeTreasury",
  "sourceName": "contracts/FeeTreasury.sol",
  "abi": [
    {
      "inputs": [],
      "stateMutability": "nonpayable",
      "type": "constructor"
    },
    {
      "anonymous": false,
      "inputs": [
        {
          "indexed": true,
          "internalType": "address",
          "name": "collector",
          "type": "address"
        }
      ],
      "name": "CollectorAdded",
      "type": "event"
    },
    {
      "anonymous": false,
      "inputs": [
        {
          "indexed": true,
          "internalType": "address",
          "name": "collector",
          "type": "address"
        }
      ],
      "name": "CollectorRemoved",
      "type": "event"
    },
    {
      "anonymous": false,
      "inputs": [
        {
          "indexed": true,
          "internalType": "address",
          "name": "token",
          "type": "address"
        },
        {
          "indexed": false,
          "internalType": "uint256",
          "name": "amount",
          "type": "uint256"
        },
        {
          "indexed": false,
          "internalType": "address",
          "name": "collector",
          "type": "address"
        }
      ],
      "name": "FeeCollected",
      "type": "event"
    },
    {
      "anonymous": false,
      "inputs": [
        {
          "indexed": false,
          "internalType": "uint256",
          "name": "oldFee",
          "type": "uint256"
        },
        {
          "indexed": false,
          "internalType": "uint256",
          "name": "newFee",
          "type": "uint256"
        }
      ],
      "name": "FeeUpdated",
      "type": "event"
    },
    {
      "anonymous": false,
      "inputs": [
        {
          "indexed": true,
          "internalType": "address",
          "name": "token",
          "type": "address"
        },
        {
          "indexed": false,
          "internalType": "uint256",
          "name": "amount",
          "type": "uint256"
        },
        {
          "indexed": false,
          "internalType": "address",
          "name": "recipient",
          "type": "address"
        }
      ],
      "name": "FeesWithdrawn",
      "type": "event"
    },
    {
      "anonymous": false,
      "inputs": [
        {
          "indexed": true,
          "internalType": "address",
          "name": "previousOwner",
          "type": "address"
        },
        {
          "indexed": true,
          "internalType": "address",
          "name": "newOwner",
          "type": "address"
        }
      ],
      "name": "OwnershipTransferred",
      "type": "event"
    },
    {
      "inputs": [],
      "name": "MAX_FEE",
      "outputs": [
        {
          "internalType": "uint256",
          "name": "",
          "type": "uint256"
        }
      ],
      "stateMutability": "view",
      "type": "function"
    },
    {
      "inputs": [
        {
          "internalType": "address",
          "name": "collector",
          "type": "address"
        }
      ],
      "name": "addCollector",
      "outputs": [],
      "stateMutability": "nonpayable",
      "type": "function"
    },
    {
      "inputs": [
        {
          "internalType": "address",
          "name": "",
          "type": "address"
        }
      ],
      "name": "authorizedCollectors",
      "outputs": [
        {
          "internalType": "bool",
          "name": "",
          "type": "bool"
        }
      ],
      "stateMutability": "view",
      "type": "function"
    },
    {
      "inputs": [],
      "name": "bridgeFee",
      "outputs": [
        {
          "internalType": "uint256",
          "name": "",
          "type": "uint256"
        }
      ],
      "stateMutability": "view",
      "type": "function"
    },
    {
      "inputs": [
        {
          "internalType": "uint256",
          "name": "amount",
          "type": "uint256"
        }
      ],
      "name": "calculateFee",
      "outputs": [
        {
          "internalType": "uint256",
          "name": "",
          "type": "uint256"
        }
      ],
      "stateMutability": "view",
      "type": "function"
    },
    {
      "inputs": [
        {
          "internalType": "address",
          "name": "token",
          "type": "address"
        },
        {
          "internalType": "uint256",
          "name": "amount",
          "type": "uint256"
        }
      ],
      "name": "collectFee",
      "outputs": [],
      "stateMutability": "nonpayable",
      "type": "function"
    },
    {
      "inputs": [
        {
          "internalType": "address",
          "name": "token",
          "type": "address"
        }
      ],
      "name": "emergencyWithdraw",
      "outputs": [],
      "stateMutability": "nonpayable",
      "type": "function"
    },
    {
      "inputs": [
        {
          "internalType": "address",
          "name": "token",
          "type": "address"
        }
      ],
      "name": "getContractBalance",
      "outputs": [
        {
          "internalType": "uint256",
          "name": "",
          "type": "uint256"
        }
      ],
      "stateMutability": "view",
      "type": "function"
    },
    {
      "inputs": [
        {
          "internalType": "address",
          "name": "token",
          "type": "address"
        }
      ],
      "name": "getFeeBalance",
      "outputs": [
        {
          "internalType": "uint256",
          "name": "",
          "type": "uint256"
        }
      ],
      "stateMutability": "view",
      "type": "function"
    },
    {
      "inputs": [],
      "name": "owner",
      "outputs": [
        {
          "internalType": "address",
          "name": "",
          "type": "address"
        }
      ],
      "stateMutability": "view",
      "type": "function"
    },
    {
      "inputs": [
        {
          "internalType": "address",
          "name": "collector",
          "type": "address"
        }
      ],
      "name": "removeCollector",
      "outputs": [],
      "stateMutability": "nonpayable",
      "type": "function"
    },
    {
      "inputs": [],
      "name": "renounceOwnership",
      "outputs": [],
      "stateMutability": "nonpayable",
      "type": "function"
    },
    {
      "inputs": [
        {
          "internalType": "address",
          "name": "",
          "type": "address"
        }
      ],
      "name": "totalFeeCollected",
      "outputs": [
        {
          "internalType": "uint256",
          "name": "",
          "type": "uint256"
        }
      ],
      "stateMutability": "view",
      "type": "function"
    },
    {
      "inputs": [
        {
          "internalType": "address",
          "name": "newOwner",
          "type": "address"
        }
      ],
      "name": "transferOwnership",
      "outputs": [],
      "stateMutability": "nonpayable",
      "type": "function"
    },
    {
      "inputs": [
        {
          "internalType": "uint256",
          "name": "newFee",
          "type": "uint256"
        }
      ],
      "name": "updateBridgeFee",
      "outputs": [],
      "stateMutability": "nonpayable",
      "type": "function"
    },
    {
      "inputs": [
        {
          "internalType": "address",
          "name": "token",
          "type": "address"
        }
      ],
      "name": "withdrawAllFees",
      "outputs": [],
      "stateMutability": "nonpayable",
      "type": "function"
    },
    {
      "inputs": [
        {
          "internalType": "address",
          "name": "token",
          "type": "address"
        },
        {
          "internalType": "uint256",
          "name": "amount",
          "type": "uint256"
        }
      ],
      "name": "withdrawFees",
      "outputs": [],
      "stateMutability": "nonpayable",
      "type": "function"
    },
    {
      "stateMutability": "payable",
      "type": "receive"
    }
  ],
  "bytecode": "0x608080604052346100785760008054336001600160a01b0319821681178355604092916001600160a01b03167f8be0079c531659141344cd1fd0a4f28419497f9722a3daafe3b4186f6b6457e08380a360018055601e600455338152600360205220600160ff19825416179055610f00908161007e8239f35b600080fdfe60806040818152600480361015610021575b505050361561001f57600080fd5b005b600092833560e01c9081630d9c9eeb1461086b575080632ec0ff6c14610780578063369dee421461069257806343ab265f1461066557806346412878146106275780634c179042146105a357806357168d13146104f35780635a1c03661461045d5780636ff1c9bc14610376578063715018a61461031c57806382b12dd7146102ff5780638da5cb5b146102d757806399a5d7471461028b578063ad3b1b4714610203578063bc063e1a146101e6578063c78f6803146101aa5763f2fde38b0361001157346101a65760203660031901126101a6576100fe61089f565b906101076108ba565b6001600160a01b0391821692831561015457505082546001600160a01b0319811683178455167f8be0079c531659141344cd1fd0a4f28419497f9722a3daafe3b4186f6b6457e08380a380f35b906020608492519162461bcd60e51b8352820152602660248201527f4f776e61626c653a206e6577206f776e657220697320746865207a65726f206160448201526564647265737360d01b6064820152fd5b8280fd5b5050346101e25760203660031901126101e25760209181906001600160a01b036101d261089f565b1681526002845220549051908152f35b5080fd5b5050346101e257816003193601126101e257602090516103e88152f35b50346101a657816003193601126101a65761021c61089f565b916102256108ba565b6002600154146102485760026001558361024160243585610996565b6001805580f35b906020606492519162461bcd60e51b8352820152601f60248201527f5265656e7472616e637947756172643a207265656e7472616e742063616c6c006044820152fd5b5082346102d45760203660031901126102d45781548235818102939181159185041417156102c157602083612710865191048152f35b634e487b7160e01b825260119052602490fd5b80fd5b5050346101e257816003193601126101e257905490516001600160a01b039091168152602090f35b50346101a657826003193601126101a65760209250549051908152f35b83346102d457806003193601126102d4576103356108ba565b80546001600160a01b03198116825581906001600160a01b03167f8be0079c531659141344cd1fd0a4f28419497f9722a3daafe3b4186f6b6457e08280a380f35b5090346101a65760203660031901126101a6578261039261089f565b9261039b6108ba565b6001600160a01b03938416806103dc575050808080939481541647908282156103d3575bf1156103c9575080f35b51903d90823e3d90fd5b506108fc6103bf565b915483516370a0823160e01b8152309281019290925290931690602084602481845afa9283156104545750849261041b575b6104189350610bf5565b80f35b91506020833d821161044c575b816104356020938361095e565b810103126104485761041892519161040e565b8380fd5b3d9150610428565b513d86823e3d90fd5b509190346101e25760203660031901126101e25782359261047c6108ba565b6103e884116104bb57837f528d9479e9f9889a87a3c30c7f7ba537e5e59c4c85a37733b16e57c62df6130293948254925582519182526020820152a180f35b6020606492519162461bcd60e51b835282015260136024820152724665652065786365656473206d6178696d756d60681b6044820152fd5b5090346101a65760203660031901126101a65761050e61089f565b6105166108ba565b6001600160a01b031680845260036020528184205490929060ff1615610570575081835260036020528220805460ff191690557f54623eb6e8841d59f088336fef8d1bf77b98e82f55250cdb7fd0b5598ffe50858280a280f35b6020606492519162461bcd60e51b8352820152600e60248201526d139bdd08185d5d1a1bdc9a5e995960921b6044820152fd5b508290346101e25760203660031901126101e2576105bf61089f565b6105c76108ba565b6001600160a01b03811683526002602052838320549182156105ee57509061041891610996565b606490602086519162461bcd60e51b835282015260136024820152724e6f206665657320746f20776974686472617760681b6044820152fd5b5050346101e25760203660031901126101e25760209160ff9082906001600160a01b0361065261089f565b1681526003855220541690519015158152f35b5050346101e25760203660031901126101e25760209061068b61068661089f565b610e4d565b9051908152f35b5090346101a65760203660031901126101a6576106ad61089f565b6106b56108ba565b6001600160a01b031691821561074c57828452600360205260ff8285205416610715575081835260036020528220805460ff191660011790557fa9f83f1fa7796263d50d56efd1c49162a489059b63167fb977d2f9cb4ae1286b8280a280f35b6020606492519162461bcd60e51b83528201526012602482015271105b1c9958591e48185d5d1a1bdc9a5e995960721b6044820152fd5b6020606492519162461bcd60e51b8352820152600f60248201526e496e76616c6964206164647265737360881b6044820152fd5b5090346101a657806003193601126101a65761079a61089f565b9060243591338552600360205260ff828620541615610828576107be831515610912565b6001600160a01b0316808552600260205281852080549194848301928310610815575055519081523360208201527f36119f4f28ae3384ed31589f21ec2992cb0ebe53b11c79a24466ee74471764ed90604090a280f35b634e487b7160e01b875260119052602486fd5b815162461bcd60e51b8152602081860152601860248201527f4e6f7420617574686f72697a656420636f6c6c6563746f7200000000000000006044820152606490fd5b849084346101a65760203660031901126101a6576020926001600160a01b0361089261089f565b1681526002845220548152f35b600435906001600160a01b03821682036108b557565b600080fd5b6000546001600160a01b031633036108ce57565b606460405162461bcd60e51b815260206004820152602060248201527f4f776e61626c653a2063616c6c6572206973206e6f7420746865206f776e65726044820152fd5b1561091957565b60405162461bcd60e51b815260206004820152601d60248201527f416d6f756e74206d7573742062652067726561746572207468616e20300000006044820152606490fd5b90601f8019910116810190811067ffffffffffffffff82111761098057604052565b634e487b7160e01b600052604160045260246000fd5b919080156109a48115610912565b60018060a01b038094169160009483865260209260028452604093838589205410610bb25785885260028152848820805490858203918211610b9e575585610aab57834710610a68575086808085819486835416908390610a5f575bf115610a5557610a50907f87044da2612407bc001bb0985725dcc651a0dc71eaabfd1d7e8617ca85a8c19c9495965b5493519283529092166001600160a01b031660208201529081906040820190565b0390a2565b82513d87823e3d90fd5b506108fc610a00565b60649085519062461bcd60e51b82526004820152601860248201527f496e73756666696369656e74204554482062616c616e636500000000000000006044820152fd5b905083949596919293516370a0823160e01b815230600482015281816024818a5afa908115610b94579085918491610b63575b5010610b2057508181610b1b857f87044da2612407bc001bb0985725dcc651a0dc71eaabfd1d7e8617ca85a8c19c979695610a5095541689610bf5565b610a2f565b60649085519062461bcd60e51b82526004820152601a60248201527f496e73756666696369656e7420746f6b656e2062616c616e63650000000000006044820152fd5b809250838092503d8311610b8d575b610b7c818361095e565b810103126101a65784905138610ade565b503d610b72565b86513d85823e3d90fd5b634e487b7160e01b8a52601160045260248afd5b60649085519062461bcd60e51b82526004820152601860248201527f496e73756666696369656e74206665652062616c616e636500000000000000006044820152fd5b60405163a9059cbb60e01b60208083019182526001600160a01b03948516602484015260448084019690965294825292608082019267ffffffffffffffff9291908385118386101761098057169060c0810184811084821117610980576040528584527f5361666545524332303a206c6f772d6c6576656c2063616c6c206661696c656460a0820152600080958192519082855af1903d15610d6e573d928311610d5a5790610cc493929160405192610cb788601f19601f840116018561095e565b83523d868885013e610d79565b805191821591848315610d36575b505050905015610cdf5750565b6084906040519062461bcd60e51b82526004820152602a60248201527f5361666545524332303a204552433230206f7065726174696f6e20646964206e6044820152691bdd081cdd58d8d9595960b21b6064820152fd5b9193818094500103126101e2578201519081151582036102d4575080388084610cd2565b634e487b7160e01b85526041600452602485fd5b90610cc49392506060915b91929015610ddb5750815115610d8d575090565b3b15610d965790565b60405162461bcd60e51b815260206004820152601d60248201527f416464726573733a2063616c6c20746f206e6f6e2d636f6e74726163740000006044820152606490fd5b825190915015610dee5750805190602001fd5b6040519062461bcd60e51b82528160208060048301528251908160248401526000935b828510610e34575050604492506000838284010152601f80199101168101030190fd5b8481018201518686016044015293810193859350610e11565b6001600160a01b031680610e6057504790565b6020602491604051928380926370a0823160e01b82523060048301525afa908115610ebe57600091610e90575090565b906020823d8211610eb6575b81610ea96020938361095e565b810103126102d457505190565b3d9150610e9c565b6040513d6000823e3d90fdfea2646970667358221220e0b2fc8d2814f92107a6c5a88233a14ff87ba09bbecf39c434910793b65ddb2964736f6c63430008130033",
  "linkReferences": {},
  "deployedLinkReferences": {}
}