{"contracts/BridgeReceiver.sol":{"BridgeReceiver":{"abi":[{"inputs":[{"internalType":"address","name":"_pointsModule","type":"address"}],"stateMutability":"nonpayable","type":"constructor"},{"anonymous":false,"inputs":[{"indexed":true,"internalType":"bytes32","name":"txId","type":"bytes32"},{"indexed":true,"internalType":"address","name":"user","type":"address"},{"indexed":false,"internalType":"address","name":"token","type":"address"},{"indexed":false,"internalType":"uint256","name":"amount","type":"uint256"},{"indexed":false,"internalType":"address","name":"to","type":"address"}],"name":"BridgeExecuted","type":"event"},{"anonymous":false,"inputs":[{"indexed":true,"internalType":"address","name":"previousOwner","type":"address"},{"indexed":true,"internalType":"address","name":"newOwner","type":"address"}],"name":"OwnershipTransferred","type":"event"},{"anonymous":false,"inputs":[{"indexed":false,"internalType":"address","name":"account","type":"address"}],"name":"Paused","type":"event"},{"anonymous":false,"inputs":[{"indexed":false,"internalType":"address","name":"account","type":"address"}],"name":"Unpaused","type":"event"},{"inputs":[],"name":"BRIDGE_POINTS","outputs":[{"internalType":"uint256","name":"","type":"uint256"}],"stateMutability":"view","type":"function"},{"inputs":[{"internalType":"uint256","name":"chainId","type":"uint256"},{"internalType":"address","name":"sender","type":"address"}],"name":"addTrustedSender","outputs":[],"stateMutability":"nonpayable","type":"function"},{"inputs":[{"internalType":"bytes32","name":"","type":"bytes32"}],"name":"bridgeTransactions","outputs":[{"internalType":"bytes32","name":"id","type":"bytes32"},{"internalType":"address","name":"user","type":"address"},{"internalType":"address","name":"token","type":"address"},{"internalType":"uint256","name":"amount","type":"uint256"},{"internalType":"address","name":"to","type":"address"},{"internalType":"bool","name":"executed","type":"bool"},{"internalType":"uint256","name":"timestamp","type":"uint256"}],"stateMutability":"view","type":"function"},{"inputs":[{"internalType":"address","name":"token","type":"address"}],"name":"emergencyWithdraw","outputs":[],"stateMutability":"nonpayable","type":"function"},{"inputs":[{"internalType":"bytes32","name":"","type":"bytes32"}],"name":"executedTransactions","outputs":[{"internalType":"bool","name":"","type":"bool"}],"stateMutability":"view","type":"function"},{"inputs":[{"internalType":"address","name":"token","type":"address"},{"internalType":"uint256","name":"amount","type":"uint256"}],"name":"fundContract","outputs":[],"stateMutability":"payable","type":"function"},{"inputs":[{"internalType":"bytes32","name":"txId","type":"bytes32"}],"name":"getBridgeTransaction","outputs":[{"components":[{"internalType":"bytes32","name":"id","type":"bytes32"},{"internalType":"address","name":"user","type":"address"},{"internalType":"address","name":"token","type":"address"},{"internalType":"uint256","name":"amount","type":"uint256"},{"internalType":"address","name":"to","type":"address"},{"internalType":"bool","name":"executed","type":"bool"},{"internalType":"uint256","name":"timestamp","type":"uint256"}],"internalType":"struct BridgeReceiver.BridgeTx","name":"","type":"tuple"}],"stateMutability":"view","type":"function"},{"inputs":[{"internalType":"bytes32","name":"txId","type":"bytes32"}],"name":"isExecuted","outputs":[{"internalType":"bool","name":"","type":"bool"}],"stateMutability":"view","type":"function"},{"inputs":[],"name":"owner","outputs":[{"internalType":"address","name":"","type":"address"}],"stateMutability":"view","type":"function"},{"inputs":[],"name":"pause","outputs":[],"stateMutability":"nonpayable","type":"function"},{"inputs":[],"name":"paused","outputs":[{"internalType":"bool","name":"","type":"bool"}],"stateMutability":"view","type":"function"},{"inputs":[],"name":"pointsModule","outputs":[{"internalType":"contract IPointsModule","name":"","type":"address"}],"stateMutability":"view","type":"function"},{"inputs":[{"internalType":"uint256","name":"srcChainId","type":"uint256"},{"internalType":"address","name":"sender","type":"address"},{"internalType":"bytes","name":"payload","type":"bytes"}],"name":"receiveMessage","outputs":[],"stateMutability":"nonpayable","type":"function"},{"inputs":[{"internalType":"uint256","name":"chainId","type":"uint256"},{"internalType":"address","name":"sender","type":"address"}],"name":"removeTrustedSender","outputs":[],"stateMutability":"nonpayable","type":"function"},{"inputs":[],"name":"renounceOwnership","outputs":[],"stateMutability":"nonpayable","type":"function"},{"inputs":[{"internalType":"address","name":"newOwner","type":"address"}],"name":"transferOwnership","outputs":[],"stateMutability":"nonpayable","type":"function"},{"inputs":[{"internalType":"uint256","name":"","type":"uint256"},{"internalType":"address","name":"","type":"address"}],"name":"trustedSenders","outputs":[{"internalType":"bool","name":"","type":"bool"}],"stateMutability":"view","type":"function"},{"inputs":[],"name":"unpause","outputs":[],"stateMutability":"nonpayable","type":"function"},{"inputs":[{"internalType":"address","name":"newPointsModule","type":"address"}],"name":"updatePointsModule","outputs":[],"stateMutability":"nonpayable","type":"function"},{"stateMutability":"payable","type":"receive"}],"evm":{"bytecode":{"linkReferences":{},"object":"6080346100cb57601f61123c38819003918201601f19168301916001600160401b038311848410176100d0578084926020946040528339810103126100cb57516001600160a01b0390818116908190036100cb576001600081815581546001600160a81b0319811633600881811b610100600160a81b0316929092179094556040519591901c16907f8be0079c531659141344cd1fd0a4f28419497f9722a3daafe3b4186f6b6457e09080a3600580546001600160a01b03191691909117905561115590816100e78239f35b600080fd5b634e487b7160e01b600052604160045260246000fdfe60806040818152600480361015610021575b505050361561001f57600080fd5b005b600092833560e01c90816224a1b814610c87575080631885c2f9146108075780631925599714610783578063210d1c031461076757806332d9562f1461073e5780633f4ba83a146106a957806342e02fb4146105915780635c975abb1461056d5780636c63f971146104f55780636ff1c9bc14610406578063715018a6146103a1578063749813801461031a5780638456cb59146102c05780638691d34c1461021f5780638da5cb5b1461028f5780639c49158b1461024b578063e52cb36a1461021f578063f2fde38b146101465763f934ab20036100115734610142578160031936011261014257610112610d76565b9061011b610da2565b803584526020528183209060018060a01b031660005260205260002060ff19815416905580f35b8280fd5b503461014257602036600319011261014257610160610d8c565b610168610da2565b6001600160a01b038181169390929084156101cd57505060018054610100600160a81b03198116600893841b610100600160a81b031617909155901c167f8be0079c531659141344cd1fd0a4f28419497f9722a3daafe3b4186f6b6457e0600080a380f35b906020608492519162461bcd60e51b8352820152602660248201527f4f776e61626c653a206e6577206f776e657220697320746865207a65726f206160448201526564647265737360d01b6064820152fd5b5034610142576020366003190112610142578160209360ff923581526003855220541690519015158152f35b503461014257816003193601126101425781602093610268610d76565b92803582528552209060018060a01b0316600052825260ff81600020541690519015158152f35b5050346102bc57816003193601126102bc57600154905160089190911c6001600160a01b03168152602090f35b5080fd5b5050346102bc57816003193601126102bc5760207f62e78cea01bee320cd4e420270b5ea74000d11b0c9f74754ebdbfc544b05a258916102fe610da2565b610306610e65565b600160ff198154161760015551338152a180f35b5034610142578160031936011261014257610333610d76565b61033b610da2565b6001600160a01b031690811561036d578035845260205281832090600052602052600020600160ff1982541617905580f35b606490602084519162461bcd60e51b8352820152600e60248201526d24b73b30b634b21039b2b73232b960911b6044820152fd5b83346104035780600319360112610403576103ba610da2565b60018054610100600160a81b0319811690915560009060081c6001600160a01b03167f8be0079c531659141344cd1fd0a4f28419497f9722a3daafe3b4186f6b6457e08280a380f35b80fd5b5090346101425760203660031901126101425782610422610d8c565b9261042b610da2565b6001600160a01b0393841680610470575050808080939460015460081c164790828215610467575bf11561045d575080f35b51903d90823e3d90fd5b506108fc610453565b91509260015460081c16908251936370a0823160e01b85523090850152602084602481845afa9283156104ec575084926104b2575b6104af9350610ea9565b80f35b91506020833d82116104e4575b816104cc60209383610e43565b810103126104df576104af9251916104a5565b600080fd5b3d91506104bf565b513d86823e3d90fd5b5090346101425760203660031901126101425760ff8160e0948435815260026020522080549360018060a01b0390816001840154169482600285015416906005600386015493860154950154968151988952602089015287015260608601528116608085015260a01c16151560a083015260c0820152f35b5050346102bc57816003193601126102bc5760209060ff6001541690519015158152f35b509080600319360112610142576105a6610d8c565b602435906105b2610da2565b6001600160a01b0316806105fe57505034156105cd57505080f35b906020606492519162461bcd60e51b8352820152600b60248201526a139bc8115512081cd95b9d60aa1b6044820152fd5b90918294939415610667578051926323b872dd60e01b602085015233602485015230604485015260648401526064835260a083019083821067ffffffffffffffff831117610652576104af94955052610efb565b604186634e487b7160e01b6000525260246000fd5b5162461bcd60e51b8152602081860152601d60248201527f416d6f756e74206d7573742062652067726561746572207468616e20300000006044820152606490fd5b50346101425782600319360112610142576106c2610da2565b6001549060ff821615610704575060ff1916600155513381527f5db9ee0a495bf2e6ff9c91a7834c1ba4fdd244a5e8aa4e537bd38aeae4b073aa90602090a180f35b606490602084519162461bcd60e51b8352820152601460248201527314185d5cd8589b194e881b9bdd081c185d5cd95960621b6044820152fd5b5050346102bc57816003193601126102bc5760055490516001600160a01b039091168152602090f35b5050346102bc57816003193601126102bc576020905160148152f35b50346101425760203660031901126101425761079d610d8c565b6107a5610da2565b6001600160a01b03169182156107d25750506bffffffffffffffffffffffff60a01b600554161760055580f35b906020606492519162461bcd60e51b8352820152600f60248201526e496e76616c6964206164647265737360881b6044820152fd5b503461014257606036600319011261014257610821610d76565b60449267ffffffffffffffff91908435838111610c835736602382011215610c835780850135848111610c7f57810160243681830111610c06576002895414610c3e5760028955610870610e65565b863589526020878152848a206001600160a01b039687168b528152848a205490929060ff1615610c0a578360a0910312610c065782810135966108b4898501610dfd565b966108c160648601610dfd565b9987808060848901359860a4016108d790610dfd565b9b169c169916978a8d5260038652878d205460ff16610bc5578c60058c8b8f8b8f8c928f8051986109078a610e11565b878a52858a01928352818a0193845260608a0194855260808a01968752600260a08b01966001885260c08c0199428b5283525220975188558860018901915116906bffffffffffffffffffffffff60a01b91828254161790558860028901925116908254161790555160038601558589860192511682549160ff60a01b9051151560a01b16916affffffffffffffffffffff60a81b16171790555191015560038652878d20600160ff198254161790558915600014610aff57864710610abe57908c94939291858080808b8e828215610ab5575bf115610aab575b60055416803b15610aa75785918d8a51978893849263507cd30f60e01b8452888401526014898401525af18015610a9d57610a54575b5050845196875250508401528201527f9c8bdb03a71310ba89a3d52aba0ff0fe78e16b9e917e5642b6a3d17668e56b6490606090a36001815580f35b839b949b11610a8c575050835296817f9c8bdb03a71310ba89a3d52aba0ff0fe78e16b9e917e5642b6a3d17668e56b64606038610a18565b634e487b7160e01b84526041905282fd5b87513d8e823e3d90fd5b8580fd5b88513d87823e3d90fd5b506108fc6109db565b875162461bcd60e51b81528085018790526018818701527f496e73756666696369656e74204554482062616c616e6365000000000000000081840152606490fd5b87516370a0823160e01b815230858201528d90878188818f5afa918215610bba57908992610b85575b5010610b4457908c94939291610b3f888b8d610ea9565b6109e2565b875162461bcd60e51b8152808501879052601a818701527f496e73756666696369656e7420746f6b656e2062616c616e636500000000000081840152606490fd5b809250888092503d8311610bb3575b610b9e8183610e43565b81010312610baf5787905138610b28565b8d80fd5b503d610b94565b8a51903d90823e3d90fd5b875162461bcd60e51b8152808501879052601c818701527f5472616e73616374696f6e20616c72656164792065786563757465640000000081840152606490fd5b8880fd5b845162461bcd60e51b81528089018490526010818401526f2ab73a393ab9ba32b21039b2b73232b960811b818b0152606490fd5b867f5265656e7472616e637947756172643a207265656e7472616e742063616c6c0089601f606494602089519562461bcd60e51b8752860152840152820152fd5b8780fd5b8680fd5b905034610d72576020366003190112610d7257828460e09560c084610cad60a096610e11565b8281528260208201528285820152826060820152826080820152828682015201528335815260026020522083518093610ce582610e11565b825495868352600180861b03848180600181980154166020870190815260c060058360028601541694878a0195865260ff60038201549960608c019a8b528201549c8b878f9d6080019d168d52019c60a01c1615158c5201549a01998a5284519a8b52511660208a01525116908701525160608601525116608084015251151560a08301525160c0820152f35b8380fd5b602435906001600160a01b03821682036104df57565b600435906001600160a01b03821682036104df57565b60015460081c6001600160a01b03163303610db957565b606460405162461bcd60e51b815260206004820152602060248201527f4f776e61626c653a2063616c6c6572206973206e6f7420746865206f776e65726044820152fd5b35906001600160a01b03821682036104df57565b60e0810190811067ffffffffffffffff821117610e2d57604052565b634e487b7160e01b600052604160045260246000fd5b90601f8019910116810190811067ffffffffffffffff821117610e2d57604052565b60ff60015416610e7157565b60405162461bcd60e51b815260206004820152601060248201526f14185d5cd8589b194e881c185d5cd95960821b6044820152606490fd5b60405163a9059cbb60e01b60208201526001600160a01b039092166024830152604480830193909352918152608081019167ffffffffffffffff831182841017610e2d57610ef992604052610efb565b565b60018060a01b0316906040516040810167ffffffffffffffff9082811082821117610e2d576040526020938483527f5361666545524332303a206c6f772d6c6576656c2063616c6c206661696c6564858401526000808587829751910182855af1903d15611040573d92831161102c5790610f9693929160405192610f8988601f19601f8401160185610e43565b83523d868885013e61104b565b805191821591848315611008575b505050905015610fb15750565b6084906040519062461bcd60e51b82526004820152602a60248201527f5361666545524332303a204552433230206f7065726174696f6e20646964206e6044820152691bdd081cdd58d8d9595960b21b6064820152fd5b9193818094500103126102bc57820151908115158203610403575080388084610fa4565b634e487b7160e01b85526041600452602485fd5b90610f969392506060915b919290156110ad575081511561105f575090565b3b156110685790565b60405162461bcd60e51b815260206004820152601d60248201527f416464726573733a2063616c6c20746f206e6f6e2d636f6e74726163740000006044820152606490fd5b8251909150156110c05750805190602001fd5b6040519062461bcd60e51b82528160208060048301528251908160248401526000935b828510611106575050604492506000838284010152601f80199101168101030190fd5b84810182015186860160440152938101938593506110e356fea264697066735822122038ddeb44c7d2a599959da562c9954409c5cf7649934ae859b571138bff6d61ae64736f6c63430008130033","opcodes":"PUSH1 0x80 CALLVALUE PUSH2 0xCB JUMPI PUSH1 0x1F PUSH2 0x123C CODESIZE DUP2 SWAP1 SUB SWAP2 DUP3 ADD PUSH1 0x1F NOT AND DUP4 ADD SWAP2 PUSH1 0x1 PUSH1 0x1 PUSH1 0x40 SHL SUB DUP4 GT DUP5 DUP5 LT OR PUSH2 0xD0 JUMPI DUP1 DUP5 SWAP3 PUSH1 0x20 SWAP5 PUSH1 0x40 MSTORE DUP4 CODECOPY DUP2 ADD SUB SLT PUSH2 0xCB JUMPI MLOAD PUSH1 0x1 PUSH1 0x1 PUSH1 0xA0 SHL SUB SWAP1 DUP2 DUP2 AND SWAP1 DUP2 SWAP1 SUB PUSH2 0xCB JUMPI PUSH1 0x1 PUSH1 0x0 DUP2 DUP2 SSTORE DUP2 SLOAD PUSH1 0x1 PUSH1 0x1 PUSH1 0xA8 SHL SUB NOT DUP2 AND CALLER PUSH1 0x8 DUP2 DUP2 SHL PUSH2 0x100 PUSH1 0x1 PUSH1 0xA8 SHL SUB AND SWAP3 SWAP1 SWAP3 OR SWAP1 SWAP5 SSTORE PUSH1 0x40 MLOAD SWAP6 SWAP2 SWAP1 SHR AND SWAP1 PUSH32 0x8BE0079C531659141344CD1FD0A4F28419497F9722A3DAAFE3B4186F6B6457E0 SWAP1 DUP1 LOG3 PUSH1 0x5 DUP1 SLOAD PUSH1 0x1 PUSH1 0x1 PUSH1 0xA0 SHL SUB NOT AND SWAP2 SWAP1 SWAP2 OR SWAP1 SSTORE PUSH2 0x1155 SWAP1 DUP2 PUSH2 0xE7 DUP3 CODECOPY RETURN JUMPDEST PUSH1 0x0 DUP1 REVERT JUMPDEST PUSH4 0x4E487B71 PUSH1 0xE0 SHL PUSH1 0x0 MSTORE PUSH1 0x41 PUSH1 0x4 MSTORE PUSH1 0x24 PUSH1 0x0 REVERT INVALID PUSH1 0x80 PUSH1 0x40 DUP2 DUP2 MSTORE PUSH1 0x4 DUP1 CALLDATASIZE LT ISZERO PUSH2 0x21 JUMPI JUMPDEST POP POP POP CALLDATASIZE ISZERO PUSH2 0x1F JUMPI PUSH1 0x0 DUP1 REVERT JUMPDEST STOP JUMPDEST PUSH1 0x0 SWAP3 DUP4 CALLDATALOAD PUSH1 0xE0 SHR SWAP1 DUP2 PUSH3 0x24A1B8 EQ PUSH2 0xC87 JUMPI POP DUP1 PUSH4 0x1885C2F9 EQ PUSH2 0x807 JUMPI DUP1 PUSH4 0x19255997 EQ PUSH2 0x783 JUMPI DUP1 PUSH4 0x210D1C03 EQ PUSH2 0x767 JUMPI DUP1 PUSH4 0x32D9562F EQ PUSH2 0x73E JUMPI DUP1 PUSH4 0x3F4BA83A EQ PUSH2 0x6A9 JUMPI DUP1 PUSH4 0x42E02FB4 EQ PUSH2 0x591 JUMPI DUP1 PUSH4 0x5C975ABB EQ PUSH2 0x56D JUMPI DUP1 PUSH4 0x6C63F971 EQ PUSH2 0x4F5 JUMPI DUP1 PUSH4 0x6FF1C9BC EQ PUSH2 0x406 JUMPI DUP1 PUSH4 0x715018A6 EQ PUSH2 0x3A1 JUMPI DUP1 PUSH4 0x74981380 EQ PUSH2 0x31A JUMPI DUP1 PUSH4 0x8456CB59 EQ PUSH2 0x2C0 JUMPI DUP1 PUSH4 0x8691D34C EQ PUSH2 0x21F JUMPI DUP1 PUSH4 0x8DA5CB5B EQ PUSH2 0x28F JUMPI DUP1 PUSH4 0x9C49158B EQ PUSH2 0x24B JUMPI DUP1 PUSH4 0xE52CB36A EQ PUSH2 0x21F JUMPI DUP1 PUSH4 0xF2FDE38B EQ PUSH2 0x146 JUMPI PUSH4 0xF934AB20 SUB PUSH2 0x11 JUMPI CALLVALUE PUSH2 0x142 JUMPI DUP2 PUSH1 0x3 NOT CALLDATASIZE ADD SLT PUSH2 0x142 JUMPI PUSH2 0x112 PUSH2 0xD76 JUMP JUMPDEST SWAP1 PUSH2 0x11B PUSH2 0xDA2 JUMP JUMPDEST DUP1 CALLDATALOAD DUP5 MSTORE PUSH1 0x20 MSTORE DUP2 DUP4 KECCAK256 SWAP1 PUSH1 0x1 DUP1 PUSH1 0xA0 SHL SUB AND PUSH1 0x0 MSTORE PUSH1 0x20 MSTORE PUSH1 0x0 KECCAK256 PUSH1 0xFF NOT DUP2 SLOAD AND SWAP1 SSTORE DUP1 RETURN JUMPDEST DUP3 DUP1 REVERT JUMPDEST POP CALLVALUE PUSH2 0x142 JUMPI PUSH1 0x20 CALLDATASIZE PUSH1 0x3 NOT ADD SLT PUSH2 0x142 JUMPI PUSH2 0x160 PUSH2 0xD8C JUMP JUMPDEST PUSH2 0x168 PUSH2 0xDA2 JUMP JUMPDEST PUSH1 0x1 PUSH1 0x1 PUSH1 0xA0 SHL SUB DUP2 DUP2 AND SWAP4 SWAP1 SWAP3 SWAP1 DUP5 ISZERO PUSH2 0x1CD JUMPI POP POP PUSH1 0x1 DUP1 SLOAD PUSH2 0x100 PUSH1 0x1 PUSH1 0xA8 SHL SUB NOT DUP2 AND PUSH1 0x8 SWAP4 DUP5 SHL PUSH2 0x100 PUSH1 0x1 PUSH1 0xA8 SHL SUB AND OR SWAP1 SWAP2 SSTORE SWAP1 SHR AND PUSH32 0x8BE0079C531659141344CD1FD0A4F28419497F9722A3DAAFE3B4186F6B6457E0 PUSH1 0x0 DUP1 LOG3 DUP1 RETURN JUMPDEST SWAP1 PUSH1 0x20 PUSH1 0x84 SWAP3 MLOAD SWAP2 PUSH3 0x461BCD PUSH1 0xE5 SHL DUP4 MSTORE DUP3 ADD MSTORE PUSH1 0x26 PUSH1 0x24 DUP3 ADD MSTORE PUSH32 0x4F776E61626C653A206E6577206F776E657220697320746865207A65726F2061 PUSH1 0x44 DUP3 ADD MSTORE PUSH6 0x646472657373 PUSH1 0xD0 SHL PUSH1 0x64 DUP3 ADD MSTORE REVERT JUMPDEST POP CALLVALUE PUSH2 0x142 JUMPI PUSH1 0x20 CALLDATASIZE PUSH1 0x3 NOT ADD SLT PUSH2 0x142 JUMPI DUP2 PUSH1 0x20 SWAP4 PUSH1 0xFF SWAP3 CALLDATALOAD DUP2 MSTORE PUSH1 0x3 DUP6 MSTORE KECCAK256 SLOAD AND SWAP1 MLOAD SWAP1 ISZERO ISZERO DUP2 MSTORE RETURN JUMPDEST POP CALLVALUE PUSH2 0x142 JUMPI DUP2 PUSH1 0x3 NOT CALLDATASIZE ADD SLT PUSH2 0x142 JUMPI DUP2 PUSH1 0x20 SWAP4 PUSH2 0x268 PUSH2 0xD76 JUMP JUMPDEST SWAP3 DUP1 CALLDATALOAD DUP3 MSTORE DUP6 MSTORE KECCAK256 SWAP1 PUSH1 0x1 DUP1 PUSH1 0xA0 SHL SUB AND PUSH1 0x0 MSTORE DUP3 MSTORE PUSH1 0xFF DUP2 PUSH1 0x0 KECCAK256 SLOAD AND SWAP1 MLOAD SWAP1 ISZERO ISZERO DUP2 MSTORE RETURN JUMPDEST POP POP CALLVALUE PUSH2 0x2BC JUMPI DUP2 PUSH1 0x3 NOT CALLDATASIZE ADD SLT PUSH2 0x2BC JUMPI PUSH1 0x1 SLOAD SWAP1 MLOAD PUSH1 0x8 SWAP2 SWAP1 SWAP2 SHR PUSH1 0x1 PUSH1 0x1 PUSH1 0xA0 SHL SUB AND DUP2 MSTORE PUSH1 0x20 SWAP1 RETURN JUMPDEST POP DUP1 REVERT JUMPDEST POP POP CALLVALUE PUSH2 0x2BC JUMPI DUP2 PUSH1 0x3 NOT CALLDATASIZE ADD SLT PUSH2 0x2BC JUMPI PUSH1 0x20 PUSH32 0x62E78CEA01BEE320CD4E420270B5EA74000D11B0C9F74754EBDBFC544B05A258 SWAP2 PUSH2 0x2FE PUSH2 0xDA2 JUMP JUMPDEST PUSH2 0x306 PUSH2 0xE65 JUMP JUMPDEST PUSH1 0x1 PUSH1 0xFF NOT DUP2 SLOAD AND OR PUSH1 0x1 SSTORE MLOAD CALLER DUP2 MSTORE LOG1 DUP1 RETURN JUMPDEST POP CALLVALUE PUSH2 0x142 JUMPI DUP2 PUSH1 0x3 NOT CALLDATASIZE ADD SLT PUSH2 0x142 JUMPI PUSH2 0x333 PUSH2 0xD76 JUMP JUMPDEST PUSH2 0x33B PUSH2 0xDA2 JUMP JUMPDEST PUSH1 0x1 PUSH1 0x1 PUSH1 0xA0 SHL SUB AND SWAP1 DUP2 ISZERO PUSH2 0x36D JUMPI DUP1 CALLDATALOAD DUP5 MSTORE PUSH1 0x20 MSTORE DUP2 DUP4 KECCAK256 SWAP1 PUSH1 0x0 MSTORE PUSH1 0x20 MSTORE PUSH1 0x0 KECCAK256 PUSH1 0x1 PUSH1 0xFF NOT DUP3 SLOAD AND OR SWAP1 SSTORE DUP1 RETURN JUMPDEST PUSH1 0x64 SWAP1 PUSH1 0x20 DUP5 MLOAD SWAP2 PUSH3 0x461BCD PUSH1 0xE5 SHL DUP4 MSTORE DUP3 ADD MSTORE PUSH1 0xE PUSH1 0x24 DUP3 ADD MSTORE PUSH14 0x24B73B30B634B21039B2B73232B9 PUSH1 0x91 SHL PUSH1 0x44 DUP3 ADD MSTORE REVERT JUMPDEST DUP4 CALLVALUE PUSH2 0x403 JUMPI DUP1 PUSH1 0x3 NOT CALLDATASIZE ADD SLT PUSH2 0x403 JUMPI PUSH2 0x3BA PUSH2 0xDA2 JUMP JUMPDEST PUSH1 0x1 DUP1 SLOAD PUSH2 0x100 PUSH1 0x1 PUSH1 0xA8 SHL SUB NOT DUP2 AND SWAP1 SWAP2 SSTORE PUSH1 0x0 SWAP1 PUSH1 0x8 SHR PUSH1 0x1 PUSH1 0x1 PUSH1 0xA0 SHL SUB AND PUSH32 0x8BE0079C531659141344CD1FD0A4F28419497F9722A3DAAFE3B4186F6B6457E0 DUP3 DUP1 LOG3 DUP1 RETURN JUMPDEST DUP1 REVERT JUMPDEST POP SWAP1 CALLVALUE PUSH2 0x142 JUMPI PUSH1 0x20 CALLDATASIZE PUSH1 0x3 NOT ADD SLT PUSH2 0x142 JUMPI DUP3 PUSH2 0x422 PUSH2 0xD8C JUMP JUMPDEST SWAP3 PUSH2 0x42B PUSH2 0xDA2 JUMP JUMPDEST PUSH1 0x1 PUSH1 0x1 PUSH1 0xA0 SHL SUB SWAP4 DUP5 AND DUP1 PUSH2 0x470 JUMPI POP POP DUP1 DUP1 DUP1 SWAP4 SWAP5 PUSH1 0x1 SLOAD PUSH1 0x8 SHR AND SELFBALANCE SWAP1 DUP3 DUP3 ISZERO PUSH2 0x467 JUMPI JUMPDEST CALL ISZERO PUSH2 0x45D JUMPI POP DUP1 RETURN JUMPDEST MLOAD SWAP1 RETURNDATASIZE SWAP1 DUP3 RETURNDATACOPY RETURNDATASIZE SWAP1 REVERT JUMPDEST POP PUSH2 0x8FC PUSH2 0x453 JUMP JUMPDEST SWAP2 POP SWAP3 PUSH1 0x1 SLOAD PUSH1 0x8 SHR AND SWAP1 DUP3 MLOAD SWAP4 PUSH4 0x70A08231 PUSH1 0xE0 SHL DUP6 MSTORE ADDRESS SWAP1 DUP6 ADD MSTORE PUSH1 0x20 DUP5 PUSH1 0x24 DUP2 DUP5 GAS STATICCALL SWAP3 DUP4 ISZERO PUSH2 0x4EC JUMPI POP DUP5 SWAP3 PUSH2 0x4B2 JUMPI JUMPDEST PUSH2 0x4AF SWAP4 POP PUSH2 0xEA9 JUMP JUMPDEST DUP1 RETURN JUMPDEST SWAP2 POP PUSH1 0x20 DUP4 RETURNDATASIZE DUP3 GT PUSH2 0x4E4 JUMPI JUMPDEST DUP2 PUSH2 0x4CC PUSH1 0x20 SWAP4 DUP4 PUSH2 0xE43 JUMP JUMPDEST DUP2 ADD SUB SLT PUSH2 0x4DF JUMPI PUSH2 0x4AF SWAP3 MLOAD SWAP2 PUSH2 0x4A5 JUMP JUMPDEST PUSH1 0x0 DUP1 REVERT JUMPDEST RETURNDATASIZE SWAP2 POP PUSH2 0x4BF JUMP JUMPDEST MLOAD RETURNDATASIZE DUP7 DUP3 RETURNDATACOPY RETURNDATASIZE SWAP1 REVERT JUMPDEST POP SWAP1 CALLVALUE PUSH2 0x142 JUMPI PUSH1 0x20 CALLDATASIZE PUSH1 0x3 NOT ADD SLT PUSH2 0x142 JUMPI PUSH1 0xFF DUP2 PUSH1 0xE0 SWAP5 DUP5 CALLDATALOAD DUP2 MSTORE PUSH1 0x2 PUSH1 0x20 MSTORE KECCAK256 DUP1 SLOAD SWAP4 PUSH1 0x1 DUP1 PUSH1 0xA0 SHL SUB SWAP1 DUP2 PUSH1 0x1 DUP5 ADD SLOAD AND SWAP5 DUP3 PUSH1 0x2 DUP6 ADD SLOAD AND SWAP1 PUSH1 0x5 PUSH1 0x3 DUP7 ADD SLOAD SWAP4 DUP7 ADD SLOAD SWAP6 ADD SLOAD SWAP7 DUP2 MLOAD SWAP9 DUP10 MSTORE PUSH1 0x20 DUP10 ADD MSTORE DUP8 ADD MSTORE PUSH1 0x60 DUP7 ADD MSTORE DUP2 AND PUSH1 0x80 DUP6 ADD MSTORE PUSH1 0xA0 SHR AND ISZERO ISZERO PUSH1 0xA0 DUP4 ADD MSTORE PUSH1 0xC0 DUP3 ADD MSTORE RETURN JUMPDEST POP POP CALLVALUE PUSH2 0x2BC JUMPI DUP2 PUSH1 0x3 NOT CALLDATASIZE ADD SLT PUSH2 0x2BC JUMPI PUSH1 0x20 SWAP1 PUSH1 0xFF PUSH1 0x1 SLOAD AND SWAP1 MLOAD SWAP1 ISZERO ISZERO DUP2 MSTORE RETURN JUMPDEST POP SWAP1 DUP1 PUSH1 0x3 NOT CALLDATASIZE ADD SLT PUSH2 0x142 JUMPI PUSH2 0x5A6 PUSH2 0xD8C JUMP JUMPDEST PUSH1 0x24 CALLDATALOAD SWAP1 PUSH2 0x5B2 PUSH2 0xDA2 JUMP JUMPDEST PUSH1 0x1 PUSH1 0x1 PUSH1 0xA0 SHL SUB AND DUP1 PUSH2 0x5FE JUMPI POP POP CALLVALUE ISZERO PUSH2 0x5CD JUMPI POP POP DUP1 RETURN JUMPDEST SWAP1 PUSH1 0x20 PUSH1 0x64 SWAP3 MLOAD SWAP2 PUSH3 0x461BCD PUSH1 0xE5 SHL DUP4 MSTORE DUP3 ADD MSTORE PUSH1 0xB PUSH1 0x24 DUP3 ADD MSTORE PUSH11 0x139BC8115512081CD95B9D PUSH1 0xAA SHL PUSH1 0x44 DUP3 ADD MSTORE REVERT JUMPDEST SWAP1 SWAP2 DUP3 SWAP5 SWAP4 SWAP5 ISZERO PUSH2 0x667 JUMPI DUP1 MLOAD SWAP3 PUSH4 0x23B872DD PUSH1 0xE0 SHL PUSH1 0x20 DUP6 ADD MSTORE CALLER PUSH1 0x24 DUP6 ADD MSTORE ADDRESS PUSH1 0x44 DUP6 ADD MSTORE PUSH1 0x64 DUP5 ADD MSTORE PUSH1 0x64 DUP4 MSTORE PUSH1 0xA0 DUP4 ADD SWAP1 DUP4 DUP3 LT PUSH8 0xFFFFFFFFFFFFFFFF DUP4 GT OR PUSH2 0x652 JUMPI PUSH2 0x4AF SWAP5 SWAP6 POP MSTORE PUSH2 0xEFB JUMP JUMPDEST PUSH1 0x41 DUP7 PUSH4 0x4E487B71 PUSH1 0xE0 SHL PUSH1 0x0 MSTORE MSTORE PUSH1 0x24 PUSH1 0x0 REVERT JUMPDEST MLOAD PUSH3 0x461BCD PUSH1 0xE5 SHL DUP2 MSTORE PUSH1 0x20 DUP2 DUP7 ADD MSTORE PUSH1 0x1D PUSH1 0x24 DUP3 ADD MSTORE PUSH32 0x416D6F756E74206D7573742062652067726561746572207468616E2030000000 PUSH1 0x44 DUP3 ADD MSTORE PUSH1 0x64 SWAP1 REVERT JUMPDEST POP CALLVALUE PUSH2 0x142 JUMPI DUP3 PUSH1 0x3 NOT CALLDATASIZE ADD SLT PUSH2 0x142 JUMPI PUSH2 0x6C2 PUSH2 0xDA2 JUMP JUMPDEST PUSH1 0x1 SLOAD SWAP1 PUSH1 0xFF DUP3 AND ISZERO PUSH2 0x704 JUMPI POP PUSH1 0xFF NOT AND PUSH1 0x1 SSTORE MLOAD CALLER DUP2 MSTORE PUSH32 0x5DB9EE0A495BF2E6FF9C91A7834C1BA4FDD244A5E8AA4E537BD38AEAE4B073AA SWAP1 PUSH1 0x20 SWAP1 LOG1 DUP1 RETURN JUMPDEST PUSH1 0x64 SWAP1 PUSH1 0x20 DUP5 MLOAD SWAP2 PUSH3 0x461BCD PUSH1 0xE5 SHL DUP4 MSTORE DUP3 ADD MSTORE PUSH1 0x14 PUSH1 0x24 DUP3 ADD MSTORE PUSH20 0x14185D5CD8589B194E881B9BDD081C185D5CD959 PUSH1 0x62 SHL PUSH1 0x44 DUP3 ADD MSTORE REVERT JUMPDEST POP POP CALLVALUE PUSH2 0x2BC JUMPI DUP2 PUSH1 0x3 NOT CALLDATASIZE ADD SLT PUSH2 0x2BC JUMPI PUSH1 0x5 SLOAD SWAP1 MLOAD PUSH1 0x1 PUSH1 0x1 PUSH1 0xA0 SHL SUB SWAP1 SWAP2 AND DUP2 MSTORE PUSH1 0x20 SWAP1 RETURN JUMPDEST POP POP CALLVALUE PUSH2 0x2BC JUMPI DUP2 PUSH1 0x3 NOT CALLDATASIZE ADD SLT PUSH2 0x2BC JUMPI PUSH1 0x20 SWAP1 MLOAD PUSH1 0x14 DUP2 MSTORE RETURN JUMPDEST POP CALLVALUE PUSH2 0x142 JUMPI PUSH1 0x20 CALLDATASIZE PUSH1 0x3 NOT ADD SLT PUSH2 0x142 JUMPI PUSH2 0x79D PUSH2 0xD8C JUMP JUMPDEST PUSH2 0x7A5 PUSH2 0xDA2 JUMP JUMPDEST PUSH1 0x1 PUSH1 0x1 PUSH1 0xA0 SHL SUB AND SWAP2 DUP3 ISZERO PUSH2 0x7D2 JUMPI POP POP PUSH12 0xFFFFFFFFFFFFFFFFFFFFFFFF PUSH1 0xA0 SHL PUSH1 0x5 SLOAD AND OR PUSH1 0x5 SSTORE DUP1 RETURN JUMPDEST SWAP1 PUSH1 0x20 PUSH1 0x64 SWAP3 MLOAD SWAP2 PUSH3 0x461BCD PUSH1 0xE5 SHL DUP4 MSTORE DUP3 ADD MSTORE PUSH1 0xF PUSH1 0x24 DUP3 ADD MSTORE PUSH15 0x496E76616C69642061646472657373 PUSH1 0x88 SHL PUSH1 0x44 DUP3 ADD MSTORE REVERT JUMPDEST POP CALLVALUE PUSH2 0x142 JUMPI PUSH1 0x60 CALLDATASIZE PUSH1 0x3 NOT ADD SLT PUSH2 0x142 JUMPI PUSH2 0x821 PUSH2 0xD76 JUMP JUMPDEST PUSH1 0x44 SWAP3 PUSH8 0xFFFFFFFFFFFFFFFF SWAP2 SWAP1 DUP5 CALLDATALOAD DUP4 DUP2 GT PUSH2 0xC83 JUMPI CALLDATASIZE PUSH1 0x23 DUP3 ADD SLT ISZERO PUSH2 0xC83 JUMPI DUP1 DUP6 ADD CALLDATALOAD DUP5 DUP2 GT PUSH2 0xC7F JUMPI DUP2 ADD PUSH1 0x24 CALLDATASIZE DUP2 DUP4 ADD GT PUSH2 0xC06 JUMPI PUSH1 0x2 DUP10 SLOAD EQ PUSH2 0xC3E JUMPI PUSH1 0x2 DUP10 SSTORE PUSH2 0x870 PUSH2 0xE65 JUMP JUMPDEST DUP7 CALLDATALOAD DUP10 MSTORE PUSH1 0x20 DUP8 DUP2 MSTORE DUP5 DUP11 KECCAK256 PUSH1 0x1 PUSH1 0x1 PUSH1 0xA0 SHL SUB SWAP7 DUP8 AND DUP12 MSTORE DUP2 MSTORE DUP5 DUP11 KECCAK256 SLOAD SWAP1 SWAP3 SWAP1 PUSH1 0xFF AND ISZERO PUSH2 0xC0A JUMPI DUP4 PUSH1 0xA0 SWAP2 SUB SLT PUSH2 0xC06 JUMPI DUP3 DUP2 ADD CALLDATALOAD SWAP7 PUSH2 0x8B4 DUP10 DUP6 ADD PUSH2 0xDFD JUMP JUMPDEST SWAP7 PUSH2 0x8C1 PUSH1 0x64 DUP7 ADD PUSH2 0xDFD JUMP JUMPDEST SWAP10 DUP8 DUP1 DUP1 PUSH1 0x84 DUP10 ADD CALLDATALOAD SWAP9 PUSH1 0xA4 ADD PUSH2 0x8D7 SWAP1 PUSH2 0xDFD JUMP JUMPDEST SWAP12 AND SWAP13 AND SWAP10 AND SWAP8 DUP11 DUP14 MSTORE PUSH1 0x3 DUP7 MSTORE DUP8 DUP14 KECCAK256 SLOAD PUSH1 0xFF AND PUSH2 0xBC5 JUMPI DUP13 PUSH1 0x5 DUP13 DUP12 DUP16 DUP12 DUP16 DUP13 SWAP3 DUP16 DUP1 MLOAD SWAP9 PUSH2 0x907 DUP11 PUSH2 0xE11 JUMP JUMPDEST DUP8 DUP11 MSTORE DUP6 DUP11 ADD SWAP3 DUP4 MSTORE DUP2 DUP11 ADD SWAP4 DUP5 MSTORE PUSH1 0x60 DUP11 ADD SWAP5 DUP6 MSTORE PUSH1 0x80 DUP11 ADD SWAP7 DUP8 MSTORE PUSH1 0x2 PUSH1 0xA0 DUP12 ADD SWAP7 PUSH1 0x1 DUP9 MSTORE PUSH1 0xC0 DUP13 ADD SWAP10 TIMESTAMP DUP12 MSTORE DUP4 MSTORE MSTORE KECCAK256 SWAP8 MLOAD DUP9 SSTORE DUP9 PUSH1 0x1 DUP10 ADD SWAP2 MLOAD AND SWAP1 PUSH12 0xFFFFFFFFFFFFFFFFFFFFFFFF PUSH1 0xA0 SHL SWAP2 DUP3 DUP3 SLOAD AND OR SWAP1 SSTORE DUP9 PUSH1 0x2 DUP10 ADD SWAP3 MLOAD AND SWAP1 DUP3 SLOAD AND OR SWAP1 SSTORE MLOAD PUSH1 0x3 DUP7 ADD SSTORE DUP6 DUP10 DUP7 ADD SWAP3 MLOAD AND DUP3 SLOAD SWAP2 PUSH1 0xFF PUSH1 0xA0 SHL SWAP1 MLOAD ISZERO ISZERO PUSH1 0xA0 SHL AND SWAP2 PUSH11 0xFFFFFFFFFFFFFFFFFFFFFF PUSH1 0xA8 SHL AND OR OR SWAP1 SSTORE MLOAD SWAP2 ADD SSTORE PUSH1 0x3 DUP7 MSTORE DUP8 DUP14 KECCAK256 PUSH1 0x1 PUSH1 0xFF NOT DUP3 SLOAD AND OR SWAP1 SSTORE DUP10 ISZERO PUSH1 0x0 EQ PUSH2 0xAFF JUMPI DUP7 SELFBALANCE LT PUSH2 0xABE JUMPI SWAP1 DUP13 SWAP5 SWAP4 SWAP3 SWAP2 DUP6 DUP1 DUP1 DUP1 DUP12 DUP15 DUP3 DUP3 ISZERO PUSH2 0xAB5 JUMPI JUMPDEST CALL ISZERO PUSH2 0xAAB JUMPI JUMPDEST PUSH1 0x5 SLOAD AND DUP1 EXTCODESIZE ISZERO PUSH2 0xAA7 JUMPI DUP6 SWAP2 DUP14 DUP11 MLOAD SWAP8 DUP9 SWAP4 DUP5 SWAP3 PUSH4 0x507CD30F PUSH1 0xE0 SHL DUP5 MSTORE DUP9 DUP5 ADD MSTORE PUSH1 0x14 DUP10 DUP5 ADD MSTORE GAS CALL DUP1 ISZERO PUSH2 0xA9D JUMPI PUSH2 0xA54 JUMPI JUMPDEST POP POP DUP5 MLOAD SWAP7 DUP8 MSTORE POP POP DUP5 ADD MSTORE DUP3 ADD MSTORE PUSH32 0x9C8BDB03A71310BA89A3D52ABA0FF0FE78E16B9E917E5642B6A3D17668E56B64 SWAP1 PUSH1 0x60 SWAP1 LOG3 PUSH1 0x1 DUP2 SSTORE DUP1 RETURN JUMPDEST DUP4 SWAP12 SWAP5 SWAP12 GT PUSH2 0xA8C JUMPI POP POP DUP4 MSTORE SWAP7 DUP2 PUSH32 0x9C8BDB03A71310BA89A3D52ABA0FF0FE78E16B9E917E5642B6A3D17668E56B64 PUSH1 0x60 CODESIZE PUSH2 0xA18 JUMP JUMPDEST PUSH4 0x4E487B71 PUSH1 0xE0 SHL DUP5 MSTORE PUSH1 0x41 SWAP1 MSTORE DUP3 REVERT JUMPDEST DUP8 MLOAD RETURNDATASIZE DUP15 DUP3 RETURNDATACOPY RETURNDATASIZE SWAP1 REVERT JUMPDEST DUP6 DUP1 REVERT JUMPDEST DUP9 MLOAD RETURNDATASIZE DUP8 DUP3 RETURNDATACOPY RETURNDATASIZE SWAP1 REVERT JUMPDEST POP PUSH2 0x8FC PUSH2 0x9DB JUMP JUMPDEST DUP8 MLOAD PUSH3 0x461BCD PUSH1 0xE5 SHL DUP2 MSTORE DUP1 DUP6 ADD DUP8 SWAP1 MSTORE PUSH1 0x18 DUP2 DUP8 ADD MSTORE PUSH32 0x496E73756666696369656E74204554482062616C616E63650000000000000000 DUP2 DUP5 ADD MSTORE PUSH1 0x64 SWAP1 REVERT JUMPDEST DUP8 MLOAD PUSH4 0x70A08231 PUSH1 0xE0 SHL DUP2 MSTORE ADDRESS DUP6 DUP3 ADD MSTORE DUP14 SWAP1 DUP8 DUP2 DUP9 DUP2 DUP16 GAS STATICCALL SWAP2 DUP3 ISZERO PUSH2 0xBBA JUMPI SWAP1 DUP10 SWAP3 PUSH2 0xB85 JUMPI JUMPDEST POP LT PUSH2 0xB44 JUMPI SWAP1 DUP13 SWAP5 SWAP4 SWAP3 SWAP2 PUSH2 0xB3F DUP9 DUP12 DUP14 PUSH2 0xEA9 JUMP JUMPDEST PUSH2 0x9E2 JUMP JUMPDEST DUP8 MLOAD PUSH3 0x461BCD PUSH1 0xE5 SHL DUP2 MSTORE DUP1 DUP6 ADD DUP8 SWAP1 MSTORE PUSH1 0x1A DUP2 DUP8 ADD MSTORE PUSH32 0x496E73756666696369656E7420746F6B656E2062616C616E6365000000000000 DUP2 DUP5 ADD MSTORE PUSH1 0x64 SWAP1 REVERT JUMPDEST DUP1 SWAP3 POP DUP9 DUP1 SWAP3 POP RETURNDATASIZE DUP4 GT PUSH2 0xBB3 JUMPI JUMPDEST PUSH2 0xB9E DUP2 DUP4 PUSH2 0xE43 JUMP JUMPDEST DUP2 ADD SUB SLT PUSH2 0xBAF JUMPI DUP8 SWAP1 MLOAD CODESIZE PUSH2 0xB28 JUMP JUMPDEST DUP14 DUP1 REVERT JUMPDEST POP RETURNDATASIZE PUSH2 0xB94 JUMP JUMPDEST DUP11 MLOAD SWAP1 RETURNDATASIZE SWAP1 DUP3 RETURNDATACOPY RETURNDATASIZE SWAP1 REVERT JUMPDEST DUP8 MLOAD PUSH3 0x461BCD PUSH1 0xE5 SHL DUP2 MSTORE DUP1 DUP6 ADD DUP8 SWAP1 MSTORE PUSH1 0x1C DUP2 DUP8 ADD MSTORE PUSH32 0x5472616E73616374696F6E20616C726561647920657865637574656400000000 DUP2 DUP5 ADD MSTORE PUSH1 0x64 SWAP1 REVERT JUMPDEST DUP9 DUP1 REVERT JUMPDEST DUP5 MLOAD PUSH3 0x461BCD PUSH1 0xE5 SHL DUP2 MSTORE DUP1 DUP10 ADD DUP5 SWAP1 MSTORE PUSH1 0x10 DUP2 DUP5 ADD MSTORE PUSH16 0x2AB73A393AB9BA32B21039B2B73232B9 PUSH1 0x81 SHL DUP2 DUP12 ADD MSTORE PUSH1 0x64 SWAP1 REVERT JUMPDEST DUP7 PUSH32 0x5265656E7472616E637947756172643A207265656E7472616E742063616C6C00 DUP10 PUSH1 0x1F PUSH1 0x64 SWAP5 PUSH1 0x20 DUP10 MLOAD SWAP6 PUSH3 0x461BCD PUSH1 0xE5 SHL DUP8 MSTORE DUP7 ADD MSTORE DUP5 ADD MSTORE DUP3 ADD MSTORE REVERT JUMPDEST DUP8 DUP1 REVERT JUMPDEST DUP7 DUP1 REVERT JUMPDEST SWAP1 POP CALLVALUE PUSH2 0xD72 JUMPI PUSH1 0x20 CALLDATASIZE PUSH1 0x3 NOT ADD SLT PUSH2 0xD72 JUMPI DUP3 DUP5 PUSH1 0xE0 SWAP6 PUSH1 0xC0 DUP5 PUSH2 0xCAD PUSH1 0xA0 SWAP7 PUSH2 0xE11 JUMP JUMPDEST DUP3 DUP2 MSTORE DUP3 PUSH1 0x20 DUP3 ADD MSTORE DUP3 DUP6 DUP3 ADD MSTORE DUP3 PUSH1 0x60 DUP3 ADD MSTORE DUP3 PUSH1 0x80 DUP3 ADD MSTORE DUP3 DUP7 DUP3 ADD MSTORE ADD MSTORE DUP4 CALLDATALOAD DUP2 MSTORE PUSH1 0x2 PUSH1 0x20 MSTORE KECCAK256 DUP4 MLOAD DUP1 SWAP4 PUSH2 0xCE5 DUP3 PUSH2 0xE11 JUMP JUMPDEST DUP3 SLOAD SWAP6 DUP7 DUP4 MSTORE PUSH1 0x1 DUP1 DUP7 SHL SUB DUP5 DUP2 DUP1 PUSH1 0x1 DUP2 SWAP9 ADD SLOAD AND PUSH1 0x20 DUP8 ADD SWAP1 DUP2 MSTORE PUSH1 0xC0 PUSH1 0x5 DUP4 PUSH1 0x2 DUP7 ADD SLOAD AND SWAP5 DUP8 DUP11 ADD SWAP6 DUP7 MSTORE PUSH1 0xFF PUSH1 0x3 DUP3 ADD SLOAD SWAP10 PUSH1 0x60 DUP13 ADD SWAP11 DUP12 MSTORE DUP3 ADD SLOAD SWAP13 DUP12 DUP8 DUP16 SWAP14 PUSH1 0x80 ADD SWAP14 AND DUP14 MSTORE ADD SWAP13 PUSH1 0xA0 SHR AND ISZERO ISZERO DUP13 MSTORE ADD SLOAD SWAP11 ADD SWAP10 DUP11 MSTORE DUP5 MLOAD SWAP11 DUP12 MSTORE MLOAD AND PUSH1 0x20 DUP11 ADD MSTORE MLOAD AND SWAP1 DUP8 ADD MSTORE MLOAD PUSH1 0x60 DUP7 ADD MSTORE MLOAD AND PUSH1 0x80 DUP5 ADD MSTORE MLOAD ISZERO ISZERO PUSH1 0xA0 DUP4 ADD MSTORE MLOAD PUSH1 0xC0 DUP3 ADD MSTORE RETURN JUMPDEST DUP4 DUP1 REVERT JUMPDEST PUSH1 0x24 CALLDATALOAD SWAP1 PUSH1 0x1 PUSH1 0x1 PUSH1 0xA0 SHL SUB DUP3 AND DUP3 SUB PUSH2 0x4DF JUMPI JUMP JUMPDEST PUSH1 0x4 CALLDATALOAD SWAP1 PUSH1 0x1 PUSH1 0x1 PUSH1 0xA0 SHL SUB DUP3 AND DUP3 SUB PUSH2 0x4DF JUMPI JUMP JUMPDEST PUSH1 0x1 SLOAD PUSH1 0x8 SHR PUSH1 0x1 PUSH1 0x1 PUSH1 0xA0 SHL SUB AND CALLER SUB PUSH2 0xDB9 JUMPI JUMP JUMPDEST PUSH1 0x64 PUSH1 0x40 MLOAD PUSH3 0x461BCD PUSH1 0xE5 SHL DUP2 MSTORE PUSH1 0x20 PUSH1 0x4 DUP3 ADD MSTORE PUSH1 0x20 PUSH1 0x24 DUP3 ADD MSTORE PUSH32 0x4F776E61626C653A2063616C6C6572206973206E6F7420746865206F776E6572 PUSH1 0x44 DUP3 ADD MSTORE REVERT JUMPDEST CALLDATALOAD SWAP1 PUSH1 0x1 PUSH1 0x1 PUSH1 0xA0 SHL SUB DUP3 AND DUP3 SUB PUSH2 0x4DF JUMPI JUMP JUMPDEST PUSH1 0xE0 DUP2 ADD SWAP1 DUP2 LT PUSH8 0xFFFFFFFFFFFFFFFF DUP3 GT OR PUSH2 0xE2D JUMPI PUSH1 0x40 MSTORE JUMP JUMPDEST PUSH4 0x4E487B71 PUSH1 0xE0 SHL PUSH1 0x0 MSTORE PUSH1 0x41 PUSH1 0x4 MSTORE PUSH1 0x24 PUSH1 0x0 REVERT JUMPDEST SWAP1 PUSH1 0x1F DUP1 NOT SWAP2 ADD AND DUP2 ADD SWAP1 DUP2 LT PUSH8 0xFFFFFFFFFFFFFFFF DUP3 GT OR PUSH2 0xE2D JUMPI PUSH1 0x40 MSTORE JUMP JUMPDEST PUSH1 0xFF PUSH1 0x1 SLOAD AND PUSH2 0xE71 JUMPI JUMP JUMPDEST PUSH1 0x40 MLOAD PUSH3 0x461BCD PUSH1 0xE5 SHL DUP2 MSTORE PUSH1 0x20 PUSH1 0x4 DUP3 ADD MSTORE PUSH1 0x10 PUSH1 0x24 DUP3 ADD MSTORE PUSH16 0x14185D5CD8589B194E881C185D5CD959 PUSH1 0x82 SHL PUSH1 0x44 DUP3 ADD MSTORE PUSH1 0x64 SWAP1 REVERT JUMPDEST PUSH1 0x40 MLOAD PUSH4 0xA9059CBB PUSH1 0xE0 SHL PUSH1 0x20 DUP3 ADD MSTORE PUSH1 0x1 PUSH1 0x1 PUSH1 0xA0 SHL SUB SWAP1 SWAP3 AND PUSH1 0x24 DUP4 ADD MSTORE PUSH1 0x44 DUP1 DUP4 ADD SWAP4 SWAP1 SWAP4 MSTORE SWAP2 DUP2 MSTORE PUSH1 0x80 DUP2 ADD SWAP2 PUSH8 0xFFFFFFFFFFFFFFFF DUP4 GT DUP3 DUP5 LT OR PUSH2 0xE2D JUMPI PUSH2 0xEF9 SWAP3 PUSH1 0x40 MSTORE PUSH2 0xEFB JUMP JUMPDEST JUMP JUMPDEST PUSH1 0x1 DUP1 PUSH1 0xA0 SHL SUB AND SWAP1 PUSH1 0x40 MLOAD PUSH1 0x40 DUP2 ADD PUSH8 0xFFFFFFFFFFFFFFFF SWAP1 DUP3 DUP2 LT DUP3 DUP3 GT OR PUSH2 0xE2D JUMPI PUSH1 0x40 MSTORE PUSH1 0x20 SWAP4 DUP5 DUP4 MSTORE PUSH32 0x5361666545524332303A206C6F772D6C6576656C2063616C6C206661696C6564 DUP6 DUP5 ADD MSTORE PUSH1 0x0 DUP1 DUP6 DUP8 DUP3 SWAP8 MLOAD SWAP2 ADD DUP3 DUP6 GAS CALL SWAP1 RETURNDATASIZE ISZERO PUSH2 0x1040 JUMPI RETURNDATASIZE SWAP3 DUP4 GT PUSH2 0x102C JUMPI SWAP1 PUSH2 0xF96 SWAP4 SWAP3 SWAP2 PUSH1 0x40 MLOAD SWAP3 PUSH2 0xF89 DUP9 PUSH1 0x1F NOT PUSH1 0x1F DUP5 ADD AND ADD DUP6 PUSH2 0xE43 JUMP JUMPDEST DUP4 MSTORE RETURNDATASIZE DUP7 DUP9 DUP6 ADD RETURNDATACOPY PUSH2 0x104B JUMP JUMPDEST DUP1 MLOAD SWAP2 DUP3 ISZERO SWAP2 DUP5 DUP4 ISZERO PUSH2 0x1008 JUMPI JUMPDEST POP POP POP SWAP1 POP ISZERO PUSH2 0xFB1 JUMPI POP JUMP JUMPDEST PUSH1 0x84 SWAP1 PUSH1 0x40 MLOAD SWAP1 PUSH3 0x461BCD PUSH1 0xE5 SHL DUP3 MSTORE PUSH1 0x4 DUP3 ADD MSTORE PUSH1 0x2A PUSH1 0x24 DUP3 ADD MSTORE PUSH32 0x5361666545524332303A204552433230206F7065726174696F6E20646964206E PUSH1 0x44 DUP3 ADD MSTORE PUSH10 0x1BDD081CDD58D8D95959 PUSH1 0xB2 SHL PUSH1 0x64 DUP3 ADD MSTORE REVERT JUMPDEST SWAP2 SWAP4 DUP2 DUP1 SWAP5 POP ADD SUB SLT PUSH2 0x2BC JUMPI DUP3 ADD MLOAD SWAP1 DUP2 ISZERO ISZERO DUP3 SUB PUSH2 0x403 JUMPI POP DUP1 CODESIZE DUP1 DUP5 PUSH2 0xFA4 JUMP JUMPDEST PUSH4 0x4E487B71 PUSH1 0xE0 SHL DUP6 MSTORE PUSH1 0x41 PUSH1 0x4 MSTORE PUSH1 0x24 DUP6 REVERT JUMPDEST SWAP1 PUSH2 0xF96 SWAP4 SWAP3 POP PUSH1 0x60 SWAP2 JUMPDEST SWAP2 SWAP3 SWAP1 ISZERO PUSH2 0x10AD JUMPI POP DUP2 MLOAD ISZERO PUSH2 0x105F JUMPI POP SWAP1 JUMP JUMPDEST EXTCODESIZE ISZERO PUSH2 0x1068 JUMPI SWAP1 JUMP JUMPDEST PUSH1 0x40 MLOAD PUSH3 0x461BCD PUSH1 0xE5 SHL DUP2 MSTORE PUSH1 0x20 PUSH1 0x4 DUP3 ADD MSTORE PUSH1 0x1D PUSH1 0x24 DUP3 ADD MSTORE PUSH32 0x416464726573733A2063616C6C20746F206E6F6E2D636F6E7472616374000000 PUSH1 0x44 DUP3 ADD MSTORE PUSH1 0x64 SWAP1 REVERT JUMPDEST DUP3 MLOAD SWAP1 SWAP2 POP ISZERO PUSH2 0x10C0 JUMPI POP DUP1 MLOAD SWAP1 PUSH1 0x20 ADD REVERT JUMPDEST PUSH1 0x40 MLOAD SWAP1 PUSH3 0x461BCD PUSH1 0xE5 SHL DUP3 MSTORE DUP2 PUSH1 0x20 DUP1 PUSH1 0x4 DUP4 ADD MSTORE DUP3 MLOAD SWAP1 DUP2 PUSH1 0x24 DUP5 ADD MSTORE PUSH1 0x0 SWAP4 JUMPDEST DUP3 DUP6 LT PUSH2 0x1106 JUMPI POP POP PUSH1 0x44 SWAP3 POP PUSH1 0x0 DUP4 DUP3 DUP5 ADD ADD MSTORE PUSH1 0x1F DUP1 NOT SWAP2 ADD AND DUP2 ADD SUB ADD SWAP1 REVERT JUMPDEST DUP5 DUP2 ADD DUP3 ADD MLOAD DUP7 DUP7 ADD PUSH1 0x44 ADD MSTORE SWAP4 DUP2 ADD SWAP4 DUP6 SWAP4 POP PUSH2 0x10E3 JUMP INVALID LOG2 PUSH5 0x6970667358 0x22 SLT KECCAK256 CODESIZE 0xDD 0xEB PREVRANDAO 0xC7 0xD2 0xA5 SWAP10 SWAP6 SWAP14 0xA5 PUSH3 0xC99544 MULMOD 0xC5 0xCF PUSH23 0x49934AE859B571138BFF6D61AE64736F6C634300081300 CALLER "},"methodIdentifiers":{"BRIDGE_POINTS()":"210d1c03","addTrustedSender(uint256,address)":"74981380","bridgeTransactions(bytes32)":"6c63f971","emergencyWithdraw(address)":"6ff1c9bc","executedTransactions(bytes32)":"8691d34c","fundContract(address,uint256)":"42e02fb4","getBridgeTransaction(bytes32)":"0024a1b8","isExecuted(bytes32)":"e52cb36a","owner()":"8da5cb5b","pause()":"8456cb59","paused()":"5c975abb","pointsModule()":"32d9562f","receiveMessage(uint256,address,bytes)":"1885c2f9","removeTrustedSender(uint256,address)":"f934ab20","renounceOwnership()":"715018a6","transferOwnership(address)":"f2fde38b","trustedSenders(uint256,address)":"9c49158b","unpause()":"3f4ba83a","updatePointsModule(address)":"19255997"}}}}}