{"contracts/BridgeCore.sol":{"BridgeCore":{"abi":[{"inputs":[{"internalType":"address","name":"_messageRouter","type":"address"},{"internalType":"address","name":"_feeTreasury","type":"address"}],"stateMutability":"nonpayable","type":"constructor"},{"anonymous":false,"inputs":[{"indexed":true,"internalType":"bytes32","name":"txId","type":"bytes32"},{"indexed":true,"internalType":"address","name":"user","type":"address"},{"indexed":false,"internalType":"address","name":"token","type":"address"},{"indexed":false,"internalType":"uint256","name":"amount","type":"uint256"},{"indexed":false,"internalType":"uint256","name":"dstChainId","type":"uint256"},{"indexed":false,"internalType":"address","name":"to","type":"address"},{"indexed":false,"internalType":"uint256","name":"fee","type":"uint256"}],"name":"BridgeInitiated","type":"event"},{"anonymous":false,"inputs":[{"indexed":true,"internalType":"address","name":"previousOwner","type":"address"},{"indexed":true,"internalType":"address","name":"newOwner","type":"address"}],"name":"OwnershipTransferred","type":"event"},{"anonymous":false,"inputs":[{"indexed":false,"internalType":"address","name":"account","type":"address"}],"name":"Paused","type":"event"},{"anonymous":false,"inputs":[{"indexed":false,"internalType":"address","name":"account","type":"address"}],"name":"Unpaused","type":"event"},{"inputs":[],"name":"MAX_FEE","outputs":[{"internalType":"uint256","name":"","type":"uint256"}],"stateMutability":"view","type":"function"},{"inputs":[{"internalType":"uint256","name":"chainId","type":"uint256"}],"name":"addSupportedChain","outputs":[],"stateMutability":"nonpayable","type":"function"},{"inputs":[{"internalType":"uint256","name":"dstChainId","type":"uint256"},{"internalType":"address","name":"to","type":"address"}],"name":"bridgeETH","outputs":[],"stateMutability":"payable","type":"function"},{"inputs":[],"name":"bridgeFee","outputs":[{"internalType":"uint256","name":"","type":"uint256"}],"stateMutability":"view","type":"function"},{"inputs":[{"internalType":"address","name":"token","type":"address"},{"internalType":"uint256","name":"amount","type":"uint256"},{"internalType":"uint256","name":"dstChainId","type":"uint256"},{"internalType":"address","name":"to","type":"address"}],"name":"bridgeToken","outputs":[],"stateMutability":"nonpayable","type":"function"},{"inputs":[{"internalType":"bytes32","name":"","type":"bytes32"}],"name":"bridgeTransactions","outputs":[{"internalType":"bytes32","name":"id","type":"bytes32"},{"internalType":"address","name":"user","type":"address"},{"internalType":"address","name":"token","type":"address"},{"internalType":"uint256","name":"amount","type":"uint256"},{"internalType":"uint256","name":"dstChainId","type":"uint256"},{"internalType":"address","name":"to","type":"address"},{"internalType":"uint256","name":"feeAmount","type":"uint256"},{"internalType":"uint256","name":"timestamp","type":"uint256"},{"internalType":"bool","name":"completed","type":"bool"}],"stateMutability":"view","type":"function"},{"inputs":[{"internalType":"address","name":"token","type":"address"}],"name":"emergencyWithdraw","outputs":[],"stateMutability":"nonpayable","type":"function"},{"inputs":[],"name":"feeTreasury","outputs":[{"internalType":"contract IFeeTreasury","name":"","type":"address"}],"stateMutability":"view","type":"function"},{"inputs":[{"internalType":"bytes32","name":"txId","type":"bytes32"}],"name":"getBridgeTransaction","outputs":[{"components":[{"internalType":"bytes32","name":"id","type":"bytes32"},{"internalType":"address","name":"user","type":"address"},{"internalType":"address","name":"token","type":"address"},{"internalType":"uint256","name":"amount","type":"uint256"},{"internalType":"uint256","name":"dstChainId","type":"uint256"},{"internalType":"address","name":"to","type":"address"},{"internalType":"uint256","name":"feeAmount","type":"uint256"},{"internalType":"uint256","name":"timestamp","type":"uint256"},{"internalType":"bool","name":"completed","type":"bool"}],"internalType":"struct BridgeCore.BridgeTx","name":"","type":"tuple"}],"stateMutability":"view","type":"function"},{"inputs":[],"name":"messageRouter","outputs":[{"internalType":"contract IBridgeMessageRouter","name":"","type":"address"}],"stateMutability":"view","type":"function"},{"inputs":[{"internalType":"address","name":"","type":"address"}],"name":"nonces","outputs":[{"internalType":"uint256","name":"","type":"uint256"}],"stateMutability":"view","type":"function"},{"inputs":[],"name":"owner","outputs":[{"internalType":"address","name":"","type":"address"}],"stateMutability":"view","type":"function"},{"inputs":[],"name":"pause","outputs":[],"stateMutability":"nonpayable","type":"function"},{"inputs":[],"name":"paused","outputs":[{"internalType":"bool","name":"","type":"bool"}],"stateMutability":"view","type":"function"},{"inputs":[{"internalType":"uint256","name":"chainId","type":"uint256"}],"name":"removeSupportedChain","outputs":[],"stateMutability":"nonpayable","type":"function"},{"inputs":[],"name":"renounceOwnership","outputs":[],"stateMutability":"nonpayable","type":"function"},{"inputs":[{"internalType":"uint256","name":"","type":"uint256"}],"name":"supportedChains","outputs":[{"internalType":"bool","name":"","type":"bool"}],"stateMutability":"view","type":"function"},{"inputs":[{"internalType":"address","name":"newOwner","type":"address"}],"name":"transferOwnership","outputs":[],"stateMutability":"nonpayable","type":"function"},{"inputs":[],"name":"unpause","outputs":[],"stateMutability":"nonpayable","type":"function"},{"inputs":[{"internalType":"uint256","name":"newFee","type":"uint256"}],"name":"updateBridgeFee","outputs":[],"stateMutability":"nonpayable","type":"function"},{"inputs":[{"internalType":"address","name":"newTreasury","type":"address"}],"name":"updateFeeTreasury","outputs":[],"stateMutability":"nonpayable","type":"function"},{"inputs":[{"internalType":"address","name":"newRouter","type":"address"}],"name":"updateMessageRouter","outputs":[],"stateMutability":"nonpayable","type":"function"},{"stateMutability":"payable","type":"receive"}],"evm":{"bytecode":{"linkReferences":{},"object":"6080346100e857601f61167b38819003918201601f19168301916001600160401b038311848410176100ed5780849260409485528339810103126100e857610052602061004b83610103565b9201610103565b6001600081815581546001600160a81b0319811633600881811b610100600160a81b03169290921790945560405195946001600160a01b03949093909290911c8416907f8be0079c531659141344cd1fd0a4f28419497f9722a3daafe3b4186f6b6457e09080a3601e6007558160018060a01b031993168360055416176005551690600654161760065561156390816101188239f35b600080fd5b634e487b7160e01b600052604160045260246000fd5b51906001600160a01b03821682036100e85756fe608080604052600436101561001d575b50361561001b57600080fd5b005b600090813560e01c90816224a1b814610f125750806308b583ff14610ee95780630c4844aa14610eb757806319bf4b4d14610b645780633f4ba83a14610acf578063548d496f14610aa05780635a1c036614610a405780635c975abb14610a1d57806360dc2340146109f45780636c63f9711461095c5780636ff1c9bc1461086f578063715018a61461080d5780637ecebe00146107d457806382b12dd7146107b65780638456cb591461075c57806387188a00146107275780638da5cb5b146106fa578063bc063e1a146106dd578063ceefd62c14610287578063d4a0d4c61461023b578063f2fde38b146101655763fa73f5e50361000f57346101625760203660031901126101625761013061103a565b610138611050565b6001600160a01b031661014c8115156110ab565b6001600160601b0360a01b600554161760055580f35b80fd5b50346101625760203660031901126101625761017f61103a565b610187611050565b6001600160a01b038181169182156101e75760018054610100600160a81b03198116600893841b610100600160a81b031617909155901c167f8be0079c531659141344cd1fd0a4f28419497f9722a3daafe3b4186f6b6457e0600080a380f35b60405162461bcd60e51b815260206004820152602660248201527f4f776e61626c653a206e6577206f776e657220697320746865207a65726f206160448201526564647265737360d01b6064820152608490fd5b50346101625760203660031901126101625761025561103a565b61025d611050565b6001600160a01b03166102718115156110ab565b6001600160601b0360a01b600654161760065580f35b5034610162576080366003190112610162576102a161103a565b6024356064356001600160a01b03811690036106d8576102bf6112a7565b6102c7611263565b6102db6001600160a01b03831615156110ab565b6102f16064356001600160a01b031615156110ab565b6044358352600460205261030b60ff6040852054166110e9565b61031681151561112b565b6040516323b872dd60e01b60208201523360248201523060448201526064808201839052815260a081019067ffffffffffffffff8211818310176106c25760409190915261036d906001600160a01b038416611340565b61038761271061037f60075484611177565b04809261118a565b90336000526003602052604060002080549060001982146106ac576001820190556040516001600160601b0319916020820192803360601b168452808760601b166034840152856048840152604435606884015260643560601b166088830152609c8201524260bc8201524660dc82015260dc8152610405816111c8565b519020916104fd60405161041881611197565b8481526008858860208401338152604085019060018060a01b038b168252606086019088825260808701604435815260a088019260018060a01b0360643516845260c08901948c8652604060e08b01974289526101008c0199818b52815260026020522099518a5560018a019360018060a01b03905116936001600160601b0360a01b948582541617905560028a019060018060a01b0390511684825416179055516003890155516004880155600587019160018060a01b039051169082541617905551600685015551600784015551151591019060ff801983541691151516179055565b81610620575b8460405184602082015233604082015260018060a01b038616606082015282608082015260018060a01b036064351660a082015260a08152610544816111e5565b6005546001600160a01b0316803b1561061c5761058b839291839260405194858094819363e289adcd60e01b83526044356004840152604060248401526044830190611223565b03925af18015610611576105f9575b50506040519360018060a01b031684526020840152604435604084015260018060a01b0360643516606084015260808301527f4a65639c26b2522a9f539cf361b88997f914e55e739fe3dfc693227f4f84253f60a03393a36001815580f35b610602906111b4565b61060d57843861059a565b8480fd5b6040513d84823e3d90fd5b8280fd5b60065461063c9083906001600160a01b039081169087166112fd565b60065485906001600160a01b0316803b156106a857604051630bb03fdb60e21b81526001600160a01b0387166004820152602481018590529082908290604490829084905af1801561061157610694575b5050610503565b61069d906111b4565b61060d57843861068d565b5080fd5b634e487b7160e01b600052601160045260246000fd5b634e487b7160e01b600052604160045260246000fd5b600080fd5b503461016257806003193601126101625760206040516103e88152f35b503461016257806003193601126101625760015460405160089190911c6001600160a01b03168152602090f35b503461016257602036600319011261016257610741611050565b60048035825260205260408120805460ff1916600117905580f35b5034610162578060031936011261016257610775611050565b61077d611263565b600160ff19815416176001557f62e78cea01bee320cd4e420270b5ea74000d11b0c9f74754ebdbfc544b05a2586020604051338152a180f35b50346101625780600319360112610162576020600754604051908152f35b5034610162576020366003190112610162576020906040906001600160a01b036107fc61103a565b168152600383522054604051908152f35b5034610162578060031936011261016257610826611050565b60018054610100600160a81b0319811690915560009060081c6001600160a01b03167f8be0079c531659141344cd1fd0a4f28419497f9722a3daafe3b4186f6b6457e08280a380f35b5034610162576020366003190112610162578061088a61103a565b610892611050565b6001600160a01b03908116806108d657508180809260015460081c1647908282156108cd575bf1156108c15780f35b604051903d90823e3d90fd5b506108fc6108b8565b915060015460081c1690604051916370a0823160e01b8352306004840152602083602481855afa918215610951578492610918575b61091593506112fd565b80f35b91506020833d8211610949575b8161093260209383611201565b810103126109455761091592519161090b565b8380fd5b3d9150610925565b6040513d86823e3d90fd5b503461016257602036600319011261016257604061012091600435815260026020522080549060018060a01b0390816001820154169180600283015416906003830154906004840154906005850154169160068501549360ff600860078801549701541696604051988952602089015260408801526060870152608086015260a085015260c084015260e08301521515610100820152f35b50346101625780600319360112610162576006546040516001600160a01b039091168152602090f35b5034610162578060031936011261016257602060ff600154166040519015158152f35b503461016257602036600319011261016257600435610a5d611050565b6103e88111610a6c5760075580f35b60405162461bcd60e51b815260206004820152600c60248201526b08ccaca40e8dede40d0d2ced60a31b6044820152606490fd5b50346101625760203660031901126101625760ff60406020926004358152600484522054166040519015158152f35b5034610162578060031936011261016257610ae8611050565b60015460ff811615610b285760ff19166001557f5db9ee0a495bf2e6ff9c91a7834c1ba4fdd244a5e8aa4e537bd38aeae4b073aa6020604051338152a180f35b60405162461bcd60e51b815260206004820152601460248201527314185d5cd8589b194e881b9bdd081c185d5cd95960621b6044820152606490fd5b506040366003190112610162576024356001600160a01b038082169060043582840361060d57610b926112a7565b610b9a611263565b610ba58315156110ab565b80855260209360048552610bbf60ff6040882054166110e9565b610bca34151561112b565b612710610bd960075434611177565b0492610be5843461118a565b9133885260038752604088208054906000198214610ea3579360088a8a89849796868d9b9a6001610d2d9901905560405190848201926001600160601b031990813360601b1685528760348501528960488501528d606885015260601b166088830152609c8201524260bc8201524660dc82015260dc8152610c66816111c8565b5190209b8c938a604051978895610c7c87611197565b8787526040818801943386526002828a019382855260608b0195865260808b0196875260a08b0198895260c08b01998a5261010060e08c019b428d52019b838d528352522099518a558b60018b01945116936001600160601b0360a01b94858254161790558b60028b019151168482541617905551600389015551600488015588600588019251169082541617905551600685015551600784015551151591019060ff801983541691151516179055565b878580158015610e16575b505090604051908789830152336040830152600060608301528360808301528560a083015260a08252610d6a826111e5565b60055416803b1561061c57610da68391859360405194858094819363e289adcd60e01b83528b6004840152604060248401526044830190611223565b03925af1801561061157610dfe575b505060405195600087528601526040850152606084015260808301527f4a65639c26b2522a9f539cf361b88997f914e55e739fe3dfc693227f4f84253f60a03393a36001815580f35b610e07906111b4565b610e12578638610db5565b8680fd5b82809281928660065416908390610e9a575bf115610e8f57878160065416803b156106a8578190604460405180948193630bb03fdb60e21b83528160048401528b60248401525af18015610e8457610e71575b858991610d38565b610e7d909891986111b4565b9638610e69565b6040513d8b823e3d90fd5b6040513d89823e3d90fd5b506108fc610e28565b634e487b7160e01b8a52601160045260248afd5b503461016257602036600319011261016257610ed1611050565b60048035825260205260408120805460ff1916905580f35b50346101625780600319360112610162576005546040516001600160a01b039091168152602090f35b9050346106a85760203660031901126106a857604061012092610f3483611197565b80835280602084015280828401528060608401528060808401528060a08401528060c08401528060e08401528061010080940152600435815260026020522090604051610f8081611197565b808084549485825260018060a01b039081600182015416602084019081528260028301541660408501908152836003840154916060870192835281600486015494608089019586528b60ff60088460058b0154169960a08d019a8b5260c060068201549d019c8d5260e060078201549e019d8e520154169b019a15158b526040519c8d52511660208c0152511660408a0152516060890152516080880152511660a08601525160c08501525160e084015251151590820152f35b600435906001600160a01b03821682036106d857565b60015460081c6001600160a01b0316330361106757565b606460405162461bcd60e51b815260206004820152602060248201527f4f776e61626c653a2063616c6c6572206973206e6f7420746865206f776e65726044820152fd5b156110b257565b60405162461bcd60e51b815260206004820152600f60248201526e496e76616c6964206164647265737360881b6044820152606490fd5b156110f057565b60405162461bcd60e51b815260206004820152601360248201527210da185a5b881b9bdd081cdd5c1c1bdc9d1959606a1b6044820152606490fd5b1561113257565b60405162461bcd60e51b815260206004820152601d60248201527f416d6f756e74206d7573742062652067726561746572207468616e20300000006044820152606490fd5b818102929181159184041417156106ac57565b919082039182116106ac57565b610120810190811067ffffffffffffffff8211176106c257604052565b67ffffffffffffffff81116106c257604052565b610100810190811067ffffffffffffffff8211176106c257604052565b60c0810190811067ffffffffffffffff8211176106c257604052565b90601f8019910116810190811067ffffffffffffffff8211176106c257604052565b919082519283825260005b84811061124f575050826000602080949584010152601f8019910116010190565b60208183018101518483018201520161122e565b60ff6001541661126f57565b60405162461bcd60e51b815260206004820152601060248201526f14185d5cd8589b194e881c185d5cd95960821b6044820152606490fd5b6002600054146112b8576002600055565b60405162461bcd60e51b815260206004820152601f60248201527f5265656e7472616e637947756172643a207265656e7472616e742063616c6c006044820152606490fd5b60405163a9059cbb60e01b60208201526001600160a01b0392909216602483015260448083019390935291815261133e91611339606483611201565b611340565b565b60018060a01b0316906040516040810167ffffffffffffffff90828110828211176106c2576040526020938483527f5361666545524332303a206c6f772d6c6576656c2063616c6c206661696c6564858401526000808587829751910182855af1903d15611485573d92831161147157906113db939291604051926113ce88601f19601f8401160185611201565b83523d868885013e611490565b80519182159184831561144d575b5050509050156113f65750565b6084906040519062461bcd60e51b82526004820152602a60248201527f5361666545524332303a204552433230206f7065726174696f6e20646964206e6044820152691bdd081cdd58d8d9595960b21b6064820152fd5b9193818094500103126106a8578201519081151582036101625750803880846113e9565b634e487b7160e01b85526041600452602485fd5b906113db9392506060915b919290156114f257508151156114a4575090565b3b156114ad5790565b60405162461bcd60e51b815260206004820152601d60248201527f416464726573733a2063616c6c20746f206e6f6e2d636f6e74726163740000006044820152606490fd5b8251909150156115055750805190602001fd5b60405162461bcd60e51b815260206004820152908190611529906024830190611223565b0390fdfea26469706673582212201159dadb8885afa0a20a0cb908ea7fbbba4605dd5472a32594acd38521232bf864736f6c63430008130033","opcodes":"PUSH1 0x80 CALLVALUE PUSH2 0xE8 JUMPI PUSH1 0x1F PUSH2 0x167B CODESIZE DUP2 SWAP1 SUB SWAP2 DUP3 ADD PUSH1 0x1F NOT AND DUP4 ADD SWAP2 PUSH1 0x1 PUSH1 0x1 PUSH1 0x40 SHL SUB DUP4 GT DUP5 DUP5 LT OR PUSH2 0xED JUMPI DUP1 DUP5 SWAP3 PUSH1 0x40 SWAP5 DUP6 MSTORE DUP4 CODECOPY DUP2 ADD SUB SLT PUSH2 0xE8 JUMPI PUSH2 0x52 PUSH1 0x20 PUSH2 0x4B DUP4 PUSH2 0x103 JUMP JUMPDEST SWAP3 ADD PUSH2 0x103 JUMP JUMPDEST PUSH1 0x1 PUSH1 0x0 DUP2 DUP2 SSTORE DUP2 SLOAD PUSH1 0x1 PUSH1 0x1 PUSH1 0xA8 SHL SUB NOT DUP2 AND CALLER PUSH1 0x8 DUP2 DUP2 SHL PUSH2 0x100 PUSH1 0x1 PUSH1 0xA8 SHL SUB AND SWAP3 SWAP1 SWAP3 OR SWAP1 SWAP5 SSTORE PUSH1 0x40 MLOAD SWAP6 SWAP5 PUSH1 0x1 PUSH1 0x1 PUSH1 0xA0 SHL SUB SWAP5 SWAP1 SWAP4 SWAP1 SWAP3 SWAP1 SWAP2 SHR DUP5 AND SWAP1 PUSH32 0x8BE0079C531659141344CD1FD0A4F28419497F9722A3DAAFE3B4186F6B6457E0 SWAP1 DUP1 LOG3 PUSH1 0x1E PUSH1 0x7 SSTORE DUP2 PUSH1 0x1 DUP1 PUSH1 0xA0 SHL SUB NOT SWAP4 AND DUP4 PUSH1 0x5 SLOAD AND OR PUSH1 0x5 SSTORE AND SWAP1 PUSH1 0x6 SLOAD AND OR PUSH1 0x6 SSTORE PUSH2 0x1563 SWAP1 DUP2 PUSH2 0x118 DUP3 CODECOPY RETURN JUMPDEST PUSH1 0x0 DUP1 REVERT JUMPDEST PUSH4 0x4E487B71 PUSH1 0xE0 SHL PUSH1 0x0 MSTORE PUSH1 0x41 PUSH1 0x4 MSTORE PUSH1 0x24 PUSH1 0x0 REVERT JUMPDEST MLOAD SWAP1 PUSH1 0x1 PUSH1 0x1 PUSH1 0xA0 SHL SUB DUP3 AND DUP3 SUB PUSH2 0xE8 JUMPI JUMP INVALID PUSH1 0x80 DUP1 PUSH1 0x40 MSTORE PUSH1 0x4 CALLDATASIZE LT ISZERO PUSH2 0x1D JUMPI JUMPDEST POP CALLDATASIZE ISZERO PUSH2 0x1B JUMPI PUSH1 0x0 DUP1 REVERT JUMPDEST STOP JUMPDEST PUSH1 0x0 SWAP1 DUP2 CALLDATALOAD PUSH1 0xE0 SHR SWAP1 DUP2 PUSH3 0x24A1B8 EQ PUSH2 0xF12 JUMPI POP DUP1 PUSH4 0x8B583FF EQ PUSH2 0xEE9 JUMPI DUP1 PUSH4 0xC4844AA EQ PUSH2 0xEB7 JUMPI DUP1 PUSH4 0x19BF4B4D EQ PUSH2 0xB64 JUMPI DUP1 PUSH4 0x3F4BA83A EQ PUSH2 0xACF JUMPI DUP1 PUSH4 0x548D496F EQ PUSH2 0xAA0 JUMPI DUP1 PUSH4 0x5A1C0366 EQ PUSH2 0xA40 JUMPI DUP1 PUSH4 0x5C975ABB EQ PUSH2 0xA1D JUMPI DUP1 PUSH4 0x60DC2340 EQ PUSH2 0x9F4 JUMPI DUP1 PUSH4 0x6C63F971 EQ PUSH2 0x95C JUMPI DUP1 PUSH4 0x6FF1C9BC EQ PUSH2 0x86F JUMPI DUP1 PUSH4 0x715018A6 EQ PUSH2 0x80D JUMPI DUP1 PUSH4 0x7ECEBE00 EQ PUSH2 0x7D4 JUMPI DUP1 PUSH4 0x82B12DD7 EQ PUSH2 0x7B6 JUMPI DUP1 PUSH4 0x8456CB59 EQ PUSH2 0x75C JUMPI DUP1 PUSH4 0x87188A00 EQ PUSH2 0x727 JUMPI DUP1 PUSH4 0x8DA5CB5B EQ PUSH2 0x6FA JUMPI DUP1 PUSH4 0xBC063E1A EQ PUSH2 0x6DD JUMPI DUP1 PUSH4 0xCEEFD62C EQ PUSH2 0x287 JUMPI DUP1 PUSH4 0xD4A0D4C6 EQ PUSH2 0x23B JUMPI DUP1 PUSH4 0xF2FDE38B EQ PUSH2 0x165 JUMPI PUSH4 0xFA73F5E5 SUB PUSH2 0xF JUMPI CALLVALUE PUSH2 0x162 JUMPI PUSH1 0x20 CALLDATASIZE PUSH1 0x3 NOT ADD SLT PUSH2 0x162 JUMPI PUSH2 0x130 PUSH2 0x103A JUMP JUMPDEST PUSH2 0x138 PUSH2 0x1050 JUMP JUMPDEST PUSH1 0x1 PUSH1 0x1 PUSH1 0xA0 SHL SUB AND PUSH2 0x14C DUP2 ISZERO ISZERO PUSH2 0x10AB JUMP JUMPDEST PUSH1 0x1 PUSH1 0x1 PUSH1 0x60 SHL SUB PUSH1 0xA0 SHL PUSH1 0x5 SLOAD AND OR PUSH1 0x5 SSTORE DUP1 RETURN JUMPDEST DUP1 REVERT JUMPDEST POP CALLVALUE PUSH2 0x162 JUMPI PUSH1 0x20 CALLDATASIZE PUSH1 0x3 NOT ADD SLT PUSH2 0x162 JUMPI PUSH2 0x17F PUSH2 0x103A JUMP JUMPDEST PUSH2 0x187 PUSH2 0x1050 JUMP JUMPDEST PUSH1 0x1 PUSH1 0x1 PUSH1 0xA0 SHL SUB DUP2 DUP2 AND SWAP2 DUP3 ISZERO PUSH2 0x1E7 JUMPI PUSH1 0x1 DUP1 SLOAD PUSH2 0x100 PUSH1 0x1 PUSH1 0xA8 SHL SUB NOT DUP2 AND PUSH1 0x8 SWAP4 DUP5 SHL PUSH2 0x100 PUSH1 0x1 PUSH1 0xA8 SHL SUB AND OR SWAP1 SWAP2 SSTORE SWAP1 SHR AND PUSH32 0x8BE0079C531659141344CD1FD0A4F28419497F9722A3DAAFE3B4186F6B6457E0 PUSH1 0x0 DUP1 LOG3 DUP1 RETURN JUMPDEST PUSH1 0x40 MLOAD PUSH3 0x461BCD PUSH1 0xE5 SHL DUP2 MSTORE PUSH1 0x20 PUSH1 0x4 DUP3 ADD MSTORE PUSH1 0x26 PUSH1 0x24 DUP3 ADD MSTORE PUSH32 0x4F776E61626C653A206E6577206F776E657220697320746865207A65726F2061 PUSH1 0x44 DUP3 ADD MSTORE PUSH6 0x646472657373 PUSH1 0xD0 SHL PUSH1 0x64 DUP3 ADD MSTORE PUSH1 0x84 SWAP1 REVERT JUMPDEST POP CALLVALUE PUSH2 0x162 JUMPI PUSH1 0x20 CALLDATASIZE PUSH1 0x3 NOT ADD SLT PUSH2 0x162 JUMPI PUSH2 0x255 PUSH2 0x103A JUMP JUMPDEST PUSH2 0x25D PUSH2 0x1050 JUMP JUMPDEST PUSH1 0x1 PUSH1 0x1 PUSH1 0xA0 SHL SUB AND PUSH2 0x271 DUP2 ISZERO ISZERO PUSH2 0x10AB JUMP JUMPDEST PUSH1 0x1 PUSH1 0x1 PUSH1 0x60 SHL SUB PUSH1 0xA0 SHL PUSH1 0x6 SLOAD AND OR PUSH1 0x6 SSTORE DUP1 RETURN JUMPDEST POP CALLVALUE PUSH2 0x162 JUMPI PUSH1 0x80 CALLDATASIZE PUSH1 0x3 NOT ADD SLT PUSH2 0x162 JUMPI PUSH2 0x2A1 PUSH2 0x103A JUMP JUMPDEST PUSH1 0x24 CALLDATALOAD PUSH1 0x64 CALLDATALOAD PUSH1 0x1 PUSH1 0x1 PUSH1 0xA0 SHL SUB DUP2 AND SWAP1 SUB PUSH2 0x6D8 JUMPI PUSH2 0x2BF PUSH2 0x12A7 JUMP JUMPDEST PUSH2 0x2C7 PUSH2 0x1263 JUMP JUMPDEST PUSH2 0x2DB PUSH1 0x1 PUSH1 0x1 PUSH1 0xA0 SHL SUB DUP4 AND ISZERO ISZERO PUSH2 0x10AB JUMP JUMPDEST PUSH2 0x2F1 PUSH1 0x64 CALLDATALOAD PUSH1 0x1 PUSH1 0x1 PUSH1 0xA0 SHL SUB AND ISZERO ISZERO PUSH2 0x10AB JUMP JUMPDEST PUSH1 0x44 CALLDATALOAD DUP4 MSTORE PUSH1 0x4 PUSH1 0x20 MSTORE PUSH2 0x30B PUSH1 0xFF PUSH1 0x40 DUP6 KECCAK256 SLOAD AND PUSH2 0x10E9 JUMP JUMPDEST PUSH2 0x316 DUP2 ISZERO ISZERO PUSH2 0x112B JUMP JUMPDEST PUSH1 0x40 MLOAD PUSH4 0x23B872DD PUSH1 0xE0 SHL PUSH1 0x20 DUP3 ADD MSTORE CALLER PUSH1 0x24 DUP3 ADD MSTORE ADDRESS PUSH1 0x44 DUP3 ADD MSTORE PUSH1 0x64 DUP1 DUP3 ADD DUP4 SWAP1 MSTORE DUP2 MSTORE PUSH1 0xA0 DUP2 ADD SWAP1 PUSH8 0xFFFFFFFFFFFFFFFF DUP3 GT DUP2 DUP4 LT OR PUSH2 0x6C2 JUMPI PUSH1 0x40 SWAP2 SWAP1 SWAP2 MSTORE PUSH2 0x36D SWAP1 PUSH1 0x1 PUSH1 0x1 PUSH1 0xA0 SHL SUB DUP5 AND PUSH2 0x1340 JUMP JUMPDEST PUSH2 0x387 PUSH2 0x2710 PUSH2 0x37F PUSH1 0x7 SLOAD DUP5 PUSH2 0x1177 JUMP JUMPDEST DIV DUP1 SWAP3 PUSH2 0x118A JUMP JUMPDEST SWAP1 CALLER PUSH1 0x0 MSTORE PUSH1 0x3 PUSH1 0x20 MSTORE PUSH1 0x40 PUSH1 0x0 KECCAK256 DUP1 SLOAD SWAP1 PUSH1 0x0 NOT DUP3 EQ PUSH2 0x6AC JUMPI PUSH1 0x1 DUP3 ADD SWAP1 SSTORE PUSH1 0x40 MLOAD PUSH1 0x1 PUSH1 0x1 PUSH1 0x60 SHL SUB NOT SWAP2 PUSH1 0x20 DUP3 ADD SWAP3 DUP1 CALLER PUSH1 0x60 SHL AND DUP5 MSTORE DUP1 DUP8 PUSH1 0x60 SHL AND PUSH1 0x34 DUP5 ADD MSTORE DUP6 PUSH1 0x48 DUP5 ADD MSTORE PUSH1 0x44 CALLDATALOAD PUSH1 0x68 DUP5 ADD MSTORE PUSH1 0x64 CALLDATALOAD PUSH1 0x60 SHL AND PUSH1 0x88 DUP4 ADD MSTORE PUSH1 0x9C DUP3 ADD MSTORE TIMESTAMP PUSH1 0xBC DUP3 ADD MSTORE CHAINID PUSH1 0xDC DUP3 ADD MSTORE PUSH1 0xDC DUP2 MSTORE PUSH2 0x405 DUP2 PUSH2 0x11C8 JUMP JUMPDEST MLOAD SWAP1 KECCAK256 SWAP2 PUSH2 0x4FD PUSH1 0x40 MLOAD PUSH2 0x418 DUP2 PUSH2 0x1197 JUMP JUMPDEST DUP5 DUP2 MSTORE PUSH1 0x8 DUP6 DUP9 PUSH1 0x20 DUP5 ADD CALLER DUP2 MSTORE PUSH1 0x40 DUP6 ADD SWAP1 PUSH1 0x1 DUP1 PUSH1 0xA0 SHL SUB DUP12 AND DUP3 MSTORE PUSH1 0x60 DUP7 ADD SWAP1 DUP9 DUP3 MSTORE PUSH1 0x80 DUP8 ADD PUSH1 0x44 CALLDATALOAD DUP2 MSTORE PUSH1 0xA0 DUP9 ADD SWAP3 PUSH1 0x1 DUP1 PUSH1 0xA0 SHL SUB PUSH1 0x64 CALLDATALOAD AND DUP5 MSTORE PUSH1 0xC0 DUP10 ADD SWAP5 DUP13 DUP7 MSTORE PUSH1 0x40 PUSH1 0xE0 DUP12 ADD SWAP8 TIMESTAMP DUP10 MSTORE PUSH2 0x100 DUP13 ADD SWAP10 DUP2 DUP12 MSTORE DUP2 MSTORE PUSH1 0x2 PUSH1 0x20 MSTORE KECCAK256 SWAP10 MLOAD DUP11 SSTORE PUSH1 0x1 DUP11 ADD SWAP4 PUSH1 0x1 DUP1 PUSH1 0xA0 SHL SUB SWAP1 MLOAD AND SWAP4 PUSH1 0x1 PUSH1 0x1 PUSH1 0x60 SHL SUB PUSH1 0xA0 SHL SWAP5 DUP6 DUP3 SLOAD AND OR SWAP1 SSTORE PUSH1 0x2 DUP11 ADD SWAP1 PUSH1 0x1 DUP1 PUSH1 0xA0 SHL SUB SWAP1 MLOAD AND DUP5 DUP3 SLOAD AND OR SWAP1 SSTORE MLOAD PUSH1 0x3 DUP10 ADD SSTORE MLOAD PUSH1 0x4 DUP9 ADD SSTORE PUSH1 0x5 DUP8 ADD SWAP2 PUSH1 0x1 DUP1 PUSH1 0xA0 SHL SUB SWAP1 MLOAD AND SWAP1 DUP3 SLOAD AND OR SWAP1 SSTORE MLOAD PUSH1 0x6 DUP6 ADD SSTORE MLOAD PUSH1 0x7 DUP5 ADD SSTORE MLOAD ISZERO ISZERO SWAP2 ADD SWAP1 PUSH1 0xFF DUP1 NOT DUP4 SLOAD AND SWAP2 ISZERO ISZERO AND OR SWAP1 SSTORE JUMP JUMPDEST DUP2 PUSH2 0x620 JUMPI JUMPDEST DUP5 PUSH1 0x40 MLOAD DUP5 PUSH1 0x20 DUP3 ADD MSTORE CALLER PUSH1 0x40 DUP3 ADD MSTORE PUSH1 0x1 DUP1 PUSH1 0xA0 SHL SUB DUP7 AND PUSH1 0x60 DUP3 ADD MSTORE DUP3 PUSH1 0x80 DUP3 ADD MSTORE PUSH1 0x1 DUP1 PUSH1 0xA0 SHL SUB PUSH1 0x64 CALLDATALOAD AND PUSH1 0xA0 DUP3 ADD MSTORE PUSH1 0xA0 DUP2 MSTORE PUSH2 0x544 DUP2 PUSH2 0x11E5 JUMP JUMPDEST PUSH1 0x5 SLOAD PUSH1 0x1 PUSH1 0x1 PUSH1 0xA0 SHL SUB AND DUP1 EXTCODESIZE ISZERO PUSH2 0x61C JUMPI PUSH2 0x58B DUP4 SWAP3 SWAP2 DUP4 SWAP3 PUSH1 0x40 MLOAD SWAP5 DUP6 DUP1 SWAP5 DUP2 SWAP4 PUSH4 0xE289ADCD PUSH1 0xE0 SHL DUP4 MSTORE PUSH1 0x44 CALLDATALOAD PUSH1 0x4 DUP5 ADD MSTORE PUSH1 0x40 PUSH1 0x24 DUP5 ADD MSTORE PUSH1 0x44 DUP4 ADD SWAP1 PUSH2 0x1223 JUMP JUMPDEST SUB SWAP3 GAS CALL DUP1 ISZERO PUSH2 0x611 JUMPI PUSH2 0x5F9 JUMPI JUMPDEST POP POP PUSH1 0x40 MLOAD SWAP4 PUSH1 0x1 DUP1 PUSH1 0xA0 SHL SUB AND DUP5 MSTORE PUSH1 0x20 DUP5 ADD MSTORE PUSH1 0x44 CALLDATALOAD PUSH1 0x40 DUP5 ADD MSTORE PUSH1 0x1 DUP1 PUSH1 0xA0 SHL SUB PUSH1 0x64 CALLDATALOAD AND PUSH1 0x60 DUP5 ADD MSTORE PUSH1 0x80 DUP4 ADD MSTORE PUSH32 0x4A65639C26B2522A9F539CF361B88997F914E55E739FE3DFC693227F4F84253F PUSH1 0xA0 CALLER SWAP4 LOG3 PUSH1 0x1 DUP2 SSTORE DUP1 RETURN JUMPDEST PUSH2 0x602 SWAP1 PUSH2 0x11B4 JUMP JUMPDEST PUSH2 0x60D JUMPI DUP5 CODESIZE PUSH2 0x59A JUMP JUMPDEST DUP5 DUP1 REVERT JUMPDEST PUSH1 0x40 MLOAD RETURNDATASIZE DUP5 DUP3 RETURNDATACOPY RETURNDATASIZE SWAP1 REVERT JUMPDEST DUP3 DUP1 REVERT JUMPDEST PUSH1 0x6 SLOAD PUSH2 0x63C SWAP1 DUP4 SWAP1 PUSH1 0x1 PUSH1 0x1 PUSH1 0xA0 SHL SUB SWAP1 DUP2 AND SWAP1 DUP8 AND PUSH2 0x12FD JUMP JUMPDEST PUSH1 0x6 SLOAD DUP6 SWAP1 PUSH1 0x1 PUSH1 0x1 PUSH1 0xA0 SHL SUB AND DUP1 EXTCODESIZE ISZERO PUSH2 0x6A8 JUMPI PUSH1 0x40 MLOAD PUSH4 0xBB03FDB PUSH1 0xE2 SHL DUP2 MSTORE PUSH1 0x1 PUSH1 0x1 PUSH1 0xA0 SHL SUB DUP8 AND PUSH1 0x4 DUP3 ADD MSTORE PUSH1 0x24 DUP2 ADD DUP6 SWAP1 MSTORE SWAP1 DUP3 SWAP1 DUP3 SWAP1 PUSH1 0x44 SWAP1 DUP3 SWAP1 DUP5 SWAP1 GAS CALL DUP1 ISZERO PUSH2 0x611 JUMPI PUSH2 0x694 JUMPI JUMPDEST POP POP PUSH2 0x503 JUMP JUMPDEST PUSH2 0x69D SWAP1 PUSH2 0x11B4 JUMP JUMPDEST PUSH2 0x60D JUMPI DUP5 CODESIZE PUSH2 0x68D JUMP JUMPDEST POP DUP1 REVERT JUMPDEST PUSH4 0x4E487B71 PUSH1 0xE0 SHL PUSH1 0x0 MSTORE PUSH1 0x11 PUSH1 0x4 MSTORE PUSH1 0x24 PUSH1 0x0 REVERT JUMPDEST PUSH4 0x4E487B71 PUSH1 0xE0 SHL PUSH1 0x0 MSTORE PUSH1 0x41 PUSH1 0x4 MSTORE PUSH1 0x24 PUSH1 0x0 REVERT JUMPDEST PUSH1 0x0 DUP1 REVERT JUMPDEST POP CALLVALUE PUSH2 0x162 JUMPI DUP1 PUSH1 0x3 NOT CALLDATASIZE ADD SLT PUSH2 0x162 JUMPI PUSH1 0x20 PUSH1 0x40 MLOAD PUSH2 0x3E8 DUP2 MSTORE RETURN JUMPDEST POP CALLVALUE PUSH2 0x162 JUMPI DUP1 PUSH1 0x3 NOT CALLDATASIZE ADD SLT PUSH2 0x162 JUMPI PUSH1 0x1 SLOAD PUSH1 0x40 MLOAD PUSH1 0x8 SWAP2 SWAP1 SWAP2 SHR PUSH1 0x1 PUSH1 0x1 PUSH1 0xA0 SHL SUB AND DUP2 MSTORE PUSH1 0x20 SWAP1 RETURN JUMPDEST POP CALLVALUE PUSH2 0x162 JUMPI PUSH1 0x20 CALLDATASIZE PUSH1 0x3 NOT ADD SLT PUSH2 0x162 JUMPI PUSH2 0x741 PUSH2 0x1050 JUMP JUMPDEST PUSH1 0x4 DUP1 CALLDATALOAD DUP3 MSTORE PUSH1 0x20 MSTORE PUSH1 0x40 DUP2 KECCAK256 DUP1 SLOAD PUSH1 0xFF NOT AND PUSH1 0x1 OR SWAP1 SSTORE DUP1 RETURN JUMPDEST POP CALLVALUE PUSH2 0x162 JUMPI DUP1 PUSH1 0x3 NOT CALLDATASIZE ADD SLT PUSH2 0x162 JUMPI PUSH2 0x775 PUSH2 0x1050 JUMP JUMPDEST PUSH2 0x77D PUSH2 0x1263 JUMP JUMPDEST PUSH1 0x1 PUSH1 0xFF NOT DUP2 SLOAD AND OR PUSH1 0x1 SSTORE PUSH32 0x62E78CEA01BEE320CD4E420270B5EA74000D11B0C9F74754EBDBFC544B05A258 PUSH1 0x20 PUSH1 0x40 MLOAD CALLER DUP2 MSTORE LOG1 DUP1 RETURN JUMPDEST POP CALLVALUE PUSH2 0x162 JUMPI DUP1 PUSH1 0x3 NOT CALLDATASIZE ADD SLT PUSH2 0x162 JUMPI PUSH1 0x20 PUSH1 0x7 SLOAD PUSH1 0x40 MLOAD SWAP1 DUP2 MSTORE RETURN JUMPDEST POP CALLVALUE PUSH2 0x162 JUMPI PUSH1 0x20 CALLDATASIZE PUSH1 0x3 NOT ADD SLT PUSH2 0x162 JUMPI PUSH1 0x20 SWAP1 PUSH1 0x40 SWAP1 PUSH1 0x1 PUSH1 0x1 PUSH1 0xA0 SHL SUB PUSH2 0x7FC PUSH2 0x103A JUMP JUMPDEST AND DUP2 MSTORE PUSH1 0x3 DUP4 MSTORE KECCAK256 SLOAD PUSH1 0x40 MLOAD SWAP1 DUP2 MSTORE RETURN JUMPDEST POP CALLVALUE PUSH2 0x162 JUMPI DUP1 PUSH1 0x3 NOT CALLDATASIZE ADD SLT PUSH2 0x162 JUMPI PUSH2 0x826 PUSH2 0x1050 JUMP JUMPDEST PUSH1 0x1 DUP1 SLOAD PUSH2 0x100 PUSH1 0x1 PUSH1 0xA8 SHL SUB NOT DUP2 AND SWAP1 SWAP2 SSTORE PUSH1 0x0 SWAP1 PUSH1 0x8 SHR PUSH1 0x1 PUSH1 0x1 PUSH1 0xA0 SHL SUB AND PUSH32 0x8BE0079C531659141344CD1FD0A4F28419497F9722A3DAAFE3B4186F6B6457E0 DUP3 DUP1 LOG3 DUP1 RETURN JUMPDEST POP CALLVALUE PUSH2 0x162 JUMPI PUSH1 0x20 CALLDATASIZE PUSH1 0x3 NOT ADD SLT PUSH2 0x162 JUMPI DUP1 PUSH2 0x88A PUSH2 0x103A JUMP JUMPDEST PUSH2 0x892 PUSH2 0x1050 JUMP JUMPDEST PUSH1 0x1 PUSH1 0x1 PUSH1 0xA0 SHL SUB SWAP1 DUP2 AND DUP1 PUSH2 0x8D6 JUMPI POP DUP2 DUP1 DUP1 SWAP3 PUSH1 0x1 SLOAD PUSH1 0x8 SHR AND SELFBALANCE SWAP1 DUP3 DUP3 ISZERO PUSH2 0x8CD JUMPI JUMPDEST CALL ISZERO PUSH2 0x8C1 JUMPI DUP1 RETURN JUMPDEST PUSH1 0x40 MLOAD SWAP1 RETURNDATASIZE SWAP1 DUP3 RETURNDATACOPY RETURNDATASIZE SWAP1 REVERT JUMPDEST POP PUSH2 0x8FC PUSH2 0x8B8 JUMP JUMPDEST SWAP2 POP PUSH1 0x1 SLOAD PUSH1 0x8 SHR AND SWAP1 PUSH1 0x40 MLOAD SWAP2 PUSH4 0x70A08231 PUSH1 0xE0 SHL DUP4 MSTORE ADDRESS PUSH1 0x4 DUP5 ADD MSTORE PUSH1 0x20 DUP4 PUSH1 0x24 DUP2 DUP6 GAS STATICCALL SWAP2 DUP3 ISZERO PUSH2 0x951 JUMPI DUP5 SWAP3 PUSH2 0x918 JUMPI JUMPDEST PUSH2 0x915 SWAP4 POP PUSH2 0x12FD JUMP JUMPDEST DUP1 RETURN JUMPDEST SWAP2 POP PUSH1 0x20 DUP4 RETURNDATASIZE DUP3 GT PUSH2 0x949 JUMPI JUMPDEST DUP2 PUSH2 0x932 PUSH1 0x20 SWAP4 DUP4 PUSH2 0x1201 JUMP JUMPDEST DUP2 ADD SUB SLT PUSH2 0x945 JUMPI PUSH2 0x915 SWAP3 MLOAD SWAP2 PUSH2 0x90B JUMP JUMPDEST DUP4 DUP1 REVERT JUMPDEST RETURNDATASIZE SWAP2 POP PUSH2 0x925 JUMP JUMPDEST PUSH1 0x40 MLOAD RETURNDATASIZE DUP7 DUP3 RETURNDATACOPY RETURNDATASIZE SWAP1 REVERT JUMPDEST POP CALLVALUE PUSH2 0x162 JUMPI PUSH1 0x20 CALLDATASIZE PUSH1 0x3 NOT ADD SLT PUSH2 0x162 JUMPI PUSH1 0x40 PUSH2 0x120 SWAP2 PUSH1 0x4 CALLDATALOAD DUP2 MSTORE PUSH1 0x2 PUSH1 0x20 MSTORE KECCAK256 DUP1 SLOAD SWAP1 PUSH1 0x1 DUP1 PUSH1 0xA0 SHL SUB SWAP1 DUP2 PUSH1 0x1 DUP3 ADD SLOAD AND SWAP2 DUP1 PUSH1 0x2 DUP4 ADD SLOAD AND SWAP1 PUSH1 0x3 DUP4 ADD SLOAD SWAP1 PUSH1 0x4 DUP5 ADD SLOAD SWAP1 PUSH1 0x5 DUP6 ADD SLOAD AND SWAP2 PUSH1 0x6 DUP6 ADD SLOAD SWAP4 PUSH1 0xFF PUSH1 0x8 PUSH1 0x7 DUP9 ADD SLOAD SWAP8 ADD SLOAD AND SWAP7 PUSH1 0x40 MLOAD SWAP9 DUP10 MSTORE PUSH1 0x20 DUP10 ADD MSTORE PUSH1 0x40 DUP9 ADD MSTORE PUSH1 0x60 DUP8 ADD MSTORE PUSH1 0x80 DUP7 ADD MSTORE PUSH1 0xA0 DUP6 ADD MSTORE PUSH1 0xC0 DUP5 ADD MSTORE PUSH1 0xE0 DUP4 ADD MSTORE ISZERO ISZERO PUSH2 0x100 DUP3 ADD MSTORE RETURN JUMPDEST POP CALLVALUE PUSH2 0x162 JUMPI DUP1 PUSH1 0x3 NOT CALLDATASIZE ADD SLT PUSH2 0x162 JUMPI PUSH1 0x6 SLOAD PUSH1 0x40 MLOAD PUSH1 0x1 PUSH1 0x1 PUSH1 0xA0 SHL SUB SWAP1 SWAP2 AND DUP2 MSTORE PUSH1 0x20 SWAP1 RETURN JUMPDEST POP CALLVALUE PUSH2 0x162 JUMPI DUP1 PUSH1 0x3 NOT CALLDATASIZE ADD SLT PUSH2 0x162 JUMPI PUSH1 0x20 PUSH1 0xFF PUSH1 0x1 SLOAD AND PUSH1 0x40 MLOAD SWAP1 ISZERO ISZERO DUP2 MSTORE RETURN JUMPDEST POP CALLVALUE PUSH2 0x162 JUMPI PUSH1 0x20 CALLDATASIZE PUSH1 0x3 NOT ADD SLT PUSH2 0x162 JUMPI PUSH1 0x4 CALLDATALOAD PUSH2 0xA5D PUSH2 0x1050 JUMP JUMPDEST PUSH2 0x3E8 DUP2 GT PUSH2 0xA6C JUMPI PUSH1 0x7 SSTORE DUP1 RETURN JUMPDEST PUSH1 0x40 MLOAD PUSH3 0x461BCD PUSH1 0xE5 SHL DUP2 MSTORE PUSH1 0x20 PUSH1 0x4 DUP3 ADD MSTORE PUSH1 0xC PUSH1 0x24 DUP3 ADD MSTORE PUSH12 0x8CCACA40E8DEDE40D0D2CED PUSH1 0xA3 SHL PUSH1 0x44 DUP3 ADD MSTORE PUSH1 0x64 SWAP1 REVERT JUMPDEST POP CALLVALUE PUSH2 0x162 JUMPI PUSH1 0x20 CALLDATASIZE PUSH1 0x3 NOT ADD SLT PUSH2 0x162 JUMPI PUSH1 0xFF PUSH1 0x40 PUSH1 0x20 SWAP3 PUSH1 0x4 CALLDATALOAD DUP2 MSTORE PUSH1 0x4 DUP5 MSTORE KECCAK256 SLOAD AND PUSH1 0x40 MLOAD SWAP1 ISZERO ISZERO DUP2 MSTORE RETURN JUMPDEST POP CALLVALUE PUSH2 0x162 JUMPI DUP1 PUSH1 0x3 NOT CALLDATASIZE ADD SLT PUSH2 0x162 JUMPI PUSH2 0xAE8 PUSH2 0x1050 JUMP JUMPDEST PUSH1 0x1 SLOAD PUSH1 0xFF DUP2 AND ISZERO PUSH2 0xB28 JUMPI PUSH1 0xFF NOT AND PUSH1 0x1 SSTORE PUSH32 0x5DB9EE0A495BF2E6FF9C91A7834C1BA4FDD244A5E8AA4E537BD38AEAE4B073AA PUSH1 0x20 PUSH1 0x40 MLOAD CALLER DUP2 MSTORE LOG1 DUP1 RETURN JUMPDEST PUSH1 0x40 MLOAD PUSH3 0x461BCD PUSH1 0xE5 SHL DUP2 MSTORE PUSH1 0x20 PUSH1 0x4 DUP3 ADD MSTORE PUSH1 0x14 PUSH1 0x24 DUP3 ADD MSTORE PUSH20 0x14185D5CD8589B194E881B9BDD081C185D5CD959 PUSH1 0x62 SHL PUSH1 0x44 DUP3 ADD MSTORE PUSH1 0x64 SWAP1 REVERT JUMPDEST POP PUSH1 0x40 CALLDATASIZE PUSH1 0x3 NOT ADD SLT PUSH2 0x162 JUMPI PUSH1 0x24 CALLDATALOAD PUSH1 0x1 PUSH1 0x1 PUSH1 0xA0 SHL SUB DUP1 DUP3 AND SWAP1 PUSH1 0x4 CALLDATALOAD DUP3 DUP5 SUB PUSH2 0x60D JUMPI PUSH2 0xB92 PUSH2 0x12A7 JUMP JUMPDEST PUSH2 0xB9A PUSH2 0x1263 JUMP JUMPDEST PUSH2 0xBA5 DUP4 ISZERO ISZERO PUSH2 0x10AB JUMP JUMPDEST DUP1 DUP6 MSTORE PUSH1 0x20 SWAP4 PUSH1 0x4 DUP6 MSTORE PUSH2 0xBBF PUSH1 0xFF PUSH1 0x40 DUP9 KECCAK256 SLOAD AND PUSH2 0x10E9 JUMP JUMPDEST PUSH2 0xBCA CALLVALUE ISZERO ISZERO PUSH2 0x112B JUMP JUMPDEST PUSH2 0x2710 PUSH2 0xBD9 PUSH1 0x7 SLOAD CALLVALUE PUSH2 0x1177 JUMP JUMPDEST DIV SWAP3 PUSH2 0xBE5 DUP5 CALLVALUE PUSH2 0x118A JUMP JUMPDEST SWAP2 CALLER DUP9 MSTORE PUSH1 0x3 DUP8 MSTORE PUSH1 0x40 DUP9 KECCAK256 DUP1 SLOAD SWAP1 PUSH1 0x0 NOT DUP3 EQ PUSH2 0xEA3 JUMPI SWAP4 PUSH1 0x8 DUP11 DUP11 DUP10 DUP5 SWAP8 SWAP7 DUP7 DUP14 SWAP12 SWAP11 PUSH1 0x1 PUSH2 0xD2D SWAP10 ADD SWAP1 SSTORE PUSH1 0x40 MLOAD SWAP1 DUP5 DUP3 ADD SWAP3 PUSH1 0x1 PUSH1 0x1 PUSH1 0x60 SHL SUB NOT SWAP1 DUP2 CALLER PUSH1 0x60 SHL AND DUP6 MSTORE DUP8 PUSH1 0x34 DUP6 ADD MSTORE DUP10 PUSH1 0x48 DUP6 ADD MSTORE DUP14 PUSH1 0x68 DUP6 ADD MSTORE PUSH1 0x60 SHL AND PUSH1 0x88 DUP4 ADD MSTORE PUSH1 0x9C DUP3 ADD MSTORE TIMESTAMP PUSH1 0xBC DUP3 ADD MSTORE CHAINID PUSH1 0xDC DUP3 ADD MSTORE PUSH1 0xDC DUP2 MSTORE PUSH2 0xC66 DUP2 PUSH2 0x11C8 JUMP JUMPDEST MLOAD SWAP1 KECCAK256 SWAP12 DUP13 SWAP4 DUP11 PUSH1 0x40 MLOAD SWAP8 DUP9 SWAP6 PUSH2 0xC7C DUP8 PUSH2 0x1197 JUMP JUMPDEST DUP8 DUP8 MSTORE PUSH1 0x40 DUP2 DUP9 ADD SWAP5 CALLER DUP7 MSTORE PUSH1 0x2 DUP3 DUP11 ADD SWAP4 DUP3 DUP6 MSTORE PUSH1 0x60 DUP12 ADD SWAP6 DUP7 MSTORE PUSH1 0x80 DUP12 ADD SWAP7 DUP8 MSTORE PUSH1 0xA0 DUP12 ADD SWAP9 DUP10 MSTORE PUSH1 0xC0 DUP12 ADD SWAP10 DUP11 MSTORE PUSH2 0x100 PUSH1 0xE0 DUP13 ADD SWAP12 TIMESTAMP DUP14 MSTORE ADD SWAP12 DUP4 DUP14 MSTORE DUP4 MSTORE MSTORE KECCAK256 SWAP10 MLOAD DUP11 SSTORE DUP12 PUSH1 0x1 DUP12 ADD SWAP5 MLOAD AND SWAP4 PUSH1 0x1 PUSH1 0x1 PUSH1 0x60 SHL SUB PUSH1 0xA0 SHL SWAP5 DUP6 DUP3 SLOAD AND OR SWAP1 SSTORE DUP12 PUSH1 0x2 DUP12 ADD SWAP2 MLOAD AND DUP5 DUP3 SLOAD AND OR SWAP1 SSTORE MLOAD PUSH1 0x3 DUP10 ADD SSTORE MLOAD PUSH1 0x4 DUP9 ADD SSTORE DUP9 PUSH1 0x5 DUP9 ADD SWAP3 MLOAD AND SWAP1 DUP3 SLOAD AND OR SWAP1 SSTORE MLOAD PUSH1 0x6 DUP6 ADD SSTORE MLOAD PUSH1 0x7 DUP5 ADD SSTORE MLOAD ISZERO ISZERO SWAP2 ADD SWAP1 PUSH1 0xFF DUP1 NOT DUP4 SLOAD AND SWAP2 ISZERO ISZERO AND OR SWAP1 SSTORE JUMP JUMPDEST DUP8 DUP6 DUP1 ISZERO DUP1 ISZERO PUSH2 0xE16 JUMPI JUMPDEST POP POP SWAP1 PUSH1 0x40 MLOAD SWAP1 DUP8 DUP10 DUP4 ADD MSTORE CALLER PUSH1 0x40 DUP4 ADD MSTORE PUSH1 0x0 PUSH1 0x60 DUP4 ADD MSTORE DUP4 PUSH1 0x80 DUP4 ADD MSTORE DUP6 PUSH1 0xA0 DUP4 ADD MSTORE PUSH1 0xA0 DUP3 MSTORE PUSH2 0xD6A DUP3 PUSH2 0x11E5 JUMP JUMPDEST PUSH1 0x5 SLOAD AND DUP1 EXTCODESIZE ISZERO PUSH2 0x61C JUMPI PUSH2 0xDA6 DUP4 SWAP2 DUP6 SWAP4 PUSH1 0x40 MLOAD SWAP5 DUP6 DUP1 SWAP5 DUP2 SWAP4 PUSH4 0xE289ADCD PUSH1 0xE0 SHL DUP4 MSTORE DUP12 PUSH1 0x4 DUP5 ADD MSTORE PUSH1 0x40 PUSH1 0x24 DUP5 ADD MSTORE PUSH1 0x44 DUP4 ADD SWAP1 PUSH2 0x1223 JUMP JUMPDEST SUB SWAP3 GAS CALL DUP1 ISZERO PUSH2 0x611 JUMPI PUSH2 0xDFE JUMPI JUMPDEST POP POP PUSH1 0x40 MLOAD SWAP6 PUSH1 0x0 DUP8 MSTORE DUP7 ADD MSTORE PUSH1 0x40 DUP6 ADD MSTORE PUSH1 0x60 DUP5 ADD MSTORE PUSH1 0x80 DUP4 ADD MSTORE PUSH32 0x4A65639C26B2522A9F539CF361B88997F914E55E739FE3DFC693227F4F84253F PUSH1 0xA0 CALLER SWAP4 LOG3 PUSH1 0x1 DUP2 SSTORE DUP1 RETURN JUMPDEST PUSH2 0xE07 SWAP1 PUSH2 0x11B4 JUMP JUMPDEST PUSH2 0xE12 JUMPI DUP7 CODESIZE PUSH2 0xDB5 JUMP JUMPDEST DUP7 DUP1 REVERT JUMPDEST DUP3 DUP1 SWAP3 DUP2 SWAP3 DUP7 PUSH1 0x6 SLOAD AND SWAP1 DUP4 SWAP1 PUSH2 0xE9A JUMPI JUMPDEST CALL ISZERO PUSH2 0xE8F JUMPI DUP8 DUP2 PUSH1 0x6 SLOAD AND DUP1 EXTCODESIZE ISZERO PUSH2 0x6A8 JUMPI DUP2 SWAP1 PUSH1 0x44 PUSH1 0x40 MLOAD DUP1 SWAP5 DUP2 SWAP4 PUSH4 0xBB03FDB PUSH1 0xE2 SHL DUP4 MSTORE DUP2 PUSH1 0x4 DUP5 ADD MSTORE DUP12 PUSH1 0x24 DUP5 ADD MSTORE GAS CALL DUP1 ISZERO PUSH2 0xE84 JUMPI PUSH2 0xE71 JUMPI JUMPDEST DUP6 DUP10 SWAP2 PUSH2 0xD38 JUMP JUMPDEST PUSH2 0xE7D SWAP1 SWAP9 SWAP2 SWAP9 PUSH2 0x11B4 JUMP JUMPDEST SWAP7 CODESIZE PUSH2 0xE69 JUMP JUMPDEST PUSH1 0x40 MLOAD RETURNDATASIZE DUP12 DUP3 RETURNDATACOPY RETURNDATASIZE SWAP1 REVERT JUMPDEST PUSH1 0x40 MLOAD RETURNDATASIZE DUP10 DUP3 RETURNDATACOPY RETURNDATASIZE SWAP1 REVERT JUMPDEST POP PUSH2 0x8FC PUSH2 0xE28 JUMP JUMPDEST PUSH4 0x4E487B71 PUSH1 0xE0 SHL DUP11 MSTORE PUSH1 0x11 PUSH1 0x4 MSTORE PUSH1 0x24 DUP11 REVERT JUMPDEST POP CALLVALUE PUSH2 0x162 JUMPI PUSH1 0x20 CALLDATASIZE PUSH1 0x3 NOT ADD SLT PUSH2 0x162 JUMPI PUSH2 0xED1 PUSH2 0x1050 JUMP JUMPDEST PUSH1 0x4 DUP1 CALLDATALOAD DUP3 MSTORE PUSH1 0x20 MSTORE PUSH1 0x40 DUP2 KECCAK256 DUP1 SLOAD PUSH1 0xFF NOT AND SWAP1 SSTORE DUP1 RETURN JUMPDEST POP CALLVALUE PUSH2 0x162 JUMPI DUP1 PUSH1 0x3 NOT CALLDATASIZE ADD SLT PUSH2 0x162 JUMPI PUSH1 0x5 SLOAD PUSH1 0x40 MLOAD PUSH1 0x1 PUSH1 0x1 PUSH1 0xA0 SHL SUB SWAP1 SWAP2 AND DUP2 MSTORE PUSH1 0x20 SWAP1 RETURN JUMPDEST SWAP1 POP CALLVALUE PUSH2 0x6A8 JUMPI PUSH1 0x20 CALLDATASIZE PUSH1 0x3 NOT ADD SLT PUSH2 0x6A8 JUMPI PUSH1 0x40 PUSH2 0x120 SWAP3 PUSH2 0xF34 DUP4 PUSH2 0x1197 JUMP JUMPDEST DUP1 DUP4 MSTORE DUP1 PUSH1 0x20 DUP5 ADD MSTORE DUP1 DUP3 DUP5 ADD MSTORE DUP1 PUSH1 0x60 DUP5 ADD MSTORE DUP1 PUSH1 0x80 DUP5 ADD MSTORE DUP1 PUSH1 0xA0 DUP5 ADD MSTORE DUP1 PUSH1 0xC0 DUP5 ADD MSTORE DUP1 PUSH1 0xE0 DUP5 ADD MSTORE DUP1 PUSH2 0x100 DUP1 SWAP5 ADD MSTORE PUSH1 0x4 CALLDATALOAD DUP2 MSTORE PUSH1 0x2 PUSH1 0x20 MSTORE KECCAK256 SWAP1 PUSH1 0x40 MLOAD PUSH2 0xF80 DUP2 PUSH2 0x1197 JUMP JUMPDEST DUP1 DUP1 DUP5 SLOAD SWAP5 DUP6 DUP3 MSTORE PUSH1 0x1 DUP1 PUSH1 0xA0 SHL SUB SWAP1 DUP2 PUSH1 0x1 DUP3 ADD SLOAD AND PUSH1 0x20 DUP5 ADD SWAP1 DUP2 MSTORE DUP3 PUSH1 0x2 DUP4 ADD SLOAD AND PUSH1 0x40 DUP6 ADD SWAP1 DUP2 MSTORE DUP4 PUSH1 0x3 DUP5 ADD SLOAD SWAP2 PUSH1 0x60 DUP8 ADD SWAP3 DUP4 MSTORE DUP2 PUSH1 0x4 DUP7 ADD SLOAD SWAP5 PUSH1 0x80 DUP10 ADD SWAP6 DUP7 MSTORE DUP12 PUSH1 0xFF PUSH1 0x8 DUP5 PUSH1 0x5 DUP12 ADD SLOAD AND SWAP10 PUSH1 0xA0 DUP14 ADD SWAP11 DUP12 MSTORE PUSH1 0xC0 PUSH1 0x6 DUP3 ADD SLOAD SWAP14 ADD SWAP13 DUP14 MSTORE PUSH1 0xE0 PUSH1 0x7 DUP3 ADD SLOAD SWAP15 ADD SWAP14 DUP15 MSTORE ADD SLOAD AND SWAP12 ADD SWAP11 ISZERO ISZERO DUP12 MSTORE PUSH1 0x40 MLOAD SWAP13 DUP14 MSTORE MLOAD AND PUSH1 0x20 DUP13 ADD MSTORE MLOAD AND PUSH1 0x40 DUP11 ADD MSTORE MLOAD PUSH1 0x60 DUP10 ADD MSTORE MLOAD PUSH1 0x80 DUP9 ADD MSTORE MLOAD AND PUSH1 0xA0 DUP7 ADD MSTORE MLOAD PUSH1 0xC0 DUP6 ADD MSTORE MLOAD PUSH1 0xE0 DUP5 ADD MSTORE MLOAD ISZERO ISZERO SWAP1 DUP3 ADD MSTORE RETURN JUMPDEST PUSH1 0x4 CALLDATALOAD SWAP1 PUSH1 0x1 PUSH1 0x1 PUSH1 0xA0 SHL SUB DUP3 AND DUP3 SUB PUSH2 0x6D8 JUMPI JUMP JUMPDEST PUSH1 0x1 SLOAD PUSH1 0x8 SHR PUSH1 0x1 PUSH1 0x1 PUSH1 0xA0 SHL SUB AND CALLER SUB PUSH2 0x1067 JUMPI JUMP JUMPDEST PUSH1 0x64 PUSH1 0x40 MLOAD PUSH3 0x461BCD PUSH1 0xE5 SHL DUP2 MSTORE PUSH1 0x20 PUSH1 0x4 DUP3 ADD MSTORE PUSH1 0x20 PUSH1 0x24 DUP3 ADD MSTORE PUSH32 0x4F776E61626C653A2063616C6C6572206973206E6F7420746865206F776E6572 PUSH1 0x44 DUP3 ADD MSTORE REVERT JUMPDEST ISZERO PUSH2 0x10B2 JUMPI JUMP JUMPDEST PUSH1 0x40 MLOAD PUSH3 0x461BCD PUSH1 0xE5 SHL DUP2 MSTORE PUSH1 0x20 PUSH1 0x4 DUP3 ADD MSTORE PUSH1 0xF PUSH1 0x24 DUP3 ADD MSTORE PUSH15 0x496E76616C69642061646472657373 PUSH1 0x88 SHL PUSH1 0x44 DUP3 ADD MSTORE PUSH1 0x64 SWAP1 REVERT JUMPDEST ISZERO PUSH2 0x10F0 JUMPI JUMP JUMPDEST PUSH1 0x40 MLOAD PUSH3 0x461BCD PUSH1 0xE5 SHL DUP2 MSTORE PUSH1 0x20 PUSH1 0x4 DUP3 ADD MSTORE PUSH1 0x13 PUSH1 0x24 DUP3 ADD MSTORE PUSH19 0x10DA185A5B881B9BDD081CDD5C1C1BDC9D1959 PUSH1 0x6A SHL PUSH1 0x44 DUP3 ADD MSTORE PUSH1 0x64 SWAP1 REVERT JUMPDEST ISZERO PUSH2 0x1132 JUMPI JUMP JUMPDEST PUSH1 0x40 MLOAD PUSH3 0x461BCD PUSH1 0xE5 SHL DUP2 MSTORE PUSH1 0x20 PUSH1 0x4 DUP3 ADD MSTORE PUSH1 0x1D PUSH1 0x24 DUP3 ADD MSTORE PUSH32 0x416D6F756E74206D7573742062652067726561746572207468616E2030000000 PUSH1 0x44 DUP3 ADD MSTORE PUSH1 0x64 SWAP1 REVERT JUMPDEST DUP2 DUP2 MUL SWAP3 SWAP2 DUP2 ISZERO SWAP2 DUP5 DIV EQ OR ISZERO PUSH2 0x6AC JUMPI JUMP JUMPDEST SWAP2 SWAP1 DUP3 SUB SWAP2 DUP3 GT PUSH2 0x6AC JUMPI JUMP JUMPDEST PUSH2 0x120 DUP2 ADD SWAP1 DUP2 LT PUSH8 0xFFFFFFFFFFFFFFFF DUP3 GT OR PUSH2 0x6C2 JUMPI PUSH1 0x40 MSTORE JUMP JUMPDEST PUSH8 0xFFFFFFFFFFFFFFFF DUP2 GT PUSH2 0x6C2 JUMPI PUSH1 0x40 MSTORE JUMP JUMPDEST PUSH2 0x100 DUP2 ADD SWAP1 DUP2 LT PUSH8 0xFFFFFFFFFFFFFFFF DUP3 GT OR PUSH2 0x6C2 JUMPI PUSH1 0x40 MSTORE JUMP JUMPDEST PUSH1 0xC0 DUP2 ADD SWAP1 DUP2 LT PUSH8 0xFFFFFFFFFFFFFFFF DUP3 GT OR PUSH2 0x6C2 JUMPI PUSH1 0x40 MSTORE JUMP JUMPDEST SWAP1 PUSH1 0x1F DUP1 NOT SWAP2 ADD AND DUP2 ADD SWAP1 DUP2 LT PUSH8 0xFFFFFFFFFFFFFFFF DUP3 GT OR PUSH2 0x6C2 JUMPI PUSH1 0x40 MSTORE JUMP JUMPDEST SWAP2 SWAP1 DUP3 MLOAD SWAP3 DUP4 DUP3 MSTORE PUSH1 0x0 JUMPDEST DUP5 DUP2 LT PUSH2 0x124F JUMPI POP POP DUP3 PUSH1 0x0 PUSH1 0x20 DUP1 SWAP5 SWAP6 DUP5 ADD ADD MSTORE PUSH1 0x1F DUP1 NOT SWAP2 ADD AND ADD ADD SWAP1 JUMP JUMPDEST PUSH1 0x20 DUP2 DUP4 ADD DUP2 ADD MLOAD DUP5 DUP4 ADD DUP3 ADD MSTORE ADD PUSH2 0x122E JUMP JUMPDEST PUSH1 0xFF PUSH1 0x1 SLOAD AND PUSH2 0x126F JUMPI JUMP JUMPDEST PUSH1 0x40 MLOAD PUSH3 0x461BCD PUSH1 0xE5 SHL DUP2 MSTORE PUSH1 0x20 PUSH1 0x4 DUP3 ADD MSTORE PUSH1 0x10 PUSH1 0x24 DUP3 ADD MSTORE PUSH16 0x14185D5CD8589B194E881C185D5CD959 PUSH1 0x82 SHL PUSH1 0x44 DUP3 ADD MSTORE PUSH1 0x64 SWAP1 REVERT JUMPDEST PUSH1 0x2 PUSH1 0x0 SLOAD EQ PUSH2 0x12B8 JUMPI PUSH1 0x2 PUSH1 0x0 SSTORE JUMP JUMPDEST PUSH1 0x40 MLOAD PUSH3 0x461BCD PUSH1 0xE5 SHL DUP2 MSTORE PUSH1 0x20 PUSH1 0x4 DUP3 ADD MSTORE PUSH1 0x1F PUSH1 0x24 DUP3 ADD MSTORE PUSH32 0x5265656E7472616E637947756172643A207265656E7472616E742063616C6C00 PUSH1 0x44 DUP3 ADD MSTORE PUSH1 0x64 SWAP1 REVERT JUMPDEST PUSH1 0x40 MLOAD PUSH4 0xA9059CBB PUSH1 0xE0 SHL PUSH1 0x20 DUP3 ADD MSTORE PUSH1 0x1 PUSH1 0x1 PUSH1 0xA0 SHL SUB SWAP3 SWAP1 SWAP3 AND PUSH1 0x24 DUP4 ADD MSTORE PUSH1 0x44 DUP1 DUP4 ADD SWAP4 SWAP1 SWAP4 MSTORE SWAP2 DUP2 MSTORE PUSH2 0x133E SWAP2 PUSH2 0x1339 PUSH1 0x64 DUP4 PUSH2 0x1201 JUMP JUMPDEST PUSH2 0x1340 JUMP JUMPDEST JUMP JUMPDEST PUSH1 0x1 DUP1 PUSH1 0xA0 SHL SUB AND SWAP1 PUSH1 0x40 MLOAD PUSH1 0x40 DUP2 ADD PUSH8 0xFFFFFFFFFFFFFFFF SWAP1 DUP3 DUP2 LT DUP3 DUP3 GT OR PUSH2 0x6C2 JUMPI PUSH1 0x40 MSTORE PUSH1 0x20 SWAP4 DUP5 DUP4 MSTORE PUSH32 0x5361666545524332303A206C6F772D6C6576656C2063616C6C206661696C6564 DUP6 DUP5 ADD MSTORE PUSH1 0x0 DUP1 DUP6 DUP8 DUP3 SWAP8 MLOAD SWAP2 ADD DUP3 DUP6 GAS CALL SWAP1 RETURNDATASIZE ISZERO PUSH2 0x1485 JUMPI RETURNDATASIZE SWAP3 DUP4 GT PUSH2 0x1471 JUMPI SWAP1 PUSH2 0x13DB SWAP4 SWAP3 SWAP2 PUSH1 0x40 MLOAD SWAP3 PUSH2 0x13CE DUP9 PUSH1 0x1F NOT PUSH1 0x1F DUP5 ADD AND ADD DUP6 PUSH2 0x1201 JUMP JUMPDEST DUP4 MSTORE RETURNDATASIZE DUP7 DUP9 DUP6 ADD RETURNDATACOPY PUSH2 0x1490 JUMP JUMPDEST DUP1 MLOAD SWAP2 DUP3 ISZERO SWAP2 DUP5 DUP4 ISZERO PUSH2 0x144D JUMPI JUMPDEST POP POP POP SWAP1 POP ISZERO PUSH2 0x13F6 JUMPI POP JUMP JUMPDEST PUSH1 0x84 SWAP1 PUSH1 0x40 MLOAD SWAP1 PUSH3 0x461BCD PUSH1 0xE5 SHL DUP3 MSTORE PUSH1 0x4 DUP3 ADD MSTORE PUSH1 0x2A PUSH1 0x24 DUP3 ADD MSTORE PUSH32 0x5361666545524332303A204552433230206F7065726174696F6E20646964206E PUSH1 0x44 DUP3 ADD MSTORE PUSH10 0x1BDD081CDD58D8D95959 PUSH1 0xB2 SHL PUSH1 0x64 DUP3 ADD MSTORE REVERT JUMPDEST SWAP2 SWAP4 DUP2 DUP1 SWAP5 POP ADD SUB SLT PUSH2 0x6A8 JUMPI DUP3 ADD MLOAD SWAP1 DUP2 ISZERO ISZERO DUP3 SUB PUSH2 0x162 JUMPI POP DUP1 CODESIZE DUP1 DUP5 PUSH2 0x13E9 JUMP JUMPDEST PUSH4 0x4E487B71 PUSH1 0xE0 SHL DUP6 MSTORE PUSH1 0x41 PUSH1 0x4 MSTORE PUSH1 0x24 DUP6 REVERT JUMPDEST SWAP1 PUSH2 0x13DB SWAP4 SWAP3 POP PUSH1 0x60 SWAP2 JUMPDEST SWAP2 SWAP3 SWAP1 ISZERO PUSH2 0x14F2 JUMPI POP DUP2 MLOAD ISZERO PUSH2 0x14A4 JUMPI POP SWAP1 JUMP JUMPDEST EXTCODESIZE ISZERO PUSH2 0x14AD JUMPI SWAP1 JUMP JUMPDEST PUSH1 0x40 MLOAD PUSH3 0x461BCD PUSH1 0xE5 SHL DUP2 MSTORE PUSH1 0x20 PUSH1 0x4 DUP3 ADD MSTORE PUSH1 0x1D PUSH1 0x24 DUP3 ADD MSTORE PUSH32 0x416464726573733A2063616C6C20746F206E6F6E2D636F6E7472616374000000 PUSH1 0x44 DUP3 ADD MSTORE PUSH1 0x64 SWAP1 REVERT JUMPDEST DUP3 MLOAD SWAP1 SWAP2 POP ISZERO PUSH2 0x1505 JUMPI POP DUP1 MLOAD SWAP1 PUSH1 0x20 ADD REVERT JUMPDEST PUSH1 0x40 MLOAD PUSH3 0x461BCD PUSH1 0xE5 SHL DUP2 MSTORE PUSH1 0x20 PUSH1 0x4 DUP3 ADD MSTORE SWAP1 DUP2 SWAP1 PUSH2 0x1529 SWAP1 PUSH1 0x24 DUP4 ADD SWAP1 PUSH2 0x1223 JUMP JUMPDEST SUB SWAP1 REVERT INVALID LOG2 PUSH5 0x6970667358 0x22 SLT KECCAK256 GT MSIZE 0xDA 0xDB DUP9 DUP6 0xAF LOG0 LOG2 EXP 0xC 0xB9 ADDMOD 0xEA PUSH32 0xBBBA4605DD5472A32594ACD38521232BF864736F6C6343000813003300000000 "},"methodIdentifiers":{"MAX_FEE()":"bc063e1a","addSupportedChain(uint256)":"87188a00","bridgeETH(uint256,address)":"19bf4b4d","bridgeFee()":"82b12dd7","bridgeToken(address,uint256,uint256,address)":"ceefd62c","bridgeTransactions(bytes32)":"6c63f971","emergencyWithdraw(address)":"6ff1c9bc","feeTreasury()":"60dc2340","getBridgeTransaction(bytes32)":"0024a1b8","messageRouter()":"08b583ff","nonces(address)":"7ecebe00","owner()":"8da5cb5b","pause()":"8456cb59","paused()":"5c975abb","removeSupportedChain(uint256)":"0c4844aa","renounceOwnership()":"715018a6","supportedChains(uint256)":"548d496f","transferOwnership(address)":"f2fde38b","unpause()":"3f4ba83a","updateBridgeFee(uint256)":"5a1c0366","updateFeeTreasury(address)":"d4a0d4c6","updateMessageRouter(address)":"fa73f5e5"}}}}}