{"contracts/PointsModule.sol":{"PointsModule":{"abi":[{"inputs":[],"stateMutability":"nonpayable","type":"constructor"},{"anonymous":false,"inputs":[{"indexed":true,"internalType":"address","name":"adder","type":"address"}],"name":"AdderAuthorized","type":"event"},{"anonymous":false,"inputs":[{"indexed":true,"internalType":"address","name":"adder","type":"address"}],"name":"AdderUnauthorized","type":"event"},{"anonymous":false,"inputs":[{"indexed":false,"internalType":"bool","name":"enabled","type":"bool"}],"name":"ClaimingToggled","type":"event"},{"anonymous":false,"inputs":[{"indexed":true,"internalType":"address","name":"previousOwner","type":"address"},{"indexed":true,"internalType":"address","name":"newOwner","type":"address"}],"name":"OwnershipTransferred","type":"event"},{"anonymous":false,"inputs":[{"indexed":true,"internalType":"address","name":"user","type":"address"},{"indexed":false,"internalType":"uint256","name":"amount","type":"uint256"},{"indexed":true,"internalType":"address","name":"adder","type":"address"}],"name":"PointsAdded","type":"event"},{"anonymous":false,"inputs":[{"indexed":true,"internalType":"address","name":"user","type":"address"},{"indexed":false,"internalType":"uint256","name":"amount","type":"uint256"}],"name":"PointsClaimed","type":"event"},{"inputs":[{"internalType":"address","name":"user","type":"address"},{"internalType":"uint256","name":"points","type":"uint256"}],"name":"addPoints","outputs":[],"stateMutability":"nonpayable","type":"function"},{"inputs":[{"internalType":"address","name":"adder","type":"address"}],"name":"authorizeAdder","outputs":[],"stateMutability":"nonpayable","type":"function"},{"inputs":[{"internalType":"address","name":"","type":"address"}],"name":"authorizedAdders","outputs":[{"internalType":"bool","name":"","type":"bool"}],"stateMutability":"view","type":"function"},{"inputs":[{"internalType":"address[]","name":"users","type":"address[]"},{"internalType":"uint256[]","name":"points","type":"uint256[]"}],"name":"batchAddPoints","outputs":[],"stateMutability":"nonpayable","type":"function"},{"inputs":[],"name":"claimPoints","outputs":[],"stateMutability":"nonpayable","type":"function"},{"inputs":[],"name":"claimingEnabled","outputs":[{"internalType":"bool","name":"","type":"bool"}],"stateMutability":"view","type":"function"},{"inputs":[{"internalType":"address","name":"user","type":"address"}],"name":"getClaimedPoints","outputs":[{"internalType":"uint256","name":"","type":"uint256"}],"stateMutability":"view","type":"function"},{"inputs":[{"internalType":"address","name":"user","type":"address"}],"name":"getPoints","outputs":[{"internalType":"uint256","name":"","type":"uint256"}],"stateMutability":"view","type":"function"},{"inputs":[],"name":"getStats","outputs":[{"internalType":"uint256","name":"totalDistributed","type":"uint256"},{"internalType":"uint256","name":"totalUsers","type":"uint256"},{"internalType":"bool","name":"claimingActive","type":"bool"}],"stateMutability":"view","type":"function"},{"inputs":[{"internalType":"address[]","name":"users","type":"address[]"}],"name":"getTopUsers","outputs":[{"internalType":"address[]","name":"topUsers","type":"address[]"},{"internalType":"uint256[]","name":"topPoints","type":"uint256[]"}],"stateMutability":"view","type":"function"},{"inputs":[{"internalType":"address","name":"user","type":"address"}],"name":"getTotalEarned","outputs":[{"internalType":"uint256","name":"","type":"uint256"}],"stateMutability":"view","type":"function"},{"inputs":[],"name":"owner","outputs":[{"internalType":"address","name":"","type":"address"}],"stateMutability":"view","type":"function"},{"inputs":[{"internalType":"address","name":"","type":"address"}],"name":"pointsClaimed","outputs":[{"internalType":"uint256","name":"","type":"uint256"}],"stateMutability":"view","type":"function"},{"inputs":[],"name":"renounceOwnership","outputs":[],"stateMutability":"nonpayable","type":"function"},{"inputs":[],"name":"toggleClaiming","outputs":[],"stateMutability":"nonpayable","type":"function"},{"inputs":[],"name":"totalPointsDistributed","outputs":[{"internalType":"uint256","name":"","type":"uint256"}],"stateMutability":"view","type":"function"},{"inputs":[{"internalType":"address","name":"","type":"address"}],"name":"totalPointsEarned","outputs":[{"internalType":"uint256","name":"","type":"uint256"}],"stateMutability":"view","type":"function"},{"inputs":[{"internalType":"address","name":"newOwner","type":"address"}],"name":"transferOwnership","outputs":[],"stateMutability":"nonpayable","type":"function"},{"inputs":[{"internalType":"address","name":"adder","type":"address"}],"name":"unauthorizeAdder","outputs":[],"stateMutability":"nonpayable","type":"function"},{"inputs":[{"internalType":"address","name":"","type":"address"}],"name":"userPoints","outputs":[{"internalType":"uint256","name":"","type":"uint256"}],"stateMutability":"view","type":"function"}],"evm":{"bytecode":{"linkReferences":{},"object":"6080806040523461007c5760008054336001600160a01b0319821681178355906001600160a01b03167f8be0079c531659141344cd1fd0a4f28419497f9722a3daafe3b4186f6b6457e08380a3600180556001604060ff1992836007541660075533815260036020522091825416179055610e6f90816100828239f35b600080fdfe6080604081815260048036101561001557600080fd5b600092833560e01c90816304d092c714610a9a575080630e141a9b14610a7657806321500e3d1461083157806334686fae1461066357806349ace8ac14610625578063507cd30f146105665780635e319a3d146104785780635f0924c4146103c8578063715018a61461036b5780637bc94d981461034c5780638010fc45146102ef5780638da5cb5b146102c7578063937b4b34146102a05780639699c0dd14610268578063ac02077814610268578063c59d484714610235578063ee204abb14610137578063f2fde38b14610173578063f50ddbc7146101375763f662781d146100ff57600080fd5b346101335760203660031901126101335760209282916001600160a01b03610125610c1c565b168252845220549051908152f35b8280fd5b50503461016f57602036600319011261016f5760209181906001600160a01b0361015f610c1c565b1681526002845220549051908152f35b5080fd5b50346101335760203660031901126101335761018d610c1c565b90610196610c32565b6001600160a01b039182169283156101e357505082546001600160a01b0319811683178455167f8be0079c531659141344cd1fd0a4f28419497f9722a3daafe3b4186f6b6457e08380a380f35b906020608492519162461bcd60e51b8352820152602660248201527f4f776e61626c653a206e6577206f776e657220697320746865207a65726f206160448201526564647265737360d01b6064820152fd5b50503461016f578160031936011261016f57906060916006549160ff600754169082519384526020840152151590820152f35b50503461016f57602036600319011261016f5760209181906001600160a01b03610290610c1c565b1681526005845220549051908152f35b50346101335760203660031901126101335760209282916001600160a01b03610125610c1c565b50503461016f578160031936011261016f57905490516001600160a01b039091168152602090f35b50503461016f578160031936011261016f5760207f5357603b66ce52ad2bde073bf1baae8a126a96ae712f396257fa4b57169c36ab9161032d610c32565b6007549060ff8083161516809260ff191617600755519015158152a180f35b50503461016f578160031936011261016f576020906006549051908152f35b83346103c557806003193601126103c557610384610c32565b80546001600160a01b03198116825581906001600160a01b03167f8be0079c531659141344cd1fd0a4f28419497f9722a3daafe3b4186f6b6457e08280a380f35b80fd5b509034610133576020366003190112610133576103e3610c1c565b6103eb610c32565b6001600160a01b031680845260036020528184205490929060ff1615610445575081835260036020528220805460ff191690557fe619fc9f4e0eee3bb2bc23955321cd6ad031a2abe9e217674b58a4019bbc94128280a280f35b6020606492519162461bcd60e51b8352820152600e60248201526d139bdd08185d5d1a1bdc9a5e995960921b6044820152fd5b50903461013357602036600319011261013357610493610c1c565b61049b610c32565b6001600160a01b031691821561053257828452600360205260ff82852054166104fb575081835260036020528220805460ff191660011790557f32b9104826f84e16efadf70339854be744325efa4081f2d293cef0259a40c3588280a280f35b6020606492519162461bcd60e51b83528201526012602482015271105b1c9958591e48185d5d1a1bdc9a5e995960721b6044820152fd5b6020606492519162461bcd60e51b8352820152600f60248201526e496e76616c6964206164647265737360881b6044820152fd5b503461013357816003193601126101335761057f610c1c565b9160243592338552600360205261059b60ff8387205416610c8a565b6001600160a01b0316916105b0831515610cd6565b6105bb841515610d19565b82855260026020528185206105d1858254610d65565b90558285526020528084206105e7848254610d65565b90556105f583600654610d65565b600655519182527fca17eb5acd938ee6dc4c06ffdd37a2dd89ec1b7f98882251072fd6fb4a11d73660203393a380f35b50503461016f57602036600319011261016f5760209160ff9082906001600160a01b03610650610c1c565b1681526003855220541690519015158152f35b50903461013357806003193601126101335767ffffffffffffffff90823582811161082d576106959036908501610be6565b919092602435908111610829576106af9036908601610be6565b93338752602093600385526106c960ff858a205416610c8a565b8581036107ee57875b8181106106dd578880f35b6107e9906001600160a01b03610708816107006106fb85888a610d97565b610dbd565b161515610cd6565b61071e610716838b89610d97565b351515610d19565b610729828a88610d97565b35816107396106fb85888a610d97565b168c526002895261074e888d20918254610d65565b905561075b828a88610d97565b358161076b6106fb85888a610d97565b168c528a895261077f888d20918254610d65565b905561078c828a88610d97565b3561079a6006918254610d65565b90556107aa6106fb838688610d97565b907fca17eb5acd938ee6dc4c06ffdd37a2dd89ec1b7f98882251072fd6fb4a11d736896107d8858d8b610d97565b35928a5193845233941692a3610d88565b6106d2565b835162461bcd60e51b81528088018690526015602482015274082e4e4c2f240d8cadccee8d040dad2e6dac2e8c6d605b1b6044820152606490fd5b8580fd5b8480fd5b5091346103c5576020928360031936011261016f57803567ffffffffffffffff8111610133576108649036908301610be6565b91909461087861087384610e0d565b610dd1565b9583875261088584610e0d565b9180880191601f1980940136843761089f61087387610e0d565b958087526108ac81610e0d565b8784019501368637875b818110610a2557505050855b88518110156109a357600180820180831161099057815b6108ee575b50506108e990610d88565b6108c2565b8a5181101561098b5761091c8291610906858b610e25565b51610911828c610e25565b511161092257610d88565b906108d9565b61092c858b610e25565b51610937828c610e25565b51610942878d610e25565b5261094d828c610e25565b526001600160a01b03610985828f836109668a83610e25565b5116936109738383610e25565b511661097f8a83610e25565b52610e25565b52610d88565b6108de565b634e487b7160e01b895260118752602489fd5b50869350879291869186865196879681880191885251809152606087019390855b818110610a0557505050858303868301525180835291810193925b8281106109ee57505050500390f35b8351855286955093810193928101926001016109df565b82516001600160a01b0316865289985094840194918401916001016109c4565b808b610a4282610a3c6106fb610a7196888a610d97565b92610e25565b6001600160a01b039182169052610a5d6106fb838688610d97565b168a528785528a8a2054610985828b610e25565b6108b6565b50503461016f578160031936011261016f5760209060ff6007541690519015158152f35b8493915034610be25783600319360112610be257600260015414610ba15750600260015560ff6007541615610b6757338352600260205280832054918215610b305750338352600260205282818120556005602052808320610afd838254610d65565b9055519081527fba953728785de35be3827ee7a7a7867a8472947562602939440e6c0bdbf4725e60203392a26001805580f35b6020606492519162461bcd60e51b835282015260126024820152714e6f20706f696e747320746f20636c61696d60701b6044820152fd5b906020606492519162461bcd60e51b8352820152601460248201527310db185a5b5a5b99c81b9bdd08195b98589b195960621b6044820152fd5b62461bcd60e51b8152602083820152601f60248201527f5265656e7472616e637947756172643a207265656e7472616e742063616c6c006044820152606490fd5b8380fd5b9181601f84011215610c175782359167ffffffffffffffff8311610c17576020808501948460051b010111610c1757565b600080fd5b600435906001600160a01b0382168203610c1757565b6000546001600160a01b03163303610c4657565b606460405162461bcd60e51b815260206004820152602060248201527f4f776e61626c653a2063616c6c6572206973206e6f7420746865206f776e65726044820152fd5b15610c9157565b60405162461bcd60e51b815260206004820152601c60248201527f4e6f7420617574686f72697a656420746f2061646420706f696e7473000000006044820152606490fd5b15610cdd57565b60405162461bcd60e51b8152602060048201526014602482015273496e76616c69642075736572206164647265737360601b6044820152606490fd5b15610d2057565b60405162461bcd60e51b815260206004820152601d60248201527f506f696e7473206d7573742062652067726561746572207468616e20300000006044820152606490fd5b91908201809211610d7257565b634e487b7160e01b600052601160045260246000fd5b6000198114610d725760010190565b9190811015610da75760051b0190565b634e487b7160e01b600052603260045260246000fd5b356001600160a01b0381168103610c175790565b6040519190601f01601f1916820167ffffffffffffffff811183821017610df757604052565b634e487b7160e01b600052604160045260246000fd5b67ffffffffffffffff8111610df75760051b60200190565b8051821015610da75760209160051b01019056fea264697066735822122009c368f00ef64fc1b8310d3667e3a4fabe7bff32ce04a3efd98391175b96177964736f6c63430008130033","opcodes":"PUSH1 0x80 DUP1 PUSH1 0x40 MSTORE CALLVALUE PUSH2 0x7C JUMPI PUSH1 0x0 DUP1 SLOAD CALLER PUSH1 0x1 PUSH1 0x1 PUSH1 0xA0 SHL SUB NOT DUP3 AND DUP2 OR DUP4 SSTORE SWAP1 PUSH1 0x1 PUSH1 0x1 PUSH1 0xA0 SHL SUB AND PUSH32 0x8BE0079C531659141344CD1FD0A4F28419497F9722A3DAAFE3B4186F6B6457E0 DUP4 DUP1 LOG3 PUSH1 0x1 DUP1 SSTORE PUSH1 0x1 PUSH1 0x40 PUSH1 0xFF NOT SWAP3 DUP4 PUSH1 0x7 SLOAD AND PUSH1 0x7 SSTORE CALLER DUP2 MSTORE PUSH1 0x3 PUSH1 0x20 MSTORE KECCAK256 SWAP2 DUP3 SLOAD AND OR SWAP1 SSTORE PUSH2 0xE6F SWAP1 DUP2 PUSH2 0x82 DUP3 CODECOPY RETURN JUMPDEST PUSH1 0x0 DUP1 REVERT INVALID PUSH1 0x80 PUSH1 0x40 DUP2 DUP2 MSTORE PUSH1 0x4 DUP1 CALLDATASIZE LT ISZERO PUSH2 0x15 JUMPI PUSH1 0x0 DUP1 REVERT JUMPDEST PUSH1 0x0 SWAP3 DUP4 CALLDATALOAD PUSH1 0xE0 SHR SWAP1 DUP2 PUSH4 0x4D092C7 EQ PUSH2 0xA9A JUMPI POP DUP1 PUSH4 0xE141A9B EQ PUSH2 0xA76 JUMPI DUP1 PUSH4 0x21500E3D EQ PUSH2 0x831 JUMPI DUP1 PUSH4 0x34686FAE EQ PUSH2 0x663 JUMPI DUP1 PUSH4 0x49ACE8AC EQ PUSH2 0x625 JUMPI DUP1 PUSH4 0x507CD30F EQ PUSH2 0x566 JUMPI DUP1 PUSH4 0x5E319A3D EQ PUSH2 0x478 JUMPI DUP1 PUSH4 0x5F0924C4 EQ PUSH2 0x3C8 JUMPI DUP1 PUSH4 0x715018A6 EQ PUSH2 0x36B JUMPI DUP1 PUSH4 0x7BC94D98 EQ PUSH2 0x34C JUMPI DUP1 PUSH4 0x8010FC45 EQ PUSH2 0x2EF JUMPI DUP1 PUSH4 0x8DA5CB5B EQ PUSH2 0x2C7 JUMPI DUP1 PUSH4 0x937B4B34 EQ PUSH2 0x2A0 JUMPI DUP1 PUSH4 0x9699C0DD EQ PUSH2 0x268 JUMPI DUP1 PUSH4 0xAC020778 EQ PUSH2 0x268 JUMPI DUP1 PUSH4 0xC59D4847 EQ PUSH2 0x235 JUMPI DUP1 PUSH4 0xEE204ABB EQ PUSH2 0x137 JUMPI DUP1 PUSH4 0xF2FDE38B EQ PUSH2 0x173 JUMPI DUP1 PUSH4 0xF50DDBC7 EQ PUSH2 0x137 JUMPI PUSH4 0xF662781D EQ PUSH2 0xFF JUMPI PUSH1 0x0 DUP1 REVERT JUMPDEST CALLVALUE PUSH2 0x133 JUMPI PUSH1 0x20 CALLDATASIZE PUSH1 0x3 NOT ADD SLT PUSH2 0x133 JUMPI PUSH1 0x20 SWAP3 DUP3 SWAP2 PUSH1 0x1 PUSH1 0x1 PUSH1 0xA0 SHL SUB PUSH2 0x125 PUSH2 0xC1C JUMP JUMPDEST AND DUP3 MSTORE DUP5 MSTORE KECCAK256 SLOAD SWAP1 MLOAD SWAP1 DUP2 MSTORE RETURN JUMPDEST DUP3 DUP1 REVERT JUMPDEST POP POP CALLVALUE PUSH2 0x16F JUMPI PUSH1 0x20 CALLDATASIZE PUSH1 0x3 NOT ADD SLT PUSH2 0x16F JUMPI PUSH1 0x20 SWAP2 DUP2 SWAP1 PUSH1 0x1 PUSH1 0x1 PUSH1 0xA0 SHL SUB PUSH2 0x15F PUSH2 0xC1C JUMP JUMPDEST AND DUP2 MSTORE PUSH1 0x2 DUP5 MSTORE KECCAK256 SLOAD SWAP1 MLOAD SWAP1 DUP2 MSTORE RETURN JUMPDEST POP DUP1 REVERT JUMPDEST POP CALLVALUE PUSH2 0x133 JUMPI PUSH1 0x20 CALLDATASIZE PUSH1 0x3 NOT ADD SLT PUSH2 0x133 JUMPI PUSH2 0x18D PUSH2 0xC1C JUMP JUMPDEST SWAP1 PUSH2 0x196 PUSH2 0xC32 JUMP JUMPDEST PUSH1 0x1 PUSH1 0x1 PUSH1 0xA0 SHL SUB SWAP2 DUP3 AND SWAP3 DUP4 ISZERO PUSH2 0x1E3 JUMPI POP POP DUP3 SLOAD PUSH1 0x1 PUSH1 0x1 PUSH1 0xA0 SHL SUB NOT DUP2 AND DUP4 OR DUP5 SSTORE AND PUSH32 0x8BE0079C531659141344CD1FD0A4F28419497F9722A3DAAFE3B4186F6B6457E0 DUP4 DUP1 LOG3 DUP1 RETURN JUMPDEST SWAP1 PUSH1 0x20 PUSH1 0x84 SWAP3 MLOAD SWAP2 PUSH3 0x461BCD PUSH1 0xE5 SHL DUP4 MSTORE DUP3 ADD MSTORE PUSH1 0x26 PUSH1 0x24 DUP3 ADD MSTORE PUSH32 0x4F776E61626C653A206E6577206F776E657220697320746865207A65726F2061 PUSH1 0x44 DUP3 ADD MSTORE PUSH6 0x646472657373 PUSH1 0xD0 SHL PUSH1 0x64 DUP3 ADD MSTORE REVERT JUMPDEST POP POP CALLVALUE PUSH2 0x16F JUMPI DUP2 PUSH1 0x3 NOT CALLDATASIZE ADD SLT PUSH2 0x16F JUMPI SWAP1 PUSH1 0x60 SWAP2 PUSH1 0x6 SLOAD SWAP2 PUSH1 0xFF PUSH1 0x7 SLOAD AND SWAP1 DUP3 MLOAD SWAP4 DUP5 MSTORE PUSH1 0x20 DUP5 ADD MSTORE ISZERO ISZERO SWAP1 DUP3 ADD MSTORE RETURN JUMPDEST POP POP CALLVALUE PUSH2 0x16F JUMPI PUSH1 0x20 CALLDATASIZE PUSH1 0x3 NOT ADD SLT PUSH2 0x16F JUMPI PUSH1 0x20 SWAP2 DUP2 SWAP1 PUSH1 0x1 PUSH1 0x1 PUSH1 0xA0 SHL SUB PUSH2 0x290 PUSH2 0xC1C JUMP JUMPDEST AND DUP2 MSTORE PUSH1 0x5 DUP5 MSTORE KECCAK256 SLOAD SWAP1 MLOAD SWAP1 DUP2 MSTORE RETURN JUMPDEST POP CALLVALUE PUSH2 0x133 JUMPI PUSH1 0x20 CALLDATASIZE PUSH1 0x3 NOT ADD SLT PUSH2 0x133 JUMPI PUSH1 0x20 SWAP3 DUP3 SWAP2 PUSH1 0x1 PUSH1 0x1 PUSH1 0xA0 SHL SUB PUSH2 0x125 PUSH2 0xC1C JUMP JUMPDEST POP POP CALLVALUE PUSH2 0x16F JUMPI DUP2 PUSH1 0x3 NOT CALLDATASIZE ADD SLT PUSH2 0x16F JUMPI SWAP1 SLOAD SWAP1 MLOAD PUSH1 0x1 PUSH1 0x1 PUSH1 0xA0 SHL SUB SWAP1 SWAP2 AND DUP2 MSTORE PUSH1 0x20 SWAP1 RETURN JUMPDEST POP POP CALLVALUE PUSH2 0x16F JUMPI DUP2 PUSH1 0x3 NOT CALLDATASIZE ADD SLT PUSH2 0x16F JUMPI PUSH1 0x20 PUSH32 0x5357603B66CE52AD2BDE073BF1BAAE8A126A96AE712F396257FA4B57169C36AB SWAP2 PUSH2 0x32D PUSH2 0xC32 JUMP JUMPDEST PUSH1 0x7 SLOAD SWAP1 PUSH1 0xFF DUP1 DUP4 AND ISZERO AND DUP1 SWAP3 PUSH1 0xFF NOT AND OR PUSH1 0x7 SSTORE MLOAD SWAP1 ISZERO ISZERO DUP2 MSTORE LOG1 DUP1 RETURN JUMPDEST POP POP CALLVALUE PUSH2 0x16F JUMPI DUP2 PUSH1 0x3 NOT CALLDATASIZE ADD SLT PUSH2 0x16F JUMPI PUSH1 0x20 SWAP1 PUSH1 0x6 SLOAD SWAP1 MLOAD SWAP1 DUP2 MSTORE RETURN JUMPDEST DUP4 CALLVALUE PUSH2 0x3C5 JUMPI DUP1 PUSH1 0x3 NOT CALLDATASIZE ADD SLT PUSH2 0x3C5 JUMPI PUSH2 0x384 PUSH2 0xC32 JUMP JUMPDEST DUP1 SLOAD PUSH1 0x1 PUSH1 0x1 PUSH1 0xA0 SHL SUB NOT DUP2 AND DUP3 SSTORE DUP2 SWAP1 PUSH1 0x1 PUSH1 0x1 PUSH1 0xA0 SHL SUB AND PUSH32 0x8BE0079C531659141344CD1FD0A4F28419497F9722A3DAAFE3B4186F6B6457E0 DUP3 DUP1 LOG3 DUP1 RETURN JUMPDEST DUP1 REVERT JUMPDEST POP SWAP1 CALLVALUE PUSH2 0x133 JUMPI PUSH1 0x20 CALLDATASIZE PUSH1 0x3 NOT ADD SLT PUSH2 0x133 JUMPI PUSH2 0x3E3 PUSH2 0xC1C JUMP JUMPDEST PUSH2 0x3EB PUSH2 0xC32 JUMP JUMPDEST PUSH1 0x1 PUSH1 0x1 PUSH1 0xA0 SHL SUB AND DUP1 DUP5 MSTORE PUSH1 0x3 PUSH1 0x20 MSTORE DUP2 DUP5 KECCAK256 SLOAD SWAP1 SWAP3 SWAP1 PUSH1 0xFF AND ISZERO PUSH2 0x445 JUMPI POP DUP2 DUP4 MSTORE PUSH1 0x3 PUSH1 0x20 MSTORE DUP3 KECCAK256 DUP1 SLOAD PUSH1 0xFF NOT AND SWAP1 SSTORE PUSH32 0xE619FC9F4E0EEE3BB2BC23955321CD6AD031A2ABE9E217674B58A4019BBC9412 DUP3 DUP1 LOG2 DUP1 RETURN JUMPDEST PUSH1 0x20 PUSH1 0x64 SWAP3 MLOAD SWAP2 PUSH3 0x461BCD PUSH1 0xE5 SHL DUP4 MSTORE DUP3 ADD MSTORE PUSH1 0xE PUSH1 0x24 DUP3 ADD MSTORE PUSH14 0x139BDD08185D5D1A1BDC9A5E9959 PUSH1 0x92 SHL PUSH1 0x44 DUP3 ADD MSTORE REVERT JUMPDEST POP SWAP1 CALLVALUE PUSH2 0x133 JUMPI PUSH1 0x20 CALLDATASIZE PUSH1 0x3 NOT ADD SLT PUSH2 0x133 JUMPI PUSH2 0x493 PUSH2 0xC1C JUMP JUMPDEST PUSH2 0x49B PUSH2 0xC32 JUMP JUMPDEST PUSH1 0x1 PUSH1 0x1 PUSH1 0xA0 SHL SUB AND SWAP2 DUP3 ISZERO PUSH2 0x532 JUMPI DUP3 DUP5 MSTORE PUSH1 0x3 PUSH1 0x20 MSTORE PUSH1 0xFF DUP3 DUP6 KECCAK256 SLOAD AND PUSH2 0x4FB JUMPI POP DUP2 DUP4 MSTORE PUSH1 0x3 PUSH1 0x20 MSTORE DUP3 KECCAK256 DUP1 SLOAD PUSH1 0xFF NOT AND PUSH1 0x1 OR SWAP1 SSTORE PUSH32 0x32B9104826F84E16EFADF70339854BE744325EFA4081F2D293CEF0259A40C358 DUP3 DUP1 LOG2 DUP1 RETURN JUMPDEST PUSH1 0x20 PUSH1 0x64 SWAP3 MLOAD SWAP2 PUSH3 0x461BCD PUSH1 0xE5 SHL DUP4 MSTORE DUP3 ADD MSTORE PUSH1 0x12 PUSH1 0x24 DUP3 ADD MSTORE PUSH18 0x105B1C9958591E48185D5D1A1BDC9A5E9959 PUSH1 0x72 SHL PUSH1 0x44 DUP3 ADD MSTORE REVERT JUMPDEST PUSH1 0x20 PUSH1 0x64 SWAP3 MLOAD SWAP2 PUSH3 0x461BCD PUSH1 0xE5 SHL DUP4 MSTORE DUP3 ADD MSTORE PUSH1 0xF PUSH1 0x24 DUP3 ADD MSTORE PUSH15 0x496E76616C69642061646472657373 PUSH1 0x88 SHL PUSH1 0x44 DUP3 ADD MSTORE REVERT JUMPDEST POP CALLVALUE PUSH2 0x133 JUMPI DUP2 PUSH1 0x3 NOT CALLDATASIZE ADD SLT PUSH2 0x133 JUMPI PUSH2 0x57F PUSH2 0xC1C JUMP JUMPDEST SWAP2 PUSH1 0x24 CALLDATALOAD SWAP3 CALLER DUP6 MSTORE PUSH1 0x3 PUSH1 0x20 MSTORE PUSH2 0x59B PUSH1 0xFF DUP4 DUP8 KECCAK256 SLOAD AND PUSH2 0xC8A JUMP JUMPDEST PUSH1 0x1 PUSH1 0x1 PUSH1 0xA0 SHL SUB AND SWAP2 PUSH2 0x5B0 DUP4 ISZERO ISZERO PUSH2 0xCD6 JUMP JUMPDEST PUSH2 0x5BB DUP5 ISZERO ISZERO PUSH2 0xD19 JUMP JUMPDEST DUP3 DUP6 MSTORE PUSH1 0x2 PUSH1 0x20 MSTORE DUP2 DUP6 KECCAK256 PUSH2 0x5D1 DUP6 DUP3 SLOAD PUSH2 0xD65 JUMP JUMPDEST SWAP1 SSTORE DUP3 DUP6 MSTORE PUSH1 0x20 MSTORE DUP1 DUP5 KECCAK256 PUSH2 0x5E7 DUP5 DUP3 SLOAD PUSH2 0xD65 JUMP JUMPDEST SWAP1 SSTORE PUSH2 0x5F5 DUP4 PUSH1 0x6 SLOAD PUSH2 0xD65 JUMP JUMPDEST PUSH1 0x6 SSTORE MLOAD SWAP2 DUP3 MSTORE PUSH32 0xCA17EB5ACD938EE6DC4C06FFDD37A2DD89EC1B7F98882251072FD6FB4A11D736 PUSH1 0x20 CALLER SWAP4 LOG3 DUP1 RETURN JUMPDEST POP POP CALLVALUE PUSH2 0x16F JUMPI PUSH1 0x20 CALLDATASIZE PUSH1 0x3 NOT ADD SLT PUSH2 0x16F JUMPI PUSH1 0x20 SWAP2 PUSH1 0xFF SWAP1 DUP3 SWAP1 PUSH1 0x1 PUSH1 0x1 PUSH1 0xA0 SHL SUB PUSH2 0x650 PUSH2 0xC1C JUMP JUMPDEST AND DUP2 MSTORE PUSH1 0x3 DUP6 MSTORE KECCAK256 SLOAD AND SWAP1 MLOAD SWAP1 ISZERO ISZERO DUP2 MSTORE RETURN JUMPDEST POP SWAP1 CALLVALUE PUSH2 0x133 JUMPI DUP1 PUSH1 0x3 NOT CALLDATASIZE ADD SLT PUSH2 0x133 JUMPI PUSH8 0xFFFFFFFFFFFFFFFF SWAP1 DUP3 CALLDATALOAD DUP3 DUP2 GT PUSH2 0x82D JUMPI PUSH2 0x695 SWAP1 CALLDATASIZE SWAP1 DUP6 ADD PUSH2 0xBE6 JUMP JUMPDEST SWAP2 SWAP1 SWAP3 PUSH1 0x24 CALLDATALOAD SWAP1 DUP2 GT PUSH2 0x829 JUMPI PUSH2 0x6AF SWAP1 CALLDATASIZE SWAP1 DUP7 ADD PUSH2 0xBE6 JUMP JUMPDEST SWAP4 CALLER DUP8 MSTORE PUSH1 0x20 SWAP4 PUSH1 0x3 DUP6 MSTORE PUSH2 0x6C9 PUSH1 0xFF DUP6 DUP11 KECCAK256 SLOAD AND PUSH2 0xC8A JUMP JUMPDEST DUP6 DUP2 SUB PUSH2 0x7EE JUMPI DUP8 JUMPDEST DUP2 DUP2 LT PUSH2 0x6DD JUMPI DUP9 DUP1 RETURN JUMPDEST PUSH2 0x7E9 SWAP1 PUSH1 0x1 PUSH1 0x1 PUSH1 0xA0 SHL SUB PUSH2 0x708 DUP2 PUSH2 0x700 PUSH2 0x6FB DUP6 DUP9 DUP11 PUSH2 0xD97 JUMP JUMPDEST PUSH2 0xDBD JUMP JUMPDEST AND ISZERO ISZERO PUSH2 0xCD6 JUMP JUMPDEST PUSH2 0x71E PUSH2 0x716 DUP4 DUP12 DUP10 PUSH2 0xD97 JUMP JUMPDEST CALLDATALOAD ISZERO ISZERO PUSH2 0xD19 JUMP JUMPDEST PUSH2 0x729 DUP3 DUP11 DUP9 PUSH2 0xD97 JUMP JUMPDEST CALLDATALOAD DUP2 PUSH2 0x739 PUSH2 0x6FB DUP6 DUP9 DUP11 PUSH2 0xD97 JUMP JUMPDEST AND DUP13 MSTORE PUSH1 0x2 DUP10 MSTORE PUSH2 0x74E DUP9 DUP14 KECCAK256 SWAP2 DUP3 SLOAD PUSH2 0xD65 JUMP JUMPDEST SWAP1 SSTORE PUSH2 0x75B DUP3 DUP11 DUP9 PUSH2 0xD97 JUMP JUMPDEST CALLDATALOAD DUP2 PUSH2 0x76B PUSH2 0x6FB DUP6 DUP9 DUP11 PUSH2 0xD97 JUMP JUMPDEST AND DUP13 MSTORE DUP11 DUP10 MSTORE PUSH2 0x77F DUP9 DUP14 KECCAK256 SWAP2 DUP3 SLOAD PUSH2 0xD65 JUMP JUMPDEST SWAP1 SSTORE PUSH2 0x78C DUP3 DUP11 DUP9 PUSH2 0xD97 JUMP JUMPDEST CALLDATALOAD PUSH2 0x79A PUSH1 0x6 SWAP2 DUP3 SLOAD PUSH2 0xD65 JUMP JUMPDEST SWAP1 SSTORE PUSH2 0x7AA PUSH2 0x6FB DUP4 DUP7 DUP9 PUSH2 0xD97 JUMP JUMPDEST SWAP1 PUSH32 0xCA17EB5ACD938EE6DC4C06FFDD37A2DD89EC1B7F98882251072FD6FB4A11D736 DUP10 PUSH2 0x7D8 DUP6 DUP14 DUP12 PUSH2 0xD97 JUMP JUMPDEST CALLDATALOAD SWAP3 DUP11 MLOAD SWAP4 DUP5 MSTORE CALLER SWAP5 AND SWAP3 LOG3 PUSH2 0xD88 JUMP JUMPDEST PUSH2 0x6D2 JUMP JUMPDEST DUP4 MLOAD PUSH3 0x461BCD PUSH1 0xE5 SHL DUP2 MSTORE DUP1 DUP9 ADD DUP7 SWAP1 MSTORE PUSH1 0x15 PUSH1 0x24 DUP3 ADD MSTORE PUSH21 0x82E4E4C2F240D8CADCCEE8D040DAD2E6DAC2E8C6D PUSH1 0x5B SHL PUSH1 0x44 DUP3 ADD MSTORE PUSH1 0x64 SWAP1 REVERT JUMPDEST DUP6 DUP1 REVERT JUMPDEST DUP5 DUP1 REVERT JUMPDEST POP SWAP2 CALLVALUE PUSH2 0x3C5 JUMPI PUSH1 0x20 SWAP3 DUP4 PUSH1 0x3 NOT CALLDATASIZE ADD SLT PUSH2 0x16F JUMPI DUP1 CALLDATALOAD PUSH8 0xFFFFFFFFFFFFFFFF DUP2 GT PUSH2 0x133 JUMPI PUSH2 0x864 SWAP1 CALLDATASIZE SWAP1 DUP4 ADD PUSH2 0xBE6 JUMP JUMPDEST SWAP2 SWAP1 SWAP5 PUSH2 0x878 PUSH2 0x873 DUP5 PUSH2 0xE0D JUMP JUMPDEST PUSH2 0xDD1 JUMP JUMPDEST SWAP6 DUP4 DUP8 MSTORE PUSH2 0x885 DUP5 PUSH2 0xE0D JUMP JUMPDEST SWAP2 DUP1 DUP9 ADD SWAP2 PUSH1 0x1F NOT DUP1 SWAP5 ADD CALLDATASIZE DUP5 CALLDATACOPY PUSH2 0x89F PUSH2 0x873 DUP8 PUSH2 0xE0D JUMP JUMPDEST SWAP6 DUP1 DUP8 MSTORE PUSH2 0x8AC DUP2 PUSH2 0xE0D JUMP JUMPDEST DUP8 DUP5 ADD SWAP6 ADD CALLDATASIZE DUP7 CALLDATACOPY DUP8 JUMPDEST DUP2 DUP2 LT PUSH2 0xA25 JUMPI POP POP POP DUP6 JUMPDEST DUP9 MLOAD DUP2 LT ISZERO PUSH2 0x9A3 JUMPI PUSH1 0x1 DUP1 DUP3 ADD DUP1 DUP4 GT PUSH2 0x990 JUMPI DUP2 JUMPDEST PUSH2 0x8EE JUMPI JUMPDEST POP POP PUSH2 0x8E9 SWAP1 PUSH2 0xD88 JUMP JUMPDEST PUSH2 0x8C2 JUMP JUMPDEST DUP11 MLOAD DUP2 LT ISZERO PUSH2 0x98B JUMPI PUSH2 0x91C DUP3 SWAP2 PUSH2 0x906 DUP6 DUP12 PUSH2 0xE25 JUMP JUMPDEST MLOAD PUSH2 0x911 DUP3 DUP13 PUSH2 0xE25 JUMP JUMPDEST MLOAD GT PUSH2 0x922 JUMPI PUSH2 0xD88 JUMP JUMPDEST SWAP1 PUSH2 0x8D9 JUMP JUMPDEST PUSH2 0x92C DUP6 DUP12 PUSH2 0xE25 JUMP JUMPDEST MLOAD PUSH2 0x937 DUP3 DUP13 PUSH2 0xE25 JUMP JUMPDEST MLOAD PUSH2 0x942 DUP8 DUP14 PUSH2 0xE25 JUMP JUMPDEST MSTORE PUSH2 0x94D DUP3 DUP13 PUSH2 0xE25 JUMP JUMPDEST MSTORE PUSH1 0x1 PUSH1 0x1 PUSH1 0xA0 SHL SUB PUSH2 0x985 DUP3 DUP16 DUP4 PUSH2 0x966 DUP11 DUP4 PUSH2 0xE25 JUMP JUMPDEST MLOAD AND SWAP4 PUSH2 0x973 DUP4 DUP4 PUSH2 0xE25 JUMP JUMPDEST MLOAD AND PUSH2 0x97F DUP11 DUP4 PUSH2 0xE25 JUMP JUMPDEST MSTORE PUSH2 0xE25 JUMP JUMPDEST MSTORE PUSH2 0xD88 JUMP JUMPDEST PUSH2 0x8DE JUMP JUMPDEST PUSH4 0x4E487B71 PUSH1 0xE0 SHL DUP10 MSTORE PUSH1 0x11 DUP8 MSTORE PUSH1 0x24 DUP10 REVERT JUMPDEST POP DUP7 SWAP4 POP DUP8 SWAP3 SWAP2 DUP7 SWAP2 DUP7 DUP7 MLOAD SWAP7 DUP8 SWAP7 DUP2 DUP9 ADD SWAP2 DUP9 MSTORE MLOAD DUP1 SWAP2 MSTORE PUSH1 0x60 DUP8 ADD SWAP4 SWAP1 DUP6 JUMPDEST DUP2 DUP2 LT PUSH2 0xA05 JUMPI POP POP POP DUP6 DUP4 SUB DUP7 DUP4 ADD MSTORE MLOAD DUP1 DUP4 MSTORE SWAP2 DUP2 ADD SWAP4 SWAP3 JUMPDEST DUP3 DUP2 LT PUSH2 0x9EE JUMPI POP POP POP POP SUB SWAP1 RETURN JUMPDEST DUP4 MLOAD DUP6 MSTORE DUP7 SWAP6 POP SWAP4 DUP2 ADD SWAP4 SWAP3 DUP2 ADD SWAP3 PUSH1 0x1 ADD PUSH2 0x9DF JUMP JUMPDEST DUP3 MLOAD PUSH1 0x1 PUSH1 0x1 PUSH1 0xA0 SHL SUB AND DUP7 MSTORE DUP10 SWAP9 POP SWAP5 DUP5 ADD SWAP5 SWAP2 DUP5 ADD SWAP2 PUSH1 0x1 ADD PUSH2 0x9C4 JUMP JUMPDEST DUP1 DUP12 PUSH2 0xA42 DUP3 PUSH2 0xA3C PUSH2 0x6FB PUSH2 0xA71 SWAP7 DUP9 DUP11 PUSH2 0xD97 JUMP JUMPDEST SWAP3 PUSH2 0xE25 JUMP JUMPDEST PUSH1 0x1 PUSH1 0x1 PUSH1 0xA0 SHL SUB SWAP2 DUP3 AND SWAP1 MSTORE PUSH2 0xA5D PUSH2 0x6FB DUP4 DUP7 DUP9 PUSH2 0xD97 JUMP JUMPDEST AND DUP11 MSTORE DUP8 DUP6 MSTORE DUP11 DUP11 KECCAK256 SLOAD PUSH2 0x985 DUP3 DUP12 PUSH2 0xE25 JUMP JUMPDEST PUSH2 0x8B6 JUMP JUMPDEST POP POP CALLVALUE PUSH2 0x16F JUMPI DUP2 PUSH1 0x3 NOT CALLDATASIZE ADD SLT PUSH2 0x16F JUMPI PUSH1 0x20 SWAP1 PUSH1 0xFF PUSH1 0x7 SLOAD AND SWAP1 MLOAD SWAP1 ISZERO ISZERO DUP2 MSTORE RETURN JUMPDEST DUP5 SWAP4 SWAP2 POP CALLVALUE PUSH2 0xBE2 JUMPI DUP4 PUSH1 0x3 NOT CALLDATASIZE ADD SLT PUSH2 0xBE2 JUMPI PUSH1 0x2 PUSH1 0x1 SLOAD EQ PUSH2 0xBA1 JUMPI POP PUSH1 0x2 PUSH1 0x1 SSTORE PUSH1 0xFF PUSH1 0x7 SLOAD AND ISZERO PUSH2 0xB67 JUMPI CALLER DUP4 MSTORE PUSH1 0x2 PUSH1 0x20 MSTORE DUP1 DUP4 KECCAK256 SLOAD SWAP2 DUP3 ISZERO PUSH2 0xB30 JUMPI POP CALLER DUP4 MSTORE PUSH1 0x2 PUSH1 0x20 MSTORE DUP3 DUP2 DUP2 KECCAK256 SSTORE PUSH1 0x5 PUSH1 0x20 MSTORE DUP1 DUP4 KECCAK256 PUSH2 0xAFD DUP4 DUP3 SLOAD PUSH2 0xD65 JUMP JUMPDEST SWAP1 SSTORE MLOAD SWAP1 DUP2 MSTORE PUSH32 0xBA953728785DE35BE3827EE7A7A7867A8472947562602939440E6C0BDBF4725E PUSH1 0x20 CALLER SWAP3 LOG2 PUSH1 0x1 DUP1 SSTORE DUP1 RETURN JUMPDEST PUSH1 0x20 PUSH1 0x64 SWAP3 MLOAD SWAP2 PUSH3 0x461BCD PUSH1 0xE5 SHL DUP4 MSTORE DUP3 ADD MSTORE PUSH1 0x12 PUSH1 0x24 DUP3 ADD MSTORE PUSH18 0x4E6F20706F696E747320746F20636C61696D PUSH1 0x70 SHL PUSH1 0x44 DUP3 ADD MSTORE REVERT JUMPDEST SWAP1 PUSH1 0x20 PUSH1 0x64 SWAP3 MLOAD SWAP2 PUSH3 0x461BCD PUSH1 0xE5 SHL DUP4 MSTORE DUP3 ADD MSTORE PUSH1 0x14 PUSH1 0x24 DUP3 ADD MSTORE PUSH20 0x10DB185A5B5A5B99C81B9BDD08195B98589B1959 PUSH1 0x62 SHL PUSH1 0x44 DUP3 ADD MSTORE REVERT JUMPDEST PUSH3 0x461BCD PUSH1 0xE5 SHL DUP2 MSTORE PUSH1 0x20 DUP4 DUP3 ADD MSTORE PUSH1 0x1F PUSH1 0x24 DUP3 ADD MSTORE PUSH32 0x5265656E7472616E637947756172643A207265656E7472616E742063616C6C00 PUSH1 0x44 DUP3 ADD MSTORE PUSH1 0x64 SWAP1 REVERT JUMPDEST DUP4 DUP1 REVERT JUMPDEST SWAP2 DUP2 PUSH1 0x1F DUP5 ADD SLT ISZERO PUSH2 0xC17 JUMPI DUP3 CALLDATALOAD SWAP2 PUSH8 0xFFFFFFFFFFFFFFFF DUP4 GT PUSH2 0xC17 JUMPI PUSH1 0x20 DUP1 DUP6 ADD SWAP5 DUP5 PUSH1 0x5 SHL ADD ADD GT PUSH2 0xC17 JUMPI JUMP JUMPDEST PUSH1 0x0 DUP1 REVERT JUMPDEST PUSH1 0x4 CALLDATALOAD SWAP1 PUSH1 0x1 PUSH1 0x1 PUSH1 0xA0 SHL SUB DUP3 AND DUP3 SUB PUSH2 0xC17 JUMPI JUMP JUMPDEST PUSH1 0x0 SLOAD PUSH1 0x1 PUSH1 0x1 PUSH1 0xA0 SHL SUB AND CALLER SUB PUSH2 0xC46 JUMPI JUMP JUMPDEST PUSH1 0x64 PUSH1 0x40 MLOAD PUSH3 0x461BCD PUSH1 0xE5 SHL DUP2 MSTORE PUSH1 0x20 PUSH1 0x4 DUP3 ADD MSTORE PUSH1 0x20 PUSH1 0x24 DUP3 ADD MSTORE PUSH32 0x4F776E61626C653A2063616C6C6572206973206E6F7420746865206F776E6572 PUSH1 0x44 DUP3 ADD MSTORE REVERT JUMPDEST ISZERO PUSH2 0xC91 JUMPI JUMP JUMPDEST PUSH1 0x40 MLOAD PUSH3 0x461BCD PUSH1 0xE5 SHL DUP2 MSTORE PUSH1 0x20 PUSH1 0x4 DUP3 ADD MSTORE PUSH1 0x1C PUSH1 0x24 DUP3 ADD MSTORE PUSH32 0x4E6F7420617574686F72697A656420746F2061646420706F696E747300000000 PUSH1 0x44 DUP3 ADD MSTORE PUSH1 0x64 SWAP1 REVERT JUMPDEST ISZERO PUSH2 0xCDD JUMPI JUMP JUMPDEST PUSH1 0x40 MLOAD PUSH3 0x461BCD PUSH1 0xE5 SHL DUP2 MSTORE PUSH1 0x20 PUSH1 0x4 DUP3 ADD MSTORE PUSH1 0x14 PUSH1 0x24 DUP3 ADD MSTORE PUSH20 0x496E76616C696420757365722061646472657373 PUSH1 0x60 SHL PUSH1 0x44 DUP3 ADD MSTORE PUSH1 0x64 SWAP1 REVERT JUMPDEST ISZERO PUSH2 0xD20 JUMPI JUMP JUMPDEST PUSH1 0x40 MLOAD PUSH3 0x461BCD PUSH1 0xE5 SHL DUP2 MSTORE PUSH1 0x20 PUSH1 0x4 DUP3 ADD MSTORE PUSH1 0x1D PUSH1 0x24 DUP3 ADD MSTORE PUSH32 0x506F696E7473206D7573742062652067726561746572207468616E2030000000 PUSH1 0x44 DUP3 ADD MSTORE PUSH1 0x64 SWAP1 REVERT JUMPDEST SWAP2 SWAP1 DUP3 ADD DUP1 SWAP3 GT PUSH2 0xD72 JUMPI JUMP JUMPDEST PUSH4 0x4E487B71 PUSH1 0xE0 SHL PUSH1 0x0 MSTORE PUSH1 0x11 PUSH1 0x4 MSTORE PUSH1 0x24 PUSH1 0x0 REVERT JUMPDEST PUSH1 0x0 NOT DUP2 EQ PUSH2 0xD72 JUMPI PUSH1 0x1 ADD SWAP1 JUMP JUMPDEST SWAP2 SWAP1 DUP2 LT ISZERO PUSH2 0xDA7 JUMPI PUSH1 0x5 SHL ADD SWAP1 JUMP JUMPDEST PUSH4 0x4E487B71 PUSH1 0xE0 SHL PUSH1 0x0 MSTORE PUSH1 0x32 PUSH1 0x4 MSTORE PUSH1 0x24 PUSH1 0x0 REVERT JUMPDEST CALLDATALOAD PUSH1 0x1 PUSH1 0x1 PUSH1 0xA0 SHL SUB DUP2 AND DUP2 SUB PUSH2 0xC17 JUMPI SWAP1 JUMP JUMPDEST PUSH1 0x40 MLOAD SWAP2 SWAP1 PUSH1 0x1F ADD PUSH1 0x1F NOT AND DUP3 ADD PUSH8 0xFFFFFFFFFFFFFFFF DUP2 GT DUP4 DUP3 LT OR PUSH2 0xDF7 JUMPI PUSH1 0x40 MSTORE JUMP JUMPDEST PUSH4 0x4E487B71 PUSH1 0xE0 SHL PUSH1 0x0 MSTORE PUSH1 0x41 PUSH1 0x4 MSTORE PUSH1 0x24 PUSH1 0x0 REVERT JUMPDEST PUSH8 0xFFFFFFFFFFFFFFFF DUP2 GT PUSH2 0xDF7 JUMPI PUSH1 0x5 SHL PUSH1 0x20 ADD SWAP1 JUMP JUMPDEST DUP1 MLOAD DUP3 LT ISZERO PUSH2 0xDA7 JUMPI PUSH1 0x20 SWAP2 PUSH1 0x5 SHL ADD ADD SWAP1 JUMP INVALID LOG2 PUSH5 0x6970667358 0x22 SLT KECCAK256 MULMOD 0xC3 PUSH9 0xF00EF64FC1B8310D36 PUSH8 0xE3A4FABE7BFF32CE DIV LOG3 0xEF 0xD9 DUP4 SWAP2 OR JUMPDEST SWAP7 OR PUSH26 0x64736F6C63430008130033000000000000000000000000000000 "},"methodIdentifiers":{"addPoints(address,uint256)":"507cd30f","authorizeAdder(address)":"5e319a3d","authorizedAdders(address)":"49ace8ac","batchAddPoints(address[],uint256[])":"34686fae","claimPoints()":"04d092c7","claimingEnabled()":"0e141a9b","getClaimedPoints(address)":"ac020778","getPoints(address)":"ee204abb","getStats()":"c59d4847","getTopUsers(address[])":"21500e3d","getTotalEarned(address)":"937b4b34","owner()":"8da5cb5b","pointsClaimed(address)":"9699c0dd","renounceOwnership()":"715018a6","toggleClaiming()":"8010fc45","totalPointsDistributed()":"7bc94d98","totalPointsEarned(address)":"f662781d","transferOwnership(address)":"f2fde38b","unauthorizeAdder(address)":"5f0924c4","userPoints(address)":"f50ddbc7"}}}}}