{"contracts/RiseChainBridge.sol":{"RiseChainBridge":{"abi":[{"inputs":[],"stateMutability":"nonpayable","type":"constructor"},{"anonymous":false,"inputs":[{"indexed":true,"internalType":"bytes32","name":"txId","type":"bytes32"},{"indexed":true,"internalType":"address","name":"recipient","type":"address"},{"indexed":false,"internalType":"uint256","name":"amount","type":"uint256"}],"name":"BridgeExecuted","type":"event"},{"anonymous":false,"inputs":[{"indexed":true,"internalType":"bytes32","name":"txId","type":"bytes32"},{"indexed":true,"internalType":"address","name":"sender","type":"address"},{"indexed":true,"internalType":"address","name":"recipient","type":"address"},{"indexed":false,"internalType":"address","name":"token","type":"address"},{"indexed":false,"internalType":"uint256","name":"amount","type":"uint256"},{"indexed":false,"internalType":"uint256","name":"targetChainId","type":"uint256"},{"indexed":false,"internalType":"uint256","name":"nonce","type":"uint256"}],"name":"BridgeInitiated","type":"event"},{"anonymous":false,"inputs":[{"indexed":true,"internalType":"bytes32","name":"txId","type":"bytes32"},{"indexed":true,"internalType":"address","name":"validator","type":"address"}],"name":"BridgeValidated","type":"event"},{"anonymous":false,"inputs":[{"indexed":false,"internalType":"uint256","name":"timestamp","type":"uint256"}],"name":"EmergencyPause","type":"event"},{"anonymous":false,"inputs":[{"indexed":false,"internalType":"address","name":"account","type":"address"}],"name":"Paused","type":"event"},{"anonymous":false,"inputs":[{"indexed":true,"internalType":"bytes32","name":"role","type":"bytes32"},{"indexed":true,"internalType":"bytes32","name":"previousAdminRole","type":"bytes32"},{"indexed":true,"internalType":"bytes32","name":"newAdminRole","type":"bytes32"}],"name":"RoleAdminChanged","type":"event"},{"anonymous":false,"inputs":[{"indexed":true,"internalType":"bytes32","name":"role","type":"bytes32"},{"indexed":true,"internalType":"address","name":"account","type":"address"},{"indexed":true,"internalType":"address","name":"sender","type":"address"}],"name":"RoleGranted","type":"event"},{"anonymous":false,"inputs":[{"indexed":true,"internalType":"bytes32","name":"role","type":"bytes32"},{"indexed":true,"internalType":"address","name":"account","type":"address"},{"indexed":true,"internalType":"address","name":"sender","type":"address"}],"name":"RoleRevoked","type":"event"},{"anonymous":false,"inputs":[{"indexed":false,"internalType":"address","name":"account","type":"address"}],"name":"Unpaused","type":"event"},{"anonymous":false,"inputs":[{"indexed":true,"internalType":"address","name":"validator","type":"address"},{"indexed":false,"internalType":"uint256","name":"stake","type":"uint256"}],"name":"ValidatorAdded","type":"event"},{"anonymous":false,"inputs":[{"indexed":true,"internalType":"address","name":"validator","type":"address"}],"name":"ValidatorRemoved","type":"event"},{"inputs":[],"name":"BRIDGE_POINTS","outputs":[{"internalType":"uint256","name":"","type":"uint256"}],"stateMutability":"view","type":"function"},{"inputs":[],"name":"CHALLENGE_PERIOD","outputs":[{"internalType":"uint256","name":"","type":"uint256"}],"stateMutability":"view","type":"function"},{"inputs":[],"name":"DEFAULT_ADMIN_ROLE","outputs":[{"internalType":"bytes32","name":"","type":"bytes32"}],"stateMutability":"view","type":"function"},{"inputs":[],"name":"EMERGENCY_ROLE","outputs":[{"internalType":"bytes32","name":"","type":"bytes32"}],"stateMutability":"view","type":"function"},{"inputs":[],"name":"L1_BLOCK_PREDEPLOY","outputs":[{"internalType":"address","name":"","type":"address"}],"stateMutability":"view","type":"function"},{"inputs":[],"name":"L2_CROSS_DOMAIN_MESSENGER","outputs":[{"internalType":"address","name":"","type":"address"}],"stateMutability":"view","type":"function"},{"inputs":[],"name":"L2_TO_L1_MESSAGE_PASSER","outputs":[{"internalType":"address","name":"","type":"address"}],"stateMutability":"view","type":"function"},{"inputs":[],"name":"MAX_BRIDGE_AMOUNT","outputs":[{"internalType":"uint256","name":"","type":"uint256"}],"stateMutability":"view","type":"function"},{"inputs":[],"name":"MIN_BRIDGE_AMOUNT","outputs":[{"internalType":"uint256","name":"","type":"uint256"}],"stateMutability":"view","type":"function"},{"inputs":[],"name":"ORACLE_ROLE","outputs":[{"internalType":"bytes32","name":"","type":"bytes32"}],"stateMutability":"view","type":"function"},{"inputs":[],"name":"VALIDATOR_ROLE","outputs":[{"internalType":"bytes32","name":"","type":"bytes32"}],"stateMutability":"view","type":"function"},{"inputs":[],"name":"VALIDATOR_THRESHOLD","outputs":[{"internalType":"uint256","name":"","type":"uint256"}],"stateMutability":"view","type":"function"},{"inputs":[],"name":"WETH_PREDEPLOY","outputs":[{"internalType":"address","name":"","type":"address"}],"stateMutability":"view","type":"function"},{"inputs":[],"name":"WITHDRAWAL_DELAY","outputs":[{"internalType":"uint256","name":"","type":"uint256"}],"stateMutability":"view","type":"function"},{"inputs":[{"internalType":"address","name":"validator","type":"address"}],"name":"addValidator","outputs":[],"stateMutability":"nonpayable","type":"function"},{"inputs":[{"internalType":"uint256","name":"targetChainId","type":"uint256"},{"internalType":"address","name":"recipient","type":"address"}],"name":"bridgeETH","outputs":[],"stateMutability":"payable","type":"function"},{"inputs":[],"name":"bridgeNonce","outputs":[{"internalType":"uint256","name":"","type":"uint256"}],"stateMutability":"view","type":"function"},{"inputs":[{"internalType":"address","name":"token","type":"address"},{"internalType":"uint256","name":"amount","type":"uint256"},{"internalType":"uint256","name":"targetChainId","type":"uint256"},{"internalType":"address","name":"recipient","type":"address"}],"name":"bridgeToken","outputs":[],"stateMutability":"nonpayable","type":"function"},{"inputs":[{"internalType":"bytes32","name":"","type":"bytes32"}],"name":"bridgeTransactions","outputs":[{"internalType":"address","name":"sender","type":"address"},{"internalType":"address","name":"recipient","type":"address"},{"internalType":"address","name":"token","type":"address"},{"internalType":"uint256","name":"amount","type":"uint256"},{"internalType":"uint256","name":"targetChainId","type":"uint256"},{"internalType":"uint256","name":"timestamp","type":"uint256"},{"internalType":"uint256","name":"nonce","type":"uint256"},{"internalType":"enum RiseChainBridge.BridgeStatus","name":"status","type":"uint8"},{"internalType":"uint256","name":"validatorApprovals","type":"uint256"},{"internalType":"bytes32","name":"merkleRoot","type":"bytes32"}],"stateMutability":"view","type":"function"},{"inputs":[{"internalType":"address","name":"","type":"address"}],"name":"dailyBridgeVolume","outputs":[{"internalType":"uint256","name":"","type":"uint256"}],"stateMutability":"view","type":"function"},{"inputs":[],"name":"emergencyPause","outputs":[],"stateMutability":"nonpayable","type":"function"},{"inputs":[],"name":"emergencyPauseTime","outputs":[{"internalType":"uint256","name":"","type":"uint256"}],"stateMutability":"view","type":"function"},{"inputs":[],"name":"emergencyUnpause","outputs":[],"stateMutability":"nonpayable","type":"function"},{"inputs":[{"internalType":"bytes32","name":"txId","type":"bytes32"}],"name":"getBridgeTransaction","outputs":[{"internalType":"address","name":"sender","type":"address"},{"internalType":"address","name":"recipient","type":"address"},{"internalType":"address","name":"token","type":"address"},{"internalType":"uint256","name":"amount","type":"uint256"},{"internalType":"uint256","name":"targetChainId","type":"uint256"},{"internalType":"enum RiseChainBridge.BridgeStatus","name":"status","type":"uint8"},{"internalType":"uint256","name":"validatorApprovals","type":"uint256"}],"stateMutability":"view","type":"function"},{"inputs":[],"name":"getL1BlockInfo","outputs":[{"internalType":"uint64","name":"number","type":"uint64"},{"internalType":"uint64","name":"timestamp","type":"uint64"},{"internalType":"uint256","name":"basefee","type":"uint256"}],"stateMutability":"view","type":"function"},{"inputs":[{"internalType":"bytes32","name":"role","type":"bytes32"}],"name":"getRoleAdmin","outputs":[{"internalType":"bytes32","name":"","type":"bytes32"}],"stateMutability":"view","type":"function"},{"inputs":[],"name":"getValidatorCount","outputs":[{"internalType":"uint256","name":"","type":"uint256"}],"stateMutability":"view","type":"function"},{"inputs":[{"internalType":"bytes32","name":"role","type":"bytes32"},{"internalType":"address","name":"account","type":"address"}],"name":"grantRole","outputs":[],"stateMutability":"nonpayable","type":"function"},{"inputs":[{"internalType":"bytes32","name":"role","type":"bytes32"},{"internalType":"address","name":"account","type":"address"}],"name":"hasRole","outputs":[{"internalType":"bool","name":"","type":"bool"}],"stateMutability":"view","type":"function"},{"inputs":[{"internalType":"address","name":"","type":"address"}],"name":"lastBridgeTime","outputs":[{"internalType":"uint256","name":"","type":"uint256"}],"stateMutability":"view","type":"function"},{"inputs":[],"name":"paused","outputs":[{"internalType":"bool","name":"","type":"bool"}],"stateMutability":"view","type":"function"},{"inputs":[],"name":"pointsModule","outputs":[{"internalType":"address","name":"","type":"address"}],"stateMutability":"view","type":"function"},{"inputs":[{"internalType":"address","name":"validator","type":"address"}],"name":"removeValidator","outputs":[],"stateMutability":"nonpayable","type":"function"},{"inputs":[{"internalType":"bytes32","name":"role","type":"bytes32"},{"internalType":"address","name":"account","type":"address"}],"name":"renounceRole","outputs":[],"stateMutability":"nonpayable","type":"function"},{"inputs":[{"internalType":"bytes32","name":"role","type":"bytes32"},{"internalType":"address","name":"account","type":"address"}],"name":"revokeRole","outputs":[],"stateMutability":"nonpayable","type":"function"},{"inputs":[{"internalType":"address","name":"_pointsModule","type":"address"}],"name":"setPointsModule","outputs":[],"stateMutability":"nonpayable","type":"function"},{"inputs":[{"internalType":"uint256","name":"chainId","type":"uint256"},{"internalType":"address","name":"remoteAddress","type":"address"}],"name":"setTrustedRemote","outputs":[],"stateMutability":"nonpayable","type":"function"},{"inputs":[],"name":"stakeAsValidator","outputs":[],"stateMutability":"payable","type":"function"},{"inputs":[{"internalType":"bytes4","name":"interfaceId","type":"bytes4"}],"name":"supportsInterface","outputs":[{"internalType":"bool","name":"","type":"bool"}],"stateMutability":"view","type":"function"},{"inputs":[],"name":"totalValidatorStake","outputs":[{"internalType":"uint256","name":"","type":"uint256"}],"stateMutability":"view","type":"function"},{"inputs":[{"internalType":"uint256","name":"","type":"uint256"}],"name":"trustedRemotes","outputs":[{"internalType":"address","name":"","type":"address"}],"stateMutability":"view","type":"function"},{"inputs":[{"internalType":"bytes32","name":"txId","type":"bytes32"}],"name":"validateBridgeTransaction","outputs":[],"stateMutability":"nonpayable","type":"function"},{"inputs":[{"internalType":"address","name":"","type":"address"}],"name":"validatorActive","outputs":[{"internalType":"bool","name":"","type":"bool"}],"stateMutability":"view","type":"function"},{"inputs":[{"internalType":"address","name":"","type":"address"}],"name":"validatorStakes","outputs":[{"internalType":"uint256","name":"","type":"uint256"}],"stateMutability":"view","type":"function"},{"inputs":[{"internalType":"uint256","name":"","type":"uint256"}],"name":"validators","outputs":[{"internalType":"address","name":"","type":"address"}],"stateMutability":"view","type":"function"},{"stateMutability":"payable","type":"receive"}],"evm":{"bytecode":{"linkReferences":{},"object":"6080604081815234620000fb5760006001815560ff198060015416600155818052602060028152838320338452815260ff848420541615620000c4575b7fbf233dd2aafeb4d50879c4aa5c81e96d92f6e6945c906a58f9f2d1c1631b4b269384845260028252808420338552825260ff81852054161562000088575b6126df8681620001018239f35b6001918585526002815281852090338652528320918254161790553391600080516020620027e0833981519152339280a438808080806200007b565b828052600281528383203384528152838320600183825416179055333384600080516020620027e08339815191528180a46200003c565b600080fdfe6080604081815260049182361015610022575b505050361561002057600080fd5b005b600092833560e01c91826224a1b814611bc75750816301ffc9a714611b7157816303236d0d14611a3257816307e2cea5146119f75781630ebb172a146119da57816311483bd2146119bb578163128666f514611999578163162c07001461196657816319bf4b4d146117145781631f87a250146116f557816320df4359146116ba578163210d1c031461169e578163248a9ca3146116735781632f2ff15d146115c0578163319e38f61461158857816332d9562f1461155f57816334284e4b1461118457816335aa2e441461114357816336568abe146110b157816340a141ff14610f4b5781634a4e3bd514610e555781634d238c8e14610c5557816351858e27146109c9578163574b5ff01461098b5781635c975abb146109675781636c63f971146108c35781637071688a146108a45781637a6eea37146108885781637fce000214610864578163886688c11461084257816391d14854146107fc578163a217fddf146107e1578163aa735578146107ab578163bd693c0b1461075d578163c3a079ed1461073f578163c49baebe14610716578163c9859da5146106de578163ceefd62c146103a3578163d434a6ec14610381578163d547741f14610342578163d5f3204b14610320578163dad64ff5146102a557508063e8bf399914610262578063f88312de146102415763fde8ee7b146102205780610012565b3461023d578160031936011261023d57602090600a549051908152f35b5080fd5b503461023d578160031936011261023d57516006602160991b018152602090f35b82346102a25760203660031901126102a25761027c611c80565b610284611ce3565b60018060a01b03166001600160601b0360a01b600d541617600d5580f35b80fd5b90508260031936011261031c5768056bc75e2d6310000034106102da5733835260205281206102d53482546120fd565b905580f35b6020606492519162461bcd60e51b8352820152601e60248201527f4d696e696d756d2031303020455448207374616b6520726571756972656400006044820152fd5b8280fd5b50503461023d578160031936011261023d57516016602160991b018152602090f35b9190503461031c578060031936011261031c5761037e91356103796001610367611c6a565b93838752600260205286200154611eb0565b612087565b80f35b50503461023d578160031936011261023d57516007602160991b018152602090f35b8391503461023d57608036600319011261023d576103bf611c80565b60249190604435906001600160a01b0360643581811692863590848303610662576103e8612352565b6103f061230e565b662386f26fc10000821015806106cb575b61040a90612240565b338952602092600884528a8a2054603c81018091116106b95761042f90421015612284565b338a5260088452428b8b205584821694851515806106b0575b156106785761046490888c52600686528c8c20541615156122bf565b8a516370a0823160e01b8152338982015284818b81895afa90811561066e579084918c91610638575b50106105ff57600b548b5191858301936001600160601b03198092813360601b16875260601b16603485015260601b16604883015283605c83015287607c830152609c8201524260bc82015260bc81526104e681612008565b5190209586895260038352898920976001600160601b0360a01b33818b5416178a5560018a0187828254161790558560028b01918254161790558260038a015586828a01554260058a0155600b549161053e836122ff565b600b5560068a0192835560078a01805460ff191690558b516323b872dd60e01b868201523383820152306044820152606480820186905281529160a083019167ffffffffffffffff8311848410176105ec575050916105a78894928d946105e59d9e52876123a8565b549382519586528501528301526060820152837f9425d6201e14257a0c7cd9defe6590776dfb0968b02229c36714b8fc7c7f07a860803393a4612589565b6001815580f35b604190634e487b7160e01b600052526000fd5b8a5162461bcd60e51b81528089018590526014818b015273496e73756666696369656e742062616c616e636560601b6044820152606490fd5b809250868092503d8311610667575b6106518183612040565b81010312610662578390518d61048d565b600080fd5b503d610647565b8c513d8d823e3d90fd5b508a5162461bcd60e51b81528089018590526012818b015271496e76616c696420706172616d657465727360701b6044820152606490fd5b50861515610448565b634e487b7160e01b8b5260118952898bfd5b50683635c9adc5dea00000821115610401565b50503461023d57602036600319011261023d5760209181906001600160a01b03610706611c80565b1681526007845220549051908152f35b50503461023d578160031936011261023d576020905160008051602061268a8339815191528152f35b50503461023d578160031936011261023d576020905162093a808152f35b9190503461031c578060031936011261031c57610778611c6a565b91610781611ce3565b3583526006602052822080546001600160a01b0319166001600160a01b0390921691909117905580f35b90503461031c57602036600319011261031c5760209282916001600160a01b036107d3611c80565b168252845220549051908152f35b50503461023d578160031936011261023d5751908152602090f35b90503461031c578160031936011261031c578160209361081a611c6a565b9235815260028552209060018060a01b0316600052825260ff81600020541690519015158152f35b50503461023d578160031936011261023d5760209051662386f26fc100008152f35b50503461023d578160031936011261023d5760209051683635c9adc5dea000008152f35b50503461023d578160031936011261023d576020905160058152f35b50503461023d578160031936011261023d576020906009549051908152f35b9190503461031c57602036600319011261031c5780610140938335815260036020522061095960018060a01b0392838354169484600185015416946002850154169060038501549085015460058601549160068701549360ff60078901541695600a60088a01549901549981519b8c5260208c01528a01526060890152608088015260a087015260c086015260e0850190611c47565b610100830152610120820152f35b50503461023d578160031936011261023d5760209060ff6001541690519015158152f35b50503461023d57602036600319011261023d5760209160ff9082906001600160a01b036109b6611c80565b1681526005855220541690519015158152f35b9190503461031c578260031936011261031c577fbf233dd2aafeb4d50879c4aa5c81e96d92f6e6945c906a58f9f2d1c1631b4b269182600052602092600284528260002033600052845260ff83600020541615610a8c57847f587f3b25da67017c0da715067ea23a00ce02a7692dde05787d04b933a06881988585610a4c61230e565b600160ff19815416176001557f62e78cea01bee320cd4e420270b5ea74000d11b0c9f74754ebdbfc544b05a258828251338152a142600c5551428152a180f35b610a9892919233612131565b908251610aa481612024565b60428152858101916060368437815115610c4057603083538151600190811015610c2b57607860218401536041905b808211610bbe575050610b7d576048610b50938593610b5f93610b79975196879376020b1b1b2b9b9a1b7b73a3937b61d1030b1b1b7bab73a1604d1b8c860152610b278c8251928391603789019101611fbb565b8401917001034b99036b4b9b9b4b733903937b6329607d1b603784015251809386840190611fbb565b01036028810185520183612040565b5193849362461bcd60e51b85528401526024830190612062565b0390fd5b606485878087519262461bcd60e51b845283015260248201527f537472696e67733a20686578206c656e67746820696e73756666696369656e746044820152fd5b9091600f81166010811015610c16576f181899199a1a9b1b9c1cb0b131b232b360811b901a610bed8486612120565b53871c918015610c01576000190190610ad3565b601188634e487b7160e01b6000525260246000fd5b603289634e487b7160e01b6000525260246000fd5b603287634e487b7160e01b6000525260246000fd5b603286634e487b7160e01b6000525260246000fd5b83833461023d5760208060031936011261031c57610c71611c80565b91610c7a611ce3565b60008051602061268a83398151915292838552600283528185209360018060a01b038092169485600052845260ff836000205416610e1e5784865286845268056bc75e2d631000008387205410610de65780600052600284528260002085600052845260ff83600020541615610d97575b5060095468010000000000000000811015610d845790610d358260017f9000b209805850a65058f21361a9978cb30f1413ed555553ab52a59b440b5d999798999401600955611c96565b819291549060031b9188831b921b191617905584865260058352818620600160ff19825416179055808352610d6f82872054600a546120fd565b600a558486528252808520549051908152a280f35b634e487b7160e01b865260418752602486fd5b80600052600284528260002085600052845282600020600160ff198254161790558433917f2f8788117e7eff1d82e926ec794901d17c78024a50270940304540a733656f0d600080a486610ceb565b825162461bcd60e51b81528088018590526012602482015271496e73756666696369656e74207374616b6560701b6044820152606490fd5b825162461bcd60e51b8152808801859052601160248201527020b63932b0b23c903b30b634b230ba37b960791b6044820152606490fd5b90503461031c578260031936011261031c57610e6f611ce3565b600c54620151808101809111610f38574210610f01576001549060ff821615610ec7575060ff1916600155513381527f5db9ee0a495bf2e6ff9c91a7834c1ba4fdd244a5e8aa4e537bd38aeae4b073aa90602090a180f35b606490602084519162461bcd60e51b8352820152601460248201527314185d5cd8589b194e881b9bdd081c185d5cd95960621b6044820152fd5b6020606492519162461bcd60e51b835282015260126024820152710c8d1a0819195b185e481c995c5d5a5c995960721b6044820152fd5b634e487b7160e01b845260118252602484fd5b90503461031c57602091826003193601126110ad57610f68611c80565b92610f71611ce3565b60008051602061268a833981519152808652600282528286206001600160a01b039095166000818152958352948390205460ff161561107b5790818492600052600282528360002086600052825260ff84600020541661102f575b5084865260058152828620805460ff1916905552832054600a549081039190821161101c5750600a557fe1434e25d6611e0db941968fdc97811c982ac1602e951637d206f5fdda9dd8f18280a280f35b634e487b7160e01b845260119052602483fd5b8060005260028252836000208660005282528360002060ff1981541690558533917ff6391f5c32d9c69d2a47ea670b442974b53935d1edc7fd64eb21e047a839171b600080a438610fcc565b50905162461bcd60e51b815291820152600d60248201526c2737ba103b30b634b230ba37b960991b6044820152606490fd5b8380fd5b8391503461023d578260031936011261023d576110cc611c6a565b90336001600160a01b038316036110e8579061037e9135612087565b608490602085519162461bcd60e51b8352820152602f60248201527f416363657373436f6e74726f6c3a2063616e206f6e6c792072656e6f756e636560448201526e103937b632b9903337b91039b2b63360891b6064820152fd5b90503461031c57602036600319011261031c5735916009548310156102a2575061116e602092611c96565b905491519160018060a01b039160031b1c168152f35b9190503461031c576020806003193601126110ad5782359160008051602061268a83398151915285526002825280852033600052825260ff8160002054168061154b575b15611513578285526003825280852093600785019460ff8654166005811015611500576114cd57600981013360005280855260ff8460002054166114965733600052845282600020956005600860019360ff1999858b8254161790550161122f81546122ff565b80915533887fece1edc66e39a51648efd8bd2a8e900ef31ed2582554808ae7d38d47c447f2278c80a31015611262578780f35b818782541617905584875260038452828720956007870190815460ff81166005811015611483578403611450571660029081179091558601546001600160a01b03929083168061141057506003870180548991906006602160991b0190813b156110ad578391602483928a519485938492632e1a7d4d60e01b84528a8401525af18015611406579083916113f2575b5080809287878d0154169054908282156113e9575bf1156113df575b8783600d54168061135b575b5050507fba813b1258ac1d27e15c4fb7d7619227442316b980b6a904af803dbf43fd3a8e939291600391870154169501549051908152a3388080808080808780f35b819085858b0154168288518a81019263507cd30f60e01b84526024820152601460448201526044815261138d81612024565b51925af16113996124b0565b50156113a6578781611319565b835162461bcd60e51b81529081018590526013602482015272141bda5b9d1cc8185dd85c990819985a5b1959606a1b6044820152606490fd5b83513d89823e3d90fd5b506108fc611306565b6113fb90611fde565b61023d5781386112f1565b87513d85823e3d90fd5b61144b9084848a0154169060038a015487519263a9059cbb60e01b8a850152602484015260448301526044825261144682612024565b6123a8565b61130d565b855162461bcd60e51b8152808601889052600d60248201526c139bdd081d985b1a59185d1959609a1b6044820152606490fd5b634e487b7160e01b8b526021865260248bfd5b835162461bcd60e51b81528084018690526011602482015270105b1c9958591e481d985b1a59185d1959607a1b6044820152606490fd5b5082606492519162461bcd60e51b8352820152600e60248201526d496e76616c69642073746174757360901b6044820152fd5b634e487b7160e01b885260218352602488fd5b5162461bcd60e51b8152928301525060146024820152732737ba1030b1ba34bb32903b30b634b230ba37b960611b6044820152606490fd5b503385526005825260ff81862054166111c8565b50503461023d578160031936011261023d57600d5490516001600160a01b039091168152602090f35b50503461023d57602036600319011261023d5760209181906001600160a01b036115b0611c80565b1681526008845220549051908152f35b90503461031c578160031936011261031c5735906115dc611c6a565b9082845260026020526115f460018286200154611eb0565b826000526002602052806000209160018060a01b0316918260005260205260ff81600020541615611623578380f35b8260005260026020528060002082600052602052600020600160ff1982541617905533917f2f8788117e7eff1d82e926ec794901d17c78024a50270940304540a733656f0d600080a43880808380f35b90503461031c57602036600319011261031c5781602093600192358152600285522001549051908152f35b50503461023d578160031936011261023d576020905160148152f35b50503461023d578160031936011261023d57602090517fbf233dd2aafeb4d50879c4aa5c81e96d92f6e6945c906a58f9f2d1c1631b4b268152f35b50503461023d578160031936011261023d57602090600b549051908152f35b83838060031936011261023d57823561172b611c6a565b90611734612352565b61173c61230e565b662386f26fc1000034101580611953575b61175690612240565b3384526020916008835283852054603c81018091116119405761177b90421015612284565b338552600883528385204290556001600160a01b0381811691908215611909576117b29084885260068652868820541615156122bf565b600b54855190858201926001600160601b031990813360601b16855260601b16603483015287604883015234605c83015284607c830152609c8201524260bc82015260bc815261180181612008565b5190209283865260038152848620946001600160601b0360a01b3381885416178755600187018482825416179055600287019081541690553460038701558388870155426005870155600b5497611857896122ff565b600b556006870198895560078701805460ff191690556006602160991b01803b15611905578890835192838092630d0e30db60e41b825234905af180156118fb576118e6575b50836105e5979854918051936000855234908501528301526060820152837f9425d6201e14257a0c7cd9defe6590776dfb0968b02229c36714b8fc7c7f07a860803393a4612589565b6105e5976118f48692611fde565b975061189d565b82513d8a823e3d90fd5b8880fd5b855162461bcd60e51b81528089018690526011602482015270125b9d985b1a59081c9958da5c1a595b9d607a1b6044820152606490fd5b634e487b7160e01b865260118752602486fd5b50683635c9adc5dea0000034111561174d565b90503461031c57602036600319011261031c5735825260066020908152918190205490516001600160a01b039091168152f35b50503461023d578160031936011261023d57516015602160991b018152602090f35b50503461023d578160031936011261023d57602090600c549051908152f35b50503461023d578160031936011261023d5760209051610e108152f35b50503461023d578160031936011261023d57602090517f68e79a7bf1e0bc45d0a330c573bc367f9cf464fd326078812f301165fbda4ef18152f35b90503461031c578260031936011261031c5781516341c0fac560e11b81526015602160991b01929060209081818581885afa908115611b0f578691611b54575b508251635c03bbf560e11b81529482868681845afa958615611b4a578796611b19575b508290845195868092635cf2496960e01b82525afa938415611b0f578694611ad8575b506060955082519467ffffffffffffffff80921686521690840152820152f35b9093508181813d8311611b08575b611af08183612040565b81010312611b045760609550519238611ab8565b8580fd5b503d611ae6565b83513d88823e3d90fd5b83919650611b3c90823d8411611b43575b611b348183612040565b810190612669565b9590611a95565b503d611b2a565b84513d89823e3d90fd5b611b6b9150823d8411611b4357611b348183612040565b38611a72565b90503461031c57602036600319011261031c57359063ffffffff60e01b821680920361031c5760209250637965db0b60e01b8214918215611bb6575b50519015158152f35b6301ffc9a760e01b14915038611bad565b929150346110ad5760203660031901126110ad57808260e095611c40933581526003602052209060018060a01b0390818354169482600185015416926002850154169060038501549285015493600860ff60078801541696015497895260208901528701526060860152608085015260a0840190611c47565b60c0820152f35b906005821015611c545752565b634e487b7160e01b600052602160045260246000fd5b602435906001600160a01b038216820361066257565b600435906001600160a01b038216820361066257565b600954811015611ccd5760096000527f6e1540171b6c0c960b71a7020d9f60077f6af931a8bbf590da0223dacf75c7af0190600090565b634e487b7160e01b600052603260045260246000fd5b3360009081527fac33ff75c19e70fe83507db0d683fd3465c996598dc972688b7ace676c89077b602090815260408083205490929060ff1615611d2557505050565b611d2e33612131565b9080845190611d3c82612024565b60428252848201926060368537825115611e9c5760308453825190600191821015611e9c5790607860218501536041915b818311611e2e57505050611dec576048610b79938693611dd093611dc1985198899376020b1b1b2b9b9a1b7b73a3937b61d1030b1b1b7bab73a1604d1b8a860152610b27815180928c603789019101611fbb565b01036028810187520185612040565b5192839262461bcd60e51b845260048401526024830190612062565b60648486519062461bcd60e51b825280600483015260248201527f537472696e67733a20686578206c656e67746820696e73756666696369656e746044820152fd5b909192600f81166010811015611e88576f181899199a1a9b1b9c1cb0b131b232b360811b901a611e5e8587612120565b5360041c928015611e7457600019019190611d6d565b634e487b7160e01b82526011600452602482fd5b634e487b7160e01b83526032600452602483fd5b634e487b7160e01b81526032600452602490fd5b60009080825260209060028252604092838120338252835260ff848220541615611eda5750505050565b611ee333612131565b91845190611ef082612024565b60428252848201926060368537825115611e9c5760308453825190600191821015611e9c5790607860218501536041915b818311611f7557505050611dec576048610b79938693611dd093611dc1985198899376020b1b1b2b9b9a1b7b73a3937b61d1030b1b1b7bab73a1604d1b8a860152610b27815180928c603789019101611fbb565b909192600f81166010811015611e88576f181899199a1a9b1b9c1cb0b131b232b360811b901a611fa58587612120565b5360041c928015611e7457600019019190611f21565b60005b838110611fce5750506000910152565b8181015183820152602001611fbe565b67ffffffffffffffff8111611ff257604052565b634e487b7160e01b600052604160045260246000fd5b60e0810190811067ffffffffffffffff821117611ff257604052565b6080810190811067ffffffffffffffff821117611ff257604052565b90601f8019910116810190811067ffffffffffffffff821117611ff257604052565b9060209161207b81518092818552858086019101611fbb565b601f01601f1916010190565b906000918083526002602052604083209160018060a01b03169182845260205260ff6040842054166120b857505050565b8083526002602052604083208284526020526040832060ff1981541690557ff6391f5c32d9c69d2a47ea670b442974b53935d1edc7fd64eb21e047a839171b339380a4565b9190820180921161210a57565b634e487b7160e01b600052601160045260246000fd5b908151811015611ccd570160200190565b604051906060820182811067ffffffffffffffff821117611ff257604052602a8252602082016040368237825115611ccd57603090538151600190811015611ccd57607860218401536029905b8082116121d257505061218e5790565b606460405162461bcd60e51b815260206004820152602060248201527f537472696e67733a20686578206c656e67746820696e73756666696369656e746044820152fd5b9091600f8116601081101561222b576f181899199a1a9b1b9c1cb0b131b232b360811b901a6122018486612120565b5360041c91801561221657600019019061217e565b60246000634e487b7160e01b81526011600452fd5b60246000634e487b7160e01b81526032600452fd5b1561224757565b60405162461bcd60e51b8152602060048201526015602482015274125b9d985b1a5908189c9a5919d948185b5bdd5b9d605a1b6044820152606490fd5b1561228b57565b60405162461bcd60e51b815260206004820152600c60248201526b14985d19481b1a5b5a5d195960a21b6044820152606490fd5b156122c657565b60405162461bcd60e51b81526020600482015260116024820152702ab739bab83837b93a32b21031b430b4b760791b6044820152606490fd5b600019811461210a5760010190565b60ff6001541661231a57565b60405162461bcd60e51b815260206004820152601060248201526f14185d5cd8589b194e881c185d5cd95960821b6044820152606490fd5b600260005414612363576002600055565b60405162461bcd60e51b815260206004820152601f60248201527f5265656e7472616e637947756172643a207265656e7472616e742063616c6c006044820152606490fd5b60018060a01b031690604051604081019080821067ffffffffffffffff831117611ff25761241a916040526020938482527f5361666545524332303a206c6f772d6c6576656c2063616c6c206661696c6564858301526000808587829751910182855af16124146124b0565b916124f0565b80519182159184831561248c575b5050509050156124355750565b6084906040519062461bcd60e51b82526004820152602a60248201527f5361666545524332303a204552433230206f7065726174696f6e20646964206e6044820152691bdd081cdd58d8d9595960b21b6064820152fd5b91938180945001031261023d578201519081151582036102a2575080388084612428565b3d156124eb573d9067ffffffffffffffff8211611ff257604051916124df601f8201601f191660200184612040565b82523d6000602084013e565b606090565b919290156125525750815115612504575090565b3b1561250d5790565b60405162461bcd60e51b815260206004820152601d60248201527f416464726573733a2063616c6c20746f206e6f6e2d636f6e74726163740000006044820152606490fd5b8251909150156125655750805190602001fd5b60405162461bcd60e51b815260206004820152908190610b79906024830190612062565b90929160018060a01b0390818154169082600182015416600384600284015416920154926040519763255873e760e01b60208a0152602489015260448801526064870152608486015260a485015260a484526125e484612008565b6000918252600660205260408220546007602160991b019116813b1561031c57938291612636949583604051809781958294633dbb202b60e01b84526004840152606060248401526064830190612062565b620f4240604483015203925af190811561265d57506126525750565b61265b90611fde565b565b604051903d90823e3d90fd5b90816020910312610662575167ffffffffffffffff81168103610662579056fe21702c8af46127c7fa207f89d0b0a8441bb32959a0ac7df790e9ab1a25c98926a2646970667358221220bcaa8530b24bb67d00f526db4d3f64f5b50882e0e09f26d93d39266c1c144a0764736f6c634300081300332f8788117e7eff1d82e926ec794901d17c78024a50270940304540a733656f0d","opcodes":"PUSH1 0x80 PUSH1 0x40 DUP2 DUP2 MSTORE CALLVALUE PUSH3 0xFB JUMPI PUSH1 0x0 PUSH1 0x1 DUP2 SSTORE PUSH1 0xFF NOT DUP1 PUSH1 0x1 SLOAD AND PUSH1 0x1 SSTORE DUP2 DUP1 MSTORE PUSH1 0x20 PUSH1 0x2 DUP2 MSTORE DUP4 DUP4 KECCAK256 CALLER DUP5 MSTORE DUP2 MSTORE PUSH1 0xFF DUP5 DUP5 KECCAK256 SLOAD AND ISZERO PUSH3 0xC4 JUMPI JUMPDEST PUSH32 0xBF233DD2AAFEB4D50879C4AA5C81E96D92F6E6945C906A58F9F2D1C1631B4B26 SWAP4 DUP5 DUP5 MSTORE PUSH1 0x2 DUP3 MSTORE DUP1 DUP5 KECCAK256 CALLER DUP6 MSTORE DUP3 MSTORE PUSH1 0xFF DUP2 DUP6 KECCAK256 SLOAD AND ISZERO PUSH3 0x88 JUMPI JUMPDEST PUSH2 0x26DF DUP7 DUP2 PUSH3 0x101 DUP3 CODECOPY RETURN JUMPDEST PUSH1 0x1 SWAP2 DUP6 DUP6 MSTORE PUSH1 0x2 DUP2 MSTORE DUP2 DUP6 KECCAK256 SWAP1 CALLER DUP7 MSTORE MSTORE DUP4 KECCAK256 SWAP2 DUP3 SLOAD AND OR SWAP1 SSTORE CALLER SWAP2 PUSH1 0x0 DUP1 MLOAD PUSH1 0x20 PUSH3 0x27E0 DUP4 CODECOPY DUP2 MLOAD SWAP2 MSTORE CALLER SWAP3 DUP1 LOG4 CODESIZE DUP1 DUP1 DUP1 DUP1 PUSH3 0x7B JUMP JUMPDEST DUP3 DUP1 MSTORE PUSH1 0x2 DUP2 MSTORE DUP4 DUP4 KECCAK256 CALLER DUP5 MSTORE DUP2 MSTORE DUP4 DUP4 KECCAK256 PUSH1 0x1 DUP4 DUP3 SLOAD AND OR SWAP1 SSTORE CALLER CALLER DUP5 PUSH1 0x0 DUP1 MLOAD PUSH1 0x20 PUSH3 0x27E0 DUP4 CODECOPY DUP2 MLOAD SWAP2 MSTORE DUP2 DUP1 LOG4 PUSH3 0x3C JUMP JUMPDEST PUSH1 0x0 DUP1 REVERT INVALID PUSH1 0x80 PUSH1 0x40 DUP2 DUP2 MSTORE PUSH1 0x4 SWAP2 DUP3 CALLDATASIZE LT ISZERO PUSH2 0x22 JUMPI JUMPDEST POP POP POP CALLDATASIZE ISZERO PUSH2 0x20 JUMPI PUSH1 0x0 DUP1 REVERT JUMPDEST STOP JUMPDEST PUSH1 0x0 SWAP3 DUP4 CALLDATALOAD PUSH1 0xE0 SHR SWAP2 DUP3 PUSH3 0x24A1B8 EQ PUSH2 0x1BC7 JUMPI POP DUP2 PUSH4 0x1FFC9A7 EQ PUSH2 0x1B71 JUMPI DUP2 PUSH4 0x3236D0D EQ PUSH2 0x1A32 JUMPI DUP2 PUSH4 0x7E2CEA5 EQ PUSH2 0x19F7 JUMPI DUP2 PUSH4 0xEBB172A EQ PUSH2 0x19DA JUMPI DUP2 PUSH4 0x11483BD2 EQ PUSH2 0x19BB JUMPI DUP2 PUSH4 0x128666F5 EQ PUSH2 0x1999 JUMPI DUP2 PUSH4 0x162C0700 EQ PUSH2 0x1966 JUMPI DUP2 PUSH4 0x19BF4B4D EQ PUSH2 0x1714 JUMPI DUP2 PUSH4 0x1F87A250 EQ PUSH2 0x16F5 JUMPI DUP2 PUSH4 0x20DF4359 EQ PUSH2 0x16BA JUMPI DUP2 PUSH4 0x210D1C03 EQ PUSH2 0x169E JUMPI DUP2 PUSH4 0x248A9CA3 EQ PUSH2 0x1673 JUMPI DUP2 PUSH4 0x2F2FF15D EQ PUSH2 0x15C0 JUMPI DUP2 PUSH4 0x319E38F6 EQ PUSH2 0x1588 JUMPI DUP2 PUSH4 0x32D9562F EQ PUSH2 0x155F JUMPI DUP2 PUSH4 0x34284E4B EQ PUSH2 0x1184 JUMPI DUP2 PUSH4 0x35AA2E44 EQ PUSH2 0x1143 JUMPI DUP2 PUSH4 0x36568ABE EQ PUSH2 0x10B1 JUMPI DUP2 PUSH4 0x40A141FF EQ PUSH2 0xF4B JUMPI DUP2 PUSH4 0x4A4E3BD5 EQ PUSH2 0xE55 JUMPI DUP2 PUSH4 0x4D238C8E EQ PUSH2 0xC55 JUMPI DUP2 PUSH4 0x51858E27 EQ PUSH2 0x9C9 JUMPI DUP2 PUSH4 0x574B5FF0 EQ PUSH2 0x98B JUMPI DUP2 PUSH4 0x5C975ABB EQ PUSH2 0x967 JUMPI DUP2 PUSH4 0x6C63F971 EQ PUSH2 0x8C3 JUMPI DUP2 PUSH4 0x7071688A EQ PUSH2 0x8A4 JUMPI DUP2 PUSH4 0x7A6EEA37 EQ PUSH2 0x888 JUMPI DUP2 PUSH4 0x7FCE0002 EQ PUSH2 0x864 JUMPI DUP2 PUSH4 0x886688C1 EQ PUSH2 0x842 JUMPI DUP2 PUSH4 0x91D14854 EQ PUSH2 0x7FC JUMPI DUP2 PUSH4 0xA217FDDF EQ PUSH2 0x7E1 JUMPI DUP2 PUSH4 0xAA735578 EQ PUSH2 0x7AB JUMPI DUP2 PUSH4 0xBD693C0B EQ PUSH2 0x75D JUMPI DUP2 PUSH4 0xC3A079ED EQ PUSH2 0x73F JUMPI DUP2 PUSH4 0xC49BAEBE EQ PUSH2 0x716 JUMPI DUP2 PUSH4 0xC9859DA5 EQ PUSH2 0x6DE JUMPI DUP2 PUSH4 0xCEEFD62C EQ PUSH2 0x3A3 JUMPI DUP2 PUSH4 0xD434A6EC EQ PUSH2 0x381 JUMPI DUP2 PUSH4 0xD547741F EQ PUSH2 0x342 JUMPI DUP2 PUSH4 0xD5F3204B EQ PUSH2 0x320 JUMPI DUP2 PUSH4 0xDAD64FF5 EQ PUSH2 0x2A5 JUMPI POP DUP1 PUSH4 0xE8BF3999 EQ PUSH2 0x262 JUMPI DUP1 PUSH4 0xF88312DE EQ PUSH2 0x241 JUMPI PUSH4 0xFDE8EE7B EQ PUSH2 0x220 JUMPI DUP1 PUSH2 0x12 JUMP JUMPDEST CALLVALUE PUSH2 0x23D JUMPI DUP2 PUSH1 0x3 NOT CALLDATASIZE ADD SLT PUSH2 0x23D JUMPI PUSH1 0x20 SWAP1 PUSH1 0xA SLOAD SWAP1 MLOAD SWAP1 DUP2 MSTORE RETURN JUMPDEST POP DUP1 REVERT JUMPDEST POP CALLVALUE PUSH2 0x23D JUMPI DUP2 PUSH1 0x3 NOT CALLDATASIZE ADD SLT PUSH2 0x23D JUMPI MLOAD PUSH1 0x6 PUSH1 0x21 PUSH1 0x99 SHL ADD DUP2 MSTORE PUSH1 0x20 SWAP1 RETURN JUMPDEST DUP3 CALLVALUE PUSH2 0x2A2 JUMPI PUSH1 0x20 CALLDATASIZE PUSH1 0x3 NOT ADD SLT PUSH2 0x2A2 JUMPI PUSH2 0x27C PUSH2 0x1C80 JUMP JUMPDEST PUSH2 0x284 PUSH2 0x1CE3 JUMP JUMPDEST PUSH1 0x1 DUP1 PUSH1 0xA0 SHL SUB AND PUSH1 0x1 PUSH1 0x1 PUSH1 0x60 SHL SUB PUSH1 0xA0 SHL PUSH1 0xD SLOAD AND OR PUSH1 0xD SSTORE DUP1 RETURN JUMPDEST DUP1 REVERT JUMPDEST SWAP1 POP DUP3 PUSH1 0x3 NOT CALLDATASIZE ADD SLT PUSH2 0x31C JUMPI PUSH9 0x56BC75E2D63100000 CALLVALUE LT PUSH2 0x2DA JUMPI CALLER DUP4 MSTORE PUSH1 0x20 MSTORE DUP2 KECCAK256 PUSH2 0x2D5 CALLVALUE DUP3 SLOAD PUSH2 0x20FD JUMP JUMPDEST SWAP1 SSTORE DUP1 RETURN JUMPDEST PUSH1 0x20 PUSH1 0x64 SWAP3 MLOAD SWAP2 PUSH3 0x461BCD PUSH1 0xE5 SHL DUP4 MSTORE DUP3 ADD MSTORE PUSH1 0x1E PUSH1 0x24 DUP3 ADD MSTORE PUSH32 0x4D696E696D756D2031303020455448207374616B652072657175697265640000 PUSH1 0x44 DUP3 ADD MSTORE REVERT JUMPDEST DUP3 DUP1 REVERT JUMPDEST POP POP CALLVALUE PUSH2 0x23D JUMPI DUP2 PUSH1 0x3 NOT CALLDATASIZE ADD SLT PUSH2 0x23D JUMPI MLOAD PUSH1 0x16 PUSH1 0x21 PUSH1 0x99 SHL ADD DUP2 MSTORE PUSH1 0x20 SWAP1 RETURN JUMPDEST SWAP2 SWAP1 POP CALLVALUE PUSH2 0x31C JUMPI DUP1 PUSH1 0x3 NOT CALLDATASIZE ADD SLT PUSH2 0x31C JUMPI PUSH2 0x37E SWAP2 CALLDATALOAD PUSH2 0x379 PUSH1 0x1 PUSH2 0x367 PUSH2 0x1C6A JUMP JUMPDEST SWAP4 DUP4 DUP8 MSTORE PUSH1 0x2 PUSH1 0x20 MSTORE DUP7 KECCAK256 ADD SLOAD PUSH2 0x1EB0 JUMP JUMPDEST PUSH2 0x2087 JUMP JUMPDEST DUP1 RETURN JUMPDEST POP POP CALLVALUE PUSH2 0x23D JUMPI DUP2 PUSH1 0x3 NOT CALLDATASIZE ADD SLT PUSH2 0x23D JUMPI MLOAD PUSH1 0x7 PUSH1 0x21 PUSH1 0x99 SHL ADD DUP2 MSTORE PUSH1 0x20 SWAP1 RETURN JUMPDEST DUP4 SWAP2 POP CALLVALUE PUSH2 0x23D JUMPI PUSH1 0x80 CALLDATASIZE PUSH1 0x3 NOT ADD SLT PUSH2 0x23D JUMPI PUSH2 0x3BF PUSH2 0x1C80 JUMP JUMPDEST PUSH1 0x24 SWAP2 SWAP1 PUSH1 0x44 CALLDATALOAD SWAP1 PUSH1 0x1 PUSH1 0x1 PUSH1 0xA0 SHL SUB PUSH1 0x64 CALLDATALOAD DUP2 DUP2 AND SWAP3 DUP7 CALLDATALOAD SWAP1 DUP5 DUP4 SUB PUSH2 0x662 JUMPI PUSH2 0x3E8 PUSH2 0x2352 JUMP JUMPDEST PUSH2 0x3F0 PUSH2 0x230E JUMP JUMPDEST PUSH7 0x2386F26FC10000 DUP3 LT ISZERO DUP1 PUSH2 0x6CB JUMPI JUMPDEST PUSH2 0x40A SWAP1 PUSH2 0x2240 JUMP JUMPDEST CALLER DUP10 MSTORE PUSH1 0x20 SWAP3 PUSH1 0x8 DUP5 MSTORE DUP11 DUP11 KECCAK256 SLOAD PUSH1 0x3C DUP2 ADD DUP1 SWAP2 GT PUSH2 0x6B9 JUMPI PUSH2 0x42F SWAP1 TIMESTAMP LT ISZERO PUSH2 0x2284 JUMP JUMPDEST CALLER DUP11 MSTORE PUSH1 0x8 DUP5 MSTORE TIMESTAMP DUP12 DUP12 KECCAK256 SSTORE DUP5 DUP3 AND SWAP5 DUP6 ISZERO ISZERO DUP1 PUSH2 0x6B0 JUMPI JUMPDEST ISZERO PUSH2 0x678 JUMPI PUSH2 0x464 SWAP1 DUP9 DUP13 MSTORE PUSH1 0x6 DUP7 MSTORE DUP13 DUP13 KECCAK256 SLOAD AND ISZERO ISZERO PUSH2 0x22BF JUMP JUMPDEST DUP11 MLOAD PUSH4 0x70A08231 PUSH1 0xE0 SHL DUP2 MSTORE CALLER DUP10 DUP3 ADD MSTORE DUP5 DUP2 DUP12 DUP2 DUP10 GAS STATICCALL SWAP1 DUP2 ISZERO PUSH2 0x66E JUMPI SWAP1 DUP5 SWAP2 DUP13 SWAP2 PUSH2 0x638 JUMPI JUMPDEST POP LT PUSH2 0x5FF JUMPI PUSH1 0xB SLOAD DUP12 MLOAD SWAP2 DUP6 DUP4 ADD SWAP4 PUSH1 0x1 PUSH1 0x1 PUSH1 0x60 SHL SUB NOT DUP1 SWAP3 DUP2 CALLER PUSH1 0x60 SHL AND DUP8 MSTORE PUSH1 0x60 SHL AND PUSH1 0x34 DUP6 ADD MSTORE PUSH1 0x60 SHL AND PUSH1 0x48 DUP4 ADD MSTORE DUP4 PUSH1 0x5C DUP4 ADD MSTORE DUP8 PUSH1 0x7C DUP4 ADD MSTORE PUSH1 0x9C DUP3 ADD MSTORE TIMESTAMP PUSH1 0xBC DUP3 ADD MSTORE PUSH1 0xBC DUP2 MSTORE PUSH2 0x4E6 DUP2 PUSH2 0x2008 JUMP JUMPDEST MLOAD SWAP1 KECCAK256 SWAP6 DUP7 DUP10 MSTORE PUSH1 0x3 DUP4 MSTORE DUP10 DUP10 KECCAK256 SWAP8 PUSH1 0x1 PUSH1 0x1 PUSH1 0x60 SHL SUB PUSH1 0xA0 SHL CALLER DUP2 DUP12 SLOAD AND OR DUP11 SSTORE PUSH1 0x1 DUP11 ADD DUP8 DUP3 DUP3 SLOAD AND OR SWAP1 SSTORE DUP6 PUSH1 0x2 DUP12 ADD SWAP2 DUP3 SLOAD AND OR SWAP1 SSTORE DUP3 PUSH1 0x3 DUP11 ADD SSTORE DUP7 DUP3 DUP11 ADD SSTORE TIMESTAMP PUSH1 0x5 DUP11 ADD SSTORE PUSH1 0xB SLOAD SWAP2 PUSH2 0x53E DUP4 PUSH2 0x22FF JUMP JUMPDEST PUSH1 0xB SSTORE PUSH1 0x6 DUP11 ADD SWAP3 DUP4 SSTORE PUSH1 0x7 DUP11 ADD DUP1 SLOAD PUSH1 0xFF NOT AND SWAP1 SSTORE DUP12 MLOAD PUSH4 0x23B872DD PUSH1 0xE0 SHL DUP7 DUP3 ADD MSTORE CALLER DUP4 DUP3 ADD MSTORE ADDRESS PUSH1 0x44 DUP3 ADD MSTORE PUSH1 0x64 DUP1 DUP3 ADD DUP7 SWAP1 MSTORE DUP2 MSTORE SWAP2 PUSH1 0xA0 DUP4 ADD SWAP2 PUSH8 0xFFFFFFFFFFFFFFFF DUP4 GT DUP5 DUP5 LT OR PUSH2 0x5EC JUMPI POP POP SWAP2 PUSH2 0x5A7 DUP9 SWAP5 SWAP3 DUP14 SWAP5 PUSH2 0x5E5 SWAP14 SWAP15 MSTORE DUP8 PUSH2 0x23A8 JUMP JUMPDEST SLOAD SWAP4 DUP3 MLOAD SWAP6 DUP7 MSTORE DUP6 ADD MSTORE DUP4 ADD MSTORE PUSH1 0x60 DUP3 ADD MSTORE DUP4 PUSH32 0x9425D6201E14257A0C7CD9DEFE6590776DFB0968B02229C36714B8FC7C7F07A8 PUSH1 0x80 CALLER SWAP4 LOG4 PUSH2 0x2589 JUMP JUMPDEST PUSH1 0x1 DUP2 SSTORE DUP1 RETURN JUMPDEST PUSH1 0x41 SWAP1 PUSH4 0x4E487B71 PUSH1 0xE0 SHL PUSH1 0x0 MSTORE MSTORE PUSH1 0x0 REVERT JUMPDEST DUP11 MLOAD PUSH3 0x461BCD PUSH1 0xE5 SHL DUP2 MSTORE DUP1 DUP10 ADD DUP6 SWAP1 MSTORE PUSH1 0x14 DUP2 DUP12 ADD MSTORE PUSH20 0x496E73756666696369656E742062616C616E6365 PUSH1 0x60 SHL PUSH1 0x44 DUP3 ADD MSTORE PUSH1 0x64 SWAP1 REVERT JUMPDEST DUP1 SWAP3 POP DUP7 DUP1 SWAP3 POP RETURNDATASIZE DUP4 GT PUSH2 0x667 JUMPI JUMPDEST PUSH2 0x651 DUP2 DUP4 PUSH2 0x2040 JUMP JUMPDEST DUP2 ADD SUB SLT PUSH2 0x662 JUMPI DUP4 SWAP1 MLOAD DUP14 PUSH2 0x48D JUMP JUMPDEST PUSH1 0x0 DUP1 REVERT JUMPDEST POP RETURNDATASIZE PUSH2 0x647 JUMP JUMPDEST DUP13 MLOAD RETURNDATASIZE DUP14 DUP3 RETURNDATACOPY RETURNDATASIZE SWAP1 REVERT JUMPDEST POP DUP11 MLOAD PUSH3 0x461BCD PUSH1 0xE5 SHL DUP2 MSTORE DUP1 DUP10 ADD DUP6 SWAP1 MSTORE PUSH1 0x12 DUP2 DUP12 ADD MSTORE PUSH18 0x496E76616C696420706172616D6574657273 PUSH1 0x70 SHL PUSH1 0x44 DUP3 ADD MSTORE PUSH1 0x64 SWAP1 REVERT JUMPDEST POP DUP7 ISZERO ISZERO PUSH2 0x448 JUMP JUMPDEST PUSH4 0x4E487B71 PUSH1 0xE0 SHL DUP12 MSTORE PUSH1 0x11 DUP10 MSTORE DUP10 DUP12 REVERT JUMPDEST POP PUSH9 0x3635C9ADC5DEA00000 DUP3 GT ISZERO PUSH2 0x401 JUMP JUMPDEST POP POP CALLVALUE PUSH2 0x23D JUMPI PUSH1 0x20 CALLDATASIZE PUSH1 0x3 NOT ADD SLT PUSH2 0x23D JUMPI PUSH1 0x20 SWAP2 DUP2 SWAP1 PUSH1 0x1 PUSH1 0x1 PUSH1 0xA0 SHL SUB PUSH2 0x706 PUSH2 0x1C80 JUMP JUMPDEST AND DUP2 MSTORE PUSH1 0x7 DUP5 MSTORE KECCAK256 SLOAD SWAP1 MLOAD SWAP1 DUP2 MSTORE RETURN JUMPDEST POP POP CALLVALUE PUSH2 0x23D JUMPI DUP2 PUSH1 0x3 NOT CALLDATASIZE ADD SLT PUSH2 0x23D JUMPI PUSH1 0x20 SWAP1 MLOAD PUSH1 0x0 DUP1 MLOAD PUSH1 0x20 PUSH2 0x268A DUP4 CODECOPY DUP2 MLOAD SWAP2 MSTORE DUP2 MSTORE RETURN JUMPDEST POP POP CALLVALUE PUSH2 0x23D JUMPI DUP2 PUSH1 0x3 NOT CALLDATASIZE ADD SLT PUSH2 0x23D JUMPI PUSH1 0x20 SWAP1 MLOAD PUSH3 0x93A80 DUP2 MSTORE RETURN JUMPDEST SWAP2 SWAP1 POP CALLVALUE PUSH2 0x31C JUMPI DUP1 PUSH1 0x3 NOT CALLDATASIZE ADD SLT PUSH2 0x31C JUMPI PUSH2 0x778 PUSH2 0x1C6A JUMP JUMPDEST SWAP2 PUSH2 0x781 PUSH2 0x1CE3 JUMP JUMPDEST CALLDATALOAD DUP4 MSTORE PUSH1 0x6 PUSH1 0x20 MSTORE DUP3 KECCAK256 DUP1 SLOAD PUSH1 0x1 PUSH1 0x1 PUSH1 0xA0 SHL SUB NOT AND PUSH1 0x1 PUSH1 0x1 PUSH1 0xA0 SHL SUB SWAP1 SWAP3 AND SWAP2 SWAP1 SWAP2 OR SWAP1 SSTORE DUP1 RETURN JUMPDEST SWAP1 POP CALLVALUE PUSH2 0x31C JUMPI PUSH1 0x20 CALLDATASIZE PUSH1 0x3 NOT ADD SLT PUSH2 0x31C JUMPI PUSH1 0x20 SWAP3 DUP3 SWAP2 PUSH1 0x1 PUSH1 0x1 PUSH1 0xA0 SHL SUB PUSH2 0x7D3 PUSH2 0x1C80 JUMP JUMPDEST AND DUP3 MSTORE DUP5 MSTORE KECCAK256 SLOAD SWAP1 MLOAD SWAP1 DUP2 MSTORE RETURN JUMPDEST POP POP CALLVALUE PUSH2 0x23D JUMPI DUP2 PUSH1 0x3 NOT CALLDATASIZE ADD SLT PUSH2 0x23D JUMPI MLOAD SWAP1 DUP2 MSTORE PUSH1 0x20 SWAP1 RETURN JUMPDEST SWAP1 POP CALLVALUE PUSH2 0x31C JUMPI DUP2 PUSH1 0x3 NOT CALLDATASIZE ADD SLT PUSH2 0x31C JUMPI DUP2 PUSH1 0x20 SWAP4 PUSH2 0x81A PUSH2 0x1C6A JUMP JUMPDEST SWAP3 CALLDATALOAD DUP2 MSTORE PUSH1 0x2 DUP6 MSTORE KECCAK256 SWAP1 PUSH1 0x1 DUP1 PUSH1 0xA0 SHL SUB AND PUSH1 0x0 MSTORE DUP3 MSTORE PUSH1 0xFF DUP2 PUSH1 0x0 KECCAK256 SLOAD AND SWAP1 MLOAD SWAP1 ISZERO ISZERO DUP2 MSTORE RETURN JUMPDEST POP POP CALLVALUE PUSH2 0x23D JUMPI DUP2 PUSH1 0x3 NOT CALLDATASIZE ADD SLT PUSH2 0x23D JUMPI PUSH1 0x20 SWAP1 MLOAD PUSH7 0x2386F26FC10000 DUP2 MSTORE RETURN JUMPDEST POP POP CALLVALUE PUSH2 0x23D JUMPI DUP2 PUSH1 0x3 NOT CALLDATASIZE ADD SLT PUSH2 0x23D JUMPI PUSH1 0x20 SWAP1 MLOAD PUSH9 0x3635C9ADC5DEA00000 DUP2 MSTORE RETURN JUMPDEST POP POP CALLVALUE PUSH2 0x23D JUMPI DUP2 PUSH1 0x3 NOT CALLDATASIZE ADD SLT PUSH2 0x23D JUMPI PUSH1 0x20 SWAP1 MLOAD PUSH1 0x5 DUP2 MSTORE RETURN JUMPDEST POP POP CALLVALUE PUSH2 0x23D JUMPI DUP2 PUSH1 0x3 NOT CALLDATASIZE ADD SLT PUSH2 0x23D JUMPI PUSH1 0x20 SWAP1 PUSH1 0x9 SLOAD SWAP1 MLOAD SWAP1 DUP2 MSTORE RETURN JUMPDEST SWAP2 SWAP1 POP CALLVALUE PUSH2 0x31C JUMPI PUSH1 0x20 CALLDATASIZE PUSH1 0x3 NOT ADD SLT PUSH2 0x31C JUMPI DUP1 PUSH2 0x140 SWAP4 DUP4 CALLDATALOAD DUP2 MSTORE PUSH1 0x3 PUSH1 0x20 MSTORE KECCAK256 PUSH2 0x959 PUSH1 0x1 DUP1 PUSH1 0xA0 SHL SUB SWAP3 DUP4 DUP4 SLOAD AND SWAP5 DUP5 PUSH1 0x1 DUP6 ADD SLOAD AND SWAP5 PUSH1 0x2 DUP6 ADD SLOAD AND SWAP1 PUSH1 0x3 DUP6 ADD SLOAD SWAP1 DUP6 ADD SLOAD PUSH1 0x5 DUP7 ADD SLOAD SWAP2 PUSH1 0x6 DUP8 ADD SLOAD SWAP4 PUSH1 0xFF PUSH1 0x7 DUP10 ADD SLOAD AND SWAP6 PUSH1 0xA PUSH1 0x8 DUP11 ADD SLOAD SWAP10 ADD SLOAD SWAP10 DUP2 MLOAD SWAP12 DUP13 MSTORE PUSH1 0x20 DUP13 ADD MSTORE DUP11 ADD MSTORE PUSH1 0x60 DUP10 ADD MSTORE PUSH1 0x80 DUP9 ADD MSTORE PUSH1 0xA0 DUP8 ADD MSTORE PUSH1 0xC0 DUP7 ADD MSTORE PUSH1 0xE0 DUP6 ADD SWAP1 PUSH2 0x1C47 JUMP JUMPDEST PUSH2 0x100 DUP4 ADD MSTORE PUSH2 0x120 DUP3 ADD MSTORE RETURN JUMPDEST POP POP CALLVALUE PUSH2 0x23D JUMPI DUP2 PUSH1 0x3 NOT CALLDATASIZE ADD SLT PUSH2 0x23D JUMPI PUSH1 0x20 SWAP1 PUSH1 0xFF PUSH1 0x1 SLOAD AND SWAP1 MLOAD SWAP1 ISZERO ISZERO DUP2 MSTORE RETURN JUMPDEST POP POP CALLVALUE PUSH2 0x23D JUMPI PUSH1 0x20 CALLDATASIZE PUSH1 0x3 NOT ADD SLT PUSH2 0x23D JUMPI PUSH1 0x20 SWAP2 PUSH1 0xFF SWAP1 DUP3 SWAP1 PUSH1 0x1 PUSH1 0x1 PUSH1 0xA0 SHL SUB PUSH2 0x9B6 PUSH2 0x1C80 JUMP JUMPDEST AND DUP2 MSTORE PUSH1 0x5 DUP6 MSTORE KECCAK256 SLOAD AND SWAP1 MLOAD SWAP1 ISZERO ISZERO DUP2 MSTORE RETURN JUMPDEST SWAP2 SWAP1 POP CALLVALUE PUSH2 0x31C JUMPI DUP3 PUSH1 0x3 NOT CALLDATASIZE ADD SLT PUSH2 0x31C JUMPI PUSH32 0xBF233DD2AAFEB4D50879C4AA5C81E96D92F6E6945C906A58F9F2D1C1631B4B26 SWAP2 DUP3 PUSH1 0x0 MSTORE PUSH1 0x20 SWAP3 PUSH1 0x2 DUP5 MSTORE DUP3 PUSH1 0x0 KECCAK256 CALLER PUSH1 0x0 MSTORE DUP5 MSTORE PUSH1 0xFF DUP4 PUSH1 0x0 KECCAK256 SLOAD AND ISZERO PUSH2 0xA8C JUMPI DUP5 PUSH32 0x587F3B25DA67017C0DA715067EA23A00CE02A7692DDE05787D04B933A0688198 DUP6 DUP6 PUSH2 0xA4C PUSH2 0x230E JUMP JUMPDEST PUSH1 0x1 PUSH1 0xFF NOT DUP2 SLOAD AND OR PUSH1 0x1 SSTORE PUSH32 0x62E78CEA01BEE320CD4E420270B5EA74000D11B0C9F74754EBDBFC544B05A258 DUP3 DUP3 MLOAD CALLER DUP2 MSTORE LOG1 TIMESTAMP PUSH1 0xC SSTORE MLOAD TIMESTAMP DUP2 MSTORE LOG1 DUP1 RETURN JUMPDEST PUSH2 0xA98 SWAP3 SWAP2 SWAP3 CALLER PUSH2 0x2131 JUMP JUMPDEST SWAP1 DUP3 MLOAD PUSH2 0xAA4 DUP2 PUSH2 0x2024 JUMP JUMPDEST PUSH1 0x42 DUP2 MSTORE DUP6 DUP2 ADD SWAP2 PUSH1 0x60 CALLDATASIZE DUP5 CALLDATACOPY DUP2 MLOAD ISZERO PUSH2 0xC40 JUMPI PUSH1 0x30 DUP4 MSTORE8 DUP2 MLOAD PUSH1 0x1 SWAP1 DUP2 LT ISZERO PUSH2 0xC2B JUMPI PUSH1 0x78 PUSH1 0x21 DUP5 ADD MSTORE8 PUSH1 0x41 SWAP1 JUMPDEST DUP1 DUP3 GT PUSH2 0xBBE JUMPI POP POP PUSH2 0xB7D JUMPI PUSH1 0x48 PUSH2 0xB50 SWAP4 DUP6 SWAP4 PUSH2 0xB5F SWAP4 PUSH2 0xB79 SWAP8 MLOAD SWAP7 DUP8 SWAP4 PUSH23 0x20B1B1B2B9B9A1B7B73A3937B61D1030B1B1B7BAB73A1 PUSH1 0x4D SHL DUP13 DUP7 ADD MSTORE PUSH2 0xB27 DUP13 DUP3 MLOAD SWAP3 DUP4 SWAP2 PUSH1 0x37 DUP10 ADD SWAP2 ADD PUSH2 0x1FBB JUMP JUMPDEST DUP5 ADD SWAP2 PUSH17 0x1034B99036B4B9B9B4B733903937B6329 PUSH1 0x7D SHL PUSH1 0x37 DUP5 ADD MSTORE MLOAD DUP1 SWAP4 DUP7 DUP5 ADD SWAP1 PUSH2 0x1FBB JUMP JUMPDEST ADD SUB PUSH1 0x28 DUP2 ADD DUP6 MSTORE ADD DUP4 PUSH2 0x2040 JUMP JUMPDEST MLOAD SWAP4 DUP5 SWAP4 PUSH3 0x461BCD PUSH1 0xE5 SHL DUP6 MSTORE DUP5 ADD MSTORE PUSH1 0x24 DUP4 ADD SWAP1 PUSH2 0x2062 JUMP JUMPDEST SUB SWAP1 REVERT JUMPDEST PUSH1 0x64 DUP6 DUP8 DUP1 DUP8 MLOAD SWAP3 PUSH3 0x461BCD PUSH1 0xE5 SHL DUP5 MSTORE DUP4 ADD MSTORE PUSH1 0x24 DUP3 ADD MSTORE PUSH32 0x537472696E67733A20686578206C656E67746820696E73756666696369656E74 PUSH1 0x44 DUP3 ADD MSTORE REVERT JUMPDEST SWAP1 SWAP2 PUSH1 0xF DUP2 AND PUSH1 0x10 DUP2 LT ISZERO PUSH2 0xC16 JUMPI PUSH16 0x181899199A1A9B1B9C1CB0B131B232B3 PUSH1 0x81 SHL SWAP1 BYTE PUSH2 0xBED DUP5 DUP7 PUSH2 0x2120 JUMP JUMPDEST MSTORE8 DUP8 SHR SWAP2 DUP1 ISZERO PUSH2 0xC01 JUMPI PUSH1 0x0 NOT ADD SWAP1 PUSH2 0xAD3 JUMP JUMPDEST PUSH1 0x11 DUP9 PUSH4 0x4E487B71 PUSH1 0xE0 SHL PUSH1 0x0 MSTORE MSTORE PUSH1 0x24 PUSH1 0x0 REVERT JUMPDEST PUSH1 0x32 DUP10 PUSH4 0x4E487B71 PUSH1 0xE0 SHL PUSH1 0x0 MSTORE MSTORE PUSH1 0x24 PUSH1 0x0 REVERT JUMPDEST PUSH1 0x32 DUP8 PUSH4 0x4E487B71 PUSH1 0xE0 SHL PUSH1 0x0 MSTORE MSTORE PUSH1 0x24 PUSH1 0x0 REVERT JUMPDEST PUSH1 0x32 DUP7 PUSH4 0x4E487B71 PUSH1 0xE0 SHL PUSH1 0x0 MSTORE MSTORE PUSH1 0x24 PUSH1 0x0 REVERT JUMPDEST DUP4 DUP4 CALLVALUE PUSH2 0x23D JUMPI PUSH1 0x20 DUP1 PUSH1 0x3 NOT CALLDATASIZE ADD SLT PUSH2 0x31C JUMPI PUSH2 0xC71 PUSH2 0x1C80 JUMP JUMPDEST SWAP2 PUSH2 0xC7A PUSH2 0x1CE3 JUMP JUMPDEST PUSH1 0x0 DUP1 MLOAD PUSH1 0x20 PUSH2 0x268A DUP4 CODECOPY DUP2 MLOAD SWAP2 MSTORE SWAP3 DUP4 DUP6 MSTORE PUSH1 0x2 DUP4 MSTORE DUP2 DUP6 KECCAK256 SWAP4 PUSH1 0x1 DUP1 PUSH1 0xA0 SHL SUB DUP1 SWAP3 AND SWAP5 DUP6 PUSH1 0x0 MSTORE DUP5 MSTORE PUSH1 0xFF DUP4 PUSH1 0x0 KECCAK256 SLOAD AND PUSH2 0xE1E JUMPI DUP5 DUP7 MSTORE DUP7 DUP5 MSTORE PUSH9 0x56BC75E2D63100000 DUP4 DUP8 KECCAK256 SLOAD LT PUSH2 0xDE6 JUMPI DUP1 PUSH1 0x0 MSTORE PUSH1 0x2 DUP5 MSTORE DUP3 PUSH1 0x0 KECCAK256 DUP6 PUSH1 0x0 MSTORE DUP5 MSTORE PUSH1 0xFF DUP4 PUSH1 0x0 KECCAK256 SLOAD AND ISZERO PUSH2 0xD97 JUMPI JUMPDEST POP PUSH1 0x9 SLOAD PUSH9 0x10000000000000000 DUP2 LT ISZERO PUSH2 0xD84 JUMPI SWAP1 PUSH2 0xD35 DUP3 PUSH1 0x1 PUSH32 0x9000B209805850A65058F21361A9978CB30F1413ED555553AB52A59B440B5D99 SWAP8 SWAP9 SWAP10 SWAP5 ADD PUSH1 0x9 SSTORE PUSH2 0x1C96 JUMP JUMPDEST DUP2 SWAP3 SWAP2 SLOAD SWAP1 PUSH1 0x3 SHL SWAP2 DUP9 DUP4 SHL SWAP3 SHL NOT AND OR SWAP1 SSTORE DUP5 DUP7 MSTORE PUSH1 0x5 DUP4 MSTORE DUP2 DUP7 KECCAK256 PUSH1 0x1 PUSH1 0xFF NOT DUP3 SLOAD AND OR SWAP1 SSTORE DUP1 DUP4 MSTORE PUSH2 0xD6F DUP3 DUP8 KECCAK256 SLOAD PUSH1 0xA SLOAD PUSH2 0x20FD JUMP JUMPDEST PUSH1 0xA SSTORE DUP5 DUP7 MSTORE DUP3 MSTORE DUP1 DUP6 KECCAK256 SLOAD SWAP1 MLOAD SWAP1 DUP2 MSTORE LOG2 DUP1 RETURN JUMPDEST PUSH4 0x4E487B71 PUSH1 0xE0 SHL DUP7 MSTORE PUSH1 0x41 DUP8 MSTORE PUSH1 0x24 DUP7 REVERT JUMPDEST DUP1 PUSH1 0x0 MSTORE PUSH1 0x2 DUP5 MSTORE DUP3 PUSH1 0x0 KECCAK256 DUP6 PUSH1 0x0 MSTORE DUP5 MSTORE DUP3 PUSH1 0x0 KECCAK256 PUSH1 0x1 PUSH1 0xFF NOT DUP3 SLOAD AND OR SWAP1 SSTORE DUP5 CALLER SWAP2 PUSH32 0x2F8788117E7EFF1D82E926EC794901D17C78024A50270940304540A733656F0D PUSH1 0x0 DUP1 LOG4 DUP7 PUSH2 0xCEB JUMP JUMPDEST DUP3 MLOAD PUSH3 0x461BCD PUSH1 0xE5 SHL DUP2 MSTORE DUP1 DUP9 ADD DUP6 SWAP1 MSTORE PUSH1 0x12 PUSH1 0x24 DUP3 ADD MSTORE PUSH18 0x496E73756666696369656E74207374616B65 PUSH1 0x70 SHL PUSH1 0x44 DUP3 ADD MSTORE PUSH1 0x64 SWAP1 REVERT JUMPDEST DUP3 MLOAD PUSH3 0x461BCD PUSH1 0xE5 SHL DUP2 MSTORE DUP1 DUP9 ADD DUP6 SWAP1 MSTORE PUSH1 0x11 PUSH1 0x24 DUP3 ADD MSTORE PUSH17 0x20B63932B0B23C903B30B634B230BA37B9 PUSH1 0x79 SHL PUSH1 0x44 DUP3 ADD MSTORE PUSH1 0x64 SWAP1 REVERT JUMPDEST SWAP1 POP CALLVALUE PUSH2 0x31C JUMPI DUP3 PUSH1 0x3 NOT CALLDATASIZE ADD SLT PUSH2 0x31C JUMPI PUSH2 0xE6F PUSH2 0x1CE3 JUMP JUMPDEST PUSH1 0xC SLOAD PUSH3 0x15180 DUP2 ADD DUP1 SWAP2 GT PUSH2 0xF38 JUMPI TIMESTAMP LT PUSH2 0xF01 JUMPI PUSH1 0x1 SLOAD SWAP1 PUSH1 0xFF DUP3 AND ISZERO PUSH2 0xEC7 JUMPI POP PUSH1 0xFF NOT AND PUSH1 0x1 SSTORE MLOAD CALLER DUP2 MSTORE PUSH32 0x5DB9EE0A495BF2E6FF9C91A7834C1BA4FDD244A5E8AA4E537BD38AEAE4B073AA SWAP1 PUSH1 0x20 SWAP1 LOG1 DUP1 RETURN JUMPDEST PUSH1 0x64 SWAP1 PUSH1 0x20 DUP5 MLOAD SWAP2 PUSH3 0x461BCD PUSH1 0xE5 SHL DUP4 MSTORE DUP3 ADD MSTORE PUSH1 0x14 PUSH1 0x24 DUP3 ADD MSTORE PUSH20 0x14185D5CD8589B194E881B9BDD081C185D5CD959 PUSH1 0x62 SHL PUSH1 0x44 DUP3 ADD MSTORE REVERT JUMPDEST PUSH1 0x20 PUSH1 0x64 SWAP3 MLOAD SWAP2 PUSH3 0x461BCD PUSH1 0xE5 SHL DUP4 MSTORE DUP3 ADD MSTORE PUSH1 0x12 PUSH1 0x24 DUP3 ADD MSTORE PUSH18 0xC8D1A0819195B185E481C995C5D5A5C9959 PUSH1 0x72 SHL PUSH1 0x44 DUP3 ADD MSTORE REVERT JUMPDEST PUSH4 0x4E487B71 PUSH1 0xE0 SHL DUP5 MSTORE PUSH1 0x11 DUP3 MSTORE PUSH1 0x24 DUP5 REVERT JUMPDEST SWAP1 POP CALLVALUE PUSH2 0x31C JUMPI PUSH1 0x20 SWAP2 DUP3 PUSH1 0x3 NOT CALLDATASIZE ADD SLT PUSH2 0x10AD JUMPI PUSH2 0xF68 PUSH2 0x1C80 JUMP JUMPDEST SWAP3 PUSH2 0xF71 PUSH2 0x1CE3 JUMP JUMPDEST PUSH1 0x0 DUP1 MLOAD PUSH1 0x20 PUSH2 0x268A DUP4 CODECOPY DUP2 MLOAD SWAP2 MSTORE DUP1 DUP7 MSTORE PUSH1 0x2 DUP3 MSTORE DUP3 DUP7 KECCAK256 PUSH1 0x1 PUSH1 0x1 PUSH1 0xA0 SHL SUB SWAP1 SWAP6 AND PUSH1 0x0 DUP2 DUP2 MSTORE SWAP6 DUP4 MSTORE SWAP5 DUP4 SWAP1 KECCAK256 SLOAD PUSH1 0xFF AND ISZERO PUSH2 0x107B JUMPI SWAP1 DUP2 DUP5 SWAP3 PUSH1 0x0 MSTORE PUSH1 0x2 DUP3 MSTORE DUP4 PUSH1 0x0 KECCAK256 DUP7 PUSH1 0x0 MSTORE DUP3 MSTORE PUSH1 0xFF DUP5 PUSH1 0x0 KECCAK256 SLOAD AND PUSH2 0x102F JUMPI JUMPDEST POP DUP5 DUP7 MSTORE PUSH1 0x5 DUP2 MSTORE DUP3 DUP7 KECCAK256 DUP1 SLOAD PUSH1 0xFF NOT AND SWAP1 SSTORE MSTORE DUP4 KECCAK256 SLOAD PUSH1 0xA SLOAD SWAP1 DUP2 SUB SWAP2 SWAP1 DUP3 GT PUSH2 0x101C JUMPI POP PUSH1 0xA SSTORE PUSH32 0xE1434E25D6611E0DB941968FDC97811C982AC1602E951637D206F5FDDA9DD8F1 DUP3 DUP1 LOG2 DUP1 RETURN JUMPDEST PUSH4 0x4E487B71 PUSH1 0xE0 SHL DUP5 MSTORE PUSH1 0x11 SWAP1 MSTORE PUSH1 0x24 DUP4 REVERT JUMPDEST DUP1 PUSH1 0x0 MSTORE PUSH1 0x2 DUP3 MSTORE DUP4 PUSH1 0x0 KECCAK256 DUP7 PUSH1 0x0 MSTORE DUP3 MSTORE DUP4 PUSH1 0x0 KECCAK256 PUSH1 0xFF NOT DUP2 SLOAD AND SWAP1 SSTORE DUP6 CALLER SWAP2 PUSH32 0xF6391F5C32D9C69D2A47EA670B442974B53935D1EDC7FD64EB21E047A839171B PUSH1 0x0 DUP1 LOG4 CODESIZE PUSH2 0xFCC JUMP JUMPDEST POP SWAP1 MLOAD PUSH3 0x461BCD PUSH1 0xE5 SHL DUP2 MSTORE SWAP2 DUP3 ADD MSTORE PUSH1 0xD PUSH1 0x24 DUP3 ADD MSTORE PUSH13 0x2737BA103B30B634B230BA37B9 PUSH1 0x99 SHL PUSH1 0x44 DUP3 ADD MSTORE PUSH1 0x64 SWAP1 REVERT JUMPDEST DUP4 DUP1 REVERT JUMPDEST DUP4 SWAP2 POP CALLVALUE PUSH2 0x23D JUMPI DUP3 PUSH1 0x3 NOT CALLDATASIZE ADD SLT PUSH2 0x23D JUMPI PUSH2 0x10CC PUSH2 0x1C6A JUMP JUMPDEST SWAP1 CALLER PUSH1 0x1 PUSH1 0x1 PUSH1 0xA0 SHL SUB DUP4 AND SUB PUSH2 0x10E8 JUMPI SWAP1 PUSH2 0x37E SWAP2 CALLDATALOAD PUSH2 0x2087 JUMP JUMPDEST PUSH1 0x84 SWAP1 PUSH1 0x20 DUP6 MLOAD SWAP2 PUSH3 0x461BCD PUSH1 0xE5 SHL DUP4 MSTORE DUP3 ADD MSTORE PUSH1 0x2F PUSH1 0x24 DUP3 ADD MSTORE PUSH32 0x416363657373436F6E74726F6C3A2063616E206F6E6C792072656E6F756E6365 PUSH1 0x44 DUP3 ADD MSTORE PUSH15 0x103937B632B9903337B91039B2B633 PUSH1 0x89 SHL PUSH1 0x64 DUP3 ADD MSTORE REVERT JUMPDEST SWAP1 POP CALLVALUE PUSH2 0x31C JUMPI PUSH1 0x20 CALLDATASIZE PUSH1 0x3 NOT ADD SLT PUSH2 0x31C JUMPI CALLDATALOAD SWAP2 PUSH1 0x9 SLOAD DUP4 LT ISZERO PUSH2 0x2A2 JUMPI POP PUSH2 0x116E PUSH1 0x20 SWAP3 PUSH2 0x1C96 JUMP JUMPDEST SWAP1 SLOAD SWAP2 MLOAD SWAP2 PUSH1 0x1 DUP1 PUSH1 0xA0 SHL SUB SWAP2 PUSH1 0x3 SHL SHR AND DUP2 MSTORE RETURN JUMPDEST SWAP2 SWAP1 POP CALLVALUE PUSH2 0x31C JUMPI PUSH1 0x20 DUP1 PUSH1 0x3 NOT CALLDATASIZE ADD SLT PUSH2 0x10AD JUMPI DUP3 CALLDATALOAD SWAP2 PUSH1 0x0 DUP1 MLOAD PUSH1 0x20 PUSH2 0x268A DUP4 CODECOPY DUP2 MLOAD SWAP2 MSTORE DUP6 MSTORE PUSH1 0x2 DUP3 MSTORE DUP1 DUP6 KECCAK256 CALLER PUSH1 0x0 MSTORE DUP3 MSTORE PUSH1 0xFF DUP2 PUSH1 0x0 KECCAK256 SLOAD AND DUP1 PUSH2 0x154B JUMPI JUMPDEST ISZERO PUSH2 0x1513 JUMPI DUP3 DUP6 MSTORE PUSH1 0x3 DUP3 MSTORE DUP1 DUP6 KECCAK256 SWAP4 PUSH1 0x7 DUP6 ADD SWAP5 PUSH1 0xFF DUP7 SLOAD AND PUSH1 0x5 DUP2 LT ISZERO PUSH2 0x1500 JUMPI PUSH2 0x14CD JUMPI PUSH1 0x9 DUP2 ADD CALLER PUSH1 0x0 MSTORE DUP1 DUP6 MSTORE PUSH1 0xFF DUP5 PUSH1 0x0 KECCAK256 SLOAD AND PUSH2 0x1496 JUMPI CALLER PUSH1 0x0 MSTORE DUP5 MSTORE DUP3 PUSH1 0x0 KECCAK256 SWAP6 PUSH1 0x5 PUSH1 0x8 PUSH1 0x1 SWAP4 PUSH1 0xFF NOT SWAP10 DUP6 DUP12 DUP3 SLOAD AND OR SWAP1 SSTORE ADD PUSH2 0x122F DUP2 SLOAD PUSH2 0x22FF JUMP JUMPDEST DUP1 SWAP2 SSTORE CALLER DUP9 PUSH32 0xECE1EDC66E39A51648EFD8BD2A8E900EF31ED2582554808AE7D38D47C447F227 DUP13 DUP1 LOG3 LT ISZERO PUSH2 0x1262 JUMPI DUP8 DUP1 RETURN JUMPDEST DUP2 DUP8 DUP3 SLOAD AND OR SWAP1 SSTORE DUP5 DUP8 MSTORE PUSH1 0x3 DUP5 MSTORE DUP3 DUP8 KECCAK256 SWAP6 PUSH1 0x7 DUP8 ADD SWAP1 DUP2 SLOAD PUSH1 0xFF DUP2 AND PUSH1 0x5 DUP2 LT ISZERO PUSH2 0x1483 JUMPI DUP5 SUB PUSH2 0x1450 JUMPI AND PUSH1 0x2 SWAP1 DUP2 OR SWAP1 SWAP2 SSTORE DUP7 ADD SLOAD PUSH1 0x1 PUSH1 0x1 PUSH1 0xA0 SHL SUB SWAP3 SWAP1 DUP4 AND DUP1 PUSH2 0x1410 JUMPI POP PUSH1 0x3 DUP8 ADD DUP1 SLOAD DUP10 SWAP2 SWAP1 PUSH1 0x6 PUSH1 0x21 PUSH1 0x99 SHL ADD SWAP1 DUP2 EXTCODESIZE ISZERO PUSH2 0x10AD JUMPI DUP4 SWAP2 PUSH1 0x24 DUP4 SWAP3 DUP11 MLOAD SWAP5 DUP6 SWAP4 DUP5 SWAP3 PUSH4 0x2E1A7D4D PUSH1 0xE0 SHL DUP5 MSTORE DUP11 DUP5 ADD MSTORE GAS CALL DUP1 ISZERO PUSH2 0x1406 JUMPI SWAP1 DUP4 SWAP2 PUSH2 0x13F2 JUMPI JUMPDEST POP DUP1 DUP1 SWAP3 DUP8 DUP8 DUP14 ADD SLOAD AND SWAP1 SLOAD SWAP1 DUP3 DUP3 ISZERO PUSH2 0x13E9 JUMPI JUMPDEST CALL ISZERO PUSH2 0x13DF JUMPI JUMPDEST DUP8 DUP4 PUSH1 0xD SLOAD AND DUP1 PUSH2 0x135B JUMPI JUMPDEST POP POP POP PUSH32 0xBA813B1258AC1D27E15C4FB7D7619227442316B980B6A904AF803DBF43FD3A8E SWAP4 SWAP3 SWAP2 PUSH1 0x3 SWAP2 DUP8 ADD SLOAD AND SWAP6 ADD SLOAD SWAP1 MLOAD SWAP1 DUP2 MSTORE LOG3 CODESIZE DUP1 DUP1 DUP1 DUP1 DUP1 DUP1 DUP8 DUP1 RETURN JUMPDEST DUP2 SWAP1 DUP6 DUP6 DUP12 ADD SLOAD AND DUP3 DUP9 MLOAD DUP11 DUP2 ADD SWAP3 PUSH4 0x507CD30F PUSH1 0xE0 SHL DUP5 MSTORE PUSH1 0x24 DUP3 ADD MSTORE PUSH1 0x14 PUSH1 0x44 DUP3 ADD MSTORE PUSH1 0x44 DUP2 MSTORE PUSH2 0x138D DUP2 PUSH2 0x2024 JUMP JUMPDEST MLOAD SWAP3 GAS CALL PUSH2 0x1399 PUSH2 0x24B0 JUMP JUMPDEST POP ISZERO PUSH2 0x13A6 JUMPI DUP8 DUP2 PUSH2 0x1319 JUMP JUMPDEST DUP4 MLOAD PUSH3 0x461BCD PUSH1 0xE5 SHL DUP2 MSTORE SWAP1 DUP2 ADD DUP6 SWAP1 MSTORE PUSH1 0x13 PUSH1 0x24 DUP3 ADD MSTORE PUSH19 0x141BDA5B9D1CC8185DD85C990819985A5B1959 PUSH1 0x6A SHL PUSH1 0x44 DUP3 ADD MSTORE PUSH1 0x64 SWAP1 REVERT JUMPDEST DUP4 MLOAD RETURNDATASIZE DUP10 DUP3 RETURNDATACOPY RETURNDATASIZE SWAP1 REVERT JUMPDEST POP PUSH2 0x8FC PUSH2 0x1306 JUMP JUMPDEST PUSH2 0x13FB SWAP1 PUSH2 0x1FDE JUMP JUMPDEST PUSH2 0x23D JUMPI DUP2 CODESIZE PUSH2 0x12F1 JUMP JUMPDEST DUP8 MLOAD RETURNDATASIZE DUP6 DUP3 RETURNDATACOPY RETURNDATASIZE SWAP1 REVERT JUMPDEST PUSH2 0x144B SWAP1 DUP5 DUP5 DUP11 ADD SLOAD AND SWAP1 PUSH1 0x3 DUP11 ADD SLOAD DUP8 MLOAD SWAP3 PUSH4 0xA9059CBB PUSH1 0xE0 SHL DUP11 DUP6 ADD MSTORE PUSH1 0x24 DUP5 ADD MSTORE PUSH1 0x44 DUP4 ADD MSTORE PUSH1 0x44 DUP3 MSTORE PUSH2 0x1446 DUP3 PUSH2 0x2024 JUMP JUMPDEST PUSH2 0x23A8 JUMP JUMPDEST PUSH2 0x130D JUMP JUMPDEST DUP6 MLOAD PUSH3 0x461BCD PUSH1 0xE5 SHL DUP2 MSTORE DUP1 DUP7 ADD DUP9 SWAP1 MSTORE PUSH1 0xD PUSH1 0x24 DUP3 ADD MSTORE PUSH13 0x139BDD081D985B1A59185D1959 PUSH1 0x9A SHL PUSH1 0x44 DUP3 ADD MSTORE PUSH1 0x64 SWAP1 REVERT JUMPDEST PUSH4 0x4E487B71 PUSH1 0xE0 SHL DUP12 MSTORE PUSH1 0x21 DUP7 MSTORE PUSH1 0x24 DUP12 REVERT JUMPDEST DUP4 MLOAD PUSH3 0x461BCD PUSH1 0xE5 SHL DUP2 MSTORE DUP1 DUP5 ADD DUP7 SWAP1 MSTORE PUSH1 0x11 PUSH1 0x24 DUP3 ADD MSTORE PUSH17 0x105B1C9958591E481D985B1A59185D1959 PUSH1 0x7A SHL PUSH1 0x44 DUP3 ADD MSTORE PUSH1 0x64 SWAP1 REVERT JUMPDEST POP DUP3 PUSH1 0x64 SWAP3 MLOAD SWAP2 PUSH3 0x461BCD PUSH1 0xE5 SHL DUP4 MSTORE DUP3 ADD MSTORE PUSH1 0xE PUSH1 0x24 DUP3 ADD MSTORE PUSH14 0x496E76616C696420737461747573 PUSH1 0x90 SHL PUSH1 0x44 DUP3 ADD MSTORE REVERT JUMPDEST PUSH4 0x4E487B71 PUSH1 0xE0 SHL DUP9 MSTORE PUSH1 0x21 DUP4 MSTORE PUSH1 0x24 DUP9 REVERT JUMPDEST MLOAD PUSH3 0x461BCD PUSH1 0xE5 SHL DUP2 MSTORE SWAP3 DUP4 ADD MSTORE POP PUSH1 0x14 PUSH1 0x24 DUP3 ADD MSTORE PUSH20 0x2737BA1030B1BA34BB32903B30B634B230BA37B9 PUSH1 0x61 SHL PUSH1 0x44 DUP3 ADD MSTORE PUSH1 0x64 SWAP1 REVERT JUMPDEST POP CALLER DUP6 MSTORE PUSH1 0x5 DUP3 MSTORE PUSH1 0xFF DUP2 DUP7 KECCAK256 SLOAD AND PUSH2 0x11C8 JUMP JUMPDEST POP POP CALLVALUE PUSH2 0x23D JUMPI DUP2 PUSH1 0x3 NOT CALLDATASIZE ADD SLT PUSH2 0x23D JUMPI PUSH1 0xD SLOAD SWAP1 MLOAD PUSH1 0x1 PUSH1 0x1 PUSH1 0xA0 SHL SUB SWAP1 SWAP2 AND DUP2 MSTORE PUSH1 0x20 SWAP1 RETURN JUMPDEST POP POP CALLVALUE PUSH2 0x23D JUMPI PUSH1 0x20 CALLDATASIZE PUSH1 0x3 NOT ADD SLT PUSH2 0x23D JUMPI PUSH1 0x20 SWAP2 DUP2 SWAP1 PUSH1 0x1 PUSH1 0x1 PUSH1 0xA0 SHL SUB PUSH2 0x15B0 PUSH2 0x1C80 JUMP JUMPDEST AND DUP2 MSTORE PUSH1 0x8 DUP5 MSTORE KECCAK256 SLOAD SWAP1 MLOAD SWAP1 DUP2 MSTORE RETURN JUMPDEST SWAP1 POP CALLVALUE PUSH2 0x31C JUMPI DUP2 PUSH1 0x3 NOT CALLDATASIZE ADD SLT PUSH2 0x31C JUMPI CALLDATALOAD SWAP1 PUSH2 0x15DC PUSH2 0x1C6A JUMP JUMPDEST SWAP1 DUP3 DUP5 MSTORE PUSH1 0x2 PUSH1 0x20 MSTORE PUSH2 0x15F4 PUSH1 0x1 DUP3 DUP7 KECCAK256 ADD SLOAD PUSH2 0x1EB0 JUMP JUMPDEST DUP3 PUSH1 0x0 MSTORE PUSH1 0x2 PUSH1 0x20 MSTORE DUP1 PUSH1 0x0 KECCAK256 SWAP2 PUSH1 0x1 DUP1 PUSH1 0xA0 SHL SUB AND SWAP2 DUP3 PUSH1 0x0 MSTORE PUSH1 0x20 MSTORE PUSH1 0xFF DUP2 PUSH1 0x0 KECCAK256 SLOAD AND ISZERO PUSH2 0x1623 JUMPI DUP4 DUP1 RETURN JUMPDEST DUP3 PUSH1 0x0 MSTORE PUSH1 0x2 PUSH1 0x20 MSTORE DUP1 PUSH1 0x0 KECCAK256 DUP3 PUSH1 0x0 MSTORE PUSH1 0x20 MSTORE PUSH1 0x0 KECCAK256 PUSH1 0x1 PUSH1 0xFF NOT DUP3 SLOAD AND OR SWAP1 SSTORE CALLER SWAP2 PUSH32 0x2F8788117E7EFF1D82E926EC794901D17C78024A50270940304540A733656F0D PUSH1 0x0 DUP1 LOG4 CODESIZE DUP1 DUP1 DUP4 DUP1 RETURN JUMPDEST SWAP1 POP CALLVALUE PUSH2 0x31C JUMPI PUSH1 0x20 CALLDATASIZE PUSH1 0x3 NOT ADD SLT PUSH2 0x31C JUMPI DUP2 PUSH1 0x20 SWAP4 PUSH1 0x1 SWAP3 CALLDATALOAD DUP2 MSTORE PUSH1 0x2 DUP6 MSTORE KECCAK256 ADD SLOAD SWAP1 MLOAD SWAP1 DUP2 MSTORE RETURN JUMPDEST POP POP CALLVALUE PUSH2 0x23D JUMPI DUP2 PUSH1 0x3 NOT CALLDATASIZE ADD SLT PUSH2 0x23D JUMPI PUSH1 0x20 SWAP1 MLOAD PUSH1 0x14 DUP2 MSTORE RETURN JUMPDEST POP POP CALLVALUE PUSH2 0x23D JUMPI DUP2 PUSH1 0x3 NOT CALLDATASIZE ADD SLT PUSH2 0x23D JUMPI PUSH1 0x20 SWAP1 MLOAD PUSH32 0xBF233DD2AAFEB4D50879C4AA5C81E96D92F6E6945C906A58F9F2D1C1631B4B26 DUP2 MSTORE RETURN JUMPDEST POP POP CALLVALUE PUSH2 0x23D JUMPI DUP2 PUSH1 0x3 NOT CALLDATASIZE ADD SLT PUSH2 0x23D JUMPI PUSH1 0x20 SWAP1 PUSH1 0xB SLOAD SWAP1 MLOAD SWAP1 DUP2 MSTORE RETURN JUMPDEST DUP4 DUP4 DUP1 PUSH1 0x3 NOT CALLDATASIZE ADD SLT PUSH2 0x23D JUMPI DUP3 CALLDATALOAD PUSH2 0x172B PUSH2 0x1C6A JUMP JUMPDEST SWAP1 PUSH2 0x1734 PUSH2 0x2352 JUMP JUMPDEST PUSH2 0x173C PUSH2 0x230E JUMP JUMPDEST PUSH7 0x2386F26FC10000 CALLVALUE LT ISZERO DUP1 PUSH2 0x1953 JUMPI JUMPDEST PUSH2 0x1756 SWAP1 PUSH2 0x2240 JUMP JUMPDEST CALLER DUP5 MSTORE PUSH1 0x20 SWAP2 PUSH1 0x8 DUP4 MSTORE DUP4 DUP6 KECCAK256 SLOAD PUSH1 0x3C DUP2 ADD DUP1 SWAP2 GT PUSH2 0x1940 JUMPI PUSH2 0x177B SWAP1 TIMESTAMP LT ISZERO PUSH2 0x2284 JUMP JUMPDEST CALLER DUP6 MSTORE PUSH1 0x8 DUP4 MSTORE DUP4 DUP6 KECCAK256 TIMESTAMP SWAP1 SSTORE PUSH1 0x1 PUSH1 0x1 PUSH1 0xA0 SHL SUB DUP2 DUP2 AND SWAP2 SWAP1 DUP3 ISZERO PUSH2 0x1909 JUMPI PUSH2 0x17B2 SWAP1 DUP5 DUP9 MSTORE PUSH1 0x6 DUP7 MSTORE DUP7 DUP9 KECCAK256 SLOAD AND ISZERO ISZERO PUSH2 0x22BF JUMP JUMPDEST PUSH1 0xB SLOAD DUP6 MLOAD SWAP1 DUP6 DUP3 ADD SWAP3 PUSH1 0x1 PUSH1 0x1 PUSH1 0x60 SHL SUB NOT SWAP1 DUP2 CALLER PUSH1 0x60 SHL AND DUP6 MSTORE PUSH1 0x60 SHL AND PUSH1 0x34 DUP4 ADD MSTORE DUP8 PUSH1 0x48 DUP4 ADD MSTORE CALLVALUE PUSH1 0x5C DUP4 ADD MSTORE DUP5 PUSH1 0x7C DUP4 ADD MSTORE PUSH1 0x9C DUP3 ADD MSTORE TIMESTAMP PUSH1 0xBC DUP3 ADD MSTORE PUSH1 0xBC DUP2 MSTORE PUSH2 0x1801 DUP2 PUSH2 0x2008 JUMP JUMPDEST MLOAD SWAP1 KECCAK256 SWAP3 DUP4 DUP7 MSTORE PUSH1 0x3 DUP2 MSTORE DUP5 DUP7 KECCAK256 SWAP5 PUSH1 0x1 PUSH1 0x1 PUSH1 0x60 SHL SUB PUSH1 0xA0 SHL CALLER DUP2 DUP9 SLOAD AND OR DUP8 SSTORE PUSH1 0x1 DUP8 ADD DUP5 DUP3 DUP3 SLOAD AND OR SWAP1 SSTORE PUSH1 0x2 DUP8 ADD SWAP1 DUP2 SLOAD AND SWAP1 SSTORE CALLVALUE PUSH1 0x3 DUP8 ADD SSTORE DUP4 DUP9 DUP8 ADD SSTORE TIMESTAMP PUSH1 0x5 DUP8 ADD SSTORE PUSH1 0xB SLOAD SWAP8 PUSH2 0x1857 DUP10 PUSH2 0x22FF JUMP JUMPDEST PUSH1 0xB SSTORE PUSH1 0x6 DUP8 ADD SWAP9 DUP10 SSTORE PUSH1 0x7 DUP8 ADD DUP1 SLOAD PUSH1 0xFF NOT AND SWAP1 SSTORE PUSH1 0x6 PUSH1 0x21 PUSH1 0x99 SHL ADD DUP1 EXTCODESIZE ISZERO PUSH2 0x1905 JUMPI DUP9 SWAP1 DUP4 MLOAD SWAP3 DUP4 DUP1 SWAP3 PUSH4 0xD0E30DB PUSH1 0xE4 SHL DUP3 MSTORE CALLVALUE SWAP1 GAS CALL DUP1 ISZERO PUSH2 0x18FB JUMPI PUSH2 0x18E6 JUMPI JUMPDEST POP DUP4 PUSH2 0x5E5 SWAP8 SWAP9 SLOAD SWAP2 DUP1 MLOAD SWAP4 PUSH1 0x0 DUP6 MSTORE CALLVALUE SWAP1 DUP6 ADD MSTORE DUP4 ADD MSTORE PUSH1 0x60 DUP3 ADD MSTORE DUP4 PUSH32 0x9425D6201E14257A0C7CD9DEFE6590776DFB0968B02229C36714B8FC7C7F07A8 PUSH1 0x80 CALLER SWAP4 LOG4 PUSH2 0x2589 JUMP JUMPDEST PUSH2 0x5E5 SWAP8 PUSH2 0x18F4 DUP7 SWAP3 PUSH2 0x1FDE JUMP JUMPDEST SWAP8 POP PUSH2 0x189D JUMP JUMPDEST DUP3 MLOAD RETURNDATASIZE DUP11 DUP3 RETURNDATACOPY RETURNDATASIZE SWAP1 REVERT JUMPDEST DUP9 DUP1 REVERT JUMPDEST DUP6 MLOAD PUSH3 0x461BCD PUSH1 0xE5 SHL DUP2 MSTORE DUP1 DUP10 ADD DUP7 SWAP1 MSTORE PUSH1 0x11 PUSH1 0x24 DUP3 ADD MSTORE PUSH17 0x125B9D985B1A59081C9958DA5C1A595B9D PUSH1 0x7A SHL PUSH1 0x44 DUP3 ADD MSTORE PUSH1 0x64 SWAP1 REVERT JUMPDEST PUSH4 0x4E487B71 PUSH1 0xE0 SHL DUP7 MSTORE PUSH1 0x11 DUP8 MSTORE PUSH1 0x24 DUP7 REVERT JUMPDEST POP PUSH9 0x3635C9ADC5DEA00000 CALLVALUE GT ISZERO PUSH2 0x174D JUMP JUMPDEST SWAP1 POP CALLVALUE PUSH2 0x31C JUMPI PUSH1 0x20 CALLDATASIZE PUSH1 0x3 NOT ADD SLT PUSH2 0x31C JUMPI CALLDATALOAD DUP3 MSTORE PUSH1 0x6 PUSH1 0x20 SWAP1 DUP2 MSTORE SWAP2 DUP2 SWAP1 KECCAK256 SLOAD SWAP1 MLOAD PUSH1 0x1 PUSH1 0x1 PUSH1 0xA0 SHL SUB SWAP1 SWAP2 AND DUP2 MSTORE RETURN JUMPDEST POP POP CALLVALUE PUSH2 0x23D JUMPI DUP2 PUSH1 0x3 NOT CALLDATASIZE ADD SLT PUSH2 0x23D JUMPI MLOAD PUSH1 0x15 PUSH1 0x21 PUSH1 0x99 SHL ADD DUP2 MSTORE PUSH1 0x20 SWAP1 RETURN JUMPDEST POP POP CALLVALUE PUSH2 0x23D JUMPI DUP2 PUSH1 0x3 NOT CALLDATASIZE ADD SLT PUSH2 0x23D JUMPI PUSH1 0x20 SWAP1 PUSH1 0xC SLOAD SWAP1 MLOAD SWAP1 DUP2 MSTORE RETURN JUMPDEST POP POP CALLVALUE PUSH2 0x23D JUMPI DUP2 PUSH1 0x3 NOT CALLDATASIZE ADD SLT PUSH2 0x23D JUMPI PUSH1 0x20 SWAP1 MLOAD PUSH2 0xE10 DUP2 MSTORE RETURN JUMPDEST POP POP CALLVALUE PUSH2 0x23D JUMPI DUP2 PUSH1 0x3 NOT CALLDATASIZE ADD SLT PUSH2 0x23D JUMPI PUSH1 0x20 SWAP1 MLOAD PUSH32 0x68E79A7BF1E0BC45D0A330C573BC367F9CF464FD326078812F301165FBDA4EF1 DUP2 MSTORE RETURN JUMPDEST SWAP1 POP CALLVALUE PUSH2 0x31C JUMPI DUP3 PUSH1 0x3 NOT CALLDATASIZE ADD SLT PUSH2 0x31C JUMPI DUP2 MLOAD PUSH4 0x41C0FAC5 PUSH1 0xE1 SHL DUP2 MSTORE PUSH1 0x15 PUSH1 0x21 PUSH1 0x99 SHL ADD SWAP3 SWAP1 PUSH1 0x20 SWAP1 DUP2 DUP2 DUP6 DUP2 DUP9 GAS STATICCALL SWAP1 DUP2 ISZERO PUSH2 0x1B0F JUMPI DUP7 SWAP2 PUSH2 0x1B54 JUMPI JUMPDEST POP DUP3 MLOAD PUSH4 0x5C03BBF5 PUSH1 0xE1 SHL DUP2 MSTORE SWAP5 DUP3 DUP7 DUP7 DUP2 DUP5 GAS STATICCALL SWAP6 DUP7 ISZERO PUSH2 0x1B4A JUMPI DUP8 SWAP7 PUSH2 0x1B19 JUMPI JUMPDEST POP DUP3 SWAP1 DUP5 MLOAD SWAP6 DUP7 DUP1 SWAP3 PUSH4 0x5CF24969 PUSH1 0xE0 SHL DUP3 MSTORE GAS STATICCALL SWAP4 DUP5 ISZERO PUSH2 0x1B0F JUMPI DUP7 SWAP5 PUSH2 0x1AD8 JUMPI JUMPDEST POP PUSH1 0x60 SWAP6 POP DUP3 MLOAD SWAP5 PUSH8 0xFFFFFFFFFFFFFFFF DUP1 SWAP3 AND DUP7 MSTORE AND SWAP1 DUP5 ADD MSTORE DUP3 ADD MSTORE RETURN JUMPDEST SWAP1 SWAP4 POP DUP2 DUP2 DUP2 RETURNDATASIZE DUP4 GT PUSH2 0x1B08 JUMPI JUMPDEST PUSH2 0x1AF0 DUP2 DUP4 PUSH2 0x2040 JUMP JUMPDEST DUP2 ADD SUB SLT PUSH2 0x1B04 JUMPI PUSH1 0x60 SWAP6 POP MLOAD SWAP3 CODESIZE PUSH2 0x1AB8 JUMP JUMPDEST DUP6 DUP1 REVERT JUMPDEST POP RETURNDATASIZE PUSH2 0x1AE6 JUMP JUMPDEST DUP4 MLOAD RETURNDATASIZE DUP9 DUP3 RETURNDATACOPY RETURNDATASIZE SWAP1 REVERT JUMPDEST DUP4 SWAP2 SWAP7 POP PUSH2 0x1B3C SWAP1 DUP3 RETURNDATASIZE DUP5 GT PUSH2 0x1B43 JUMPI JUMPDEST PUSH2 0x1B34 DUP2 DUP4 PUSH2 0x2040 JUMP JUMPDEST DUP2 ADD SWAP1 PUSH2 0x2669 JUMP JUMPDEST SWAP6 SWAP1 PUSH2 0x1A95 JUMP JUMPDEST POP RETURNDATASIZE PUSH2 0x1B2A JUMP JUMPDEST DUP5 MLOAD RETURNDATASIZE DUP10 DUP3 RETURNDATACOPY RETURNDATASIZE SWAP1 REVERT JUMPDEST PUSH2 0x1B6B SWAP2 POP DUP3 RETURNDATASIZE DUP5 GT PUSH2 0x1B43 JUMPI PUSH2 0x1B34 DUP2 DUP4 PUSH2 0x2040 JUMP JUMPDEST CODESIZE PUSH2 0x1A72 JUMP JUMPDEST SWAP1 POP CALLVALUE PUSH2 0x31C JUMPI PUSH1 0x20 CALLDATASIZE PUSH1 0x3 NOT ADD SLT PUSH2 0x31C JUMPI CALLDATALOAD SWAP1 PUSH4 0xFFFFFFFF PUSH1 0xE0 SHL DUP3 AND DUP1 SWAP3 SUB PUSH2 0x31C JUMPI PUSH1 0x20 SWAP3 POP PUSH4 0x7965DB0B PUSH1 0xE0 SHL DUP3 EQ SWAP2 DUP3 ISZERO PUSH2 0x1BB6 JUMPI JUMPDEST POP MLOAD SWAP1 ISZERO ISZERO DUP2 MSTORE RETURN JUMPDEST PUSH4 0x1FFC9A7 PUSH1 0xE0 SHL EQ SWAP2 POP CODESIZE PUSH2 0x1BAD JUMP JUMPDEST SWAP3 SWAP2 POP CALLVALUE PUSH2 0x10AD JUMPI PUSH1 0x20 CALLDATASIZE PUSH1 0x3 NOT ADD SLT PUSH2 0x10AD JUMPI DUP1 DUP3 PUSH1 0xE0 SWAP6 PUSH2 0x1C40 SWAP4 CALLDATALOAD DUP2 MSTORE PUSH1 0x3 PUSH1 0x20 MSTORE KECCAK256 SWAP1 PUSH1 0x1 DUP1 PUSH1 0xA0 SHL SUB SWAP1 DUP2 DUP4 SLOAD AND SWAP5 DUP3 PUSH1 0x1 DUP6 ADD SLOAD AND SWAP3 PUSH1 0x2 DUP6 ADD SLOAD AND SWAP1 PUSH1 0x3 DUP6 ADD SLOAD SWAP3 DUP6 ADD SLOAD SWAP4 PUSH1 0x8 PUSH1 0xFF PUSH1 0x7 DUP9 ADD SLOAD AND SWAP7 ADD SLOAD SWAP8 DUP10 MSTORE PUSH1 0x20 DUP10 ADD MSTORE DUP8 ADD MSTORE PUSH1 0x60 DUP7 ADD MSTORE PUSH1 0x80 DUP6 ADD MSTORE PUSH1 0xA0 DUP5 ADD SWAP1 PUSH2 0x1C47 JUMP JUMPDEST PUSH1 0xC0 DUP3 ADD MSTORE RETURN JUMPDEST SWAP1 PUSH1 0x5 DUP3 LT ISZERO PUSH2 0x1C54 JUMPI MSTORE JUMP JUMPDEST PUSH4 0x4E487B71 PUSH1 0xE0 SHL PUSH1 0x0 MSTORE PUSH1 0x21 PUSH1 0x4 MSTORE PUSH1 0x24 PUSH1 0x0 REVERT JUMPDEST PUSH1 0x24 CALLDATALOAD SWAP1 PUSH1 0x1 PUSH1 0x1 PUSH1 0xA0 SHL SUB DUP3 AND DUP3 SUB PUSH2 0x662 JUMPI JUMP JUMPDEST PUSH1 0x4 CALLDATALOAD SWAP1 PUSH1 0x1 PUSH1 0x1 PUSH1 0xA0 SHL SUB DUP3 AND DUP3 SUB PUSH2 0x662 JUMPI JUMP JUMPDEST PUSH1 0x9 SLOAD DUP2 LT ISZERO PUSH2 0x1CCD JUMPI PUSH1 0x9 PUSH1 0x0 MSTORE PUSH32 0x6E1540171B6C0C960B71A7020D9F60077F6AF931A8BBF590DA0223DACF75C7AF ADD SWAP1 PUSH1 0x0 SWAP1 JUMP JUMPDEST PUSH4 0x4E487B71 PUSH1 0xE0 SHL PUSH1 0x0 MSTORE PUSH1 0x32 PUSH1 0x4 MSTORE PUSH1 0x24 PUSH1 0x0 REVERT JUMPDEST CALLER PUSH1 0x0 SWAP1 DUP2 MSTORE PUSH32 0xAC33FF75C19E70FE83507DB0D683FD3465C996598DC972688B7ACE676C89077B PUSH1 0x20 SWAP1 DUP2 MSTORE PUSH1 0x40 DUP1 DUP4 KECCAK256 SLOAD SWAP1 SWAP3 SWAP1 PUSH1 0xFF AND ISZERO PUSH2 0x1D25 JUMPI POP POP POP JUMP JUMPDEST PUSH2 0x1D2E CALLER PUSH2 0x2131 JUMP JUMPDEST SWAP1 DUP1 DUP5 MLOAD SWAP1 PUSH2 0x1D3C DUP3 PUSH2 0x2024 JUMP JUMPDEST PUSH1 0x42 DUP3 MSTORE DUP5 DUP3 ADD SWAP3 PUSH1 0x60 CALLDATASIZE DUP6 CALLDATACOPY DUP3 MLOAD ISZERO PUSH2 0x1E9C JUMPI PUSH1 0x30 DUP5 MSTORE8 DUP3 MLOAD SWAP1 PUSH1 0x1 SWAP2 DUP3 LT ISZERO PUSH2 0x1E9C JUMPI SWAP1 PUSH1 0x78 PUSH1 0x21 DUP6 ADD MSTORE8 PUSH1 0x41 SWAP2 JUMPDEST DUP2 DUP4 GT PUSH2 0x1E2E JUMPI POP POP POP PUSH2 0x1DEC JUMPI PUSH1 0x48 PUSH2 0xB79 SWAP4 DUP7 SWAP4 PUSH2 0x1DD0 SWAP4 PUSH2 0x1DC1 SWAP9 MLOAD SWAP9 DUP10 SWAP4 PUSH23 0x20B1B1B2B9B9A1B7B73A3937B61D1030B1B1B7BAB73A1 PUSH1 0x4D SHL DUP11 DUP7 ADD MSTORE PUSH2 0xB27 DUP2 MLOAD DUP1 SWAP3 DUP13 PUSH1 0x37 DUP10 ADD SWAP2 ADD PUSH2 0x1FBB JUMP JUMPDEST ADD SUB PUSH1 0x28 DUP2 ADD DUP8 MSTORE ADD DUP6 PUSH2 0x2040 JUMP JUMPDEST MLOAD SWAP3 DUP4 SWAP3 PUSH3 0x461BCD PUSH1 0xE5 SHL DUP5 MSTORE PUSH1 0x4 DUP5 ADD MSTORE PUSH1 0x24 DUP4 ADD SWAP1 PUSH2 0x2062 JUMP JUMPDEST PUSH1 0x64 DUP5 DUP7 MLOAD SWAP1 PUSH3 0x461BCD PUSH1 0xE5 SHL DUP3 MSTORE DUP1 PUSH1 0x4 DUP4 ADD MSTORE PUSH1 0x24 DUP3 ADD MSTORE PUSH32 0x537472696E67733A20686578206C656E67746820696E73756666696369656E74 PUSH1 0x44 DUP3 ADD MSTORE REVERT JUMPDEST SWAP1 SWAP2 SWAP3 PUSH1 0xF DUP2 AND PUSH1 0x10 DUP2 LT ISZERO PUSH2 0x1E88 JUMPI PUSH16 0x181899199A1A9B1B9C1CB0B131B232B3 PUSH1 0x81 SHL SWAP1 BYTE PUSH2 0x1E5E DUP6 DUP8 PUSH2 0x2120 JUMP JUMPDEST MSTORE8 PUSH1 0x4 SHR SWAP3 DUP1 ISZERO PUSH2 0x1E74 JUMPI PUSH1 0x0 NOT ADD SWAP2 SWAP1 PUSH2 0x1D6D JUMP JUMPDEST PUSH4 0x4E487B71 PUSH1 0xE0 SHL DUP3 MSTORE PUSH1 0x11 PUSH1 0x4 MSTORE PUSH1 0x24 DUP3 REVERT JUMPDEST PUSH4 0x4E487B71 PUSH1 0xE0 SHL DUP4 MSTORE PUSH1 0x32 PUSH1 0x4 MSTORE PUSH1 0x24 DUP4 REVERT JUMPDEST PUSH4 0x4E487B71 PUSH1 0xE0 SHL DUP2 MSTORE PUSH1 0x32 PUSH1 0x4 MSTORE PUSH1 0x24 SWAP1 REVERT JUMPDEST PUSH1 0x0 SWAP1 DUP1 DUP3 MSTORE PUSH1 0x20 SWAP1 PUSH1 0x2 DUP3 MSTORE PUSH1 0x40 SWAP3 DUP4 DUP2 KECCAK256 CALLER DUP3 MSTORE DUP4 MSTORE PUSH1 0xFF DUP5 DUP3 KECCAK256 SLOAD AND ISZERO PUSH2 0x1EDA JUMPI POP POP POP POP JUMP JUMPDEST PUSH2 0x1EE3 CALLER PUSH2 0x2131 JUMP JUMPDEST SWAP2 DUP5 MLOAD SWAP1 PUSH2 0x1EF0 DUP3 PUSH2 0x2024 JUMP JUMPDEST PUSH1 0x42 DUP3 MSTORE DUP5 DUP3 ADD SWAP3 PUSH1 0x60 CALLDATASIZE DUP6 CALLDATACOPY DUP3 MLOAD ISZERO PUSH2 0x1E9C JUMPI PUSH1 0x30 DUP5 MSTORE8 DUP3 MLOAD SWAP1 PUSH1 0x1 SWAP2 DUP3 LT ISZERO PUSH2 0x1E9C JUMPI SWAP1 PUSH1 0x78 PUSH1 0x21 DUP6 ADD MSTORE8 PUSH1 0x41 SWAP2 JUMPDEST DUP2 DUP4 GT PUSH2 0x1F75 JUMPI POP POP POP PUSH2 0x1DEC JUMPI PUSH1 0x48 PUSH2 0xB79 SWAP4 DUP7 SWAP4 PUSH2 0x1DD0 SWAP4 PUSH2 0x1DC1 SWAP9 MLOAD SWAP9 DUP10 SWAP4 PUSH23 0x20B1B1B2B9B9A1B7B73A3937B61D1030B1B1B7BAB73A1 PUSH1 0x4D SHL DUP11 DUP7 ADD MSTORE PUSH2 0xB27 DUP2 MLOAD DUP1 SWAP3 DUP13 PUSH1 0x37 DUP10 ADD SWAP2 ADD PUSH2 0x1FBB JUMP JUMPDEST SWAP1 SWAP2 SWAP3 PUSH1 0xF DUP2 AND PUSH1 0x10 DUP2 LT ISZERO PUSH2 0x1E88 JUMPI PUSH16 0x181899199A1A9B1B9C1CB0B131B232B3 PUSH1 0x81 SHL SWAP1 BYTE PUSH2 0x1FA5 DUP6 DUP8 PUSH2 0x2120 JUMP JUMPDEST MSTORE8 PUSH1 0x4 SHR SWAP3 DUP1 ISZERO PUSH2 0x1E74 JUMPI PUSH1 0x0 NOT ADD SWAP2 SWAP1 PUSH2 0x1F21 JUMP JUMPDEST PUSH1 0x0 JUMPDEST DUP4 DUP2 LT PUSH2 0x1FCE JUMPI POP POP PUSH1 0x0 SWAP2 ADD MSTORE JUMP JUMPDEST DUP2 DUP2 ADD MLOAD DUP4 DUP3 ADD MSTORE PUSH1 0x20 ADD PUSH2 0x1FBE JUMP JUMPDEST PUSH8 0xFFFFFFFFFFFFFFFF DUP2 GT PUSH2 0x1FF2 JUMPI PUSH1 0x40 MSTORE JUMP JUMPDEST PUSH4 0x4E487B71 PUSH1 0xE0 SHL PUSH1 0x0 MSTORE PUSH1 0x41 PUSH1 0x4 MSTORE PUSH1 0x24 PUSH1 0x0 REVERT JUMPDEST PUSH1 0xE0 DUP2 ADD SWAP1 DUP2 LT PUSH8 0xFFFFFFFFFFFFFFFF DUP3 GT OR PUSH2 0x1FF2 JUMPI PUSH1 0x40 MSTORE JUMP JUMPDEST PUSH1 0x80 DUP2 ADD SWAP1 DUP2 LT PUSH8 0xFFFFFFFFFFFFFFFF DUP3 GT OR PUSH2 0x1FF2 JUMPI PUSH1 0x40 MSTORE JUMP JUMPDEST SWAP1 PUSH1 0x1F DUP1 NOT SWAP2 ADD AND DUP2 ADD SWAP1 DUP2 LT PUSH8 0xFFFFFFFFFFFFFFFF DUP3 GT OR PUSH2 0x1FF2 JUMPI PUSH1 0x40 MSTORE JUMP JUMPDEST SWAP1 PUSH1 0x20 SWAP2 PUSH2 0x207B DUP2 MLOAD DUP1 SWAP3 DUP2 DUP6 MSTORE DUP6 DUP1 DUP7 ADD SWAP2 ADD PUSH2 0x1FBB JUMP JUMPDEST PUSH1 0x1F ADD PUSH1 0x1F NOT AND ADD ADD SWAP1 JUMP JUMPDEST SWAP1 PUSH1 0x0 SWAP2 DUP1 DUP4 MSTORE PUSH1 0x2 PUSH1 0x20 MSTORE PUSH1 0x40 DUP4 KECCAK256 SWAP2 PUSH1 0x1 DUP1 PUSH1 0xA0 SHL SUB AND SWAP2 DUP3 DUP5 MSTORE PUSH1 0x20 MSTORE PUSH1 0xFF PUSH1 0x40 DUP5 KECCAK256 SLOAD AND PUSH2 0x20B8 JUMPI POP POP POP JUMP JUMPDEST DUP1 DUP4 MSTORE PUSH1 0x2 PUSH1 0x20 MSTORE PUSH1 0x40 DUP4 KECCAK256 DUP3 DUP5 MSTORE PUSH1 0x20 MSTORE PUSH1 0x40 DUP4 KECCAK256 PUSH1 0xFF NOT DUP2 SLOAD AND SWAP1 SSTORE PUSH32 0xF6391F5C32D9C69D2A47EA670B442974B53935D1EDC7FD64EB21E047A839171B CALLER SWAP4 DUP1 LOG4 JUMP JUMPDEST SWAP2 SWAP1 DUP3 ADD DUP1 SWAP3 GT PUSH2 0x210A JUMPI JUMP JUMPDEST PUSH4 0x4E487B71 PUSH1 0xE0 SHL PUSH1 0x0 MSTORE PUSH1 0x11 PUSH1 0x4 MSTORE PUSH1 0x24 PUSH1 0x0 REVERT JUMPDEST SWAP1 DUP2 MLOAD DUP2 LT ISZERO PUSH2 0x1CCD JUMPI ADD PUSH1 0x20 ADD SWAP1 JUMP JUMPDEST PUSH1 0x40 MLOAD SWAP1 PUSH1 0x60 DUP3 ADD DUP3 DUP2 LT PUSH8 0xFFFFFFFFFFFFFFFF DUP3 GT OR PUSH2 0x1FF2 JUMPI PUSH1 0x40 MSTORE PUSH1 0x2A DUP3 MSTORE PUSH1 0x20 DUP3 ADD PUSH1 0x40 CALLDATASIZE DUP3 CALLDATACOPY DUP3 MLOAD ISZERO PUSH2 0x1CCD JUMPI PUSH1 0x30 SWAP1 MSTORE8 DUP2 MLOAD PUSH1 0x1 SWAP1 DUP2 LT ISZERO PUSH2 0x1CCD JUMPI PUSH1 0x78 PUSH1 0x21 DUP5 ADD MSTORE8 PUSH1 0x29 SWAP1 JUMPDEST DUP1 DUP3 GT PUSH2 0x21D2 JUMPI POP POP PUSH2 0x218E JUMPI SWAP1 JUMP JUMPDEST PUSH1 0x64 PUSH1 0x40 MLOAD PUSH3 0x461BCD PUSH1 0xE5 SHL DUP2 MSTORE PUSH1 0x20 PUSH1 0x4 DUP3 ADD MSTORE PUSH1 0x20 PUSH1 0x24 DUP3 ADD MSTORE PUSH32 0x537472696E67733A20686578206C656E67746820696E73756666696369656E74 PUSH1 0x44 DUP3 ADD MSTORE REVERT JUMPDEST SWAP1 SWAP2 PUSH1 0xF DUP2 AND PUSH1 0x10 DUP2 LT ISZERO PUSH2 0x222B JUMPI PUSH16 0x181899199A1A9B1B9C1CB0B131B232B3 PUSH1 0x81 SHL SWAP1 BYTE PUSH2 0x2201 DUP5 DUP7 PUSH2 0x2120 JUMP JUMPDEST MSTORE8 PUSH1 0x4 SHR SWAP2 DUP1 ISZERO PUSH2 0x2216 JUMPI PUSH1 0x0 NOT ADD SWAP1 PUSH2 0x217E JUMP JUMPDEST PUSH1 0x24 PUSH1 0x0 PUSH4 0x4E487B71 PUSH1 0xE0 SHL DUP2 MSTORE PUSH1 0x11 PUSH1 0x4 MSTORE REVERT JUMPDEST PUSH1 0x24 PUSH1 0x0 PUSH4 0x4E487B71 PUSH1 0xE0 SHL DUP2 MSTORE PUSH1 0x32 PUSH1 0x4 MSTORE REVERT JUMPDEST ISZERO PUSH2 0x2247 JUMPI JUMP JUMPDEST PUSH1 0x40 MLOAD PUSH3 0x461BCD PUSH1 0xE5 SHL DUP2 MSTORE PUSH1 0x20 PUSH1 0x4 DUP3 ADD MSTORE PUSH1 0x15 PUSH1 0x24 DUP3 ADD MSTORE PUSH21 0x125B9D985B1A5908189C9A5919D948185B5BDD5B9D PUSH1 0x5A SHL PUSH1 0x44 DUP3 ADD MSTORE PUSH1 0x64 SWAP1 REVERT JUMPDEST ISZERO PUSH2 0x228B JUMPI JUMP JUMPDEST PUSH1 0x40 MLOAD PUSH3 0x461BCD PUSH1 0xE5 SHL DUP2 MSTORE PUSH1 0x20 PUSH1 0x4 DUP3 ADD MSTORE PUSH1 0xC PUSH1 0x24 DUP3 ADD MSTORE PUSH12 0x14985D19481B1A5B5A5D1959 PUSH1 0xA2 SHL PUSH1 0x44 DUP3 ADD MSTORE PUSH1 0x64 SWAP1 REVERT JUMPDEST ISZERO PUSH2 0x22C6 JUMPI JUMP JUMPDEST PUSH1 0x40 MLOAD PUSH3 0x461BCD PUSH1 0xE5 SHL DUP2 MSTORE PUSH1 0x20 PUSH1 0x4 DUP3 ADD MSTORE PUSH1 0x11 PUSH1 0x24 DUP3 ADD MSTORE PUSH17 0x2AB739BAB83837B93A32B21031B430B4B7 PUSH1 0x79 SHL PUSH1 0x44 DUP3 ADD MSTORE PUSH1 0x64 SWAP1 REVERT JUMPDEST PUSH1 0x0 NOT DUP2 EQ PUSH2 0x210A JUMPI PUSH1 0x1 ADD SWAP1 JUMP JUMPDEST PUSH1 0xFF PUSH1 0x1 SLOAD AND PUSH2 0x231A JUMPI JUMP JUMPDEST PUSH1 0x40 MLOAD PUSH3 0x461BCD PUSH1 0xE5 SHL DUP2 MSTORE PUSH1 0x20 PUSH1 0x4 DUP3 ADD MSTORE PUSH1 0x10 PUSH1 0x24 DUP3 ADD MSTORE PUSH16 0x14185D5CD8589B194E881C185D5CD959 PUSH1 0x82 SHL PUSH1 0x44 DUP3 ADD MSTORE PUSH1 0x64 SWAP1 REVERT JUMPDEST PUSH1 0x2 PUSH1 0x0 SLOAD EQ PUSH2 0x2363 JUMPI PUSH1 0x2 PUSH1 0x0 SSTORE JUMP JUMPDEST PUSH1 0x40 MLOAD PUSH3 0x461BCD PUSH1 0xE5 SHL DUP2 MSTORE PUSH1 0x20 PUSH1 0x4 DUP3 ADD MSTORE PUSH1 0x1F PUSH1 0x24 DUP3 ADD MSTORE PUSH32 0x5265656E7472616E637947756172643A207265656E7472616E742063616C6C00 PUSH1 0x44 DUP3 ADD MSTORE PUSH1 0x64 SWAP1 REVERT JUMPDEST PUSH1 0x1 DUP1 PUSH1 0xA0 SHL SUB AND SWAP1 PUSH1 0x40 MLOAD PUSH1 0x40 DUP2 ADD SWAP1 DUP1 DUP3 LT PUSH8 0xFFFFFFFFFFFFFFFF DUP4 GT OR PUSH2 0x1FF2 JUMPI PUSH2 0x241A SWAP2 PUSH1 0x40 MSTORE PUSH1 0x20 SWAP4 DUP5 DUP3 MSTORE PUSH32 0x5361666545524332303A206C6F772D6C6576656C2063616C6C206661696C6564 DUP6 DUP4 ADD MSTORE PUSH1 0x0 DUP1 DUP6 DUP8 DUP3 SWAP8 MLOAD SWAP2 ADD DUP3 DUP6 GAS CALL PUSH2 0x2414 PUSH2 0x24B0 JUMP JUMPDEST SWAP2 PUSH2 0x24F0 JUMP JUMPDEST DUP1 MLOAD SWAP2 DUP3 ISZERO SWAP2 DUP5 DUP4 ISZERO PUSH2 0x248C JUMPI JUMPDEST POP POP POP SWAP1 POP ISZERO PUSH2 0x2435 JUMPI POP JUMP JUMPDEST PUSH1 0x84 SWAP1 PUSH1 0x40 MLOAD SWAP1 PUSH3 0x461BCD PUSH1 0xE5 SHL DUP3 MSTORE PUSH1 0x4 DUP3 ADD MSTORE PUSH1 0x2A PUSH1 0x24 DUP3 ADD MSTORE PUSH32 0x5361666545524332303A204552433230206F7065726174696F6E20646964206E PUSH1 0x44 DUP3 ADD MSTORE PUSH10 0x1BDD081CDD58D8D95959 PUSH1 0xB2 SHL PUSH1 0x64 DUP3 ADD MSTORE REVERT JUMPDEST SWAP2 SWAP4 DUP2 DUP1 SWAP5 POP ADD SUB SLT PUSH2 0x23D JUMPI DUP3 ADD MLOAD SWAP1 DUP2 ISZERO ISZERO DUP3 SUB PUSH2 0x2A2 JUMPI POP DUP1 CODESIZE DUP1 DUP5 PUSH2 0x2428 JUMP JUMPDEST RETURNDATASIZE ISZERO PUSH2 0x24EB JUMPI RETURNDATASIZE SWAP1 PUSH8 0xFFFFFFFFFFFFFFFF DUP3 GT PUSH2 0x1FF2 JUMPI PUSH1 0x40 MLOAD SWAP2 PUSH2 0x24DF PUSH1 0x1F DUP3 ADD PUSH1 0x1F NOT AND PUSH1 0x20 ADD DUP5 PUSH2 0x2040 JUMP JUMPDEST DUP3 MSTORE RETURNDATASIZE PUSH1 0x0 PUSH1 0x20 DUP5 ADD RETURNDATACOPY JUMP JUMPDEST PUSH1 0x60 SWAP1 JUMP JUMPDEST SWAP2 SWAP3 SWAP1 ISZERO PUSH2 0x2552 JUMPI POP DUP2 MLOAD ISZERO PUSH2 0x2504 JUMPI POP SWAP1 JUMP JUMPDEST EXTCODESIZE ISZERO PUSH2 0x250D JUMPI SWAP1 JUMP JUMPDEST PUSH1 0x40 MLOAD PUSH3 0x461BCD PUSH1 0xE5 SHL DUP2 MSTORE PUSH1 0x20 PUSH1 0x4 DUP3 ADD MSTORE PUSH1 0x1D PUSH1 0x24 DUP3 ADD MSTORE PUSH32 0x416464726573733A2063616C6C20746F206E6F6E2D636F6E7472616374000000 PUSH1 0x44 DUP3 ADD MSTORE PUSH1 0x64 SWAP1 REVERT JUMPDEST DUP3 MLOAD SWAP1 SWAP2 POP ISZERO PUSH2 0x2565 JUMPI POP DUP1 MLOAD SWAP1 PUSH1 0x20 ADD REVERT JUMPDEST PUSH1 0x40 MLOAD PUSH3 0x461BCD PUSH1 0xE5 SHL DUP2 MSTORE PUSH1 0x20 PUSH1 0x4 DUP3 ADD MSTORE SWAP1 DUP2 SWAP1 PUSH2 0xB79 SWAP1 PUSH1 0x24 DUP4 ADD SWAP1 PUSH2 0x2062 JUMP JUMPDEST SWAP1 SWAP3 SWAP2 PUSH1 0x1 DUP1 PUSH1 0xA0 SHL SUB SWAP1 DUP2 DUP2 SLOAD AND SWAP1 DUP3 PUSH1 0x1 DUP3 ADD SLOAD AND PUSH1 0x3 DUP5 PUSH1 0x2 DUP5 ADD SLOAD AND SWAP3 ADD SLOAD SWAP3 PUSH1 0x40 MLOAD SWAP8 PUSH4 0x255873E7 PUSH1 0xE0 SHL PUSH1 0x20 DUP11 ADD MSTORE PUSH1 0x24 DUP10 ADD MSTORE PUSH1 0x44 DUP9 ADD MSTORE PUSH1 0x64 DUP8 ADD MSTORE PUSH1 0x84 DUP7 ADD MSTORE PUSH1 0xA4 DUP6 ADD MSTORE PUSH1 0xA4 DUP5 MSTORE PUSH2 0x25E4 DUP5 PUSH2 0x2008 JUMP JUMPDEST PUSH1 0x0 SWAP2 DUP3 MSTORE PUSH1 0x6 PUSH1 0x20 MSTORE PUSH1 0x40 DUP3 KECCAK256 SLOAD PUSH1 0x7 PUSH1 0x21 PUSH1 0x99 SHL ADD SWAP2 AND DUP2 EXTCODESIZE ISZERO PUSH2 0x31C JUMPI SWAP4 DUP3 SWAP2 PUSH2 0x2636 SWAP5 SWAP6 DUP4 PUSH1 0x40 MLOAD DUP1 SWAP8 DUP2 SWAP6 DUP3 SWAP5 PUSH4 0x3DBB202B PUSH1 0xE0 SHL DUP5 MSTORE PUSH1 0x4 DUP5 ADD MSTORE PUSH1 0x60 PUSH1 0x24 DUP5 ADD MSTORE PUSH1 0x64 DUP4 ADD SWAP1 PUSH2 0x2062 JUMP JUMPDEST PUSH3 0xF4240 PUSH1 0x44 DUP4 ADD MSTORE SUB SWAP3 GAS CALL SWAP1 DUP2 ISZERO PUSH2 0x265D JUMPI POP PUSH2 0x2652 JUMPI POP JUMP JUMPDEST PUSH2 0x265B SWAP1 PUSH2 0x1FDE JUMP JUMPDEST JUMP JUMPDEST PUSH1 0x40 MLOAD SWAP1 RETURNDATASIZE SWAP1 DUP3 RETURNDATACOPY RETURNDATASIZE SWAP1 REVERT JUMPDEST SWAP1 DUP2 PUSH1 0x20 SWAP2 SUB SLT PUSH2 0x662 JUMPI MLOAD PUSH8 0xFFFFFFFFFFFFFFFF DUP2 AND DUP2 SUB PUSH2 0x662 JUMPI SWAP1 JUMP INVALID 0x21 PUSH17 0x2C8AF46127C7FA207F89D0B0A8441BB329 MSIZE LOG0 0xAC PUSH30 0xF790E9AB1A25C98926A2646970667358221220BCAA8530B24BB67D00F526 0xDB 0x4D EXTCODEHASH PUSH5 0xF5B50882E0 0xE0 SWAP16 0x26 0xD9 RETURNDATASIZE CODECOPY 0x26 PUSH13 0x1C144A0764736F6C6343000813 STOP CALLER 0x2F DUP8 DUP9 GT PUSH31 0x7EFF1D82E926EC794901D17C78024A50270940304540A733656F0D00000000 "},"methodIdentifiers":{"BRIDGE_POINTS()":"210d1c03","CHALLENGE_PERIOD()":"c3a079ed","DEFAULT_ADMIN_ROLE()":"a217fddf","EMERGENCY_ROLE()":"20df4359","L1_BLOCK_PREDEPLOY()":"128666f5","L2_CROSS_DOMAIN_MESSENGER()":"d434a6ec","L2_TO_L1_MESSAGE_PASSER()":"d5f3204b","MAX_BRIDGE_AMOUNT()":"7fce0002","MIN_BRIDGE_AMOUNT()":"886688c1","ORACLE_ROLE()":"07e2cea5","VALIDATOR_ROLE()":"c49baebe","VALIDATOR_THRESHOLD()":"7a6eea37","WETH_PREDEPLOY()":"f88312de","WITHDRAWAL_DELAY()":"0ebb172a","addValidator(address)":"4d238c8e","bridgeETH(uint256,address)":"19bf4b4d","bridgeNonce()":"1f87a250","bridgeToken(address,uint256,uint256,address)":"ceefd62c","bridgeTransactions(bytes32)":"6c63f971","dailyBridgeVolume(address)":"c9859da5","emergencyPause()":"51858e27","emergencyPauseTime()":"11483bd2","emergencyUnpause()":"4a4e3bd5","getBridgeTransaction(bytes32)":"0024a1b8","getL1BlockInfo()":"03236d0d","getRoleAdmin(bytes32)":"248a9ca3","getValidatorCount()":"7071688a","grantRole(bytes32,address)":"2f2ff15d","hasRole(bytes32,address)":"91d14854","lastBridgeTime(address)":"319e38f6","paused()":"5c975abb","pointsModule()":"32d9562f","removeValidator(address)":"40a141ff","renounceRole(bytes32,address)":"36568abe","revokeRole(bytes32,address)":"d547741f","setPointsModule(address)":"e8bf3999","setTrustedRemote(uint256,address)":"bd693c0b","stakeAsValidator()":"dad64ff5","supportsInterface(bytes4)":"01ffc9a7","totalValidatorStake()":"fde8ee7b","trustedRemotes(uint256)":"162c0700","validateBridgeTransaction(bytes32)":"34284e4b","validatorActive(address)":"574b5ff0","validatorStakes(address)":"aa735578","validators(uint256)":"35aa2e44"}}}}}