{"contracts/ValidatorRegistry.sol":{"ValidatorRegistry":{"abi":[{"inputs":[{"internalType":"address[]","name":"_initialValidators","type":"address[]"}],"stateMutability":"nonpayable","type":"constructor"},{"anonymous":false,"inputs":[{"indexed":true,"internalType":"address","name":"previousOwner","type":"address"},{"indexed":true,"internalType":"address","name":"newOwner","type":"address"}],"name":"OwnershipTransferred","type":"event"},{"anonymous":false,"inputs":[{"indexed":true,"internalType":"bytes32","name":"txId","type":"bytes32"},{"indexed":false,"internalType":"uint256","name":"totalVotes","type":"uint256"}],"name":"TransactionValidated","type":"event"},{"anonymous":false,"inputs":[{"indexed":true,"internalType":"address","name":"validator","type":"address"}],"name":"ValidatorAdded","type":"event"},{"anonymous":false,"inputs":[{"indexed":true,"internalType":"address","name":"validator","type":"address"}],"name":"ValidatorRemoved","type":"event"},{"anonymous":false,"inputs":[{"indexed":true,"internalType":"bytes32","name":"txId","type":"bytes32"},{"indexed":true,"internalType":"address","name":"validator","type":"address"},{"indexed":false,"internalType":"uint256","name":"currentVotes","type":"uint256"},{"indexed":false,"internalType":"uint256","name":"requiredVotes","type":"uint256"}],"name":"ValidatorVoted","type":"event"},{"inputs":[{"internalType":"address","name":"validator","type":"address"}],"name":"addValidator","outputs":[],"stateMutability":"nonpayable","type":"function"},{"inputs":[{"internalType":"bytes32","name":"txId","type":"bytes32"}],"name":"getValidationStatus","outputs":[{"internalType":"uint256","name":"votes","type":"uint256"},{"internalType":"uint256","name":"required","type":"uint256"},{"internalType":"bool","name":"validated","type":"bool"}],"stateMutability":"view","type":"function"},{"inputs":[],"name":"getValidatorInfo","outputs":[{"internalType":"uint256","name":"totalValidators","type":"uint256"},{"internalType":"uint256","name":"threshold","type":"uint256"},{"internalType":"uint256","name":"required","type":"uint256"}],"stateMutability":"view","type":"function"},{"inputs":[{"internalType":"bytes32","name":"txId","type":"bytes32"},{"internalType":"address","name":"validator","type":"address"}],"name":"hasVoted","outputs":[{"internalType":"bool","name":"","type":"bool"}],"stateMutability":"view","type":"function"},{"inputs":[{"internalType":"bytes32","name":"txId","type":"bytes32"}],"name":"isValidated","outputs":[{"internalType":"bool","name":"","type":"bool"}],"stateMutability":"view","type":"function"},{"inputs":[],"name":"owner","outputs":[{"internalType":"address","name":"","type":"address"}],"stateMutability":"view","type":"function"},{"inputs":[{"internalType":"address","name":"validator","type":"address"}],"name":"removeValidator","outputs":[],"stateMutability":"nonpayable","type":"function"},{"inputs":[],"name":"renounceOwnership","outputs":[],"stateMutability":"nonpayable","type":"function"},{"inputs":[],"name":"requiredVotes","outputs":[{"internalType":"uint256","name":"","type":"uint256"}],"stateMutability":"view","type":"function"},{"inputs":[{"internalType":"address","name":"newOwner","type":"address"}],"name":"transferOwnership","outputs":[],"stateMutability":"nonpayable","type":"function"},{"inputs":[{"internalType":"uint256","name":"newThreshold","type":"uint256"}],"name":"updateValidationThreshold","outputs":[],"stateMutability":"nonpayable","type":"function"},{"inputs":[{"internalType":"bytes32","name":"txId","type":"bytes32"}],"name":"validateTransaction","outputs":[],"stateMutability":"nonpayable","type":"function"},{"inputs":[],"name":"validationThreshold","outputs":[{"internalType":"uint256","name":"","type":"uint256"}],"stateMutability":"view","type":"function"},{"inputs":[{"internalType":"bytes32","name":"","type":"bytes32"}],"name":"validations","outputs":[{"internalType":"uint256","name":"votes","type":"uint256"},{"internalType":"uint256","name":"requiredVotes","type":"uint256"},{"internalType":"bool","name":"validated","type":"bool"}],"stateMutability":"view","type":"function"},{"inputs":[],"name":"validatorCount","outputs":[{"internalType":"uint256","name":"","type":"uint256"}],"stateMutability":"view","type":"function"},{"inputs":[{"internalType":"address","name":"","type":"address"}],"name":"validators","outputs":[{"internalType":"bool","name":"","type":"bool"}],"stateMutability":"view","type":"function"}],"evm":{"bytecode":{"linkReferences":{},"object":"60406080815234620002485762000c5990813803806200001f8162000263565b9384398201916020928382820312620002485781516001600160401b039283821162000248570181601f82011215620002485780519283116200024d578260051b9085806200007081850162000263565b80968152019282010192831162000248578501905b8282106200022757505060008054336001600160a01b0319821681178355855193506001600160a01b039182167f8be0079c531659141344cd1fd0a4f28419497f9722a3daafe3b4186f6b6457e08480a3600192838055603c6005556003855110620001e55750829582965b6200010b575b858551600455516109a49081620002b58239f35b8451871015620001df578162000122888762000289565b511615620001a8578162000137888762000289565b5116835260028152858320805460ff1916851790558162000159888762000289565b51167fe366c1c0452ed8eec96861e9e54141ebff23c9ec89fe27b996b45f5ec38849878480a2600019871462000194579583019583620000f1565b634e487b7160e01b83526011600452602483fd5b60649086519062461bcd60e51b82526004820152601160248201527024b73b30b634b2103b30b634b230ba37b960791b6044820152fd5b620000f7565b62461bcd60e51b815260048101879052601d60248201527f4d696e696d756d20332076616c696461746f72732072657175697265640000006044820152606490fd5b81516001600160a01b03811681036200024857815290850190850162000085565b600080fd5b634e487b7160e01b600052604160045260246000fd5b6040519190601f01601f191682016001600160401b038111838210176200024d57604052565b80518210156200029e5760209160051b010190565b634e487b7160e01b600052603260045260246000fdfe608060409080825260048036101561001657600080fd5b600091823560e01c9081630f43a67714610853575080631e7731b9146107dc578063344829c81461060657806340a141ff146105175780634d238c8e1461041a5780636bc773c2146103e5578063715018a6146103885780638da5cb5b14610360578063aadc3b721461030d578063bd31a4d8146102e9578063bf1db71e146102b8578063e28c380214610271578063eeb6babf14610252578063f2fde38b1461018a578063fa52c7d81461014c5763ff2febfc146100d457600080fd5b346101485760203660031901126101485735815260036020526101398282209283549260018501549050801560001461013d575060ff6002610114610945565b955b015416905193849384919260409194936060840195845260208401521515910152565b0390f35b600260ff9195610116565b5080fd5b8284346101485760203660031901126101485760209160ff9082906001600160a01b0361017761086f565b1681526002855220541690519015158152f35b5082903461024e57602036600319011261024e576101a661086f565b906101af61088a565b6001600160a01b039182169283156101fc57505082546001600160a01b0319811683178455167f8be0079c531659141344cd1fd0a4f28419497f9722a3daafe3b4186f6b6457e08380a380f35b906020608492519162461bcd60e51b8352820152602660248201527f4f776e61626c653a206e6577206f776e657220697320746865207a65726f206160448201526564647265737360d01b6064820152fd5b8280fd5b8284346101485781600319360112610148576020906005549051908152f35b5082903461024e57602036600319011261024e5735825260036020908152918190208054600182015460029092015492519081529283015260ff1615156040820152606090f35b5082903461024e57602036600319011261024e5760028260209460ff93358152600386522001541690519015158152f35b828434610148578160031936011261014857602090610306610945565b9051908152f35b5082903461024e578160031936011261024e576024356001600160a01b038116919082900361035c5760209360ff92849235825260038652600383832001908252855220541690519015158152f35b8380fd5b828434610148578160031936011261014857905490516001600160a01b039091168152602090f35b82346103e257806003193601126103e2576103a161088a565b80546001600160a01b03198116825581906001600160a01b03167f8be0079c531659141344cd1fd0a4f28419497f9722a3daafe3b4186f6b6457e08280a380f35b80fd5b5082903461024e578260031936011261024e576060925054906005549061040a610945565b9181519384526020840152820152f35b5082903461024e57602036600319011261024e5761043661086f565b61043e61088a565b6001600160a01b03169182156104e257828452600260205260ff81852054166104a95782845260026020528320600160ff1982541617905561048081546108e2565b90557fe366c1c0452ed8eec96861e9e54141ebff23c9ec89fe27b996b45f5ec38849878280a280f35b906020606492519162461bcd60e51b8352820152601360248201527220b63932b0b23c9030903b30b634b230ba37b960691b6044820152fd5b906020606492519162461bcd60e51b8352820152600f60248201526e496e76616c6964206164647265737360881b6044820152fd5b5082903461024e57602036600319011261024e5761053361086f565b61053b61088a565b6001600160a01b031680845260026020528284205490929061055f9060ff16610907565b6003825411156105c35782845260026020528320805460ff19169055805480156105b0576000190190557fe1434e25d6611e0db941968fdc97811c982ac1602e951637d206f5fdda9dd8f18280a280f35b634e487b7160e01b845260118252602484fd5b906020606492519162461bcd60e51b8352820152601d60248201527f4d696e696d756d20332076616c696461746f72732072657175697265640000006044820152fd5b50823461024e576020908160031936011261035c578235913385526002815261063460ff8387205416610907565b600193600285541461079b57600285558386526003825260ff6002848820015416610766578386526003825282862092600384019133885282845260ff8289205416610735575085840191825415610726575b338852835280872060ff19908782825416179055866106a686546108e2565b938487555483518581528187820152887ff6a3ba8adda9a54209951ef8e277241b2b0af1467da56edc5b9ead60ba423f11863393a38410156106e9575b80558780f35b60027f249f0d0dfcf78699bf1348633323bd7ca187fa7c50400cecf9e692c6e28e1ac096019182541617905551908152a2828080808080866106e3565b61072e610945565b8355610687565b83606492519162461bcd60e51b8352820152600d60248201526c105b1c9958591e481d9bdd1959609a1b6044820152fd5b915162461bcd60e51b8152918201526011602482015270105b1c9958591e481d985b1a59185d1959607a1b6044820152606490fd5b915162461bcd60e51b815291820152601f60248201527f5265656e7472616e637947756172643a207265656e7472616e742063616c6c006044820152606490fd5b5082903461024e57602036600319011261024e578035916107fb61088a565b82151580610848575b1561081157505060055580f35b906020606492519162461bcd60e51b83528201526011602482015270125b9d985b1a59081d1a1c995cda1bdb19607a1b6044820152fd5b506064831115610804565b9190503461024e578260031936011261024e5760209250548152f35b600435906001600160a01b038216820361088557565b600080fd5b6000546001600160a01b0316330361089e57565b606460405162461bcd60e51b815260206004820152602060248201527f4f776e61626c653a2063616c6c6572206973206e6f7420746865206f776e65726044820152fd5b60001981146108f15760010190565b634e487b7160e01b600052601160045260246000fd5b1561090e57565b60405162461bcd60e51b815260206004820152600f60248201526e2737ba1030903b30b634b230ba37b960891b6044820152606490fd5b600454600554908181029181830414901517156108f157606490048061096b5750600190565b9056fea2646970667358221220aeb20b6553073047e87882cfbb0775513807ad9718658e0d2f091122ae6f187e64736f6c63430008130033","opcodes":"PUSH1 0x40 PUSH1 0x80 DUP2 MSTORE CALLVALUE PUSH3 0x248 JUMPI PUSH3 0xC59 SWAP1 DUP2 CODESIZE SUB DUP1 PUSH3 0x1F DUP2 PUSH3 0x263 JUMP JUMPDEST SWAP4 DUP5 CODECOPY DUP3 ADD SWAP2 PUSH1 0x20 SWAP3 DUP4 DUP3 DUP3 SUB SLT PUSH3 0x248 JUMPI DUP2 MLOAD PUSH1 0x1 PUSH1 0x1 PUSH1 0x40 SHL SUB SWAP3 DUP4 DUP3 GT PUSH3 0x248 JUMPI ADD DUP2 PUSH1 0x1F DUP3 ADD SLT ISZERO PUSH3 0x248 JUMPI DUP1 MLOAD SWAP3 DUP4 GT PUSH3 0x24D JUMPI DUP3 PUSH1 0x5 SHL SWAP1 DUP6 DUP1 PUSH3 0x70 DUP2 DUP6 ADD PUSH3 0x263 JUMP JUMPDEST DUP1 SWAP7 DUP2 MSTORE ADD SWAP3 DUP3 ADD ADD SWAP3 DUP4 GT PUSH3 0x248 JUMPI DUP6 ADD SWAP1 JUMPDEST DUP3 DUP3 LT PUSH3 0x227 JUMPI POP POP PUSH1 0x0 DUP1 SLOAD CALLER PUSH1 0x1 PUSH1 0x1 PUSH1 0xA0 SHL SUB NOT DUP3 AND DUP2 OR DUP4 SSTORE DUP6 MLOAD SWAP4 POP PUSH1 0x1 PUSH1 0x1 PUSH1 0xA0 SHL SUB SWAP2 DUP3 AND PUSH32 0x8BE0079C531659141344CD1FD0A4F28419497F9722A3DAAFE3B4186F6B6457E0 DUP5 DUP1 LOG3 PUSH1 0x1 SWAP3 DUP4 DUP1 SSTORE PUSH1 0x3C PUSH1 0x5 SSTORE PUSH1 0x3 DUP6 MLOAD LT PUSH3 0x1E5 JUMPI POP DUP3 SWAP6 DUP3 SWAP7 JUMPDEST PUSH3 0x10B JUMPI JUMPDEST DUP6 DUP6 MLOAD PUSH1 0x4 SSTORE MLOAD PUSH2 0x9A4 SWAP1 DUP2 PUSH3 0x2B5 DUP3 CODECOPY RETURN JUMPDEST DUP5 MLOAD DUP8 LT ISZERO PUSH3 0x1DF JUMPI DUP2 PUSH3 0x122 DUP9 DUP8 PUSH3 0x289 JUMP JUMPDEST MLOAD AND ISZERO PUSH3 0x1A8 JUMPI DUP2 PUSH3 0x137 DUP9 DUP8 PUSH3 0x289 JUMP JUMPDEST MLOAD AND DUP4 MSTORE PUSH1 0x2 DUP2 MSTORE DUP6 DUP4 KECCAK256 DUP1 SLOAD PUSH1 0xFF NOT AND DUP6 OR SWAP1 SSTORE DUP2 PUSH3 0x159 DUP9 DUP8 PUSH3 0x289 JUMP JUMPDEST MLOAD AND PUSH32 0xE366C1C0452ED8EEC96861E9E54141EBFF23C9EC89FE27B996B45F5EC3884987 DUP5 DUP1 LOG2 PUSH1 0x0 NOT DUP8 EQ PUSH3 0x194 JUMPI SWAP6 DUP4 ADD SWAP6 DUP4 PUSH3 0xF1 JUMP JUMPDEST PUSH4 0x4E487B71 PUSH1 0xE0 SHL DUP4 MSTORE PUSH1 0x11 PUSH1 0x4 MSTORE PUSH1 0x24 DUP4 REVERT JUMPDEST PUSH1 0x64 SWAP1 DUP7 MLOAD SWAP1 PUSH3 0x461BCD PUSH1 0xE5 SHL DUP3 MSTORE PUSH1 0x4 DUP3 ADD MSTORE PUSH1 0x11 PUSH1 0x24 DUP3 ADD MSTORE PUSH17 0x24B73B30B634B2103B30B634B230BA37B9 PUSH1 0x79 SHL PUSH1 0x44 DUP3 ADD MSTORE REVERT JUMPDEST PUSH3 0xF7 JUMP JUMPDEST PUSH3 0x461BCD PUSH1 0xE5 SHL DUP2 MSTORE PUSH1 0x4 DUP2 ADD DUP8 SWAP1 MSTORE PUSH1 0x1D PUSH1 0x24 DUP3 ADD MSTORE PUSH32 0x4D696E696D756D20332076616C696461746F7273207265717569726564000000 PUSH1 0x44 DUP3 ADD MSTORE PUSH1 0x64 SWAP1 REVERT JUMPDEST DUP2 MLOAD PUSH1 0x1 PUSH1 0x1 PUSH1 0xA0 SHL SUB DUP2 AND DUP2 SUB PUSH3 0x248 JUMPI DUP2 MSTORE SWAP1 DUP6 ADD SWAP1 DUP6 ADD PUSH3 0x85 JUMP JUMPDEST PUSH1 0x0 DUP1 REVERT JUMPDEST PUSH4 0x4E487B71 PUSH1 0xE0 SHL PUSH1 0x0 MSTORE PUSH1 0x41 PUSH1 0x4 MSTORE PUSH1 0x24 PUSH1 0x0 REVERT JUMPDEST PUSH1 0x40 MLOAD SWAP2 SWAP1 PUSH1 0x1F ADD PUSH1 0x1F NOT AND DUP3 ADD PUSH1 0x1 PUSH1 0x1 PUSH1 0x40 SHL SUB DUP2 GT DUP4 DUP3 LT OR PUSH3 0x24D JUMPI PUSH1 0x40 MSTORE JUMP JUMPDEST DUP1 MLOAD DUP3 LT ISZERO PUSH3 0x29E JUMPI PUSH1 0x20 SWAP2 PUSH1 0x5 SHL ADD ADD SWAP1 JUMP JUMPDEST PUSH4 0x4E487B71 PUSH1 0xE0 SHL PUSH1 0x0 MSTORE PUSH1 0x32 PUSH1 0x4 MSTORE PUSH1 0x24 PUSH1 0x0 REVERT INVALID PUSH1 0x80 PUSH1 0x40 SWAP1 DUP1 DUP3 MSTORE PUSH1 0x4 DUP1 CALLDATASIZE LT ISZERO PUSH2 0x16 JUMPI PUSH1 0x0 DUP1 REVERT JUMPDEST PUSH1 0x0 SWAP2 DUP3 CALLDATALOAD PUSH1 0xE0 SHR SWAP1 DUP2 PUSH4 0xF43A677 EQ PUSH2 0x853 JUMPI POP DUP1 PUSH4 0x1E7731B9 EQ PUSH2 0x7DC JUMPI DUP1 PUSH4 0x344829C8 EQ PUSH2 0x606 JUMPI DUP1 PUSH4 0x40A141FF EQ PUSH2 0x517 JUMPI DUP1 PUSH4 0x4D238C8E EQ PUSH2 0x41A JUMPI DUP1 PUSH4 0x6BC773C2 EQ PUSH2 0x3E5 JUMPI DUP1 PUSH4 0x715018A6 EQ PUSH2 0x388 JUMPI DUP1 PUSH4 0x8DA5CB5B EQ PUSH2 0x360 JUMPI DUP1 PUSH4 0xAADC3B72 EQ PUSH2 0x30D JUMPI DUP1 PUSH4 0xBD31A4D8 EQ PUSH2 0x2E9 JUMPI DUP1 PUSH4 0xBF1DB71E EQ PUSH2 0x2B8 JUMPI DUP1 PUSH4 0xE28C3802 EQ PUSH2 0x271 JUMPI DUP1 PUSH4 0xEEB6BABF EQ PUSH2 0x252 JUMPI DUP1 PUSH4 0xF2FDE38B EQ PUSH2 0x18A JUMPI DUP1 PUSH4 0xFA52C7D8 EQ PUSH2 0x14C JUMPI PUSH4 0xFF2FEBFC EQ PUSH2 0xD4 JUMPI PUSH1 0x0 DUP1 REVERT JUMPDEST CALLVALUE PUSH2 0x148 JUMPI PUSH1 0x20 CALLDATASIZE PUSH1 0x3 NOT ADD SLT PUSH2 0x148 JUMPI CALLDATALOAD DUP2 MSTORE PUSH1 0x3 PUSH1 0x20 MSTORE PUSH2 0x139 DUP3 DUP3 KECCAK256 SWAP3 DUP4 SLOAD SWAP3 PUSH1 0x1 DUP6 ADD SLOAD SWAP1 POP DUP1 ISZERO PUSH1 0x0 EQ PUSH2 0x13D JUMPI POP PUSH1 0xFF PUSH1 0x2 PUSH2 0x114 PUSH2 0x945 JUMP JUMPDEST SWAP6 JUMPDEST ADD SLOAD AND SWAP1 MLOAD SWAP4 DUP5 SWAP4 DUP5 SWAP2 SWAP3 PUSH1 0x40 SWAP2 SWAP5 SWAP4 PUSH1 0x60 DUP5 ADD SWAP6 DUP5 MSTORE PUSH1 0x20 DUP5 ADD MSTORE ISZERO ISZERO SWAP2 ADD MSTORE JUMP JUMPDEST SUB SWAP1 RETURN JUMPDEST PUSH1 0x2 PUSH1 0xFF SWAP2 SWAP6 PUSH2 0x116 JUMP JUMPDEST POP DUP1 REVERT JUMPDEST DUP3 DUP5 CALLVALUE PUSH2 0x148 JUMPI PUSH1 0x20 CALLDATASIZE PUSH1 0x3 NOT ADD SLT PUSH2 0x148 JUMPI PUSH1 0x20 SWAP2 PUSH1 0xFF SWAP1 DUP3 SWAP1 PUSH1 0x1 PUSH1 0x1 PUSH1 0xA0 SHL SUB PUSH2 0x177 PUSH2 0x86F JUMP JUMPDEST AND DUP2 MSTORE PUSH1 0x2 DUP6 MSTORE KECCAK256 SLOAD AND SWAP1 MLOAD SWAP1 ISZERO ISZERO DUP2 MSTORE RETURN JUMPDEST POP DUP3 SWAP1 CALLVALUE PUSH2 0x24E JUMPI PUSH1 0x20 CALLDATASIZE PUSH1 0x3 NOT ADD SLT PUSH2 0x24E JUMPI PUSH2 0x1A6 PUSH2 0x86F JUMP JUMPDEST SWAP1 PUSH2 0x1AF PUSH2 0x88A JUMP JUMPDEST PUSH1 0x1 PUSH1 0x1 PUSH1 0xA0 SHL SUB SWAP2 DUP3 AND SWAP3 DUP4 ISZERO PUSH2 0x1FC JUMPI POP POP DUP3 SLOAD PUSH1 0x1 PUSH1 0x1 PUSH1 0xA0 SHL SUB NOT DUP2 AND DUP4 OR DUP5 SSTORE AND PUSH32 0x8BE0079C531659141344CD1FD0A4F28419497F9722A3DAAFE3B4186F6B6457E0 DUP4 DUP1 LOG3 DUP1 RETURN JUMPDEST SWAP1 PUSH1 0x20 PUSH1 0x84 SWAP3 MLOAD SWAP2 PUSH3 0x461BCD PUSH1 0xE5 SHL DUP4 MSTORE DUP3 ADD MSTORE PUSH1 0x26 PUSH1 0x24 DUP3 ADD MSTORE PUSH32 0x4F776E61626C653A206E6577206F776E657220697320746865207A65726F2061 PUSH1 0x44 DUP3 ADD MSTORE PUSH6 0x646472657373 PUSH1 0xD0 SHL PUSH1 0x64 DUP3 ADD MSTORE REVERT JUMPDEST DUP3 DUP1 REVERT JUMPDEST DUP3 DUP5 CALLVALUE PUSH2 0x148 JUMPI DUP2 PUSH1 0x3 NOT CALLDATASIZE ADD SLT PUSH2 0x148 JUMPI PUSH1 0x20 SWAP1 PUSH1 0x5 SLOAD SWAP1 MLOAD SWAP1 DUP2 MSTORE RETURN JUMPDEST POP DUP3 SWAP1 CALLVALUE PUSH2 0x24E JUMPI PUSH1 0x20 CALLDATASIZE PUSH1 0x3 NOT ADD SLT PUSH2 0x24E JUMPI CALLDATALOAD DUP3 MSTORE PUSH1 0x3 PUSH1 0x20 SWAP1 DUP2 MSTORE SWAP2 DUP2 SWAP1 KECCAK256 DUP1 SLOAD PUSH1 0x1 DUP3 ADD SLOAD PUSH1 0x2 SWAP1 SWAP3 ADD SLOAD SWAP3 MLOAD SWAP1 DUP2 MSTORE SWAP3 DUP4 ADD MSTORE PUSH1 0xFF AND ISZERO ISZERO PUSH1 0x40 DUP3 ADD MSTORE PUSH1 0x60 SWAP1 RETURN JUMPDEST POP DUP3 SWAP1 CALLVALUE PUSH2 0x24E JUMPI PUSH1 0x20 CALLDATASIZE PUSH1 0x3 NOT ADD SLT PUSH2 0x24E JUMPI PUSH1 0x2 DUP3 PUSH1 0x20 SWAP5 PUSH1 0xFF SWAP4 CALLDATALOAD DUP2 MSTORE PUSH1 0x3 DUP7 MSTORE KECCAK256 ADD SLOAD AND SWAP1 MLOAD SWAP1 ISZERO ISZERO DUP2 MSTORE RETURN JUMPDEST DUP3 DUP5 CALLVALUE PUSH2 0x148 JUMPI DUP2 PUSH1 0x3 NOT CALLDATASIZE ADD SLT PUSH2 0x148 JUMPI PUSH1 0x20 SWAP1 PUSH2 0x306 PUSH2 0x945 JUMP JUMPDEST SWAP1 MLOAD SWAP1 DUP2 MSTORE RETURN JUMPDEST POP DUP3 SWAP1 CALLVALUE PUSH2 0x24E JUMPI DUP2 PUSH1 0x3 NOT CALLDATASIZE ADD SLT PUSH2 0x24E JUMPI PUSH1 0x24 CALLDATALOAD PUSH1 0x1 PUSH1 0x1 PUSH1 0xA0 SHL SUB DUP2 AND SWAP2 SWAP1 DUP3 SWAP1 SUB PUSH2 0x35C JUMPI PUSH1 0x20 SWAP4 PUSH1 0xFF SWAP3 DUP5 SWAP3 CALLDATALOAD DUP3 MSTORE PUSH1 0x3 DUP7 MSTORE PUSH1 0x3 DUP4 DUP4 KECCAK256 ADD SWAP1 DUP3 MSTORE DUP6 MSTORE KECCAK256 SLOAD AND SWAP1 MLOAD SWAP1 ISZERO ISZERO DUP2 MSTORE RETURN JUMPDEST DUP4 DUP1 REVERT JUMPDEST DUP3 DUP5 CALLVALUE PUSH2 0x148 JUMPI DUP2 PUSH1 0x3 NOT CALLDATASIZE ADD SLT PUSH2 0x148 JUMPI SWAP1 SLOAD SWAP1 MLOAD PUSH1 0x1 PUSH1 0x1 PUSH1 0xA0 SHL SUB SWAP1 SWAP2 AND DUP2 MSTORE PUSH1 0x20 SWAP1 RETURN JUMPDEST DUP3 CALLVALUE PUSH2 0x3E2 JUMPI DUP1 PUSH1 0x3 NOT CALLDATASIZE ADD SLT PUSH2 0x3E2 JUMPI PUSH2 0x3A1 PUSH2 0x88A JUMP JUMPDEST DUP1 SLOAD PUSH1 0x1 PUSH1 0x1 PUSH1 0xA0 SHL SUB NOT DUP2 AND DUP3 SSTORE DUP2 SWAP1 PUSH1 0x1 PUSH1 0x1 PUSH1 0xA0 SHL SUB AND PUSH32 0x8BE0079C531659141344CD1FD0A4F28419497F9722A3DAAFE3B4186F6B6457E0 DUP3 DUP1 LOG3 DUP1 RETURN JUMPDEST DUP1 REVERT JUMPDEST POP DUP3 SWAP1 CALLVALUE PUSH2 0x24E JUMPI DUP3 PUSH1 0x3 NOT CALLDATASIZE ADD SLT PUSH2 0x24E JUMPI PUSH1 0x60 SWAP3 POP SLOAD SWAP1 PUSH1 0x5 SLOAD SWAP1 PUSH2 0x40A PUSH2 0x945 JUMP JUMPDEST SWAP2 DUP2 MLOAD SWAP4 DUP5 MSTORE PUSH1 0x20 DUP5 ADD MSTORE DUP3 ADD MSTORE RETURN JUMPDEST POP DUP3 SWAP1 CALLVALUE PUSH2 0x24E JUMPI PUSH1 0x20 CALLDATASIZE PUSH1 0x3 NOT ADD SLT PUSH2 0x24E JUMPI PUSH2 0x436 PUSH2 0x86F JUMP JUMPDEST PUSH2 0x43E PUSH2 0x88A JUMP JUMPDEST PUSH1 0x1 PUSH1 0x1 PUSH1 0xA0 SHL SUB AND SWAP2 DUP3 ISZERO PUSH2 0x4E2 JUMPI DUP3 DUP5 MSTORE PUSH1 0x2 PUSH1 0x20 MSTORE PUSH1 0xFF DUP2 DUP6 KECCAK256 SLOAD AND PUSH2 0x4A9 JUMPI DUP3 DUP5 MSTORE PUSH1 0x2 PUSH1 0x20 MSTORE DUP4 KECCAK256 PUSH1 0x1 PUSH1 0xFF NOT DUP3 SLOAD AND OR SWAP1 SSTORE PUSH2 0x480 DUP2 SLOAD PUSH2 0x8E2 JUMP JUMPDEST SWAP1 SSTORE PUSH32 0xE366C1C0452ED8EEC96861E9E54141EBFF23C9EC89FE27B996B45F5EC3884987 DUP3 DUP1 LOG2 DUP1 RETURN JUMPDEST SWAP1 PUSH1 0x20 PUSH1 0x64 SWAP3 MLOAD SWAP2 PUSH3 0x461BCD PUSH1 0xE5 SHL DUP4 MSTORE DUP3 ADD MSTORE PUSH1 0x13 PUSH1 0x24 DUP3 ADD MSTORE PUSH19 0x20B63932B0B23C9030903B30B634B230BA37B9 PUSH1 0x69 SHL PUSH1 0x44 DUP3 ADD MSTORE REVERT JUMPDEST SWAP1 PUSH1 0x20 PUSH1 0x64 SWAP3 MLOAD SWAP2 PUSH3 0x461BCD PUSH1 0xE5 SHL DUP4 MSTORE DUP3 ADD MSTORE PUSH1 0xF PUSH1 0x24 DUP3 ADD MSTORE PUSH15 0x496E76616C69642061646472657373 PUSH1 0x88 SHL PUSH1 0x44 DUP3 ADD MSTORE REVERT JUMPDEST POP DUP3 SWAP1 CALLVALUE PUSH2 0x24E JUMPI PUSH1 0x20 CALLDATASIZE PUSH1 0x3 NOT ADD SLT PUSH2 0x24E JUMPI PUSH2 0x533 PUSH2 0x86F JUMP JUMPDEST PUSH2 0x53B PUSH2 0x88A JUMP JUMPDEST PUSH1 0x1 PUSH1 0x1 PUSH1 0xA0 SHL SUB AND DUP1 DUP5 MSTORE PUSH1 0x2 PUSH1 0x20 MSTORE DUP3 DUP5 KECCAK256 SLOAD SWAP1 SWAP3 SWAP1 PUSH2 0x55F SWAP1 PUSH1 0xFF AND PUSH2 0x907 JUMP JUMPDEST PUSH1 0x3 DUP3 SLOAD GT ISZERO PUSH2 0x5C3 JUMPI DUP3 DUP5 MSTORE PUSH1 0x2 PUSH1 0x20 MSTORE DUP4 KECCAK256 DUP1 SLOAD PUSH1 0xFF NOT AND SWAP1 SSTORE DUP1 SLOAD DUP1 ISZERO PUSH2 0x5B0 JUMPI PUSH1 0x0 NOT ADD SWAP1 SSTORE PUSH32 0xE1434E25D6611E0DB941968FDC97811C982AC1602E951637D206F5FDDA9DD8F1 DUP3 DUP1 LOG2 DUP1 RETURN JUMPDEST PUSH4 0x4E487B71 PUSH1 0xE0 SHL DUP5 MSTORE PUSH1 0x11 DUP3 MSTORE PUSH1 0x24 DUP5 REVERT JUMPDEST SWAP1 PUSH1 0x20 PUSH1 0x64 SWAP3 MLOAD SWAP2 PUSH3 0x461BCD PUSH1 0xE5 SHL DUP4 MSTORE DUP3 ADD MSTORE PUSH1 0x1D PUSH1 0x24 DUP3 ADD MSTORE PUSH32 0x4D696E696D756D20332076616C696461746F7273207265717569726564000000 PUSH1 0x44 DUP3 ADD MSTORE REVERT JUMPDEST POP DUP3 CALLVALUE PUSH2 0x24E JUMPI PUSH1 0x20 SWAP1 DUP2 PUSH1 0x3 NOT CALLDATASIZE ADD SLT PUSH2 0x35C JUMPI DUP3 CALLDATALOAD SWAP2 CALLER DUP6 MSTORE PUSH1 0x2 DUP2 MSTORE PUSH2 0x634 PUSH1 0xFF DUP4 DUP8 KECCAK256 SLOAD AND PUSH2 0x907 JUMP JUMPDEST PUSH1 0x1 SWAP4 PUSH1 0x2 DUP6 SLOAD EQ PUSH2 0x79B JUMPI PUSH1 0x2 DUP6 SSTORE DUP4 DUP7 MSTORE PUSH1 0x3 DUP3 MSTORE PUSH1 0xFF PUSH1 0x2 DUP5 DUP9 KECCAK256 ADD SLOAD AND PUSH2 0x766 JUMPI DUP4 DUP7 MSTORE PUSH1 0x3 DUP3 MSTORE DUP3 DUP7 KECCAK256 SWAP3 PUSH1 0x3 DUP5 ADD SWAP2 CALLER DUP9 MSTORE DUP3 DUP5 MSTORE PUSH1 0xFF DUP3 DUP10 KECCAK256 SLOAD AND PUSH2 0x735 JUMPI POP DUP6 DUP5 ADD SWAP2 DUP3 SLOAD ISZERO PUSH2 0x726 JUMPI JUMPDEST CALLER DUP9 MSTORE DUP4 MSTORE DUP1 DUP8 KECCAK256 PUSH1 0xFF NOT SWAP1 DUP8 DUP3 DUP3 SLOAD AND OR SWAP1 SSTORE DUP7 PUSH2 0x6A6 DUP7 SLOAD PUSH2 0x8E2 JUMP JUMPDEST SWAP4 DUP5 DUP8 SSTORE SLOAD DUP4 MLOAD DUP6 DUP2 MSTORE DUP2 DUP8 DUP3 ADD MSTORE DUP9 PUSH32 0xF6A3BA8ADDA9A54209951EF8E277241B2B0AF1467DA56EDC5B9EAD60BA423F11 DUP7 CALLER SWAP4 LOG3 DUP5 LT ISZERO PUSH2 0x6E9 JUMPI JUMPDEST DUP1 SSTORE DUP8 DUP1 RETURN JUMPDEST PUSH1 0x2 PUSH32 0x249F0D0DFCF78699BF1348633323BD7CA187FA7C50400CECF9E692C6E28E1AC0 SWAP7 ADD SWAP2 DUP3 SLOAD AND OR SWAP1 SSTORE MLOAD SWAP1 DUP2 MSTORE LOG2 DUP3 DUP1 DUP1 DUP1 DUP1 DUP1 DUP7 PUSH2 0x6E3 JUMP JUMPDEST PUSH2 0x72E PUSH2 0x945 JUMP JUMPDEST DUP4 SSTORE PUSH2 0x687 JUMP JUMPDEST DUP4 PUSH1 0x64 SWAP3 MLOAD SWAP2 PUSH3 0x461BCD PUSH1 0xE5 SHL DUP4 MSTORE DUP3 ADD MSTORE PUSH1 0xD PUSH1 0x24 DUP3 ADD MSTORE PUSH13 0x105B1C9958591E481D9BDD1959 PUSH1 0x9A SHL PUSH1 0x44 DUP3 ADD MSTORE REVERT JUMPDEST SWAP2 MLOAD PUSH3 0x461BCD PUSH1 0xE5 SHL DUP2 MSTORE SWAP2 DUP3 ADD MSTORE PUSH1 0x11 PUSH1 0x24 DUP3 ADD MSTORE PUSH17 0x105B1C9958591E481D985B1A59185D1959 PUSH1 0x7A SHL PUSH1 0x44 DUP3 ADD MSTORE PUSH1 0x64 SWAP1 REVERT JUMPDEST SWAP2 MLOAD PUSH3 0x461BCD PUSH1 0xE5 SHL DUP2 MSTORE SWAP2 DUP3 ADD MSTORE PUSH1 0x1F PUSH1 0x24 DUP3 ADD MSTORE PUSH32 0x5265656E7472616E637947756172643A207265656E7472616E742063616C6C00 PUSH1 0x44 DUP3 ADD MSTORE PUSH1 0x64 SWAP1 REVERT JUMPDEST POP DUP3 SWAP1 CALLVALUE PUSH2 0x24E JUMPI PUSH1 0x20 CALLDATASIZE PUSH1 0x3 NOT ADD SLT PUSH2 0x24E JUMPI DUP1 CALLDATALOAD SWAP2 PUSH2 0x7FB PUSH2 0x88A JUMP JUMPDEST DUP3 ISZERO ISZERO DUP1 PUSH2 0x848 JUMPI JUMPDEST ISZERO PUSH2 0x811 JUMPI POP POP PUSH1 0x5 SSTORE DUP1 RETURN JUMPDEST SWAP1 PUSH1 0x20 PUSH1 0x64 SWAP3 MLOAD SWAP2 PUSH3 0x461BCD PUSH1 0xE5 SHL DUP4 MSTORE DUP3 ADD MSTORE PUSH1 0x11 PUSH1 0x24 DUP3 ADD MSTORE PUSH17 0x125B9D985B1A59081D1A1C995CDA1BDB19 PUSH1 0x7A SHL PUSH1 0x44 DUP3 ADD MSTORE REVERT JUMPDEST POP PUSH1 0x64 DUP4 GT ISZERO PUSH2 0x804 JUMP JUMPDEST SWAP2 SWAP1 POP CALLVALUE PUSH2 0x24E JUMPI DUP3 PUSH1 0x3 NOT CALLDATASIZE ADD SLT PUSH2 0x24E JUMPI PUSH1 0x20 SWAP3 POP SLOAD DUP2 MSTORE RETURN JUMPDEST PUSH1 0x4 CALLDATALOAD SWAP1 PUSH1 0x1 PUSH1 0x1 PUSH1 0xA0 SHL SUB DUP3 AND DUP3 SUB PUSH2 0x885 JUMPI JUMP JUMPDEST PUSH1 0x0 DUP1 REVERT JUMPDEST PUSH1 0x0 SLOAD PUSH1 0x1 PUSH1 0x1 PUSH1 0xA0 SHL SUB AND CALLER SUB PUSH2 0x89E JUMPI JUMP JUMPDEST PUSH1 0x64 PUSH1 0x40 MLOAD PUSH3 0x461BCD PUSH1 0xE5 SHL DUP2 MSTORE PUSH1 0x20 PUSH1 0x4 DUP3 ADD MSTORE PUSH1 0x20 PUSH1 0x24 DUP3 ADD MSTORE PUSH32 0x4F776E61626C653A2063616C6C6572206973206E6F7420746865206F776E6572 PUSH1 0x44 DUP3 ADD MSTORE REVERT JUMPDEST PUSH1 0x0 NOT DUP2 EQ PUSH2 0x8F1 JUMPI PUSH1 0x1 ADD SWAP1 JUMP JUMPDEST PUSH4 0x4E487B71 PUSH1 0xE0 SHL PUSH1 0x0 MSTORE PUSH1 0x11 PUSH1 0x4 MSTORE PUSH1 0x24 PUSH1 0x0 REVERT JUMPDEST ISZERO PUSH2 0x90E JUMPI JUMP JUMPDEST PUSH1 0x40 MLOAD PUSH3 0x461BCD PUSH1 0xE5 SHL DUP2 MSTORE PUSH1 0x20 PUSH1 0x4 DUP3 ADD MSTORE PUSH1 0xF PUSH1 0x24 DUP3 ADD MSTORE PUSH15 0x2737BA1030903B30B634B230BA37B9 PUSH1 0x89 SHL PUSH1 0x44 DUP3 ADD MSTORE PUSH1 0x64 SWAP1 REVERT JUMPDEST PUSH1 0x4 SLOAD PUSH1 0x5 SLOAD SWAP1 DUP2 DUP2 MUL SWAP2 DUP2 DUP4 DIV EQ SWAP1 ISZERO OR ISZERO PUSH2 0x8F1 JUMPI PUSH1 0x64 SWAP1 DIV DUP1 PUSH2 0x96B JUMPI POP PUSH1 0x1 SWAP1 JUMP JUMPDEST SWAP1 JUMP INVALID LOG2 PUSH5 0x6970667358 0x22 SLT KECCAK256 0xAE 0xB2 SIGNEXTEND PUSH6 0x53073047E878 DUP3 0xCF 0xBB SMOD PUSH22 0x513807AD9718658E0D2F091122AE6F187E64736F6C63 NUMBER STOP ADDMOD SGT STOP CALLER "},"methodIdentifiers":{"addValidator(address)":"4d238c8e","getValidationStatus(bytes32)":"ff2febfc","getValidatorInfo()":"6bc773c2","hasVoted(bytes32,address)":"aadc3b72","isValidated(bytes32)":"bf1db71e","owner()":"8da5cb5b","removeValidator(address)":"40a141ff","renounceOwnership()":"715018a6","requiredVotes()":"bd31a4d8","transferOwnership(address)":"f2fde38b","updateValidationThreshold(uint256)":"1e7731b9","validateTransaction(bytes32)":"344829c8","validationThreshold()":"eeb6babf","validations(bytes32)":"e28c3802","validatorCount()":"0f43a677","validators(address)":"fa52c7d8"}}}}}