{"contracts/BridgeMessageRouter.sol":{"BridgeMessageRouter":{"abi":[{"inputs":[{"internalType":"address","name":"_bridgeReceiver","type":"address"}],"stateMutability":"nonpayable","type":"constructor"},{"anonymous":false,"inputs":[{"indexed":true,"internalType":"uint256","name":"srcChainId","type":"uint256"},{"indexed":false,"internalType":"bytes","name":"payload","type":"bytes"},{"indexed":false,"internalType":"address","name":"sender","type":"address"}],"name":"MessageReceived","type":"event"},{"anonymous":false,"inputs":[{"indexed":true,"internalType":"uint256","name":"dstChainId","type":"uint256"},{"indexed":false,"internalType":"bytes","name":"payload","type":"bytes"},{"indexed":false,"internalType":"address","name":"sender","type":"address"}],"name":"MessageSent","type":"event"},{"anonymous":false,"inputs":[{"indexed":true,"internalType":"address","name":"previousOwner","type":"address"},{"indexed":true,"internalType":"address","name":"newOwner","type":"address"}],"name":"OwnershipTransferred","type":"event"},{"anonymous":false,"inputs":[{"indexed":false,"internalType":"address","name":"account","type":"address"}],"name":"Paused","type":"event"},{"anonymous":false,"inputs":[{"indexed":true,"internalType":"uint256","name":"chainId","type":"uint256"},{"indexed":false,"internalType":"address","name":"remoteContract","type":"address"}],"name":"RemoteContractUpdated","type":"event"},{"anonymous":false,"inputs":[{"indexed":false,"internalType":"address","name":"account","type":"address"}],"name":"Unpaused","type":"event"},{"inputs":[{"internalType":"address","name":"sender","type":"address"}],"name":"addAuthorizedSender","outputs":[],"stateMutability":"nonpayable","type":"function"},{"inputs":[{"internalType":"address","name":"","type":"address"}],"name":"authorizedSenders","outputs":[{"internalType":"bool","name":"","type":"bool"}],"stateMutability":"view","type":"function"},{"inputs":[],"name":"bridgeReceiver","outputs":[{"internalType":"contract IBridgeReceiver","name":"","type":"address"}],"stateMutability":"view","type":"function"},{"inputs":[],"name":"emergencyWithdraw","outputs":[],"stateMutability":"nonpayable","type":"function"},{"inputs":[{"internalType":"uint256","name":"chainId","type":"uint256"}],"name":"getRemoteContract","outputs":[{"internalType":"address","name":"","type":"address"}],"stateMutability":"view","type":"function"},{"inputs":[],"name":"owner","outputs":[{"internalType":"address","name":"","type":"address"}],"stateMutability":"view","type":"function"},{"inputs":[],"name":"pause","outputs":[],"stateMutability":"nonpayable","type":"function"},{"inputs":[],"name":"paused","outputs":[{"internalType":"bool","name":"","type":"bool"}],"stateMutability":"view","type":"function"},{"inputs":[{"internalType":"uint256","name":"srcChainId","type":"uint256"},{"internalType":"address","name":"sender","type":"address"},{"internalType":"bytes","name":"payload","type":"bytes"}],"name":"receiveMessage","outputs":[],"stateMutability":"nonpayable","type":"function"},{"inputs":[{"internalType":"uint256","name":"","type":"uint256"}],"name":"remoteBridgeContracts","outputs":[{"internalType":"address","name":"","type":"address"}],"stateMutability":"view","type":"function"},{"inputs":[{"internalType":"address","name":"sender","type":"address"}],"name":"removeAuthorizedSender","outputs":[],"stateMutability":"nonpayable","type":"function"},{"inputs":[],"name":"renounceOwnership","outputs":[],"stateMutability":"nonpayable","type":"function"},{"inputs":[{"internalType":"uint256","name":"dstChainId","type":"uint256"},{"internalType":"bytes","name":"payload","type":"bytes"}],"name":"sendMessage","outputs":[],"stateMutability":"payable","type":"function"},{"inputs":[{"internalType":"uint256","name":"chainId","type":"uint256"},{"internalType":"address","name":"remoteContract","type":"address"}],"name":"setRemoteBridgeContract","outputs":[],"stateMutability":"nonpayable","type":"function"},{"inputs":[{"internalType":"address","name":"newOwner","type":"address"}],"name":"transferOwnership","outputs":[],"stateMutability":"nonpayable","type":"function"},{"inputs":[],"name":"unpause","outputs":[],"stateMutability":"nonpayable","type":"function"},{"inputs":[{"internalType":"address","name":"newReceiver","type":"address"}],"name":"updateBridgeReceiver","outputs":[],"stateMutability":"nonpayable","type":"function"},{"stateMutability":"payable","type":"receive"}],"evm":{"bytecode":{"linkReferences":{},"object":"6080346100d357601f610b0b38819003918201601f19168301916001600160401b038311848410176100d8578084926020946040528339810103126100d357516001600160a01b0390818116908190036100d3576040906000908154835194339082167f8be0079c531659141344cd1fd0a4f28419497f9722a3daafe3b4186f6b6457e08580a36001600160a81b0319163360ff60a01b198116919091178355600380546001600160a01b031916929092179091558152600260205220805460ff19166001179055610a1c90816100ef8239f35b600080fd5b634e487b7160e01b600052604160045260246000fdfe6080604081815260049182361015610022575b505050361561002057600080fd5b005b600092833560e01c918263014700eb14610831575081630a208972146108085781630dbfdbea146107b75781631885c2f9146106545781633f4ba83a146105ba5781635c975abb146105955781636f32496714610557578163715018a6146104fa5781638456cb591461049b5781638da5cb5b14610473578163cbd5796714610433578163db2e21bc146103e4578163e289adcd146102c0578163f2fde38b146101f3578163f5065467146101c0578163f94869f31461013d575063fa7229ee146100ed5780610012565b3461013957602036600319011261013957610106610860565b61010e6108bf565b6001600160a01b03166101228115156109a8565b825260026020528120805460ff1916600117905580f35b5080fd5b9050346101bc57816003193601126101bc5760207f99759e55ab152a91ad8beb84138249516cd741f0a29b28fc0faa9d3f0f146fbf91359261017d61087b565b6101856108bf565b6001600160a01b03169061019a8215156109a8565b8486526001835280862080546001600160a01b0319168317905551908152a280f35b8280fd5b9050346101bc5760203660031901126101bc5735825260016020908152918190205490516001600160a01b039091168152f35b9050346101bc5760203660031901126101bc5761020e610860565b906102176108bf565b6001600160a01b0391821692831561026e575050600054826bffffffffffffffffffffffff60a01b821617600055167f8be0079c531659141344cd1fd0a4f28419497f9722a3daafe3b4186f6b6457e0600080a380f35b906020608492519162461bcd60e51b8352820152602660248201527f4f776e61626c653a206e6577206f776e657220697320746865207a65726f206160448201526564647265737360d01b6064820152fd5b839150826003193601126101395780359060243567ffffffffffffffff81116103e0576102f09036908301610891565b9091338552600260205260ff8686205416156103a55761030e610961565b8385526001602052858520546001600160a01b031615610362575061035c7faf8ef1cbdd808b31d8a125e527b23c8755c78cb7801e4b45f058d19d5398547b93949551928392339184610938565b0390a280f35b606490602087519162461bcd60e51b8352820152601760248201527f52656d6f746520636f6e7472616374206e6f74207365740000000000000000006044820152fd5b606490602087519162461bcd60e51b835282015260156024820152742737ba1030baba3437b934bd32b21039b2b73232b960591b6044820152fd5b8380fd5b5050346101395781600319360112610139576103fe6108bf565b8180808060018060a01b03815416479082821561042a575bf115610420575080f35b51903d90823e3d90fd5b506108fc610416565b5050346101395760203660031901126101395761044e610860565b6104566108bf565b6001600160a01b0316825260026020528120805460ff1916905580f35b505034610139578160031936011261013957905490516001600160a01b039091168152602090f35b50503461013957816003193601126101395760207f62e78cea01bee320cd4e420270b5ea74000d11b0c9f74754ebdbfc544b05a258916104d96108bf565b6104e1610961565b835460ff60a01b1916600160a01b17845551338152a180f35b83346105545780600319360112610554576105136108bf565b600080546001600160a01b0319811682556001600160a01b03167f8be0079c531659141344cd1fd0a4f28419497f9722a3daafe3b4186f6b6457e08280a380f35b80fd5b5050346101395760203660031901126101395760209160ff9082906001600160a01b03610582610860565b1681526002855220541690519015158152f35b50503461013957816003193601126101395760ff6020925460a01c1690519015158152f35b9050346101bc57826003193601126101bc576105d46108bf565b82549060ff8260a01c161561061a575060ff60a01b19168255513381527f5db9ee0a495bf2e6ff9c91a7834c1ba4fdd244a5e8aa4e537bd38aeae4b073aa90602090a180f35b606490602084519162461bcd60e51b8352820152601460248201527314185d5cd8589b194e881b9bdd081c185d5cd95960621b6044820152fd5b919050346101bc5760603660031901126101bc5781359161067361087b565b9267ffffffffffffffff906044358281116107b3576106959036908501610891565b9190956106a0610961565b8188526001602052858820546001600160a01b03828116929091821683900361077f5790837f12aaaf3cde3146245be5b5bb756f10fa3653b99ed3f2f654f314728b4fed447c868b6106fb8e999897968d5193849384610938565b0390a26003541691823b1561077b57849061073c89519a8b9687958694631885c2f960e01b86528c8601526024850152606060448501526064840191610917565b03925af180156107715761074e578480f35b831161075e575052388080808480f35b634e487b7160e01b845260419052602483fd5b83513d87823e3d90fd5b8480fd5b875162461bcd60e51b8152602081890152600e60248201526d24b73b30b634b21039b2b73232b960911b6044820152606490fd5b8680fd5b8334610554576020366003190112610554576107d1610860565b6107d96108bf565b6001600160a01b03166107ed8115156109a8565b6bffffffffffffffffffffffff60a01b600354161760035580f35b50503461013957816003193601126101395760035490516001600160a01b039091168152602090f35b848434610139576020366003190112610139579235815260016020908152929020546001600160a01b03168152f35b600435906001600160a01b038216820361087657565b600080fd5b602435906001600160a01b038216820361087657565b9181601f840112156108765782359167ffffffffffffffff8311610876576020838186019501011161087657565b6000546001600160a01b031633036108d357565b606460405162461bcd60e51b815260206004820152602060248201527f4f776e61626c653a2063616c6c6572206973206e6f7420746865206f776e65726044820152fd5b908060209392818452848401376000828201840152601f01601f1916010190565b9160209161095191959495604085526040850191610917565b6001600160a01b03909416910152565b60ff60005460a01c1661097057565b60405162461bcd60e51b815260206004820152601060248201526f14185d5cd8589b194e881c185d5cd95960821b6044820152606490fd5b156109af57565b60405162461bcd60e51b815260206004820152600f60248201526e496e76616c6964206164647265737360881b6044820152606490fdfea2646970667358221220288d2a8a38bcc44744ffbffa3cfb1d59a46c98e3df0265ac2dd0b58df08903fb64736f6c63430008130033","opcodes":"PUSH1 0x80 CALLVALUE PUSH2 0xD3 JUMPI PUSH1 0x1F PUSH2 0xB0B CODESIZE DUP2 SWAP1 SUB SWAP2 DUP3 ADD PUSH1 0x1F NOT AND DUP4 ADD SWAP2 PUSH1 0x1 PUSH1 0x1 PUSH1 0x40 SHL SUB DUP4 GT DUP5 DUP5 LT OR PUSH2 0xD8 JUMPI DUP1 DUP5 SWAP3 PUSH1 0x20 SWAP5 PUSH1 0x40 MSTORE DUP4 CODECOPY DUP2 ADD SUB SLT PUSH2 0xD3 JUMPI MLOAD PUSH1 0x1 PUSH1 0x1 PUSH1 0xA0 SHL SUB SWAP1 DUP2 DUP2 AND SWAP1 DUP2 SWAP1 SUB PUSH2 0xD3 JUMPI PUSH1 0x40 SWAP1 PUSH1 0x0 SWAP1 DUP2 SLOAD DUP4 MLOAD SWAP5 CALLER SWAP1 DUP3 AND PUSH32 0x8BE0079C531659141344CD1FD0A4F28419497F9722A3DAAFE3B4186F6B6457E0 DUP6 DUP1 LOG3 PUSH1 0x1 PUSH1 0x1 PUSH1 0xA8 SHL SUB NOT AND CALLER PUSH1 0xFF PUSH1 0xA0 SHL NOT DUP2 AND SWAP2 SWAP1 SWAP2 OR DUP4 SSTORE PUSH1 0x3 DUP1 SLOAD PUSH1 0x1 PUSH1 0x1 PUSH1 0xA0 SHL SUB NOT AND SWAP3 SWAP1 SWAP3 OR SWAP1 SWAP2 SSTORE DUP2 MSTORE PUSH1 0x2 PUSH1 0x20 MSTORE KECCAK256 DUP1 SLOAD PUSH1 0xFF NOT AND PUSH1 0x1 OR SWAP1 SSTORE PUSH2 0xA1C SWAP1 DUP2 PUSH2 0xEF DUP3 CODECOPY RETURN JUMPDEST PUSH1 0x0 DUP1 REVERT JUMPDEST PUSH4 0x4E487B71 PUSH1 0xE0 SHL PUSH1 0x0 MSTORE PUSH1 0x41 PUSH1 0x4 MSTORE PUSH1 0x24 PUSH1 0x0 REVERT INVALID PUSH1 0x80 PUSH1 0x40 DUP2 DUP2 MSTORE PUSH1 0x4 SWAP2 DUP3 CALLDATASIZE LT ISZERO PUSH2 0x22 JUMPI JUMPDEST POP POP POP CALLDATASIZE ISZERO PUSH2 0x20 JUMPI PUSH1 0x0 DUP1 REVERT JUMPDEST STOP JUMPDEST PUSH1 0x0 SWAP3 DUP4 CALLDATALOAD PUSH1 0xE0 SHR SWAP2 DUP3 PUSH4 0x14700EB EQ PUSH2 0x831 JUMPI POP DUP2 PUSH4 0xA208972 EQ PUSH2 0x808 JUMPI DUP2 PUSH4 0xDBFDBEA EQ PUSH2 0x7B7 JUMPI DUP2 PUSH4 0x1885C2F9 EQ PUSH2 0x654 JUMPI DUP2 PUSH4 0x3F4BA83A EQ PUSH2 0x5BA JUMPI DUP2 PUSH4 0x5C975ABB EQ PUSH2 0x595 JUMPI DUP2 PUSH4 0x6F324967 EQ PUSH2 0x557 JUMPI DUP2 PUSH4 0x715018A6 EQ PUSH2 0x4FA JUMPI DUP2 PUSH4 0x8456CB59 EQ PUSH2 0x49B JUMPI DUP2 PUSH4 0x8DA5CB5B EQ PUSH2 0x473 JUMPI DUP2 PUSH4 0xCBD57967 EQ PUSH2 0x433 JUMPI DUP2 PUSH4 0xDB2E21BC EQ PUSH2 0x3E4 JUMPI DUP2 PUSH4 0xE289ADCD EQ PUSH2 0x2C0 JUMPI DUP2 PUSH4 0xF2FDE38B EQ PUSH2 0x1F3 JUMPI DUP2 PUSH4 0xF5065467 EQ PUSH2 0x1C0 JUMPI DUP2 PUSH4 0xF94869F3 EQ PUSH2 0x13D JUMPI POP PUSH4 0xFA7229EE EQ PUSH2 0xED JUMPI DUP1 PUSH2 0x12 JUMP JUMPDEST CALLVALUE PUSH2 0x139 JUMPI PUSH1 0x20 CALLDATASIZE PUSH1 0x3 NOT ADD SLT PUSH2 0x139 JUMPI PUSH2 0x106 PUSH2 0x860 JUMP JUMPDEST PUSH2 0x10E PUSH2 0x8BF JUMP JUMPDEST PUSH1 0x1 PUSH1 0x1 PUSH1 0xA0 SHL SUB AND PUSH2 0x122 DUP2 ISZERO ISZERO PUSH2 0x9A8 JUMP JUMPDEST DUP3 MSTORE PUSH1 0x2 PUSH1 0x20 MSTORE DUP2 KECCAK256 DUP1 SLOAD PUSH1 0xFF NOT AND PUSH1 0x1 OR SWAP1 SSTORE DUP1 RETURN JUMPDEST POP DUP1 REVERT JUMPDEST SWAP1 POP CALLVALUE PUSH2 0x1BC JUMPI DUP2 PUSH1 0x3 NOT CALLDATASIZE ADD SLT PUSH2 0x1BC JUMPI PUSH1 0x20 PUSH32 0x99759E55AB152A91AD8BEB84138249516CD741F0A29B28FC0FAA9D3F0F146FBF SWAP2 CALLDATALOAD SWAP3 PUSH2 0x17D PUSH2 0x87B JUMP JUMPDEST PUSH2 0x185 PUSH2 0x8BF JUMP JUMPDEST PUSH1 0x1 PUSH1 0x1 PUSH1 0xA0 SHL SUB AND SWAP1 PUSH2 0x19A DUP3 ISZERO ISZERO PUSH2 0x9A8 JUMP JUMPDEST DUP5 DUP7 MSTORE PUSH1 0x1 DUP4 MSTORE DUP1 DUP7 KECCAK256 DUP1 SLOAD PUSH1 0x1 PUSH1 0x1 PUSH1 0xA0 SHL SUB NOT AND DUP4 OR SWAP1 SSTORE MLOAD SWAP1 DUP2 MSTORE LOG2 DUP1 RETURN JUMPDEST DUP3 DUP1 REVERT JUMPDEST SWAP1 POP CALLVALUE PUSH2 0x1BC JUMPI PUSH1 0x20 CALLDATASIZE PUSH1 0x3 NOT ADD SLT PUSH2 0x1BC JUMPI CALLDATALOAD DUP3 MSTORE PUSH1 0x1 PUSH1 0x20 SWAP1 DUP2 MSTORE SWAP2 DUP2 SWAP1 KECCAK256 SLOAD SWAP1 MLOAD PUSH1 0x1 PUSH1 0x1 PUSH1 0xA0 SHL SUB SWAP1 SWAP2 AND DUP2 MSTORE RETURN JUMPDEST SWAP1 POP CALLVALUE PUSH2 0x1BC JUMPI PUSH1 0x20 CALLDATASIZE PUSH1 0x3 NOT ADD SLT PUSH2 0x1BC JUMPI PUSH2 0x20E PUSH2 0x860 JUMP JUMPDEST SWAP1 PUSH2 0x217 PUSH2 0x8BF JUMP JUMPDEST PUSH1 0x1 PUSH1 0x1 PUSH1 0xA0 SHL SUB SWAP2 DUP3 AND SWAP3 DUP4 ISZERO PUSH2 0x26E JUMPI POP POP PUSH1 0x0 SLOAD DUP3 PUSH12 0xFFFFFFFFFFFFFFFFFFFFFFFF PUSH1 0xA0 SHL DUP3 AND OR PUSH1 0x0 SSTORE AND PUSH32 0x8BE0079C531659141344CD1FD0A4F28419497F9722A3DAAFE3B4186F6B6457E0 PUSH1 0x0 DUP1 LOG3 DUP1 RETURN JUMPDEST SWAP1 PUSH1 0x20 PUSH1 0x84 SWAP3 MLOAD SWAP2 PUSH3 0x461BCD PUSH1 0xE5 SHL DUP4 MSTORE DUP3 ADD MSTORE PUSH1 0x26 PUSH1 0x24 DUP3 ADD MSTORE PUSH32 0x4F776E61626C653A206E6577206F776E657220697320746865207A65726F2061 PUSH1 0x44 DUP3 ADD MSTORE PUSH6 0x646472657373 PUSH1 0xD0 SHL PUSH1 0x64 DUP3 ADD MSTORE REVERT JUMPDEST DUP4 SWAP2 POP DUP3 PUSH1 0x3 NOT CALLDATASIZE ADD SLT PUSH2 0x139 JUMPI DUP1 CALLDATALOAD SWAP1 PUSH1 0x24 CALLDATALOAD PUSH8 0xFFFFFFFFFFFFFFFF DUP2 GT PUSH2 0x3E0 JUMPI PUSH2 0x2F0 SWAP1 CALLDATASIZE SWAP1 DUP4 ADD PUSH2 0x891 JUMP JUMPDEST SWAP1 SWAP2 CALLER DUP6 MSTORE PUSH1 0x2 PUSH1 0x20 MSTORE PUSH1 0xFF DUP7 DUP7 KECCAK256 SLOAD AND ISZERO PUSH2 0x3A5 JUMPI PUSH2 0x30E PUSH2 0x961 JUMP JUMPDEST DUP4 DUP6 MSTORE PUSH1 0x1 PUSH1 0x20 MSTORE DUP6 DUP6 KECCAK256 SLOAD PUSH1 0x1 PUSH1 0x1 PUSH1 0xA0 SHL SUB AND ISZERO PUSH2 0x362 JUMPI POP PUSH2 0x35C PUSH32 0xAF8EF1CBDD808B31D8A125E527B23C8755C78CB7801E4B45F058D19D5398547B SWAP4 SWAP5 SWAP6 MLOAD SWAP3 DUP4 SWAP3 CALLER SWAP2 DUP5 PUSH2 0x938 JUMP JUMPDEST SUB SWAP1 LOG2 DUP1 RETURN JUMPDEST PUSH1 0x64 SWAP1 PUSH1 0x20 DUP8 MLOAD SWAP2 PUSH3 0x461BCD PUSH1 0xE5 SHL DUP4 MSTORE DUP3 ADD MSTORE PUSH1 0x17 PUSH1 0x24 DUP3 ADD MSTORE PUSH32 0x52656D6F746520636F6E7472616374206E6F7420736574000000000000000000 PUSH1 0x44 DUP3 ADD MSTORE REVERT JUMPDEST PUSH1 0x64 SWAP1 PUSH1 0x20 DUP8 MLOAD SWAP2 PUSH3 0x461BCD PUSH1 0xE5 SHL DUP4 MSTORE DUP3 ADD MSTORE PUSH1 0x15 PUSH1 0x24 DUP3 ADD MSTORE PUSH21 0x2737BA1030BABA3437B934BD32B21039B2B73232B9 PUSH1 0x59 SHL PUSH1 0x44 DUP3 ADD MSTORE REVERT JUMPDEST DUP4 DUP1 REVERT JUMPDEST POP POP CALLVALUE PUSH2 0x139 JUMPI DUP2 PUSH1 0x3 NOT CALLDATASIZE ADD SLT PUSH2 0x139 JUMPI PUSH2 0x3FE PUSH2 0x8BF JUMP JUMPDEST DUP2 DUP1 DUP1 DUP1 PUSH1 0x1 DUP1 PUSH1 0xA0 SHL SUB DUP2 SLOAD AND SELFBALANCE SWAP1 DUP3 DUP3 ISZERO PUSH2 0x42A JUMPI JUMPDEST CALL ISZERO PUSH2 0x420 JUMPI POP DUP1 RETURN JUMPDEST MLOAD SWAP1 RETURNDATASIZE SWAP1 DUP3 RETURNDATACOPY RETURNDATASIZE SWAP1 REVERT JUMPDEST POP PUSH2 0x8FC PUSH2 0x416 JUMP JUMPDEST POP POP CALLVALUE PUSH2 0x139 JUMPI PUSH1 0x20 CALLDATASIZE PUSH1 0x3 NOT ADD SLT PUSH2 0x139 JUMPI PUSH2 0x44E PUSH2 0x860 JUMP JUMPDEST PUSH2 0x456 PUSH2 0x8BF JUMP JUMPDEST PUSH1 0x1 PUSH1 0x1 PUSH1 0xA0 SHL SUB AND DUP3 MSTORE PUSH1 0x2 PUSH1 0x20 MSTORE DUP2 KECCAK256 DUP1 SLOAD PUSH1 0xFF NOT AND SWAP1 SSTORE DUP1 RETURN JUMPDEST POP POP CALLVALUE PUSH2 0x139 JUMPI DUP2 PUSH1 0x3 NOT CALLDATASIZE ADD SLT PUSH2 0x139 JUMPI SWAP1 SLOAD SWAP1 MLOAD PUSH1 0x1 PUSH1 0x1 PUSH1 0xA0 SHL SUB SWAP1 SWAP2 AND DUP2 MSTORE PUSH1 0x20 SWAP1 RETURN JUMPDEST POP POP CALLVALUE PUSH2 0x139 JUMPI DUP2 PUSH1 0x3 NOT CALLDATASIZE ADD SLT PUSH2 0x139 JUMPI PUSH1 0x20 PUSH32 0x62E78CEA01BEE320CD4E420270B5EA74000D11B0C9F74754EBDBFC544B05A258 SWAP2 PUSH2 0x4D9 PUSH2 0x8BF JUMP JUMPDEST PUSH2 0x4E1 PUSH2 0x961 JUMP JUMPDEST DUP4 SLOAD PUSH1 0xFF PUSH1 0xA0 SHL NOT AND PUSH1 0x1 PUSH1 0xA0 SHL OR DUP5 SSTORE MLOAD CALLER DUP2 MSTORE LOG1 DUP1 RETURN JUMPDEST DUP4 CALLVALUE PUSH2 0x554 JUMPI DUP1 PUSH1 0x3 NOT CALLDATASIZE ADD SLT PUSH2 0x554 JUMPI PUSH2 0x513 PUSH2 0x8BF JUMP JUMPDEST PUSH1 0x0 DUP1 SLOAD PUSH1 0x1 PUSH1 0x1 PUSH1 0xA0 SHL SUB NOT DUP2 AND DUP3 SSTORE PUSH1 0x1 PUSH1 0x1 PUSH1 0xA0 SHL SUB AND PUSH32 0x8BE0079C531659141344CD1FD0A4F28419497F9722A3DAAFE3B4186F6B6457E0 DUP3 DUP1 LOG3 DUP1 RETURN JUMPDEST DUP1 REVERT JUMPDEST POP POP CALLVALUE PUSH2 0x139 JUMPI PUSH1 0x20 CALLDATASIZE PUSH1 0x3 NOT ADD SLT PUSH2 0x139 JUMPI PUSH1 0x20 SWAP2 PUSH1 0xFF SWAP1 DUP3 SWAP1 PUSH1 0x1 PUSH1 0x1 PUSH1 0xA0 SHL SUB PUSH2 0x582 PUSH2 0x860 JUMP JUMPDEST AND DUP2 MSTORE PUSH1 0x2 DUP6 MSTORE KECCAK256 SLOAD AND SWAP1 MLOAD SWAP1 ISZERO ISZERO DUP2 MSTORE RETURN JUMPDEST POP POP CALLVALUE PUSH2 0x139 JUMPI DUP2 PUSH1 0x3 NOT CALLDATASIZE ADD SLT PUSH2 0x139 JUMPI PUSH1 0xFF PUSH1 0x20 SWAP3 SLOAD PUSH1 0xA0 SHR AND SWAP1 MLOAD SWAP1 ISZERO ISZERO DUP2 MSTORE RETURN JUMPDEST SWAP1 POP CALLVALUE PUSH2 0x1BC JUMPI DUP3 PUSH1 0x3 NOT CALLDATASIZE ADD SLT PUSH2 0x1BC JUMPI PUSH2 0x5D4 PUSH2 0x8BF JUMP JUMPDEST DUP3 SLOAD SWAP1 PUSH1 0xFF DUP3 PUSH1 0xA0 SHR AND ISZERO PUSH2 0x61A JUMPI POP PUSH1 0xFF PUSH1 0xA0 SHL NOT AND DUP3 SSTORE MLOAD CALLER DUP2 MSTORE PUSH32 0x5DB9EE0A495BF2E6FF9C91A7834C1BA4FDD244A5E8AA4E537BD38AEAE4B073AA SWAP1 PUSH1 0x20 SWAP1 LOG1 DUP1 RETURN JUMPDEST PUSH1 0x64 SWAP1 PUSH1 0x20 DUP5 MLOAD SWAP2 PUSH3 0x461BCD PUSH1 0xE5 SHL DUP4 MSTORE DUP3 ADD MSTORE PUSH1 0x14 PUSH1 0x24 DUP3 ADD MSTORE PUSH20 0x14185D5CD8589B194E881B9BDD081C185D5CD959 PUSH1 0x62 SHL PUSH1 0x44 DUP3 ADD MSTORE REVERT JUMPDEST SWAP2 SWAP1 POP CALLVALUE PUSH2 0x1BC JUMPI PUSH1 0x60 CALLDATASIZE PUSH1 0x3 NOT ADD SLT PUSH2 0x1BC JUMPI DUP2 CALLDATALOAD SWAP2 PUSH2 0x673 PUSH2 0x87B JUMP JUMPDEST SWAP3 PUSH8 0xFFFFFFFFFFFFFFFF SWAP1 PUSH1 0x44 CALLDATALOAD DUP3 DUP2 GT PUSH2 0x7B3 JUMPI PUSH2 0x695 SWAP1 CALLDATASIZE SWAP1 DUP6 ADD PUSH2 0x891 JUMP JUMPDEST SWAP2 SWAP1 SWAP6 PUSH2 0x6A0 PUSH2 0x961 JUMP JUMPDEST DUP2 DUP9 MSTORE PUSH1 0x1 PUSH1 0x20 MSTORE DUP6 DUP9 KECCAK256 SLOAD PUSH1 0x1 PUSH1 0x1 PUSH1 0xA0 SHL SUB DUP3 DUP2 AND SWAP3 SWAP1 SWAP2 DUP3 AND DUP4 SWAP1 SUB PUSH2 0x77F JUMPI SWAP1 DUP4 PUSH32 0x12AAAF3CDE3146245BE5B5BB756F10FA3653B99ED3F2F654F314728B4FED447C DUP7 DUP12 PUSH2 0x6FB DUP15 SWAP10 SWAP9 SWAP8 SWAP7 DUP14 MLOAD SWAP4 DUP5 SWAP4 DUP5 PUSH2 0x938 JUMP JUMPDEST SUB SWAP1 LOG2 PUSH1 0x3 SLOAD AND SWAP2 DUP3 EXTCODESIZE ISZERO PUSH2 0x77B JUMPI DUP5 SWAP1 PUSH2 0x73C DUP10 MLOAD SWAP11 DUP12 SWAP7 DUP8 SWAP6 DUP7 SWAP5 PUSH4 0x1885C2F9 PUSH1 0xE0 SHL DUP7 MSTORE DUP13 DUP7 ADD MSTORE PUSH1 0x24 DUP6 ADD MSTORE PUSH1 0x60 PUSH1 0x44 DUP6 ADD MSTORE PUSH1 0x64 DUP5 ADD SWAP2 PUSH2 0x917 JUMP JUMPDEST SUB SWAP3 GAS CALL DUP1 ISZERO PUSH2 0x771 JUMPI PUSH2 0x74E JUMPI DUP5 DUP1 RETURN JUMPDEST DUP4 GT PUSH2 0x75E JUMPI POP MSTORE CODESIZE DUP1 DUP1 DUP1 DUP5 DUP1 RETURN JUMPDEST PUSH4 0x4E487B71 PUSH1 0xE0 SHL DUP5 MSTORE PUSH1 0x41 SWAP1 MSTORE PUSH1 0x24 DUP4 REVERT JUMPDEST DUP4 MLOAD RETURNDATASIZE DUP8 DUP3 RETURNDATACOPY RETURNDATASIZE SWAP1 REVERT JUMPDEST DUP5 DUP1 REVERT JUMPDEST DUP8 MLOAD PUSH3 0x461BCD PUSH1 0xE5 SHL DUP2 MSTORE PUSH1 0x20 DUP2 DUP10 ADD MSTORE PUSH1 0xE PUSH1 0x24 DUP3 ADD MSTORE PUSH14 0x24B73B30B634B21039B2B73232B9 PUSH1 0x91 SHL PUSH1 0x44 DUP3 ADD MSTORE PUSH1 0x64 SWAP1 REVERT JUMPDEST DUP7 DUP1 REVERT JUMPDEST DUP4 CALLVALUE PUSH2 0x554 JUMPI PUSH1 0x20 CALLDATASIZE PUSH1 0x3 NOT ADD SLT PUSH2 0x554 JUMPI PUSH2 0x7D1 PUSH2 0x860 JUMP JUMPDEST PUSH2 0x7D9 PUSH2 0x8BF JUMP JUMPDEST PUSH1 0x1 PUSH1 0x1 PUSH1 0xA0 SHL SUB AND PUSH2 0x7ED DUP2 ISZERO ISZERO PUSH2 0x9A8 JUMP JUMPDEST PUSH12 0xFFFFFFFFFFFFFFFFFFFFFFFF PUSH1 0xA0 SHL PUSH1 0x3 SLOAD AND OR PUSH1 0x3 SSTORE DUP1 RETURN JUMPDEST POP POP CALLVALUE PUSH2 0x139 JUMPI DUP2 PUSH1 0x3 NOT CALLDATASIZE ADD SLT PUSH2 0x139 JUMPI PUSH1 0x3 SLOAD SWAP1 MLOAD PUSH1 0x1 PUSH1 0x1 PUSH1 0xA0 SHL SUB SWAP1 SWAP2 AND DUP2 MSTORE PUSH1 0x20 SWAP1 RETURN JUMPDEST DUP5 DUP5 CALLVALUE PUSH2 0x139 JUMPI PUSH1 0x20 CALLDATASIZE PUSH1 0x3 NOT ADD SLT PUSH2 0x139 JUMPI SWAP3 CALLDATALOAD DUP2 MSTORE PUSH1 0x1 PUSH1 0x20 SWAP1 DUP2 MSTORE SWAP3 SWAP1 KECCAK256 SLOAD PUSH1 0x1 PUSH1 0x1 PUSH1 0xA0 SHL SUB AND DUP2 MSTORE RETURN JUMPDEST PUSH1 0x4 CALLDATALOAD SWAP1 PUSH1 0x1 PUSH1 0x1 PUSH1 0xA0 SHL SUB DUP3 AND DUP3 SUB PUSH2 0x876 JUMPI JUMP JUMPDEST PUSH1 0x0 DUP1 REVERT JUMPDEST PUSH1 0x24 CALLDATALOAD SWAP1 PUSH1 0x1 PUSH1 0x1 PUSH1 0xA0 SHL SUB DUP3 AND DUP3 SUB PUSH2 0x876 JUMPI JUMP JUMPDEST SWAP2 DUP2 PUSH1 0x1F DUP5 ADD SLT ISZERO PUSH2 0x876 JUMPI DUP3 CALLDATALOAD SWAP2 PUSH8 0xFFFFFFFFFFFFFFFF DUP4 GT PUSH2 0x876 JUMPI PUSH1 0x20 DUP4 DUP2 DUP7 ADD SWAP6 ADD ADD GT PUSH2 0x876 JUMPI JUMP JUMPDEST PUSH1 0x0 SLOAD PUSH1 0x1 PUSH1 0x1 PUSH1 0xA0 SHL SUB AND CALLER SUB PUSH2 0x8D3 JUMPI JUMP JUMPDEST PUSH1 0x64 PUSH1 0x40 MLOAD PUSH3 0x461BCD PUSH1 0xE5 SHL DUP2 MSTORE PUSH1 0x20 PUSH1 0x4 DUP3 ADD MSTORE PUSH1 0x20 PUSH1 0x24 DUP3 ADD MSTORE PUSH32 0x4F776E61626C653A2063616C6C6572206973206E6F7420746865206F776E6572 PUSH1 0x44 DUP3 ADD MSTORE REVERT JUMPDEST SWAP1 DUP1 PUSH1 0x20 SWAP4 SWAP3 DUP2 DUP5 MSTORE DUP5 DUP5 ADD CALLDATACOPY PUSH1 0x0 DUP3 DUP3 ADD DUP5 ADD MSTORE PUSH1 0x1F ADD PUSH1 0x1F NOT AND ADD ADD SWAP1 JUMP JUMPDEST SWAP2 PUSH1 0x20 SWAP2 PUSH2 0x951 SWAP2 SWAP6 SWAP5 SWAP6 PUSH1 0x40 DUP6 MSTORE PUSH1 0x40 DUP6 ADD SWAP2 PUSH2 0x917 JUMP JUMPDEST PUSH1 0x1 PUSH1 0x1 PUSH1 0xA0 SHL SUB SWAP1 SWAP5 AND SWAP2 ADD MSTORE JUMP JUMPDEST PUSH1 0xFF PUSH1 0x0 SLOAD PUSH1 0xA0 SHR AND PUSH2 0x970 JUMPI JUMP JUMPDEST PUSH1 0x40 MLOAD PUSH3 0x461BCD PUSH1 0xE5 SHL DUP2 MSTORE PUSH1 0x20 PUSH1 0x4 DUP3 ADD MSTORE PUSH1 0x10 PUSH1 0x24 DUP3 ADD MSTORE PUSH16 0x14185D5CD8589B194E881C185D5CD959 PUSH1 0x82 SHL PUSH1 0x44 DUP3 ADD MSTORE PUSH1 0x64 SWAP1 REVERT JUMPDEST ISZERO PUSH2 0x9AF JUMPI JUMP JUMPDEST PUSH1 0x40 MLOAD PUSH3 0x461BCD PUSH1 0xE5 SHL DUP2 MSTORE PUSH1 0x20 PUSH1 0x4 DUP3 ADD MSTORE PUSH1 0xF PUSH1 0x24 DUP3 ADD MSTORE PUSH15 0x496E76616C69642061646472657373 PUSH1 0x88 SHL PUSH1 0x44 DUP3 ADD MSTORE PUSH1 0x64 SWAP1 REVERT INVALID LOG2 PUSH5 0x6970667358 0x22 SLT KECCAK256 0x28 DUP14 0x2A DUP11 CODESIZE 0xBC 0xC4 SELFBALANCE PREVRANDAO SELFDESTRUCT 0xBF STATICCALL EXTCODECOPY 0xFB SAR MSIZE LOG4 PUSH13 0x98E3DF0265AC2DD0B58DF08903 0xFB PUSH5 0x736F6C6343 STOP ADDMOD SGT STOP CALLER "},"methodIdentifiers":{"addAuthorizedSender(address)":"fa7229ee","authorizedSenders(address)":"6f324967","bridgeReceiver()":"0a208972","emergencyWithdraw()":"db2e21bc","getRemoteContract(uint256)":"f5065467","owner()":"8da5cb5b","pause()":"8456cb59","paused()":"5c975abb","receiveMessage(uint256,address,bytes)":"1885c2f9","remoteBridgeContracts(uint256)":"014700eb","removeAuthorizedSender(address)":"cbd57967","renounceOwnership()":"715018a6","sendMessage(uint256,bytes)":"e289adcd","setRemoteBridgeContract(uint256,address)":"f94869f3","transferOwnership(address)":"f2fde38b","unpause()":"3f4ba83a","updateBridgeReceiver(address)":"0dbfdbea"}}}}}