{
  "_format": "hh-sol-artifact-1",
  "contractName": "PointsModule",
  "sourceName": "contracts/PointsModule.sol",
  "abi": [
    {
      "inputs": [],
      "stateMutability": "nonpayable",
      "type": "constructor"
    },
    {
      "anonymous": false,
      "inputs": [
        {
          "indexed": true,
          "internalType": "address",
          "name": "adder",
          "type": "address"
        }
      ],
      "name": "AdderAuthorized",
      "type": "event"
    },
    {
      "anonymous": false,
      "inputs": [
        {
          "indexed": true,
          "internalType": "address",
          "name": "adder",
          "type": "address"
        }
      ],
      "name": "AdderUnauthorized",
      "type": "event"
    },
    {
      "anonymous": false,
      "inputs": [
        {
          "indexed": false,
          "internalType": "bool",
          "name": "enabled",
          "type": "bool"
        }
      ],
      "name": "ClaimingToggled",
      "type": "event"
    },
    {
      "anonymous": false,
      "inputs": [
        {
          "indexed": true,
          "internalType": "address",
          "name": "previousOwner",
          "type": "address"
        },
        {
          "indexed": true,
          "internalType": "address",
          "name": "newOwner",
          "type": "address"
        }
      ],
      "name": "OwnershipTransferred",
      "type": "event"
    },
    {
      "anonymous": false,
      "inputs": [
        {
          "indexed": true,
          "internalType": "address",
          "name": "user",
          "type": "address"
        },
        {
          "indexed": false,
          "internalType": "uint256",
          "name": "amount",
          "type": "uint256"
        },
        {
          "indexed": true,
          "internalType": "address",
          "name": "adder",
          "type": "address"
        }
      ],
      "name": "PointsAdded",
      "type": "event"
    },
    {
      "anonymous": false,
      "inputs": [
        {
          "indexed": true,
          "internalType": "address",
          "name": "user",
          "type": "address"
        },
        {
          "indexed": false,
          "internalType": "uint256",
          "name": "amount",
          "type": "uint256"
        }
      ],
      "name": "PointsClaimed",
      "type": "event"
    },
    {
      "inputs": [
        {
          "internalType": "address",
          "name": "user",
          "type": "address"
        },
        {
          "internalType": "uint256",
          "name": "points",
          "type": "uint256"
        }
      ],
      "name": "addPoints",
      "outputs": [],
      "stateMutability": "nonpayable",
      "type": "function"
    },
    {
      "inputs": [
        {
          "internalType": "address",
          "name": "adder",
          "type": "address"
        }
      ],
      "name": "authorizeAdder",
      "outputs": [],
      "stateMutability": "nonpayable",
      "type": "function"
    },
    {
      "inputs": [
        {
          "internalType": "address",
          "name": "",
          "type": "address"
        }
      ],
      "name": "authorizedAdders",
      "outputs": [
        {
          "internalType": "bool",
          "name": "",
          "type": "bool"
        }
      ],
      "stateMutability": "view",
      "type": "function"
    },
    {
      "inputs": [
        {
          "internalType": "address[]",
          "name": "users",
          "type": "address[]"
        },
        {
          "internalType": "uint256[]",
          "name": "points",
          "type": "uint256[]"
        }
      ],
      "name": "batchAddPoints",
      "outputs": [],
      "stateMutability": "nonpayable",
      "type": "function"
    },
    {
      "inputs": [],
      "name": "claimPoints",
      "outputs": [],
      "stateMutability": "nonpayable",
      "type": "function"
    },
    {
      "inputs": [],
      "name": "claimingEnabled",
      "outputs": [
        {
          "internalType": "bool",
          "name": "",
          "type": "bool"
        }
      ],
      "stateMutability": "view",
      "type": "function"
    },
    {
      "inputs": [
        {
          "internalType": "address",
          "name": "user",
          "type": "address"
        }
      ],
      "name": "getClaimedPoints",
      "outputs": [
        {
          "internalType": "uint256",
          "name": "",
          "type": "uint256"
        }
      ],
      "stateMutability": "view",
      "type": "function"
    },
    {
      "inputs": [
        {
          "internalType": "address",
          "name": "user",
          "type": "address"
        }
      ],
      "name": "getPoints",
      "outputs": [
        {
          "internalType": "uint256",
          "name": "",
          "type": "uint256"
        }
      ],
      "stateMutability": "view",
      "type": "function"
    },
    {
      "inputs": [],
      "name": "getStats",
      "outputs": [
        {
          "internalType": "uint256",
          "name": "totalDistributed",
          "type": "uint256"
        },
        {
          "internalType": "uint256",
          "name": "totalUsers",
          "type": "uint256"
        },
        {
          "internalType": "bool",
          "name": "claimingActive",
          "type": "bool"
        }
      ],
      "stateMutability": "view",
      "type": "function"
    },
    {
      "inputs": [
        {
          "internalType": "address[]",
          "name": "users",
          "type": "address[]"
        }
      ],
      "name": "getTopUsers",
      "outputs": [
        {
          "internalType": "address[]",
          "name": "topUsers",
          "type": "address[]"
        },
        {
          "internalType": "uint256[]",
          "name": "topPoints",
          "type": "uint256[]"
        }
      ],
      "stateMutability": "view",
      "type": "function"
    },
    {
      "inputs": [
        {
          "internalType": "address",
          "name": "user",
          "type": "address"
        }
      ],
      "name": "getTotalEarned",
      "outputs": [
        {
          "internalType": "uint256",
          "name": "",
          "type": "uint256"
        }
      ],
      "stateMutability": "view",
      "type": "function"
    },
    {
      "inputs": [],
      "name": "owner",
      "outputs": [
        {
          "internalType": "address",
          "name": "",
          "type": "address"
        }
      ],
      "stateMutability": "view",
      "type": "function"
    },
    {
      "inputs": [
        {
          "internalType": "address",
          "name": "",
          "type": "address"
        }
      ],
      "name": "pointsClaimed",
      "outputs": [
        {
          "internalType": "uint256",
          "name": "",
          "type": "uint256"
        }
      ],
      "stateMutability": "view",
      "type": "function"
    },
    {
      "inputs": [],
      "name": "renounceOwnership",
      "outputs": [],
      "stateMutability": "nonpayable",
      "type": "function"
    },
    {
      "inputs": [],
      "name": "toggleClaiming",
      "outputs": [],
      "stateMutability": "nonpayable",
      "type": "function"
    },
    {
      "inputs": [],
      "name": "totalPointsDistributed",
      "outputs": [
        {
          "internalType": "uint256",
          "name": "",
          "type": "uint256"
        }
      ],
      "stateMutability": "view",
      "type": "function"
    },
    {
      "inputs": [
        {
          "internalType": "address",
          "name": "",
          "type": "address"
        }
      ],
      "name": "totalPointsEarned",
      "outputs": [
        {
          "internalType": "uint256",
          "name": "",
          "type": "uint256"
        }
      ],
      "stateMutability": "view",
      "type": "function"
    },
    {
      "inputs": [
        {
          "internalType": "address",
          "name": "newOwner",
          "type": "address"
        }
      ],
      "name": "transferOwnership",
      "outputs": [],
      "stateMutability": "nonpayable",
      "type": "function"
    },
    {
      "inputs": [
        {
          "internalType": "address",
          "name": "adder",
          "type": "address"
        }
      ],
      "name": "unauthorizeAdder",
      "outputs": [],
      "stateMutability": "nonpayable",
      "type": "function"
    },
    {
      "inputs": [
        {
          "internalType": "address",
          "name": "",
          "type": "address"
        }
      ],
      "name": "userPoints",
      "outputs": [
        {
          "internalType": "uint256",
          "name": "",
          "type": "uint256"
        }
      ],
      "stateMutability": "view",
      "type": "function"
    }
  ],
  "bytecode": "0x6080806040523461007c5760008054336001600160a01b0319821681178355906001600160a01b03167f8be0079c531659141344cd1fd0a4f28419497f9722a3daafe3b4186f6b6457e08380a3600180556001604060ff1992836007541660075533815260036020522091825416179055610e6f90816100828239f35b600080fdfe6080604081815260048036101561001557600080fd5b600092833560e01c90816304d092c714610a9a575080630e141a9b14610a7657806321500e3d1461083157806334686fae1461066357806349ace8ac14610625578063507cd30f146105665780635e319a3d146104785780635f0924c4146103c8578063715018a61461036b5780637bc94d981461034c5780638010fc45146102ef5780638da5cb5b146102c7578063937b4b34146102a05780639699c0dd14610268578063ac02077814610268578063c59d484714610235578063ee204abb14610137578063f2fde38b14610173578063f50ddbc7146101375763f662781d146100ff57600080fd5b346101335760203660031901126101335760209282916001600160a01b03610125610c1c565b168252845220549051908152f35b8280fd5b50503461016f57602036600319011261016f5760209181906001600160a01b0361015f610c1c565b1681526002845220549051908152f35b5080fd5b50346101335760203660031901126101335761018d610c1c565b90610196610c32565b6001600160a01b039182169283156101e357505082546001600160a01b0319811683178455167f8be0079c531659141344cd1fd0a4f28419497f9722a3daafe3b4186f6b6457e08380a380f35b906020608492519162461bcd60e51b8352820152602660248201527f4f776e61626c653a206e6577206f776e657220697320746865207a65726f206160448201526564647265737360d01b6064820152fd5b50503461016f578160031936011261016f57906060916006549160ff600754169082519384526020840152151590820152f35b50503461016f57602036600319011261016f5760209181906001600160a01b03610290610c1c565b1681526005845220549051908152f35b50346101335760203660031901126101335760209282916001600160a01b03610125610c1c565b50503461016f578160031936011261016f57905490516001600160a01b039091168152602090f35b50503461016f578160031936011261016f5760207f5357603b66ce52ad2bde073bf1baae8a126a96ae712f396257fa4b57169c36ab9161032d610c32565b6007549060ff8083161516809260ff191617600755519015158152a180f35b50503461016f578160031936011261016f576020906006549051908152f35b83346103c557806003193601126103c557610384610c32565b80546001600160a01b03198116825581906001600160a01b03167f8be0079c531659141344cd1fd0a4f28419497f9722a3daafe3b4186f6b6457e08280a380f35b80fd5b509034610133576020366003190112610133576103e3610c1c565b6103eb610c32565b6001600160a01b031680845260036020528184205490929060ff1615610445575081835260036020528220805460ff191690557fe619fc9f4e0eee3bb2bc23955321cd6ad031a2abe9e217674b58a4019bbc94128280a280f35b6020606492519162461bcd60e51b8352820152600e60248201526d139bdd08185d5d1a1bdc9a5e995960921b6044820152fd5b50903461013357602036600319011261013357610493610c1c565b61049b610c32565b6001600160a01b031691821561053257828452600360205260ff82852054166104fb575081835260036020528220805460ff191660011790557f32b9104826f84e16efadf70339854be744325efa4081f2d293cef0259a40c3588280a280f35b6020606492519162461bcd60e51b83528201526012602482015271105b1c9958591e48185d5d1a1bdc9a5e995960721b6044820152fd5b6020606492519162461bcd60e51b8352820152600f60248201526e496e76616c6964206164647265737360881b6044820152fd5b503461013357816003193601126101335761057f610c1c565b9160243592338552600360205261059b60ff8387205416610c8a565b6001600160a01b0316916105b0831515610cd6565b6105bb841515610d19565b82855260026020528185206105d1858254610d65565b90558285526020528084206105e7848254610d65565b90556105f583600654610d65565b600655519182527fca17eb5acd938ee6dc4c06ffdd37a2dd89ec1b7f98882251072fd6fb4a11d73660203393a380f35b50503461016f57602036600319011261016f5760209160ff9082906001600160a01b03610650610c1c565b1681526003855220541690519015158152f35b50903461013357806003193601126101335767ffffffffffffffff90823582811161082d576106959036908501610be6565b919092602435908111610829576106af9036908601610be6565b93338752602093600385526106c960ff858a205416610c8a565b8581036107ee57875b8181106106dd578880f35b6107e9906001600160a01b03610708816107006106fb85888a610d97565b610dbd565b161515610cd6565b61071e610716838b89610d97565b351515610d19565b610729828a88610d97565b35816107396106fb85888a610d97565b168c526002895261074e888d20918254610d65565b905561075b828a88610d97565b358161076b6106fb85888a610d97565b168c528a895261077f888d20918254610d65565b905561078c828a88610d97565b3561079a6006918254610d65565b90556107aa6106fb838688610d97565b907fca17eb5acd938ee6dc4c06ffdd37a2dd89ec1b7f98882251072fd6fb4a11d736896107d8858d8b610d97565b35928a5193845233941692a3610d88565b6106d2565b835162461bcd60e51b81528088018690526015602482015274082e4e4c2f240d8cadccee8d040dad2e6dac2e8c6d605b1b6044820152606490fd5b8580fd5b8480fd5b5091346103c5576020928360031936011261016f57803567ffffffffffffffff8111610133576108649036908301610be6565b91909461087861087384610e0d565b610dd1565b9583875261088584610e0d565b9180880191601f1980940136843761089f61087387610e0d565b958087526108ac81610e0d565b8784019501368637875b818110610a2557505050855b88518110156109a357600180820180831161099057815b6108ee575b50506108e990610d88565b6108c2565b8a5181101561098b5761091c8291610906858b610e25565b51610911828c610e25565b511161092257610d88565b906108d9565b61092c858b610e25565b51610937828c610e25565b51610942878d610e25565b5261094d828c610e25565b526001600160a01b03610985828f836109668a83610e25565b5116936109738383610e25565b511661097f8a83610e25565b52610e25565b52610d88565b6108de565b634e487b7160e01b895260118752602489fd5b50869350879291869186865196879681880191885251809152606087019390855b818110610a0557505050858303868301525180835291810193925b8281106109ee57505050500390f35b8351855286955093810193928101926001016109df565b82516001600160a01b0316865289985094840194918401916001016109c4565b808b610a4282610a3c6106fb610a7196888a610d97565b92610e25565b6001600160a01b039182169052610a5d6106fb838688610d97565b168a528785528a8a2054610985828b610e25565b6108b6565b50503461016f578160031936011261016f5760209060ff6007541690519015158152f35b8493915034610be25783600319360112610be257600260015414610ba15750600260015560ff6007541615610b6757338352600260205280832054918215610b305750338352600260205282818120556005602052808320610afd838254610d65565b9055519081527fba953728785de35be3827ee7a7a7867a8472947562602939440e6c0bdbf4725e60203392a26001805580f35b6020606492519162461bcd60e51b835282015260126024820152714e6f20706f696e747320746f20636c61696d60701b6044820152fd5b906020606492519162461bcd60e51b8352820152601460248201527310db185a5b5a5b99c81b9bdd08195b98589b195960621b6044820152fd5b62461bcd60e51b8152602083820152601f60248201527f5265656e7472616e637947756172643a207265656e7472616e742063616c6c006044820152606490fd5b8380fd5b9181601f84011215610c175782359167ffffffffffffffff8311610c17576020808501948460051b010111610c1757565b600080fd5b600435906001600160a01b0382168203610c1757565b6000546001600160a01b03163303610c4657565b606460405162461bcd60e51b815260206004820152602060248201527f4f776e61626c653a2063616c6c6572206973206e6f7420746865206f776e65726044820152fd5b15610c9157565b60405162461bcd60e51b815260206004820152601c60248201527f4e6f7420617574686f72697a656420746f2061646420706f696e7473000000006044820152606490fd5b15610cdd57565b60405162461bcd60e51b8152602060048201526014602482015273496e76616c69642075736572206164647265737360601b6044820152606490fd5b15610d2057565b60405162461bcd60e51b815260206004820152601d60248201527f506f696e7473206d7573742062652067726561746572207468616e20300000006044820152606490fd5b91908201809211610d7257565b634e487b7160e01b600052601160045260246000fd5b6000198114610d725760010190565b9190811015610da75760051b0190565b634e487b7160e01b600052603260045260246000fd5b356001600160a01b0381168103610c175790565b6040519190601f01601f1916820167ffffffffffffffff811183821017610df757604052565b634e487b7160e01b600052604160045260246000fd5b67ffffffffffffffff8111610df75760051b60200190565b8051821015610da75760209160051b01019056fea264697066735822122009c368f00ef64fc1b8310d3667e3a4fabe7bff32ce04a3efd98391175b96177964736f6c63430008130033",
  "linkReferences": {},
  "deployedLinkReferences": {}
}