{
  "_format": "hh-sol-artifact-1",
  "contractName": "ValidatorRegistry",
  "sourceName": "contracts/ValidatorRegistry.sol",
  "abi": [
    {
      "inputs": [
        {
          "internalType": "address[]",
          "name": "_initialValidators",
          "type": "address[]"
        }
      ],
      "stateMutability": "nonpayable",
      "type": "constructor"
    },
    {
      "anonymous": false,
      "inputs": [
        {
          "indexed": true,
          "internalType": "address",
          "name": "previousOwner",
          "type": "address"
        },
        {
          "indexed": true,
          "internalType": "address",
          "name": "newOwner",
          "type": "address"
        }
      ],
      "name": "OwnershipTransferred",
      "type": "event"
    },
    {
      "anonymous": false,
      "inputs": [
        {
          "indexed": true,
          "internalType": "bytes32",
          "name": "txId",
          "type": "bytes32"
        },
        {
          "indexed": false,
          "internalType": "uint256",
          "name": "totalVotes",
          "type": "uint256"
        }
      ],
      "name": "TransactionValidated",
      "type": "event"
    },
    {
      "anonymous": false,
      "inputs": [
        {
          "indexed": true,
          "internalType": "address",
          "name": "validator",
          "type": "address"
        }
      ],
      "name": "ValidatorAdded",
      "type": "event"
    },
    {
      "anonymous": false,
      "inputs": [
        {
          "indexed": true,
          "internalType": "address",
          "name": "validator",
          "type": "address"
        }
      ],
      "name": "ValidatorRemoved",
      "type": "event"
    },
    {
      "anonymous": false,
      "inputs": [
        {
          "indexed": true,
          "internalType": "bytes32",
          "name": "txId",
          "type": "bytes32"
        },
        {
          "indexed": true,
          "internalType": "address",
          "name": "validator",
          "type": "address"
        },
        {
          "indexed": false,
          "internalType": "uint256",
          "name": "currentVotes",
          "type": "uint256"
        },
        {
          "indexed": false,
          "internalType": "uint256",
          "name": "requiredVotes",
          "type": "uint256"
        }
      ],
      "name": "ValidatorVoted",
      "type": "event"
    },
    {
      "inputs": [
        {
          "internalType": "address",
          "name": "validator",
          "type": "address"
        }
      ],
      "name": "addValidator",
      "outputs": [],
      "stateMutability": "nonpayable",
      "type": "function"
    },
    {
      "inputs": [
        {
          "internalType": "bytes32",
          "name": "txId",
          "type": "bytes32"
        }
      ],
      "name": "getValidationStatus",
      "outputs": [
        {
          "internalType": "uint256",
          "name": "votes",
          "type": "uint256"
        },
        {
          "internalType": "uint256",
          "name": "required",
          "type": "uint256"
        },
        {
          "internalType": "bool",
          "name": "validated",
          "type": "bool"
        }
      ],
      "stateMutability": "view",
      "type": "function"
    },
    {
      "inputs": [],
      "name": "getValidatorInfo",
      "outputs": [
        {
          "internalType": "uint256",
          "name": "totalValidators",
          "type": "uint256"
        },
        {
          "internalType": "uint256",
          "name": "threshold",
          "type": "uint256"
        },
        {
          "internalType": "uint256",
          "name": "required",
          "type": "uint256"
        }
      ],
      "stateMutability": "view",
      "type": "function"
    },
    {
      "inputs": [
        {
          "internalType": "bytes32",
          "name": "txId",
          "type": "bytes32"
        },
        {
          "internalType": "address",
          "name": "validator",
          "type": "address"
        }
      ],
      "name": "hasVoted",
      "outputs": [
        {
          "internalType": "bool",
          "name": "",
          "type": "bool"
        }
      ],
      "stateMutability": "view",
      "type": "function"
    },
    {
      "inputs": [
        {
          "internalType": "bytes32",
          "name": "txId",
          "type": "bytes32"
        }
      ],
      "name": "isValidated",
      "outputs": [
        {
          "internalType": "bool",
          "name": "",
          "type": "bool"
        }
      ],
      "stateMutability": "view",
      "type": "function"
    },
    {
      "inputs": [],
      "name": "owner",
      "outputs": [
        {
          "internalType": "address",
          "name": "",
          "type": "address"
        }
      ],
      "stateMutability": "view",
      "type": "function"
    },
    {
      "inputs": [
        {
          "internalType": "address",
          "name": "validator",
          "type": "address"
        }
      ],
      "name": "removeValidator",
      "outputs": [],
      "stateMutability": "nonpayable",
      "type": "function"
    },
    {
      "inputs": [],
      "name": "renounceOwnership",
      "outputs": [],
      "stateMutability": "nonpayable",
      "type": "function"
    },
    {
      "inputs": [],
      "name": "requiredVotes",
      "outputs": [
        {
          "internalType": "uint256",
          "name": "",
          "type": "uint256"
        }
      ],
      "stateMutability": "view",
      "type": "function"
    },
    {
      "inputs": [
        {
          "internalType": "address",
          "name": "newOwner",
          "type": "address"
        }
      ],
      "name": "transferOwnership",
      "outputs": [],
      "stateMutability": "nonpayable",
      "type": "function"
    },
    {
      "inputs": [
        {
          "internalType": "uint256",
          "name": "newThreshold",
          "type": "uint256"
        }
      ],
      "name": "updateValidationThreshold",
      "outputs": [],
      "stateMutability": "nonpayable",
      "type": "function"
    },
    {
      "inputs": [
        {
          "internalType": "bytes32",
          "name": "txId",
          "type": "bytes32"
        }
      ],
      "name": "validateTransaction",
      "outputs": [],
      "stateMutability": "nonpayable",
      "type": "function"
    },
    {
      "inputs": [],
      "name": "validationThreshold",
      "outputs": [
        {
          "internalType": "uint256",
          "name": "",
          "type": "uint256"
        }
      ],
      "stateMutability": "view",
      "type": "function"
    },
    {
      "inputs": [
        {
          "internalType": "bytes32",
          "name": "",
          "type": "bytes32"
        }
      ],
      "name": "validations",
      "outputs": [
        {
          "internalType": "uint256",
          "name": "votes",
          "type": "uint256"
        },
        {
          "internalType": "uint256",
          "name": "requiredVotes",
          "type": "uint256"
        },
        {
          "internalType": "bool",
          "name": "validated",
          "type": "bool"
        }
      ],
      "stateMutability": "view",
      "type": "function"
    },
    {
      "inputs": [],
      "name": "validatorCount",
      "outputs": [
        {
          "internalType": "uint256",
          "name": "",
          "type": "uint256"
        }
      ],
      "stateMutability": "view",
      "type": "function"
    },
    {
      "inputs": [
        {
          "internalType": "address",
          "name": "",
          "type": "address"
        }
      ],
      "name": "validators",
      "outputs": [
        {
          "internalType": "bool",
          "name": "",
          "type": "bool"
        }
      ],
      "stateMutability": "view",
      "type": "function"
    }
  ],
  "bytecode": "0x60406080815234620002485762000c5990813803806200001f8162000263565b9384398201916020928382820312620002485781516001600160401b039283821162000248570181601f82011215620002485780519283116200024d578260051b9085806200007081850162000263565b80968152019282010192831162000248578501905b8282106200022757505060008054336001600160a01b0319821681178355855193506001600160a01b039182167f8be0079c531659141344cd1fd0a4f28419497f9722a3daafe3b4186f6b6457e08480a3600192838055603c6005556003855110620001e55750829582965b6200010b575b858551600455516109a49081620002b58239f35b8451871015620001df578162000122888762000289565b511615620001a8578162000137888762000289565b5116835260028152858320805460ff1916851790558162000159888762000289565b51167fe366c1c0452ed8eec96861e9e54141ebff23c9ec89fe27b996b45f5ec38849878480a2600019871462000194579583019583620000f1565b634e487b7160e01b83526011600452602483fd5b60649086519062461bcd60e51b82526004820152601160248201527024b73b30b634b2103b30b634b230ba37b960791b6044820152fd5b620000f7565b62461bcd60e51b815260048101879052601d60248201527f4d696e696d756d20332076616c696461746f72732072657175697265640000006044820152606490fd5b81516001600160a01b03811681036200024857815290850190850162000085565b600080fd5b634e487b7160e01b600052604160045260246000fd5b6040519190601f01601f191682016001600160401b038111838210176200024d57604052565b80518210156200029e5760209160051b010190565b634e487b7160e01b600052603260045260246000fdfe608060409080825260048036101561001657600080fd5b600091823560e01c9081630f43a67714610853575080631e7731b9146107dc578063344829c81461060657806340a141ff146105175780634d238c8e1461041a5780636bc773c2146103e5578063715018a6146103885780638da5cb5b14610360578063aadc3b721461030d578063bd31a4d8146102e9578063bf1db71e146102b8578063e28c380214610271578063eeb6babf14610252578063f2fde38b1461018a578063fa52c7d81461014c5763ff2febfc146100d457600080fd5b346101485760203660031901126101485735815260036020526101398282209283549260018501549050801560001461013d575060ff6002610114610945565b955b015416905193849384919260409194936060840195845260208401521515910152565b0390f35b600260ff9195610116565b5080fd5b8284346101485760203660031901126101485760209160ff9082906001600160a01b0361017761086f565b1681526002855220541690519015158152f35b5082903461024e57602036600319011261024e576101a661086f565b906101af61088a565b6001600160a01b039182169283156101fc57505082546001600160a01b0319811683178455167f8be0079c531659141344cd1fd0a4f28419497f9722a3daafe3b4186f6b6457e08380a380f35b906020608492519162461bcd60e51b8352820152602660248201527f4f776e61626c653a206e6577206f776e657220697320746865207a65726f206160448201526564647265737360d01b6064820152fd5b8280fd5b8284346101485781600319360112610148576020906005549051908152f35b5082903461024e57602036600319011261024e5735825260036020908152918190208054600182015460029092015492519081529283015260ff1615156040820152606090f35b5082903461024e57602036600319011261024e5760028260209460ff93358152600386522001541690519015158152f35b828434610148578160031936011261014857602090610306610945565b9051908152f35b5082903461024e578160031936011261024e576024356001600160a01b038116919082900361035c5760209360ff92849235825260038652600383832001908252855220541690519015158152f35b8380fd5b828434610148578160031936011261014857905490516001600160a01b039091168152602090f35b82346103e257806003193601126103e2576103a161088a565b80546001600160a01b03198116825581906001600160a01b03167f8be0079c531659141344cd1fd0a4f28419497f9722a3daafe3b4186f6b6457e08280a380f35b80fd5b5082903461024e578260031936011261024e576060925054906005549061040a610945565b9181519384526020840152820152f35b5082903461024e57602036600319011261024e5761043661086f565b61043e61088a565b6001600160a01b03169182156104e257828452600260205260ff81852054166104a95782845260026020528320600160ff1982541617905561048081546108e2565b90557fe366c1c0452ed8eec96861e9e54141ebff23c9ec89fe27b996b45f5ec38849878280a280f35b906020606492519162461bcd60e51b8352820152601360248201527220b63932b0b23c9030903b30b634b230ba37b960691b6044820152fd5b906020606492519162461bcd60e51b8352820152600f60248201526e496e76616c6964206164647265737360881b6044820152fd5b5082903461024e57602036600319011261024e5761053361086f565b61053b61088a565b6001600160a01b031680845260026020528284205490929061055f9060ff16610907565b6003825411156105c35782845260026020528320805460ff19169055805480156105b0576000190190557fe1434e25d6611e0db941968fdc97811c982ac1602e951637d206f5fdda9dd8f18280a280f35b634e487b7160e01b845260118252602484fd5b906020606492519162461bcd60e51b8352820152601d60248201527f4d696e696d756d20332076616c696461746f72732072657175697265640000006044820152fd5b50823461024e576020908160031936011261035c578235913385526002815261063460ff8387205416610907565b600193600285541461079b57600285558386526003825260ff6002848820015416610766578386526003825282862092600384019133885282845260ff8289205416610735575085840191825415610726575b338852835280872060ff19908782825416179055866106a686546108e2565b938487555483518581528187820152887ff6a3ba8adda9a54209951ef8e277241b2b0af1467da56edc5b9ead60ba423f11863393a38410156106e9575b80558780f35b60027f249f0d0dfcf78699bf1348633323bd7ca187fa7c50400cecf9e692c6e28e1ac096019182541617905551908152a2828080808080866106e3565b61072e610945565b8355610687565b83606492519162461bcd60e51b8352820152600d60248201526c105b1c9958591e481d9bdd1959609a1b6044820152fd5b915162461bcd60e51b8152918201526011602482015270105b1c9958591e481d985b1a59185d1959607a1b6044820152606490fd5b915162461bcd60e51b815291820152601f60248201527f5265656e7472616e637947756172643a207265656e7472616e742063616c6c006044820152606490fd5b5082903461024e57602036600319011261024e578035916107fb61088a565b82151580610848575b1561081157505060055580f35b906020606492519162461bcd60e51b83528201526011602482015270125b9d985b1a59081d1a1c995cda1bdb19607a1b6044820152fd5b506064831115610804565b9190503461024e578260031936011261024e5760209250548152f35b600435906001600160a01b038216820361088557565b600080fd5b6000546001600160a01b0316330361089e57565b606460405162461bcd60e51b815260206004820152602060248201527f4f776e61626c653a2063616c6c6572206973206e6f7420746865206f776e65726044820152fd5b60001981146108f15760010190565b634e487b7160e01b600052601160045260246000fd5b1561090e57565b60405162461bcd60e51b815260206004820152600f60248201526e2737ba1030903b30b634b230ba37b960891b6044820152606490fd5b600454600554908181029181830414901517156108f157606490048061096b5750600190565b9056fea2646970667358221220aeb20b6553073047e87882cfbb0775513807ad9718658e0d2f091122ae6f187e64736f6c63430008130033",
  "linkReferences": {},
  "deployedLinkReferences": {}
}