{
  "_format": "hh-sol-artifact-1",
  "contractName": "BridgeMessageRouter",
  "sourceName": "contracts/BridgeMessageRouter.sol",
  "abi": [
    {
      "inputs": [
        {
          "internalType": "address",
          "name": "_bridgeReceiver",
          "type": "address"
        }
      ],
      "stateMutability": "nonpayable",
      "type": "constructor"
    },
    {
      "anonymous": false,
      "inputs": [
        {
          "indexed": true,
          "internalType": "uint256",
          "name": "srcChainId",
          "type": "uint256"
        },
        {
          "indexed": false,
          "internalType": "bytes",
          "name": "payload",
          "type": "bytes"
        },
        {
          "indexed": false,
          "internalType": "address",
          "name": "sender",
          "type": "address"
        }
      ],
      "name": "MessageReceived",
      "type": "event"
    },
    {
      "anonymous": false,
      "inputs": [
        {
          "indexed": true,
          "internalType": "uint256",
          "name": "dstChainId",
          "type": "uint256"
        },
        {
          "indexed": false,
          "internalType": "bytes",
          "name": "payload",
          "type": "bytes"
        },
        {
          "indexed": false,
          "internalType": "address",
          "name": "sender",
          "type": "address"
        }
      ],
      "name": "MessageSent",
      "type": "event"
    },
    {
      "anonymous": false,
      "inputs": [
        {
          "indexed": true,
          "internalType": "address",
          "name": "previousOwner",
          "type": "address"
        },
        {
          "indexed": true,
          "internalType": "address",
          "name": "newOwner",
          "type": "address"
        }
      ],
      "name": "OwnershipTransferred",
      "type": "event"
    },
    {
      "anonymous": false,
      "inputs": [
        {
          "indexed": false,
          "internalType": "address",
          "name": "account",
          "type": "address"
        }
      ],
      "name": "Paused",
      "type": "event"
    },
    {
      "anonymous": false,
      "inputs": [
        {
          "indexed": true,
          "internalType": "uint256",
          "name": "chainId",
          "type": "uint256"
        },
        {
          "indexed": false,
          "internalType": "address",
          "name": "remoteContract",
          "type": "address"
        }
      ],
      "name": "RemoteContractUpdated",
      "type": "event"
    },
    {
      "anonymous": false,
      "inputs": [
        {
          "indexed": false,
          "internalType": "address",
          "name": "account",
          "type": "address"
        }
      ],
      "name": "Unpaused",
      "type": "event"
    },
    {
      "inputs": [
        {
          "internalType": "address",
          "name": "sender",
          "type": "address"
        }
      ],
      "name": "addAuthorizedSender",
      "outputs": [],
      "stateMutability": "nonpayable",
      "type": "function"
    },
    {
      "inputs": [
        {
          "internalType": "address",
          "name": "",
          "type": "address"
        }
      ],
      "name": "authorizedSenders",
      "outputs": [
        {
          "internalType": "bool",
          "name": "",
          "type": "bool"
        }
      ],
      "stateMutability": "view",
      "type": "function"
    },
    {
      "inputs": [],
      "name": "bridgeReceiver",
      "outputs": [
        {
          "internalType": "contract IBridgeReceiver",
          "name": "",
          "type": "address"
        }
      ],
      "stateMutability": "view",
      "type": "function"
    },
    {
      "inputs": [],
      "name": "emergencyWithdraw",
      "outputs": [],
      "stateMutability": "nonpayable",
      "type": "function"
    },
    {
      "inputs": [
        {
          "internalType": "uint256",
          "name": "chainId",
          "type": "uint256"
        }
      ],
      "name": "getRemoteContract",
      "outputs": [
        {
          "internalType": "address",
          "name": "",
          "type": "address"
        }
      ],
      "stateMutability": "view",
      "type": "function"
    },
    {
      "inputs": [],
      "name": "owner",
      "outputs": [
        {
          "internalType": "address",
          "name": "",
          "type": "address"
        }
      ],
      "stateMutability": "view",
      "type": "function"
    },
    {
      "inputs": [],
      "name": "pause",
      "outputs": [],
      "stateMutability": "nonpayable",
      "type": "function"
    },
    {
      "inputs": [],
      "name": "paused",
      "outputs": [
        {
          "internalType": "bool",
          "name": "",
          "type": "bool"
        }
      ],
      "stateMutability": "view",
      "type": "function"
    },
    {
      "inputs": [
        {
          "internalType": "uint256",
          "name": "srcChainId",
          "type": "uint256"
        },
        {
          "internalType": "address",
          "name": "sender",
          "type": "address"
        },
        {
          "internalType": "bytes",
          "name": "payload",
          "type": "bytes"
        }
      ],
      "name": "receiveMessage",
      "outputs": [],
      "stateMutability": "nonpayable",
      "type": "function"
    },
    {
      "inputs": [
        {
          "internalType": "uint256",
          "name": "",
          "type": "uint256"
        }
      ],
      "name": "remoteBridgeContracts",
      "outputs": [
        {
          "internalType": "address",
          "name": "",
          "type": "address"
        }
      ],
      "stateMutability": "view",
      "type": "function"
    },
    {
      "inputs": [
        {
          "internalType": "address",
          "name": "sender",
          "type": "address"
        }
      ],
      "name": "removeAuthorizedSender",
      "outputs": [],
      "stateMutability": "nonpayable",
      "type": "function"
    },
    {
      "inputs": [],
      "name": "renounceOwnership",
      "outputs": [],
      "stateMutability": "nonpayable",
      "type": "function"
    },
    {
      "inputs": [
        {
          "internalType": "uint256",
          "name": "dstChainId",
          "type": "uint256"
        },
        {
          "internalType": "bytes",
          "name": "payload",
          "type": "bytes"
        }
      ],
      "name": "sendMessage",
      "outputs": [],
      "stateMutability": "payable",
      "type": "function"
    },
    {
      "inputs": [
        {
          "internalType": "uint256",
          "name": "chainId",
          "type": "uint256"
        },
        {
          "internalType": "address",
          "name": "remoteContract",
          "type": "address"
        }
      ],
      "name": "setRemoteBridgeContract",
      "outputs": [],
      "stateMutability": "nonpayable",
      "type": "function"
    },
    {
      "inputs": [
        {
          "internalType": "address",
          "name": "newOwner",
          "type": "address"
        }
      ],
      "name": "transferOwnership",
      "outputs": [],
      "stateMutability": "nonpayable",
      "type": "function"
    },
    {
      "inputs": [],
      "name": "unpause",
      "outputs": [],
      "stateMutability": "nonpayable",
      "type": "function"
    },
    {
      "inputs": [
        {
          "internalType": "address",
          "name": "newReceiver",
          "type": "address"
        }
      ],
      "name": "updateBridgeReceiver",
      "outputs": [],
      "stateMutability": "nonpayable",
      "type": "function"
    },
    {
      "stateMutability": "payable",
      "type": "receive"
    }
  ],
  "bytecode": "0x6080346100d357601f610b0b38819003918201601f19168301916001600160401b038311848410176100d8578084926020946040528339810103126100d357516001600160a01b0390818116908190036100d3576040906000908154835194339082167f8be0079c531659141344cd1fd0a4f28419497f9722a3daafe3b4186f6b6457e08580a36001600160a81b0319163360ff60a01b198116919091178355600380546001600160a01b031916929092179091558152600260205220805460ff19166001179055610a1c90816100ef8239f35b600080fd5b634e487b7160e01b600052604160045260246000fdfe6080604081815260049182361015610022575b505050361561002057600080fd5b005b600092833560e01c918263014700eb14610831575081630a208972146108085781630dbfdbea146107b75781631885c2f9146106545781633f4ba83a146105ba5781635c975abb146105955781636f32496714610557578163715018a6146104fa5781638456cb591461049b5781638da5cb5b14610473578163cbd5796714610433578163db2e21bc146103e4578163e289adcd146102c0578163f2fde38b146101f3578163f5065467146101c0578163f94869f31461013d575063fa7229ee146100ed5780610012565b3461013957602036600319011261013957610106610860565b61010e6108bf565b6001600160a01b03166101228115156109a8565b825260026020528120805460ff1916600117905580f35b5080fd5b9050346101bc57816003193601126101bc5760207f99759e55ab152a91ad8beb84138249516cd741f0a29b28fc0faa9d3f0f146fbf91359261017d61087b565b6101856108bf565b6001600160a01b03169061019a8215156109a8565b8486526001835280862080546001600160a01b0319168317905551908152a280f35b8280fd5b9050346101bc5760203660031901126101bc5735825260016020908152918190205490516001600160a01b039091168152f35b9050346101bc5760203660031901126101bc5761020e610860565b906102176108bf565b6001600160a01b0391821692831561026e575050600054826bffffffffffffffffffffffff60a01b821617600055167f8be0079c531659141344cd1fd0a4f28419497f9722a3daafe3b4186f6b6457e0600080a380f35b906020608492519162461bcd60e51b8352820152602660248201527f4f776e61626c653a206e6577206f776e657220697320746865207a65726f206160448201526564647265737360d01b6064820152fd5b839150826003193601126101395780359060243567ffffffffffffffff81116103e0576102f09036908301610891565b9091338552600260205260ff8686205416156103a55761030e610961565b8385526001602052858520546001600160a01b031615610362575061035c7faf8ef1cbdd808b31d8a125e527b23c8755c78cb7801e4b45f058d19d5398547b93949551928392339184610938565b0390a280f35b606490602087519162461bcd60e51b8352820152601760248201527f52656d6f746520636f6e7472616374206e6f74207365740000000000000000006044820152fd5b606490602087519162461bcd60e51b835282015260156024820152742737ba1030baba3437b934bd32b21039b2b73232b960591b6044820152fd5b8380fd5b5050346101395781600319360112610139576103fe6108bf565b8180808060018060a01b03815416479082821561042a575bf115610420575080f35b51903d90823e3d90fd5b506108fc610416565b5050346101395760203660031901126101395761044e610860565b6104566108bf565b6001600160a01b0316825260026020528120805460ff1916905580f35b505034610139578160031936011261013957905490516001600160a01b039091168152602090f35b50503461013957816003193601126101395760207f62e78cea01bee320cd4e420270b5ea74000d11b0c9f74754ebdbfc544b05a258916104d96108bf565b6104e1610961565b835460ff60a01b1916600160a01b17845551338152a180f35b83346105545780600319360112610554576105136108bf565b600080546001600160a01b0319811682556001600160a01b03167f8be0079c531659141344cd1fd0a4f28419497f9722a3daafe3b4186f6b6457e08280a380f35b80fd5b5050346101395760203660031901126101395760209160ff9082906001600160a01b03610582610860565b1681526002855220541690519015158152f35b50503461013957816003193601126101395760ff6020925460a01c1690519015158152f35b9050346101bc57826003193601126101bc576105d46108bf565b82549060ff8260a01c161561061a575060ff60a01b19168255513381527f5db9ee0a495bf2e6ff9c91a7834c1ba4fdd244a5e8aa4e537bd38aeae4b073aa90602090a180f35b606490602084519162461bcd60e51b8352820152601460248201527314185d5cd8589b194e881b9bdd081c185d5cd95960621b6044820152fd5b919050346101bc5760603660031901126101bc5781359161067361087b565b9267ffffffffffffffff906044358281116107b3576106959036908501610891565b9190956106a0610961565b8188526001602052858820546001600160a01b03828116929091821683900361077f5790837f12aaaf3cde3146245be5b5bb756f10fa3653b99ed3f2f654f314728b4fed447c868b6106fb8e999897968d5193849384610938565b0390a26003541691823b1561077b57849061073c89519a8b9687958694631885c2f960e01b86528c8601526024850152606060448501526064840191610917565b03925af180156107715761074e578480f35b831161075e575052388080808480f35b634e487b7160e01b845260419052602483fd5b83513d87823e3d90fd5b8480fd5b875162461bcd60e51b8152602081890152600e60248201526d24b73b30b634b21039b2b73232b960911b6044820152606490fd5b8680fd5b8334610554576020366003190112610554576107d1610860565b6107d96108bf565b6001600160a01b03166107ed8115156109a8565b6bffffffffffffffffffffffff60a01b600354161760035580f35b50503461013957816003193601126101395760035490516001600160a01b039091168152602090f35b848434610139576020366003190112610139579235815260016020908152929020546001600160a01b03168152f35b600435906001600160a01b038216820361087657565b600080fd5b602435906001600160a01b038216820361087657565b9181601f840112156108765782359167ffffffffffffffff8311610876576020838186019501011161087657565b6000546001600160a01b031633036108d357565b606460405162461bcd60e51b815260206004820152602060248201527f4f776e61626c653a2063616c6c6572206973206e6f7420746865206f776e65726044820152fd5b908060209392818452848401376000828201840152601f01601f1916010190565b9160209161095191959495604085526040850191610917565b6001600160a01b03909416910152565b60ff60005460a01c1661097057565b60405162461bcd60e51b815260206004820152601060248201526f14185d5cd8589b194e881c185d5cd95960821b6044820152606490fd5b156109af57565b60405162461bcd60e51b815260206004820152600f60248201526e496e76616c6964206164647265737360881b6044820152606490fdfea2646970667358221220288d2a8a38bcc44744ffbffa3cfb1d59a46c98e3df0265ac2dd0b58df08903fb64736f6c63430008130033",
  "linkReferences": {},
  "deployedLinkReferences": {}
}